{
  "address": "0x587D67870CF6e733F2Ac101eD83675d6C01Ae127",
  "abi": [
    {
      "inputs": [
        {
          "internalType": "contract ICurveProvider",
          "name": "_addressProvider",
          "type": "address"
        },
        {
          "internalType": "uint256",
          "name": "_maxPools",
          "type": "uint256"
        },
        {
          "internalType": "uint256[]",
          "name": "_registryIds",
          "type": "uint256[]"
        },
        {
          "internalType": "enum CurveOracle.CurveRegistryType[]",
          "name": "_registryTypes",
          "type": "uint8[]"
        }
      ],
      "stateMutability": "nonpayable",
      "type": "constructor"
    },
    {
      "inputs": [],
      "name": "ConnectorShouldBeNone",
      "type": "error"
    },
    {
      "inputs": [],
      "name": "MathOverflowedMulDiv",
      "type": "error"
    },
    {
      "inputs": [],
      "name": "PoolNotFound",
      "type": "error"
    },
    {
      "inputs": [],
      "name": "PoolWithConnectorNotFound",
      "type": "error"
    },
    {
      "inputs": [],
      "name": "MAX_POOLS",
      "outputs": [
        {
          "internalType": "uint256",
          "name": "",
          "type": "uint256"
        }
      ],
      "stateMutability": "view",
      "type": "function"
    },
    {
      "inputs": [],
      "name": "REGISTRIES_COUNT",
      "outputs": [
        {
          "internalType": "uint256",
          "name": "",
          "type": "uint256"
        }
      ],
      "stateMutability": "view",
      "type": "function"
    },
    {
      "inputs": [
        {
          "internalType": "contract IERC20",
          "name": "srcToken",
          "type": "address"
        },
        {
          "internalType": "contract IERC20",
          "name": "dstToken",
          "type": "address"
        },
        {
          "internalType": "contract IERC20",
          "name": "connector",
          "type": "address"
        },
        {
          "internalType": "uint256",
          "name": "thresholdFilter",
          "type": "uint256"
        }
      ],
      "name": "getRate",
      "outputs": [
        {
          "internalType": "uint256",
          "name": "rate",
          "type": "uint256"
        },
        {
          "internalType": "uint256",
          "name": "weight",
          "type": "uint256"
        }
      ],
      "stateMutability": "view",
      "type": "function"
    },
    {
      "inputs": [
        {
          "internalType": "uint256",
          "name": "",
          "type": "uint256"
        }
      ],
      "name": "registries",
      "outputs": [
        {
          "internalType": "contract ICurveRegistry",
          "name": "",
          "type": "address"
        }
      ],
      "stateMutability": "view",
      "type": "function"
    },
    {
      "inputs": [
        {
          "internalType": "uint256",
          "name": "",
          "type": "uint256"
        }
      ],
      "name": "registryTypes",
      "outputs": [
        {
          "internalType": "enum CurveOracle.CurveRegistryType",
          "name": "",
          "type": "uint8"
        }
      ],
      "stateMutability": "view",
      "type": "function"
    }
  ],
  "transactionHash": "0xfe7227b5b9edf295aefa6ae76e4e78f0a262e60a7dcf1a77d10273aadadd537c",
  "args": [
    "0x0000000022d53366457f9d5e68ec105046fc4383",
    100,
    [
      0,
      3,
      5
    ],
    [
      0,
      7,
      2
    ]
  ],
  "numDeployments": 1,
  "solcInputHash": "ca45e2be7c6359ec53cc6b398cbf70f7",
  "bytecode": "0x60c06040818152346200022a57620015af8038038091620000218286620002af565b84398201906080838303126200022a5782516001600160a01b039283821692918390036200022a57602085810151838701516001600160401b039692939291908781116200022a5788019683601f890112156200022a57875198620000868a620002e7565b986200009588519a8b620002af565b8a8a52868a018760059c60051b830101918783116200022a5788809101915b8383106200029e575050505060608101519182116200022a57019280601f850112156200022a578351620000e881620002e7565b94620000f788519687620002af565b818652868087019260051b8201019283116200022a578601905b828210620002845750505060805285519560a09660a0525f5b87518110156200024057620001408183620002ff565b51865163124fd3dd60e21b8152600491828201526024878282818d5afa91821562000236575f92620001f3575b50600b9182851015620001e05784546001600160a01b031916908716178455620001988488620002ff565b5192600a841015620001cf5750509082916001938c1c0190815460f88460031b169160ff809116831b921b1916179055016200012a565b602190634e487b7160e01b5f52525ffd5b50634e487b7160e01b5f90815260328452fd5b9091508781813d83116200022e575b6200020e8183620002af565b810103126200022a575185811681036200022a57905f6200016d565b5f80fd5b503d62000202565b89513d5f823e3d90fd5b8551611286908162000329823960805181818161011a015281816102c1015281816102fe01528181610ca50152610dd2015260a0518181816101cf015261033f0152f35b8151600a8110156200022a57815290860190860162000111565b8251815291810191899101620000b4565b601f909101601f19168101906001600160401b03821190821017620002d357604052565b634e487b7160e01b5f52604160045260245ffd5b6001600160401b038111620002d35760051b60200190565b8051821015620003145760209160051b010190565b634e487b7160e01b5f52603260045260245ffdfe6080806040526004361015610012575f80fd5b5f3560e01c9081633d549b32146101f257508063474004491461019a5780636347c9001461013d57806381358498146100e55763b72529f214610053575f80fd5b346100e15760207ffffffffffffffffffffffffffffffffffffffffffffffffffffffffffffffffc3601126100e157600435600b8110156100e15761009960ff91610e20565b90549060031b1c16604051600a8210156100b4576020918152f35b7f4e487b71000000000000000000000000000000000000000000000000000000005f52602160045260245ffd5b5f80fd5b346100e1575f7ffffffffffffffffffffffffffffffffffffffffffffffffffffffffffffffffc3601126100e15760206040517f00000000000000000000000000000000000000000000000000000000000000008152f35b346100e15760207ffffffffffffffffffffffffffffffffffffffffffffffffffffffffffffffffc3601126100e157600435600b8110156100e15773ffffffffffffffffffffffffffffffffffffffff6020915416604051908152f35b346100e1575f7ffffffffffffffffffffffffffffffffffffffffffffffffffffffffffffffffc3601126100e15760206040517f00000000000000000000000000000000000000000000000000000000000000008152f35b346100e15760807ffffffffffffffffffffffffffffffffffffffffffffffffffffffffffffffffc3601126100e1576004359073ffffffffffffffffffffffffffffffffffffffff821682036100e1576024359073ffffffffffffffffffffffffffffffffffffffff821682036100e15760443573ffffffffffffffffffffffffffffffffffffffff81168091036100e15773ffffffffffffffffffffffffffffffffffffffff03610df857506060604080516102ae81610e38565b5f81525f602082015201526040519060807f000000000000000000000000000000000000000000000000000000000000000060061b8301016040525f82525f6020830152606082018060408401527f000000000000000000000000000000000000000000000000000000000000000090525f6040805161032d81610e38565b82815282602082015201525f915f925b7f0000000000000000000000000000000000000000000000000000000000000000841080610dcf575b15610cea575f91600b851015918261077a5773ffffffffffffffffffffffffffffffffffffffff865416936040517f6982eb0b00000000000000000000000000000000000000000000000000000000815273ffffffffffffffffffffffffffffffffffffffff8916600482015273ffffffffffffffffffffffffffffffffffffffff871660248201525f6044820152602081606481895afa90811561076f575f91610ccb575b50915b73ffffffffffffffffffffffffffffffffffffffff8316151580610ca2575b15610c8c5761043c90610eb1565b915f908561077a575f808b60405173ffffffffffffffffffffffffffffffffffffffff60208201927feb85226d000000000000000000000000000000000000000000000000000000008452818716602484015216604482015273ffffffffffffffffffffffffffffffffffffffff8c166064820152606481526104be81610e54565b51908a5afa916104cc610f0a565b9280610c80575b15610c71576104e18a610e20565b905490600a60ff838360031b1c1610156100b45760031b1c60ff166002148015610c4c575b8015610c27575b15610bec576040838051810103126100e157610537604061053060208601610f67565b9401610f67565b81610b6b5760405161054881610e38565b7f92e3cc2d0000000000000000000000000000000000000000000000000000000081527f5e0d443f0000000000000000000000000000000000000000000000000000000060208201527f556d6e9f000000000000000000000000000000000000000000000000000000006040820152925b8861077a575f807fffffffff000000000000000000000000000000000000000000000000000000008651166040516020810191825273ffffffffffffffffffffffffffffffffffffffff851660248201526024815261061781610e38565b51908d5afa92610625610f0a565b9380610b5f575b15610abc57908995949392916008901561094e575b8352600f946fffffffffffffffffffffffffffffffff908181169361068761068261066c8789610f75565b519483169461067b868a610f75565b5190610f89565b610fd3565b976127106106a2858261069a8a8c610f75565b510499610f75565b51048715159081610944575b506107a7575b50505050505050505061077a576106ca90610eb1565b6040517f6982eb0b00000000000000000000000000000000000000000000000000000000815273ffffffffffffffffffffffffffffffffffffffff89811660048301528716602482015260448101829052909690602081606481895afa90811561076f575f91610740575b50915b96909661040f565b610762915060203d602011610768575b61075a8183610e70565b810190610ede565b89610735565b503d610750565b6040513d5f823e3d90fd5b7f4e487b71000000000000000000000000000000000000000000000000000000005f52603260045260245ffd5b5f9283927fffffffff0000000000000000000000000000000000000000000000000000000060208b015116926040519260208401948552810b60248401520b6044820152876064820152606481526107fe81610e54565b5190855afa9261080c610f0a565b9584158015610939575b6108cb575b50505050806108bf575b610835575b8080808080806106b4565b909192506020828051810103126100e1576020610853920151611114565b60405180604081011067ffffffffffffffff604083011117610892578692610889926040830160405282526020820152856111e8565b5089808061082a565b7f4e487b71000000000000000000000000000000000000000000000000000000005f52604160045260245ffd5b50602082511015610825565b5f95965085945060407fffffffff0000000000000000000000000000000000000000000000000000000091015116916040519160208301938452602483015260448201528560648201526064815261092281610e54565b51915afa9061092f610f0a565b918d80808061081b565b506020875110610816565b905015155f6106ae565b95506109598d610e20565b96905496600a60ff898360031b1c1610156100b4578b978f9160031b1c60ff166001148015610a90575b8015610a64575b8015610a39575b8015610a0d575b156109a757505060045b610641565b60ff9197506109b590610e20565b90549060031b1c1695600a8710156100b4578d60068c98145f146109dc5750506003610641565b60ff9197506109ea90610e20565b90549060031b1c1695600a8710156100b45760038b97036109a257506002610641565b5060ff919750610a1c90610e20565b90549060031b1c1695600a8710156100b4578d60098c9814610998565b5060ff919750610a4890610e20565b90549060031b1c1695600a8710156100b4578d818c9814610991565b5060ff919750610a7390610e20565b90549060031b1c1695600a8710156100b4578d60078c981461098a565b5060ff919750610a9f90610e20565b90549060031b1c1695600a8710156100b4578d60058c9814610983565b5050505050509250610ace5f93610eb1565b6040517f6982eb0b00000000000000000000000000000000000000000000000000000000815273ffffffffffffffffffffffffffffffffffffffff89811660048301528716602482015260448101829052909690602081606481895afa90811561076f575f91610b40575b5091610738565b610b59915060203d6020116107685761075a8183610e70565b89610b39565b5060408451101561062c565b604051610b7781610e38565b7f59f4f3510000000000000000000000000000000000000000000000000000000081527f07211ef70000000000000000000000000000000000000000000000000000000060208201527f85f11d1e000000000000000000000000000000000000000000000000000000006040820152926105b9565b506060828051810103126100e157610c0660208301610f67565b916060610c1560408301610f67565b91015180151581036100e15790610537565b5060ff610c338b610e20565b90549060031b1c16600a8110156100b45760061461050d565b5060ff610c588b610e20565b90549060031b1c16600a8110156100b457600314610506565b5050509250610ace5f93610eb1565b506040835110156104d3565b9450505093610c9b9150610eb1565b929061033d565b507f0000000000000000000000000000000000000000000000000000000000000000811061042e565b610ce4915060203d6020116107685761075a8183610e70565b8961040c565b505f806020830151806040850151525f905b808210610d2a576040848480610d19575b82519182526020820152f35b9081610d2491610f9c565b90610d0d565b9091610d3a836040870151610f75565b519360208501948551606481029080820460641490151715610da257610d636064358951610f89565b11610d965791610d85610d8d92610d7f60019551895190610f89565b90611243565b955190611243565b925b0190610cfc565b50935091600190610d8f565b7f4e487b71000000000000000000000000000000000000000000000000000000005f52601160045260245ffd5b507f00000000000000000000000000000000000000000000000000000000000000008110610366565b807fccf7e6f70000000000000000000000000000000000000000000000000000000060049252fd5b90600b82101561077a57601f8260051c600b01921690565b6060810190811067ffffffffffffffff82111761089257604052565b60a0810190811067ffffffffffffffff82111761089257604052565b90601f7fffffffffffffffffffffffffffffffffffffffffffffffffffffffffffffffe0910116810190811067ffffffffffffffff82111761089257604052565b7fffffffffffffffffffffffffffffffffffffffffffffffffffffffffffffffff8114610da25760010190565b908160209103126100e1575173ffffffffffffffffffffffffffffffffffffffff811681036100e15790565b3d15610f62573d9067ffffffffffffffff82116108925760405191610f5760207fffffffffffffffffffffffffffffffffffffffffffffffffffffffffffffffe0601f8401160184610e70565b82523d5f602084013e565b606090565b519081600f0b82036100e157565b805182101561077a5760209160051b010190565b81810292918115918404141715610da257565b8115610fa6570490565b7f4e487b71000000000000000000000000000000000000000000000000000000005f52601260045260245ffd5b801561110f5761109d815f908360801c80611103575b508060401c806110f6575b508060201c806110e9575b508060101c806110dc575b508060081c806110cf575b508060041c806110c2575b508060021c806110b5575b50600191828092811c6110ae575b1c1b6110458185610f9c565b01811c6110528185610f9c565b01811c61105f8185610f9c565b01811c61106c8185610f9c565b01811c6110798185610f9c565b01811c6110868185610f9c565b01811c6110938185610f9c565b01901c8092610f9c565b808210156110a9575090565b905090565b0181611039565b600291509101905f61102b565b600491509101905f611020565b600891509101905f611015565b601091509101905f61100a565b602091509101905f610fff565b604091509101905f610ff4565b9150506080905f610fe9565b505f90565b670de0b6b3a764000091828202917fffffffffffffffffffffffffffffffffffffffffffffffffffffffffffffffff848209938380861095039480860395146111d857848311156111ae57829109815f038216809204600280826003021880830282030280830282030280830282030280830282030280830282030280920290030293600183805f03040190848311900302920304170290565b60046040517f227bc153000000000000000000000000000000000000000000000000000000008152fd5b5050906111e59250610f9c565b90565b90602081019081516111fb575050505f90565b61121c60408401519160208501928351916112168383610f75565b52610f75565b506112278151610eb1565b905251908051821161123b575b5050600190565b525f80611234565b91908201809211610da25756fea2646970667358221220f8ad8e013591e6290fbced5a0543480dbccf93b164bbcc20777d33bc04b28f5a64736f6c63430008170033",
  "devdoc": {
    "errors": {
      "MathOverflowedMulDiv()": [
        {
          "details": "Muldiv operation overflow."
        }
      ]
    },
    "kind": "dev",
    "methods": {},
    "version": 1
  },
  "userdoc": {
    "kind": "user",
    "methods": {},
    "version": 1
  },
  "storageLayout": {
    "storage": [
      {
        "astId": 8378,
        "contract": "contracts/oracles/CurveOracle.sol:CurveOracle",
        "label": "registries",
        "offset": 0,
        "slot": "0",
        "type": "t_array(t_contract(ICurveRegistry)7259)11_storage"
      },
      {
        "astId": 8383,
        "contract": "contracts/oracles/CurveOracle.sol:CurveOracle",
        "label": "registryTypes",
        "offset": 0,
        "slot": "11",
        "type": "t_array(t_enum(CurveRegistryType)8356)11_storage"
      }
    ],
    "types": {
      "t_array(t_contract(ICurveRegistry)7259)11_storage": {
        "base": "t_contract(ICurveRegistry)7259",
        "encoding": "inplace",
        "label": "contract ICurveRegistry[11]",
        "numberOfBytes": "352"
      },
      "t_array(t_enum(CurveRegistryType)8356)11_storage": {
        "base": "t_enum(CurveRegistryType)8356",
        "encoding": "inplace",
        "label": "enum CurveOracle.CurveRegistryType[11]",
        "numberOfBytes": "32"
      },
      "t_contract(ICurveRegistry)7259": {
        "encoding": "inplace",
        "label": "contract ICurveRegistry",
        "numberOfBytes": "20"
      },
      "t_enum(CurveRegistryType)8356": {
        "encoding": "inplace",
        "label": "enum CurveOracle.CurveRegistryType",
        "numberOfBytes": "1"
      }
    }
  }
}