{
  "address": "0xE2B06CDBB6128347B11DE676DA8b51e1e1f7F76E",
  "abi": [
    {
      "inputs": [
        {
          "internalType": "address",
          "name": "_owner",
          "type": "address"
        }
      ],
      "stateMutability": "nonpayable",
      "type": "constructor"
    },
    {
      "inputs": [],
      "name": "NotAddedMarket",
      "type": "error"
    },
    {
      "inputs": [],
      "name": "NotRemovedMarket",
      "type": "error"
    },
    {
      "inputs": [],
      "name": "NotSupportedToken",
      "type": "error"
    },
    {
      "inputs": [
        {
          "internalType": "address",
          "name": "owner",
          "type": "address"
        }
      ],
      "name": "OwnableInvalidOwner",
      "type": "error"
    },
    {
      "inputs": [
        {
          "internalType": "address",
          "name": "account",
          "type": "address"
        }
      ],
      "name": "OwnableUnauthorizedAccount",
      "type": "error"
    },
    {
      "anonymous": false,
      "inputs": [
        {
          "indexed": true,
          "internalType": "address",
          "name": "previousOwner",
          "type": "address"
        },
        {
          "indexed": true,
          "internalType": "address",
          "name": "newOwner",
          "type": "address"
        }
      ],
      "name": "OwnershipTransferred",
      "type": "event"
    },
    {
      "inputs": [
        {
          "internalType": "address[]",
          "name": "tokens",
          "type": "address[]"
        }
      ],
      "name": "addMarkets",
      "outputs": [],
      "stateMutability": "nonpayable",
      "type": "function"
    },
    {
      "inputs": [
        {
          "internalType": "contract IERC20",
          "name": "",
          "type": "address"
        }
      ],
      "name": "baseToWbase",
      "outputs": [
        {
          "internalType": "contract IERC20",
          "name": "",
          "type": "address"
        }
      ],
      "stateMutability": "view",
      "type": "function"
    },
    {
      "inputs": [],
      "name": "owner",
      "outputs": [
        {
          "internalType": "address",
          "name": "",
          "type": "address"
        }
      ],
      "stateMutability": "view",
      "type": "function"
    },
    {
      "inputs": [
        {
          "internalType": "address[]",
          "name": "tokens",
          "type": "address[]"
        }
      ],
      "name": "removeMarkets",
      "outputs": [],
      "stateMutability": "nonpayable",
      "type": "function"
    },
    {
      "inputs": [],
      "name": "renounceOwnership",
      "outputs": [],
      "stateMutability": "nonpayable",
      "type": "function"
    },
    {
      "inputs": [
        {
          "internalType": "address",
          "name": "newOwner",
          "type": "address"
        }
      ],
      "name": "transferOwnership",
      "outputs": [],
      "stateMutability": "nonpayable",
      "type": "function"
    },
    {
      "inputs": [
        {
          "internalType": "contract IERC20",
          "name": "",
          "type": "address"
        }
      ],
      "name": "wbaseToBase",
      "outputs": [
        {
          "internalType": "contract IERC20",
          "name": "",
          "type": "address"
        }
      ],
      "stateMutability": "view",
      "type": "function"
    },
    {
      "inputs": [
        {
          "internalType": "contract IERC20",
          "name": "token",
          "type": "address"
        }
      ],
      "name": "wrap",
      "outputs": [
        {
          "internalType": "contract IERC20",
          "name": "wrappedToken",
          "type": "address"
        },
        {
          "internalType": "uint256",
          "name": "rate",
          "type": "uint256"
        }
      ],
      "stateMutability": "view",
      "type": "function"
    }
  ],
  "transactionHash": "0x02444197a17d72ada230d6ae6f8459d70940d10acea74b9a1bfc836ae12a476e",
  "args": [
    "0x56E44874F624EbDE6efCc783eFD685f0FBDC6dcF"
  ],
  "numDeployments": 1,
  "bytecode": "0x6080346100b957601f6109f138819003918201601f19168301916001600160401b038311848410176100bd578084926020946040528339810103126100b957516001600160a01b0390818116908190036100b95780156100a1575f80546001600160a01b03198116831782556040519316907f8be0079c531659141344cd1fd0a4f28419497f9722a3daafe3b4186f6b6457e09080a361091f90816100d28239f35b604051631e4fbdf760e01b81525f6004820152602490fd5b5f80fd5b634e487b7160e01b5f52604160045260245ffdfe60406080815260049081361015610014575f80fd5b5f3560e01c8063023276f0146105495780631471c922146104e257806343654a301461047b578063715018a6146103e15780638da5cb5b14610390578063bfef7bdf14610281578063da40385d146101595763f2fde38b14610074575f80fd5b346101555760207ffffffffffffffffffffffffffffffffffffffffffffffffffffffffffffffffc3601126101555781359173ffffffffffffffffffffffffffffffffffffffff91828416809403610155576100ce610899565b83156101265750505f54827fffffffffffffffffffffffff00000000000000000000000000000000000000008216175f55167f8be0079c531659141344cd1fd0a4f28419497f9722a3daafe3b4186f6b6457e05f80a3005b905f60249251917f1e4fbdf7000000000000000000000000000000000000000000000000000000008352820152fd5b5f80fd5b50346101555761016836610620565b610170610899565b5f5b815181101561027f5773ffffffffffffffffffffffffffffffffffffffff8061019b838561082c565b5116845180917f38d52e0f000000000000000000000000000000000000000000000000000000008252818860209485935afa908115610275578360019594939286925f91610248575b501691836101f2868961082c565b51165f5260028152875f20937fffffffffffffffffffffffff0000000000000000000000000000000000000000948486825416179055610232868961082c565b5116925f5252855f209182541617905501610172565b6102689150843d861161026e575b61026081836105b2565b81019061086d565b5f6101e4565b503d610256565b86513d5f823e3d90fd5b005b5034610155579061029136610620565b9161029a610899565b5f925b805184101561027f5773ffffffffffffffffffffffffffffffffffffffff93846102c7828461082c565b511694835180967f38d52e0f000000000000000000000000000000000000000000000000000000008252818760209384935afa908115610386576001949596975f92610367575b508285929361031d868961082c565b51165f5260028252875f20937fffffffffffffffffffffffff000000000000000000000000000000000000000094858154169055165f5252845f209081541690550192919061029d565b85925061038090823d841161026e5761026081836105b2565b9161030e565b85513d5f823e3d90fd5b5034610155575f7ffffffffffffffffffffffffffffffffffffffffffffffffffffffffffffffffc3601126101555760209073ffffffffffffffffffffffffffffffffffffffff5f54169051908152f35b34610155575f7ffffffffffffffffffffffffffffffffffffffffffffffffffffffffffffffffc36011261015557610417610899565b5f73ffffffffffffffffffffffffffffffffffffffff81547fffffffffffffffffffffffff000000000000000000000000000000000000000081168355167f8be0079c531659141344cd1fd0a4f28419497f9722a3daafe3b4186f6b6457e08280a3005b5090346101555760207ffffffffffffffffffffffffffffffffffffffffffffffffffffffffffffffffc36011261015557359073ffffffffffffffffffffffffffffffffffffffff808316809303610155576020925f5260028352815f2054169051908152f35b5090346101555760207ffffffffffffffffffffffffffffffffffffffffffffffffffffffffffffffffc36011261015557359073ffffffffffffffffffffffffffffffffffffffff808316809303610155576020925f5260018352815f2054169051908152f35b5090346101555760207ffffffffffffffffffffffffffffffffffffffffffffffffffffffffffffffffc360112610155573573ffffffffffffffffffffffffffffffffffffffff908181168103610155576105a3906106de565b90918351921682526020820152f35b90601f7fffffffffffffffffffffffffffffffffffffffffffffffffffffffffffffffe0910116810190811067ffffffffffffffff8211176105f357604052565b7f4e487b71000000000000000000000000000000000000000000000000000000005f52604160045260245ffd5b6020807ffffffffffffffffffffffffffffffffffffffffffffffffffffffffffffffffc8301126101555767ffffffffffffffff9160043583811161015557816023820112156101555780600401359384116105f3578360051b906040519461068c60208401876105b2565b85526024602086019282010192831161015557602401905b8282106106b2575050505090565b813573ffffffffffffffffffffffffffffffffffffffff811681036101555781529083019083016106a4565b9073ffffffffffffffffffffffffffffffffffffffff80921691825f5260206002815260409382855f2054169260018352855f2054168315155f146107aa575090806024928651938480927f07a2d13a000000000000000000000000000000000000000000000000000000008252670de0b6b3a764000060048301525afa9485156107a157505f94610771575b50509190565b9080929450813d831161079a575b61078981836105b2565b810103126101555751915f8061076b565b503d61077f565b513d5f823e3d90fd5b9250508115610803578351907fc6e6f592000000000000000000000000000000000000000000000000000000008252670de0b6b3a764000060048301528082602481865afa9485156107a157505f946107715750509190565b600484517fc8a08d6f000000000000000000000000000000000000000000000000000000008152fd5b80518210156108405760209160051b010190565b7f4e487b71000000000000000000000000000000000000000000000000000000005f52603260045260245ffd5b90816020910312610155575173ffffffffffffffffffffffffffffffffffffffff811681036101555790565b73ffffffffffffffffffffffffffffffffffffffff5f541633036108b957565b60246040517f118cdaa7000000000000000000000000000000000000000000000000000000008152336004820152fdfea26469706673582212201e66a8a4db73c06e4e45f1d6b8cfd4d840410b4175cad5216f456b4165b1239d64736f6c63430008170033"
}