{
  "address": "0x00000000000D6FFc74A8feb35aF5827bf57f6786",
  "abi": [
    {
      "inputs": [
        {
          "internalType": "contract MultiWrapper",
          "name": "_multiWrapper",
          "type": "address"
        },
        {
          "internalType": "contract IOracle[]",
          "name": "existingOracles",
          "type": "address[]"
        },
        {
          "internalType": "enum OffchainOracle.OracleType[]",
          "name": "oracleTypes",
          "type": "uint8[]"
        },
        {
          "internalType": "contract IERC20[]",
          "name": "existingConnectors",
          "type": "address[]"
        },
        {
          "internalType": "contract IERC20",
          "name": "wBase",
          "type": "address"
        },
        {
          "internalType": "address",
          "name": "owner_",
          "type": "address"
        }
      ],
      "stateMutability": "nonpayable",
      "type": "constructor"
    },
    {
      "inputs": [],
      "name": "ArraysLengthMismatch",
      "type": "error"
    },
    {
      "inputs": [],
      "name": "ConnectorAlreadyAdded",
      "type": "error"
    },
    {
      "inputs": [],
      "name": "InvalidOracleTokenKind",
      "type": "error"
    },
    {
      "inputs": [],
      "name": "MathOverflowedMulDiv",
      "type": "error"
    },
    {
      "inputs": [],
      "name": "OracleAlreadyAdded",
      "type": "error"
    },
    {
      "inputs": [
        {
          "internalType": "address",
          "name": "owner",
          "type": "address"
        }
      ],
      "name": "OwnableInvalidOwner",
      "type": "error"
    },
    {
      "inputs": [
        {
          "internalType": "address",
          "name": "account",
          "type": "address"
        }
      ],
      "name": "OwnableUnauthorizedAccount",
      "type": "error"
    },
    {
      "inputs": [],
      "name": "SameTokens",
      "type": "error"
    },
    {
      "inputs": [],
      "name": "TooBigThreshold",
      "type": "error"
    },
    {
      "inputs": [],
      "name": "UnknownConnector",
      "type": "error"
    },
    {
      "inputs": [],
      "name": "UnknownOracle",
      "type": "error"
    },
    {
      "anonymous": false,
      "inputs": [
        {
          "indexed": false,
          "internalType": "contract IERC20",
          "name": "connector",
          "type": "address"
        }
      ],
      "name": "ConnectorAdded",
      "type": "event"
    },
    {
      "anonymous": false,
      "inputs": [
        {
          "indexed": false,
          "internalType": "contract IERC20",
          "name": "connector",
          "type": "address"
        }
      ],
      "name": "ConnectorRemoved",
      "type": "event"
    },
    {
      "anonymous": false,
      "inputs": [
        {
          "indexed": false,
          "internalType": "contract MultiWrapper",
          "name": "multiWrapper",
          "type": "address"
        }
      ],
      "name": "MultiWrapperUpdated",
      "type": "event"
    },
    {
      "anonymous": false,
      "inputs": [
        {
          "indexed": false,
          "internalType": "contract IOracle",
          "name": "oracle",
          "type": "address"
        },
        {
          "indexed": false,
          "internalType": "enum OffchainOracle.OracleType",
          "name": "oracleType",
          "type": "uint8"
        }
      ],
      "name": "OracleAdded",
      "type": "event"
    },
    {
      "anonymous": false,
      "inputs": [
        {
          "indexed": false,
          "internalType": "contract IOracle",
          "name": "oracle",
          "type": "address"
        },
        {
          "indexed": false,
          "internalType": "enum OffchainOracle.OracleType",
          "name": "oracleType",
          "type": "uint8"
        }
      ],
      "name": "OracleRemoved",
      "type": "event"
    },
    {
      "anonymous": false,
      "inputs": [
        {
          "indexed": true,
          "internalType": "address",
          "name": "previousOwner",
          "type": "address"
        },
        {
          "indexed": true,
          "internalType": "address",
          "name": "newOwner",
          "type": "address"
        }
      ],
      "name": "OwnershipTransferred",
      "type": "event"
    },
    {
      "inputs": [
        {
          "internalType": "contract IERC20",
          "name": "connector",
          "type": "address"
        }
      ],
      "name": "addConnector",
      "outputs": [],
      "stateMutability": "nonpayable",
      "type": "function"
    },
    {
      "inputs": [
        {
          "internalType": "contract IOracle",
          "name": "oracle",
          "type": "address"
        },
        {
          "internalType": "enum OffchainOracle.OracleType",
          "name": "oracleKind",
          "type": "uint8"
        }
      ],
      "name": "addOracle",
      "outputs": [],
      "stateMutability": "nonpayable",
      "type": "function"
    },
    {
      "inputs": [],
      "name": "connectors",
      "outputs": [
        {
          "internalType": "contract IERC20[]",
          "name": "allConnectors",
          "type": "address[]"
        }
      ],
      "stateMutability": "view",
      "type": "function"
    },
    {
      "inputs": [
        {
          "internalType": "contract IERC20",
          "name": "srcToken",
          "type": "address"
        },
        {
          "internalType": "contract IERC20",
          "name": "dstToken",
          "type": "address"
        },
        {
          "internalType": "bool",
          "name": "useWrappers",
          "type": "bool"
        }
      ],
      "name": "getRate",
      "outputs": [
        {
          "internalType": "uint256",
          "name": "weightedRate",
          "type": "uint256"
        }
      ],
      "stateMutability": "view",
      "type": "function"
    },
    {
      "inputs": [
        {
          "internalType": "contract IERC20",
          "name": "srcToken",
          "type": "address"
        },
        {
          "internalType": "bool",
          "name": "useSrcWrappers",
          "type": "bool"
        }
      ],
      "name": "getRateToEth",
      "outputs": [
        {
          "internalType": "uint256",
          "name": "weightedRate",
          "type": "uint256"
        }
      ],
      "stateMutability": "view",
      "type": "function"
    },
    {
      "inputs": [
        {
          "internalType": "contract IERC20",
          "name": "srcToken",
          "type": "address"
        },
        {
          "internalType": "bool",
          "name": "useSrcWrappers",
          "type": "bool"
        },
        {
          "internalType": "contract IERC20[]",
          "name": "customConnectors",
          "type": "address[]"
        },
        {
          "internalType": "uint256",
          "name": "thresholdFilter",
          "type": "uint256"
        }
      ],
      "name": "getRateToEthWithCustomConnectors",
      "outputs": [
        {
          "internalType": "uint256",
          "name": "weightedRate",
          "type": "uint256"
        }
      ],
      "stateMutability": "view",
      "type": "function"
    },
    {
      "inputs": [
        {
          "internalType": "contract IERC20",
          "name": "srcToken",
          "type": "address"
        },
        {
          "internalType": "bool",
          "name": "useSrcWrappers",
          "type": "bool"
        },
        {
          "internalType": "uint256",
          "name": "thresholdFilter",
          "type": "uint256"
        }
      ],
      "name": "getRateToEthWithThreshold",
      "outputs": [
        {
          "internalType": "uint256",
          "name": "weightedRate",
          "type": "uint256"
        }
      ],
      "stateMutability": "view",
      "type": "function"
    },
    {
      "inputs": [
        {
          "internalType": "contract IERC20",
          "name": "srcToken",
          "type": "address"
        },
        {
          "internalType": "contract IERC20",
          "name": "dstToken",
          "type": "address"
        },
        {
          "internalType": "bool",
          "name": "useWrappers",
          "type": "bool"
        },
        {
          "internalType": "contract IERC20[]",
          "name": "customConnectors",
          "type": "address[]"
        },
        {
          "internalType": "uint256",
          "name": "thresholdFilter",
          "type": "uint256"
        }
      ],
      "name": "getRateWithCustomConnectors",
      "outputs": [
        {
          "internalType": "uint256",
          "name": "weightedRate",
          "type": "uint256"
        }
      ],
      "stateMutability": "view",
      "type": "function"
    },
    {
      "inputs": [
        {
          "internalType": "contract IERC20",
          "name": "srcToken",
          "type": "address"
        },
        {
          "internalType": "contract IERC20",
          "name": "dstToken",
          "type": "address"
        },
        {
          "internalType": "bool",
          "name": "useWrappers",
          "type": "bool"
        },
        {
          "internalType": "uint256",
          "name": "thresholdFilter",
          "type": "uint256"
        }
      ],
      "name": "getRateWithThreshold",
      "outputs": [
        {
          "internalType": "uint256",
          "name": "weightedRate",
          "type": "uint256"
        }
      ],
      "stateMutability": "view",
      "type": "function"
    },
    {
      "inputs": [
        {
          "internalType": "contract IERC20",
          "name": "srcToken",
          "type": "address"
        },
        {
          "internalType": "bool",
          "name": "useSrcWrappers",
          "type": "bool"
        },
        {
          "internalType": "contract IERC20[]",
          "name": "customConnectors",
          "type": "address[]"
        },
        {
          "internalType": "uint256",
          "name": "thresholdFilter",
          "type": "uint256"
        }
      ],
      "name": "getRatesAndWeightsToEthWithCustomConnectors",
      "outputs": [
        {
          "internalType": "uint256",
          "name": "wrappedPrice",
          "type": "uint256"
        },
        {
          "components": [
            {
              "internalType": "uint256",
              "name": "maxOracleWeight",
              "type": "uint256"
            },
            {
              "internalType": "uint256",
              "name": "size",
              "type": "uint256"
            },
            {
              "components": [
                {
                  "internalType": "uint256",
                  "name": "rate",
                  "type": "uint256"
                },
                {
                  "internalType": "uint256",
                  "name": "weight",
                  "type": "uint256"
                }
              ],
              "internalType": "struct OraclePrices.OraclePrice[]",
              "name": "oraclePrices",
              "type": "tuple[]"
            }
          ],
          "internalType": "struct OraclePrices.Data",
          "name": "ratesAndWeights",
          "type": "tuple"
        }
      ],
      "stateMutability": "view",
      "type": "function"
    },
    {
      "inputs": [
        {
          "internalType": "contract IERC20",
          "name": "srcToken",
          "type": "address"
        },
        {
          "internalType": "contract IERC20",
          "name": "dstToken",
          "type": "address"
        },
        {
          "internalType": "bool",
          "name": "useWrappers",
          "type": "bool"
        },
        {
          "internalType": "contract IERC20[]",
          "name": "customConnectors",
          "type": "address[]"
        },
        {
          "internalType": "uint256",
          "name": "thresholdFilter",
          "type": "uint256"
        }
      ],
      "name": "getRatesAndWeightsWithCustomConnectors",
      "outputs": [
        {
          "internalType": "uint256",
          "name": "wrappedPrice",
          "type": "uint256"
        },
        {
          "components": [
            {
              "internalType": "uint256",
              "name": "maxOracleWeight",
              "type": "uint256"
            },
            {
              "internalType": "uint256",
              "name": "size",
              "type": "uint256"
            },
            {
              "components": [
                {
                  "internalType": "uint256",
                  "name": "rate",
                  "type": "uint256"
                },
                {
                  "internalType": "uint256",
                  "name": "weight",
                  "type": "uint256"
                }
              ],
              "internalType": "struct OraclePrices.OraclePrice[]",
              "name": "oraclePrices",
              "type": "tuple[]"
            }
          ],
          "internalType": "struct OraclePrices.Data",
          "name": "ratesAndWeights",
          "type": "tuple"
        }
      ],
      "stateMutability": "view",
      "type": "function"
    },
    {
      "inputs": [],
      "name": "multiWrapper",
      "outputs": [
        {
          "internalType": "contract MultiWrapper",
          "name": "",
          "type": "address"
        }
      ],
      "stateMutability": "view",
      "type": "function"
    },
    {
      "inputs": [],
      "name": "oracles",
      "outputs": [
        {
          "internalType": "contract IOracle[]",
          "name": "allOracles",
          "type": "address[]"
        },
        {
          "internalType": "enum OffchainOracle.OracleType[]",
          "name": "oracleTypes",
          "type": "uint8[]"
        }
      ],
      "stateMutability": "view",
      "type": "function"
    },
    {
      "inputs": [],
      "name": "owner",
      "outputs": [
        {
          "internalType": "address",
          "name": "",
          "type": "address"
        }
      ],
      "stateMutability": "view",
      "type": "function"
    },
    {
      "inputs": [
        {
          "internalType": "contract IERC20",
          "name": "connector",
          "type": "address"
        }
      ],
      "name": "removeConnector",
      "outputs": [],
      "stateMutability": "nonpayable",
      "type": "function"
    },
    {
      "inputs": [
        {
          "internalType": "contract IOracle",
          "name": "oracle",
          "type": "address"
        },
        {
          "internalType": "enum OffchainOracle.OracleType",
          "name": "oracleKind",
          "type": "uint8"
        }
      ],
      "name": "removeOracle",
      "outputs": [],
      "stateMutability": "nonpayable",
      "type": "function"
    },
    {
      "inputs": [],
      "name": "renounceOwnership",
      "outputs": [],
      "stateMutability": "nonpayable",
      "type": "function"
    },
    {
      "inputs": [
        {
          "internalType": "contract MultiWrapper",
          "name": "_multiWrapper",
          "type": "address"
        }
      ],
      "name": "setMultiWrapper",
      "outputs": [],
      "stateMutability": "nonpayable",
      "type": "function"
    },
    {
      "inputs": [
        {
          "internalType": "address",
          "name": "newOwner",
          "type": "address"
        }
      ],
      "name": "transferOwnership",
      "outputs": [],
      "stateMutability": "nonpayable",
      "type": "function"
    }
  ],
  "transactionHash": "0xbafc837b5a481c1fa650a906e464bd2c3665efc42d68d26c532eb789785e4fae",
  "args": [
    "0x54431918cEC22932fCF97E54769F4E00f646690F",
    [
      "0xeec05e0D8F7D3f56CECE2026Feaf41b09B423790",
      "0x11BFd590f592457b65Eb85327F5938141f61878a",
      "0xeD55d76Bb48E042a177d1E21AffBe1B72d0c7dB0",
      "0x2A45d538f460DDBEeA3a899b0674dA3DFE318faa",
      "0x4e5Cee3B8Af0CB46EFAA94Cba5E0f25f8770BB19",
      "0x4C5B9573dE7660c097F1a21050038378CD691066",
      "0x07B040d681AB25713eC722789e00520d3692CA39",
      "0x008D10214049593C6e63564946FFb64A6F706732"
    ],
    [
      "0",
      "0",
      "0",
      "0",
      "0",
      "0",
      "0",
      "0"
    ],
    [
      "0x0000000000000000000000000000000000000000",
      "0xFFfFfFffFFfffFFfFFfFFFFFffFFFffffFfFFFfF",
      "0x0d500B1d8E8eF31E21C99d1Db9A6444d3ADf1270",
      "0x2791Bca1f2de4661ED88A30C99A7a9449Aa84174",
      "0x7ceB23fD6bC0adD59E62ac25578270cFf1b9f619",
      "0xc2132D05D31c914a87C6611C10748AEb04B58e8F",
      "0x3c499c542cEF5E3811e1192ce70d8cC03d5c3359"
    ],
    "0x0d500B1d8E8eF31E21C99d1Db9A6444d3ADf1270",
    "0x56E44874F624EbDE6efCc783eFD685f0FBDC6dcF"
  ],
  "numDeployments": 6,
  "bytecode": "0x604060a08152346200044757620035f7803803806200001e816200049a565b92833981019060c081830312620004475780516001600160a01b038082169490929091859003620004475760208181015190936001600160401b03929091838111620004475781019686601f8901121562000447578751976200008b620000858a620004d4565b6200049a565b9887808b838152019160051b8301019189831162000447578801905b828210620004805750505084820151848111620004475782019387601f860112156200044757845194620000df6200008587620004d4565b95888088838152019160051b830101918a831162000447578901905b82821062000466575050506060830151908111620004475782019680601f8901121562000447578751620001336200008582620004d4565b9888808b848152019260051b820101928311620004475788809101915b8383106200044b575050505060a06200016c60808401620004ec565b9201518381168091036200044757801562000430575f5460018060a01b03199180838316175f5585885192167f8be0079c531659141344cd1fd0a4f28419497f9722a3daafe3b4186f6b6457e05f80a38951865103620004215750817f1030152fe2062b574a830e6b9f13c65995990df31e4dc708d142533bb3ad0f5292889260075416176007558651908152a15f5b87518110156200037c576200021c62000216828662000501565b6200052a565b9060039182811015620002ad57620002d25762000247846200023f838c62000501565b511662000538565b15620002c1575b836200025b828b62000501565b51166200026d62000216838862000501565b928751918252831015620002ad5786816001948a7f5874b2072ff37562df54063dd700c59d45f311bdf6f9cabb5a15f0ffb2e9f622940152a101620001fc565b634e487b7160e01b5f52602160045260245ffd5b8551633295224f60e11b8152600490fd5b620002e262000216828762000501565b82811015620002ad5760010362000322576200030c8462000304838c62000501565b511662000594565b6200024e578551633295224f60e11b8152600490fd5b6200033262000216828762000501565b82811015620002ad576002036200036b5762000354846200023f838c62000501565b15620002c1576200030c8462000304838c62000501565b85516398420d9360e01b8152600490fd5b50848492875f5b8151811015620003fe57620003a6836200039e838562000501565b51166200060a565b15620003ed57807fff88af5d962d47fd25d87755e8267a029fad5a91740c67d0dade2bdbe5268a1d8585620003de6001958762000501565b51168951908152a10162000383565b8551630a606b6760e41b8152600490fd5b858560805251612f76908162000681823960805181818161113501526114ea0152f35b6307e11acb60e51b8152600490fd5b8551631e4fbdf760e01b81525f6004820152602490fd5b5f80fd5b81906200045884620004ec565b815201910190889062000150565b8151600381101562000447578152908901908901620000fb565b8151868116810362000447578152908801908801620000a7565b6040519190601f01601f191682016001600160401b03811183821017620004c057604052565b634e487b7160e01b5f52604160045260245ffd5b6001600160401b038111620004c05760051b60200190565b51906001600160a01b03821682036200044757565b8051821015620005165760209160051b010190565b634e487b7160e01b5f52603260045260245ffd5b516003811015620002ad5790565b805f52600260205260405f2054155f146200058f57600190815468010000000000000000811015620004c05782810180845581101562000516578190835f5260205f2001558154905f52600260205260405f205590565b505f90565b805f52600460205260405f2054155f146200058f5760035468010000000000000000811015620004c057600181018060035581101562000516577fc2575a0e9e593c00f959f8c92f12db2869c3395a3b0502d05e2516446f71f85b018190556003545f9182526004602052604090912055600190565b805f52600660205260405f2054155f146200058f5760055468010000000000000000811015620004c057600181018060055581101562000516577f036b6384b5eca791c62761152d0c79bb0604c104a5fb6f4eb0703f3154bb3db0018190556005545f918252600660205260409091205560019056fe60406080815260049081361015610014575f80fd5b5f3560e01c80630550679014610c285780631a6c6a9814610b705780632857373a14610a9b57806365050a68146109705780636744d6c71461090a5780636f9293b9146108ec578063715018a61461085257806378159aae146107f45780637de4fd101461079b578063802431fb146107385780638da5cb5b146106e75780639d4d7b1c14610590578063aa16d4c0146104d8578063ade8b048146104b3578063b77910dc14610461578063cc04e00114610431578063d062651814610382578063f0b92e40146101d25763f2fde38b146100ed575f80fd5b346101ce5760207ffffffffffffffffffffffffffffffffffffffffffffffffffffffffffffffffc3601126101ce5781359173ffffffffffffffffffffffffffffffffffffffff918284168094036101ce576101476125dc565b831561019f5750505f54827fffffffffffffffffffffffff00000000000000000000000000000000000000008216175f55167f8be0079c531659141344cd1fd0a4f28419497f9722a3daafe3b4186f6b6457e05f80a3005b905f60249251917f1e4fbdf7000000000000000000000000000000000000000000000000000000008352820152fd5b5f80fd5b5090346101ce576101e236610fd0565b916101eb6125dc565b6003831015610356578261027a5761021873ffffffffffffffffffffffffffffffffffffffff8316612a90565b15610253575061024e7f7a7f56716fe703fb190529c336e57df71ab88188ba47e8d786bac684b61ab9a6935b5192839283611bae565b0390a1005b83517f9444a6da000000000000000000000000000000000000000000000000000000008152fd5b600183036102d1576102a173ffffffffffffffffffffffffffffffffffffffff8316612b54565b15610253575061024e7f7a7f56716fe703fb190529c336e57df71ab88188ba47e8d786bac684b61ab9a693610244565b6002830361032f5773ffffffffffffffffffffffffffffffffffffffff82166102f981612a90565b15610307576102a190612b54565b5083517f9444a6da000000000000000000000000000000000000000000000000000000008152fd5b83517f98420d93000000000000000000000000000000000000000000000000000000008152fd5b6021907f4e487b71000000000000000000000000000000000000000000000000000000005f525260245ffd5b5090346101ce5760207ffffffffffffffffffffffffffffffffffffffffffffffffffffffffffffffffc3601126101ce57359073ffffffffffffffffffffffffffffffffffffffff82168092036101ce577f1030152fe2062b574a830e6b9f13c65995990df31e4dc708d142533bb3ad0f52916020916104006125dc565b817fffffffffffffffffffffffff0000000000000000000000000000000000000000600754161760075551908152a1005b50346101ce5761045d9061045061044736610f42565b93929092611ebe565b9290915192839283610e9c565b0390f35b50346101ce575f7ffffffffffffffffffffffffffffffffffffffffffffffffffffffffffffffffc3601126101ce5760209073ffffffffffffffffffffffffffffffffffffffff600754169051908152f35b50346101ce576020906104d16104c836610e1e565b92919091611be8565b9051908152f35b50346101ce5760207ffffffffffffffffffffffffffffffffffffffffffffffffffffffffffffffffc3601126101ce5773ffffffffffffffffffffffffffffffffffffffff610525610c47565b61052d6125dc565b169161053883612d91565b15610569577fff88af5d962d47fd25d87755e8267a029fad5a91740c67d0dade2bdbe5268a1d6020848451908152a1005b90517fa606b670000000000000000000000000000000000000000000000000000000008152fd5b5090346101ce576105a036610fd0565b916105a96125dc565b60038310156103565782610632576105d673ffffffffffffffffffffffffffffffffffffffff8316612ce6565b1561060b575061024e7f5874b2072ff37562df54063dd700c59d45f311bdf6f9cabb5a15f0ffb2e9f622935192839283611bae565b83517f652a449e000000000000000000000000000000000000000000000000000000008152fd5b600183036106895761065973ffffffffffffffffffffffffffffffffffffffff8316612d3e565b1561060b575061024e7f5874b2072ff37562df54063dd700c59d45f311bdf6f9cabb5a15f0ffb2e9f62293610244565b6002830361032f5773ffffffffffffffffffffffffffffffffffffffff82166106b181612ce6565b156106bf5761065990612d3e565b5083517f652a449e000000000000000000000000000000000000000000000000000000008152fd5b50346101ce575f7ffffffffffffffffffffffffffffffffffffffffffffffffffffffffffffffffc3601126101ce5760209073ffffffffffffffffffffffffffffffffffffffff5f54169051908152f35b50346101ce5760607ffffffffffffffffffffffffffffffffffffffffffffffffffffffffffffffffc3601126101ce576020906104d1610776610c47565b61077e610c6a565b610786610c8d565b9084519261079384610d2c565b5f8452611b6c565b50346101ce57807ffffffffffffffffffffffffffffffffffffffffffffffffffffffffffffffffc3601126101ce576020906104d16107d8610c47565b6107e0610c9c565b8351916107ec83610d2c565b5f8352611bdd565b50346101ce5760607ffffffffffffffffffffffffffffffffffffffffffffffffffffffffffffffffc3601126101ce576020906104d1610832610c47565b61083a610c9c565b83519061084682610d2c565b5f825260443592611be8565b346101ce575f7ffffffffffffffffffffffffffffffffffffffffffffffffffffffffffffffffc3601126101ce576108886125dc565b5f73ffffffffffffffffffffffffffffffffffffffff81547fffffffffffffffffffffffff000000000000000000000000000000000000000081168355167f8be0079c531659141344cd1fd0a4f28419497f9722a3daafe3b4186f6b6457e08280a3005b50346101ce576020906104d161090136610f42565b93929092611b8b565b50346101ce5760807ffffffffffffffffffffffffffffffffffffffffffffffffffffffffffffffffc3601126101ce576020906104d1610948610c47565b610950610c6a565b610958610c8d565b84519161096483610d2c565b5f835260643593611b8b565b50346101ce575f7ffffffffffffffffffffffffffffffffffffffffffffffffffffffffffffffffc3601126101ce5760058054906109ad82611894565b915f5b8351811015610a3e5781811015610a1257600190835f5273ffffffffffffffffffffffffffffffffffffffff817f036b6384b5eca791c62761152d0c79bb0604c104a5fb6f4eb0703f3154bb3db0015416610a0b82876110e1565b52016109b0565b6032867f4e487b71000000000000000000000000000000000000000000000000000000005f525260245ffd5b505050908051918291602090602080850191818652845180935285019301915f5b828110610a6e57505050500390f35b835173ffffffffffffffffffffffffffffffffffffffff1685528695509381019392810192600101610a5f565b50346101ce575f7ffffffffffffffffffffffffffffffffffffffffffffffffffffffffffffffffc3601126101ce57610ad261198e565b8251838152825193810184905292839260209160608501918301905f5b818110610b4357505050838103828501528180845192838152019301915f5b828110610b1d57505050500390f35b9193839550908082610b33600194839751610f08565b0195019101918594939192610b0e565b825173ffffffffffffffffffffffffffffffffffffffff1684528796509284019291840191600101610aef565b50346101ce5760207ffffffffffffffffffffffffffffffffffffffffffffffffffffffffffffffffc3601126101ce5773ffffffffffffffffffffffffffffffffffffffff610bbd610c47565b610bc56125dc565b1691610bd08361296a565b15610c01577f6825b26a0827e9c2ceca01d6289ce4a40e629dc074ec48ea4727d1afbff359f56020848451908152a1005b90517f30bd159a000000000000000000000000000000000000000000000000000000008152fd5b50346101ce5761045d90610450610c3e36610e1e565b9291909161149f565b6004359073ffffffffffffffffffffffffffffffffffffffff821682036101ce57565b6024359073ffffffffffffffffffffffffffffffffffffffff821682036101ce57565b6044359081151582036101ce57565b6024359081151582036101ce57565b6060810190811067ffffffffffffffff821117610cc757604052565b7f4e487b71000000000000000000000000000000000000000000000000000000005f52604160045260245ffd5b6040810190811067ffffffffffffffff821117610cc757604052565b60e0810190811067ffffffffffffffff821117610cc757604052565b6020810190811067ffffffffffffffff821117610cc757604052565b90601f7fffffffffffffffffffffffffffffffffffffffffffffffffffffffffffffffe0910116810190811067ffffffffffffffff821117610cc757604052565b67ffffffffffffffff8111610cc75760051b60200190565b9080601f830112156101ce576020908235610dbb81610d89565b93610dc96040519586610d48565b81855260208086019260051b8201019283116101ce57602001905b828210610df2575050505090565b813573ffffffffffffffffffffffffffffffffffffffff811681036101ce578152908301908301610de4565b60807ffffffffffffffffffffffffffffffffffffffffffffffffffffffffffffffffc8201126101ce5760043573ffffffffffffffffffffffffffffffffffffffff811681036101ce579160243580151581036101ce57916044359067ffffffffffffffff82116101ce57610e9591600401610da1565b9060643590565b91604091835260206040818501528060c0604060a0870194805182890152838101516060890152015195606060808201528651809552019401925f905b838210610ee857505050505090565b845180518752830151868401529485019493820193600190910190610ed9565b906003821015610f155752565b7f4e487b71000000000000000000000000000000000000000000000000000000005f52602160045260245ffd5b9060a07ffffffffffffffffffffffffffffffffffffffffffffffffffffffffffffffffc8301126101ce5773ffffffffffffffffffffffffffffffffffffffff9160043583811681036101ce579260243590811681036101ce579160443580151581036101ce57916064359067ffffffffffffffff82116101ce57610fc991600401610da1565b9060843590565b7ffffffffffffffffffffffffffffffffffffffffffffffffffffffffffffffffc60409101126101ce5760043573ffffffffffffffffffffffffffffffffffffffff811681036101ce579060243560038110156101ce5790565b6040519061103782610cab565b60606040835f81525f60208201520152565b8181029291811591840414171561105c57565b7f4e487b71000000000000000000000000000000000000000000000000000000005f52601160045260245ffd5b90600281101561109a5760051b0190565b7f4e487b71000000000000000000000000000000000000000000000000000000005f52603260045260245ffd5b9190820180921161105c57565b80511561109a5760200190565b805182101561109a5760209160051b010190565b5f939161110a9161110461102a565b50612173565b60409391935161111981610cf4565b5f815273ffffffffffffffffffffffffffffffffffffffff94857f000000000000000000000000000000000000000000000000000000000000000016602083015260405161116681610cf4565b60405180602060035491828152019060035f527fc2575a0e9e593c00f959f8c92f12db2869c3395a3b0502d05e2516446f71f85b905f5b81811061148957505050816111b3910382610d48565b815260405193846001968660208954938481520192895f527fb10e2d527612073b26eecdfd717e6a320cf44b4afac2b0732d9fcbe2b7fa0cf6905f5b8b828210611472575050505061120a90611216930388610d48565b6020840196875261235a565b9383519586881b968088046002149015171561105c57611264906112516112578899611251611269969798999a515160208d015151906110c7565b90611049565b91875151905151906110c7565b6123f7565b975f875b61127c575b5050505050505050565b855181101561146d5790879695949392915f5b600281106112a6575087019091929394959661126d565b9091869798506112ba8382959697986110e1565b5116836112c78387611089565b5116146114535788905f5b600281106112ea57500190889796959493929161128f565b9091905f825b6112ff575b50019089916112d2565b90918a869161130e8583611089565b515184101561144a5750826113268561132c93611089565b516110e1565b51168b8661133a878d6110e1565b511682148015611435575b61142c5790818f8c8b8b8b8f8c8c915f985b611372575b5050505050505050505080915b018192916112f0565b61137f83829c9b9c611089565b515189101561142457926113cb836113c484846113bc8f9e9d9b9897828f6114119f9c9061132661140b9f9c6113b493611089565b51169a6110e1565b5116966110e1565b5193611089565b511691604051936113db85610d10565b8452602084015260408301526060820152670de0b6b3a764000060808201528760a08201525f60c0820152612427565b9061255f565b50018f8c8b8b8b8f8c8c91899a99611357565b899a5061135c565b91829150611369565b5086611441868a611089565b51168214611345565b939250506112f5565b509650505092505050611468929394506110e1565b519190565b611272565b835487526020909601958b945092830192016111ef565b825484526020909301926001928301920161119d565b93919092935f936114ae61102a565b50606486101561186a576114c191612173565b9490604051906114d082610cf4565b5f825273ffffffffffffffffffffffffffffffffffffffff7f00000000000000000000000000000000000000000000000000000000000000001660208301526040519261151c84610cf4565b60405180816020600354928381520160035f527fc2575a0e9e593c00f959f8c92f12db2869c3395a3b0502d05e2516446f71f85b925f5b81811061185157505061156892500382610d48565b845260405194858096602060015491828152019060015f527fb10e2d527612073b26eecdfd717e6a320cf44b4afac2b0732d9fcbe2b7fa0cf6905f5b818110611838575050506115ca92916115be910388610d48565b6020860196875261235a565b9482518060011b908082046002149015171561105c5761160d91611251611600611264936112518b515160208d015151906110c7565b91885151905151906110c7565b925f5b835181101561182d575f5b6002811061162c5750600101611610565b73ffffffffffffffffffffffffffffffffffffffff61164b83876110e1565b511673ffffffffffffffffffffffffffffffffffffffff61166c8386611089565b511614611819575f5b60028110611686575060010161161b565b909a9395975f9a95979a995b61169c8383611089565b51518b1015611805578c9392919073ffffffffffffffffffffffffffffffffffffffff6116cd8d6113268686611089565b51169773ffffffffffffffffffffffffffffffffffffffff6116ef868d6110e1565b5116891480156117dc575b6117cb579d61170b8e915f92611089565b51518110156117b5579d858e9f8f906117a78f8f8f908f918f928f9361140b948f6117698c6113c48373ffffffffffffffffffffffffffffffffffffffff60019f8f96826117618199611326896113bc96611089565b51169c6110e1565b5116916040519561177987610d10565b8652602086015260408501526060840152670de0b6b3a7640000608084015260a083015260c0820152612427565b5001919f9061170b91611089565b5096509091929b9a996001905b01999a95611692565b9c9b909750600191929394506117c2565b5073ffffffffffffffffffffffffffffffffffffffff6117fc8789611089565b511689146116fa565b99509795939a906001909a97959a01611675565b5095505050509490506114689293506110e1565b505050509394505050565b825484528a9450602090930192600192830192016115a4565b8454835260019485019486945060209093019201611553565b60046040517f215a716b000000000000000000000000000000000000000000000000000000008152fd5b9061189e82610d89565b6118ab6040519182610d48565b8281527fffffffffffffffffffffffffffffffffffffffffffffffffffffffffffffffe06118d98294610d89565b0190602036910137565b60055481101561109a5760055f527f036b6384b5eca791c62761152d0c79bb0604c104a5fb6f4eb0703f3154bb3db001905f90565b60015481101561109a5760015f527fb10e2d527612073b26eecdfd717e6a320cf44b4afac2b0732d9fcbe2b7fa0cf601905f90565b60035481101561109a5760035f527fc2575a0e9e593c00f959f8c92f12db2869c3395a3b0502d05e2516446f71f85b01905f90565b6003821015610f155752565b60018054916003916003546119a4818601611894565b936119af8551611894565b95835f5b828110611b10575050915f5b818110611a475750506119d182611894565b956119db83611894565b955f5b8481106119ed57505050505050565b73ffffffffffffffffffffffffffffffffffffffff611a0c82846110e1565b5116611a18828b6110e1565b52611a2381846110e1565b519084821015610f1557611a418792611a3c838c6110e1565b611982565b016119de565b84908491845f5273ffffffffffffffffffffffffffffffffffffffff9283837fc2575a0e9e593c00f959f8c92f12db2869c3395a3b0502d05e2516446f71f85b0154169388805f905b611ad4575b50505085821015610f155787938a858414611acb575b91611a3c91611abe82611ac596956110e1565b528c6110e1565b016119bf565b97850197611aab565b868d8051831015611b0957611aea8386926110e1565b511614611af957810181611a90565b93505050506002905f8881611a95565b5050611a95565b815f5273ffffffffffffffffffffffffffffffffffffffff817fb10e2d527612073b26eecdfd717e6a320cf44b4afac2b0732d9fcbe2b7fa0cf6015416611b57828a6110e1565b525f611b63828b6110e1565b520184906119b3565b90611b78939291611c2b565b81611b8757611b87915061262c565b5090565b91611b9893918593611ebe565b819291611ba957611b8792506126da565b505090565b916020611bdb92949373ffffffffffffffffffffffffffffffffffffffff60408201961681520190610f08565b565b90611b7892916110f5565b918391611b989361149f565b8115611bfe570490565b7f4e487b71000000000000000000000000000000000000000000000000000000005f52601260045260245ffd5b9093925f94611c3861102a565b5073ffffffffffffffffffffffffffffffffffffffff9586821687851614611e945784611c7c611c74611c8497611c6d61198e565b5097612173565b929094612173565b96909461235a565b958694611cb8611264611cb0611c9d8851855190611049565b6112518a51516020809c015151906110c7565b895190611049565b955f945b8651861015611e86575f5b8351811015611e7b578c611cdb888a6110e1565b51168d611ce883876110e1565b511614611e43575f5b60028110611d025750600101611cc7565b8b9d92611d17825f9a94969798999a9e611089565b51518d1015611e30579d8c9d9e84611d448c9d9e9f82611d3c88926113268989611089565b51169d6110e1565b51168b148015611e1b575b611e06575f8e5b51811015611ded579060018f928f8f908f8f928f918f948f938f968f958f89888f611de49c611da28f95846113b461140b9f8390611d9a611db19b611da9996110e1565b51169f6110e1565b51966110e1565b5116946110e1565b5193604091825197611dc289610d10565b88528701528501526060840152608083015260a08201525f60c0820152612427565b50019091611d56565b50909e9d8f9d9c9b9a50826001611d17925b019e611089565b909e9d8f9d9c9b9a50826001611d1792611dff565b5084611e27878a6110e1565b51168b14611d4f565b929d9b5090969594939290600101611cf1565b96505050509450611e70939750611e77955090611e5f916110e1565b51670de0b6b3a764000002926110e1565b5190611bf4565b9190565b509460010194611cbc565b9a5050505050505092915050565b60046040517f3445e17c000000000000000000000000000000000000000000000000000000008152fd5b94939290925f95611ecd61102a565b5073ffffffffffffffffffffffffffffffffffffffff851673ffffffffffffffffffffffffffffffffffffffff821614611e9457606482101561186a5783611f2c611f24611f3496611f1d61198e565b5094612173565b929097612173565b95909461235a565b94611f65611264611f5d611f4b8a51895190611049565b6112518a515160208c015151906110c7565b855190611049565b945f995b88518b1015612166575f5b825181101561215b5773ffffffffffffffffffffffffffffffffffffffff611f9c8d8c6110e1565b511673ffffffffffffffffffffffffffffffffffffffff611fbd83866110e1565b511614612140575f5b60028110611fd75750600101611f74565b9a9b91985f969193949596995b611fee8d83611089565b51518b101561212c579c8c9d73ffffffffffffffffffffffffffffffffffffffff6120298e9f8e9f9c9d9e61176184916113268b948a611089565b51168a148015612103575b6120f4575f5b84518110156120e157808f8e61140b8f928f938f948f958f968f978f8f9973ffffffffffffffffffffffffffffffffffffffff61209e8260019f856120da9f61208f6120a69887611d9a6120979682956110e1565b5116996110e1565b51956110e1565b5116936110e1565b51926040908151976120b789610d10565b885260208801528601526060850152608084015260a083015260c0820152612427565b500161203a565b509a9998509c9b9a6001905b0199611fe4565b9a9998509c9b9a6001906120ed565b5073ffffffffffffffffffffffffffffffffffffffff61212387896110e1565b51168a14612034565b929c9b6001919a5096959493919601611fc6565b955050509450611e779550611e5f915096611e7093976110e1565b509960010199611f69565b9950505050505092915050565b91906121e0576040519161218683610cf4565b600183526020368185013773ffffffffffffffffffffffffffffffffffffffff6121af846110d4565b91169052604051906121c082610cf4565b6001825260203681840137670de0b6b3a76400006121dd836110d4565b52565b73ffffffffffffffffffffffffffffffffffffffff915f83602481600754169360405194859384927fcb991d940000000000000000000000000000000000000000000000000000000084521660048301525afa92831561234f575f915f94612249575b50509190565b915092503d805f833e61225c8183610d48565b8101926040828503126101ce57815167ffffffffffffffff908181116101ce5783019285601f850112156101ce5783519360209361229986610d89565b956122a76040519788610d48565b808752858088019160051b840101928984116101ce578601905b8382106123375750505050828101519182116101ce57019380601f860112156101ce5784516122ef81610d89565b956122fd6040519788610d48565b818752838088019260051b8201019283116101ce578301905b82821061232857505050505f80612243565b81518152908301908301612316565b815183811681036101ce5781529086019086016122c1565b6040513d5f823e3d90fd5b906040916040519261236b84610cf4565b5f5b8181106123e957505082604051806005549081815260208091019160055f527f036b6384b5eca791c62761152d0c79bb0604c104a5fb6f4eb0703f3154bb3db0915f905b8282106123d25750505050906123cc81602094930382610d48565b81520152565b8354855293840193600193840193909101906123b1565b60608582015260200161236d565b9061240061102a565b506040519160808160061b8401016040525f83525f60208401526060830180604085015252565b90604091825161243681610cf4565b5f81525f60208201529273ffffffffffffffffffffffffffffffffffffffff818184511691608481602087015116826060880151169260a0880151169460c0880151855196879586947f3d549b3200000000000000000000000000000000000000000000000000000000865260048601526024850152604484015260648301525afa92835f925f95612528575b506124cf575b50505050565b82939495506080906124fc9351926124e684610cab565b8582015184526020840152015183820152612791565b918261252257505f905b519161251183610cf4565b82526020820152905f8080806124c9565b90612506565b84809296508194503d8311612558575b6125428183610d48565b810103126101ce5760208251920151935f6124c3565b503d612538565b9060208101908151612572575050505f90565b612593604084015191602085019283519161258d83836110e1565b526110e1565b5080517fffffffffffffffffffffffffffffffffffffffffffffffffffffffffffffffff811461105c5760010190525190805182116125d4575b5050600190565b525f806125cd565b73ffffffffffffffffffffffffffffffffffffffff5f541633036125fc57565b60246040517f118cdaa7000000000000000000000000000000000000000000000000000000008152336004820152fd5b5f915f9160209060208101519060408101828151525f5b8381106126645750505050508161265657565b918161266191611bf4565b91565b61266f8183516110e1565b5185810190815160648181810204149015171561105c576001855115171561105c5751815161269d91612c9d565b906126ad575b5050600101612643565b6126b79199612ccd565b98906126c4575b806126a3565b600191976126d39151906110c7565b96906126be565b90915f925f9260209060208101519160408201838151525f5b848110612707575050505050508161265657565b6127128183516110e1565b5183810190815160649081810291818304149015171561105c57612737898851611049565b116127875751815161274891612c9d565b9061275a575b50506001905b016126f3565b612764919a612ccd565b9990612771575b8061274e565b600191986127809151906110c7565b979061276b565b5050600190612754565b8051908115801561295e575b8015612952575b61294c576020810191825190818111612941575b505080516040820190815190818111612936575b5050825181519081811161292b575b50505f928251926127f0825185029485611bf4565b91518092036128d5575b50508051820261280a8382611bf4565b8251146128a3575051821561288e57670de0b6b3a76400005b7fffffffffffffffffffffffffffffffffffffffffffffffffffffffffffffffff82840982840280821091030310156128875761286e921561287157670de0b6b3a764000091612ea1565b90565b6ec097ce7bc90715b34b9f100000000091612ea1565b5050505f90565b6ec097ce7bc90715b34b9f1000000000612823565b91505061286e915f146128bf57670de0b6b3a764000090611bf4565b6ec097ce7bc90715b34b9f100000000090611bf4565b919350915051907fffffffffffffffffffffffffffffffffffffffffffffffffffffffffffffffff818309818302808210910303670de0b6b3a764000011156128875761292191612de4565b6001915f806127fa565b825283525f806127db565b825282525f806127cc565b835281525f806127b8565b50505f90565b506040810151156127a4565b5060208101511561279d565b5f81815260066020526040902054801561294c577fffffffffffffffffffffffffffffffffffffffffffffffffffffffffffffffff9081810181811161105c576005549083820191821161105c57818103612a27575b50505060055480156129fa578101906129d8826118e3565b909182549160031b1b191690556005555f5260066020525f6040812055600190565b7f4e487b71000000000000000000000000000000000000000000000000000000005f52603160045260245ffd5b612a7a612a36612a45936118e3565b90549060031b1c9283926118e3565b81939154907fffffffffffffffffffffffffffffffffffffffffffffffffffffffffffffffff9060031b92831b921b19161790565b90555f52600660205260405f20555f80806129c0565b5f81815260026020526040902054801561294c577fffffffffffffffffffffffffffffffffffffffffffffffffffffffffffffffff9081810181811161105c576001549083820191821161105c57818103612b20575b50505060015480156129fa57810190612afe82611918565b909182549160031b1b191690556001555f5260026020525f6040812055600190565b612b3e612b2f612a4593611918565b90549060031b1c928392611918565b90555f52600260205260405f20555f8080612ae6565b805f526004908160205260405f20548015155f14612887577fffffffffffffffffffffffffffffffffffffffffffffffffffffffffffffffff90818101818111612c715760035490838201918211612c4557818103612c12575b5050506003548015612be657810190612bc68261194d565b909182549160031b1b191690556003555f526020525f6040812055600190565b6031847f4e487b71000000000000000000000000000000000000000000000000000000005f525260245ffd5b612c30612c21612a459361194d565b90549060031b1c92839261194d565b90555f528360205260405f20555f8080612bae565b6011867f4e487b71000000000000000000000000000000000000000000000000000000005f525260245ffd5b6011857f4e487b71000000000000000000000000000000000000000000000000000000005f525260245ffd5b91908215612cc457612cb28184029384611bf4565b03612cbd5760019190565b5f91508190565b50600191505f90565b9190820191808310612ce0575060019190565b5f925090565b805f52600260205260405f2054155f14612d395760015468010000000000000000811015610cc757612d22612a45826001859401600155611918565b9055600154905f52600260205260405f2055600190565b505f90565b805f52600460205260405f2054155f14612d395760035468010000000000000000811015610cc757612d7a612a4582600185940160035561194d565b9055600354905f52600460205260405f2055600190565b805f52600660205260405f2054155f14612d395760055468010000000000000000811015610cc757612dcd612a458260018594016005556118e3565b9055600554905f52600660205260405f2055600190565b90808202907fffffffffffffffffffffffffffffffffffffffffffffffffffffffffffffffff81840990828083109203918083039214612e9057670de0b6b3a76400009082821115612e66577faccb18165bd6fe31ae1cf318dc5b51eee0e1ba569b88cd74c1773b91fac10669940990828211900360ee1b910360121c170290565b60046040517f227bc153000000000000000000000000000000000000000000000000000000008152fd5b5050670de0b6b3a764000091500490565b9091828202917fffffffffffffffffffffffffffffffffffffffffffffffffffffffffffffffff84820993838086109503948086039514612f335784831115612e6657829109815f038216809204600280826003021880830282030280830282030280830282030280830282030280830282030280920290030293600183805f03040190848311900302920304170290565b50509061286e9250611bf456fea264697066735822122010e7644a07561e0687d596473c1dcb68d3064d91f6516d148dc1e0213460d14d64736f6c63430008170033"
}