{
  "address": "0x52cbE0f49CcdD4Dc6E9C13BAb024EABD2842045B",
  "abi": [
    {
      "inputs": [
        {
          "internalType": "contract MultiWrapper",
          "name": "_multiWrapper",
          "type": "address"
        },
        {
          "internalType": "contract IOracle[]",
          "name": "existingOracles",
          "type": "address[]"
        },
        {
          "internalType": "enum OffchainOracle.OracleType[]",
          "name": "oracleTypes",
          "type": "uint8[]"
        },
        {
          "internalType": "contract IERC20[]",
          "name": "existingConnectors",
          "type": "address[]"
        },
        {
          "internalType": "contract IERC20",
          "name": "wBase",
          "type": "address"
        }
      ],
      "stateMutability": "nonpayable",
      "type": "constructor"
    },
    {
      "inputs": [],
      "name": "ArraysLengthMismatch",
      "type": "error"
    },
    {
      "inputs": [],
      "name": "ConnectorAlreadyAdded",
      "type": "error"
    },
    {
      "inputs": [],
      "name": "InvalidOracleTokenKind",
      "type": "error"
    },
    {
      "inputs": [],
      "name": "OracleAlreadyAdded",
      "type": "error"
    },
    {
      "inputs": [],
      "name": "SameTokens",
      "type": "error"
    },
    {
      "inputs": [],
      "name": "TooBigThreshold",
      "type": "error"
    },
    {
      "inputs": [],
      "name": "UnknownConnector",
      "type": "error"
    },
    {
      "inputs": [],
      "name": "UnknownOracle",
      "type": "error"
    },
    {
      "anonymous": false,
      "inputs": [
        {
          "indexed": false,
          "internalType": "contract IERC20",
          "name": "connector",
          "type": "address"
        }
      ],
      "name": "ConnectorAdded",
      "type": "event"
    },
    {
      "anonymous": false,
      "inputs": [
        {
          "indexed": false,
          "internalType": "contract IERC20",
          "name": "connector",
          "type": "address"
        }
      ],
      "name": "ConnectorRemoved",
      "type": "event"
    },
    {
      "anonymous": false,
      "inputs": [
        {
          "indexed": false,
          "internalType": "contract MultiWrapper",
          "name": "multiWrapper",
          "type": "address"
        }
      ],
      "name": "MultiWrapperUpdated",
      "type": "event"
    },
    {
      "anonymous": false,
      "inputs": [
        {
          "indexed": false,
          "internalType": "contract IOracle",
          "name": "oracle",
          "type": "address"
        },
        {
          "indexed": false,
          "internalType": "enum OffchainOracle.OracleType",
          "name": "oracleType",
          "type": "uint8"
        }
      ],
      "name": "OracleAdded",
      "type": "event"
    },
    {
      "anonymous": false,
      "inputs": [
        {
          "indexed": false,
          "internalType": "contract IOracle",
          "name": "oracle",
          "type": "address"
        },
        {
          "indexed": false,
          "internalType": "enum OffchainOracle.OracleType",
          "name": "oracleType",
          "type": "uint8"
        }
      ],
      "name": "OracleRemoved",
      "type": "event"
    },
    {
      "anonymous": false,
      "inputs": [
        {
          "indexed": true,
          "internalType": "address",
          "name": "previousOwner",
          "type": "address"
        },
        {
          "indexed": true,
          "internalType": "address",
          "name": "newOwner",
          "type": "address"
        }
      ],
      "name": "OwnershipTransferred",
      "type": "event"
    },
    {
      "inputs": [
        {
          "internalType": "contract IERC20",
          "name": "connector",
          "type": "address"
        }
      ],
      "name": "addConnector",
      "outputs": [],
      "stateMutability": "nonpayable",
      "type": "function"
    },
    {
      "inputs": [
        {
          "internalType": "contract IOracle",
          "name": "oracle",
          "type": "address"
        },
        {
          "internalType": "enum OffchainOracle.OracleType",
          "name": "oracleKind",
          "type": "uint8"
        }
      ],
      "name": "addOracle",
      "outputs": [],
      "stateMutability": "nonpayable",
      "type": "function"
    },
    {
      "inputs": [],
      "name": "connectors",
      "outputs": [
        {
          "internalType": "contract IERC20[]",
          "name": "allConnectors",
          "type": "address[]"
        }
      ],
      "stateMutability": "view",
      "type": "function"
    },
    {
      "inputs": [
        {
          "internalType": "contract IERC20",
          "name": "srcToken",
          "type": "address"
        },
        {
          "internalType": "contract IERC20",
          "name": "dstToken",
          "type": "address"
        },
        {
          "internalType": "bool",
          "name": "useWrappers",
          "type": "bool"
        }
      ],
      "name": "getRate",
      "outputs": [
        {
          "internalType": "uint256",
          "name": "weightedRate",
          "type": "uint256"
        }
      ],
      "stateMutability": "view",
      "type": "function"
    },
    {
      "inputs": [
        {
          "internalType": "contract IERC20",
          "name": "srcToken",
          "type": "address"
        },
        {
          "internalType": "bool",
          "name": "useSrcWrappers",
          "type": "bool"
        }
      ],
      "name": "getRateToEth",
      "outputs": [
        {
          "internalType": "uint256",
          "name": "weightedRate",
          "type": "uint256"
        }
      ],
      "stateMutability": "view",
      "type": "function"
    },
    {
      "inputs": [
        {
          "internalType": "contract IERC20",
          "name": "srcToken",
          "type": "address"
        },
        {
          "internalType": "bool",
          "name": "useSrcWrappers",
          "type": "bool"
        },
        {
          "internalType": "contract IERC20[]",
          "name": "customConnectors",
          "type": "address[]"
        },
        {
          "internalType": "uint256",
          "name": "thresholdFilter",
          "type": "uint256"
        }
      ],
      "name": "getRateToEthWithCustomConnectors",
      "outputs": [
        {
          "internalType": "uint256",
          "name": "weightedRate",
          "type": "uint256"
        }
      ],
      "stateMutability": "view",
      "type": "function"
    },
    {
      "inputs": [
        {
          "internalType": "contract IERC20",
          "name": "srcToken",
          "type": "address"
        },
        {
          "internalType": "bool",
          "name": "useSrcWrappers",
          "type": "bool"
        },
        {
          "internalType": "uint256",
          "name": "thresholdFilter",
          "type": "uint256"
        }
      ],
      "name": "getRateToEthWithThreshold",
      "outputs": [
        {
          "internalType": "uint256",
          "name": "weightedRate",
          "type": "uint256"
        }
      ],
      "stateMutability": "view",
      "type": "function"
    },
    {
      "inputs": [
        {
          "internalType": "contract IERC20",
          "name": "srcToken",
          "type": "address"
        },
        {
          "internalType": "contract IERC20",
          "name": "dstToken",
          "type": "address"
        },
        {
          "internalType": "bool",
          "name": "useWrappers",
          "type": "bool"
        },
        {
          "internalType": "contract IERC20[]",
          "name": "customConnectors",
          "type": "address[]"
        },
        {
          "internalType": "uint256",
          "name": "thresholdFilter",
          "type": "uint256"
        }
      ],
      "name": "getRateWithCustomConnectors",
      "outputs": [
        {
          "internalType": "uint256",
          "name": "weightedRate",
          "type": "uint256"
        }
      ],
      "stateMutability": "view",
      "type": "function"
    },
    {
      "inputs": [
        {
          "internalType": "contract IERC20",
          "name": "srcToken",
          "type": "address"
        },
        {
          "internalType": "contract IERC20",
          "name": "dstToken",
          "type": "address"
        },
        {
          "internalType": "bool",
          "name": "useWrappers",
          "type": "bool"
        },
        {
          "internalType": "uint256",
          "name": "thresholdFilter",
          "type": "uint256"
        }
      ],
      "name": "getRateWithThreshold",
      "outputs": [
        {
          "internalType": "uint256",
          "name": "weightedRate",
          "type": "uint256"
        }
      ],
      "stateMutability": "view",
      "type": "function"
    },
    {
      "inputs": [],
      "name": "multiWrapper",
      "outputs": [
        {
          "internalType": "contract MultiWrapper",
          "name": "",
          "type": "address"
        }
      ],
      "stateMutability": "view",
      "type": "function"
    },
    {
      "inputs": [],
      "name": "oracles",
      "outputs": [
        {
          "internalType": "contract IOracle[]",
          "name": "allOracles",
          "type": "address[]"
        },
        {
          "internalType": "enum OffchainOracle.OracleType[]",
          "name": "oracleTypes",
          "type": "uint8[]"
        }
      ],
      "stateMutability": "view",
      "type": "function"
    },
    {
      "inputs": [],
      "name": "owner",
      "outputs": [
        {
          "internalType": "address",
          "name": "",
          "type": "address"
        }
      ],
      "stateMutability": "view",
      "type": "function"
    },
    {
      "inputs": [
        {
          "internalType": "contract IERC20",
          "name": "connector",
          "type": "address"
        }
      ],
      "name": "removeConnector",
      "outputs": [],
      "stateMutability": "nonpayable",
      "type": "function"
    },
    {
      "inputs": [
        {
          "internalType": "contract IOracle",
          "name": "oracle",
          "type": "address"
        },
        {
          "internalType": "enum OffchainOracle.OracleType",
          "name": "oracleKind",
          "type": "uint8"
        }
      ],
      "name": "removeOracle",
      "outputs": [],
      "stateMutability": "nonpayable",
      "type": "function"
    },
    {
      "inputs": [],
      "name": "renounceOwnership",
      "outputs": [],
      "stateMutability": "nonpayable",
      "type": "function"
    },
    {
      "inputs": [
        {
          "internalType": "contract MultiWrapper",
          "name": "_multiWrapper",
          "type": "address"
        }
      ],
      "name": "setMultiWrapper",
      "outputs": [],
      "stateMutability": "nonpayable",
      "type": "function"
    },
    {
      "inputs": [
        {
          "internalType": "address",
          "name": "newOwner",
          "type": "address"
        }
      ],
      "name": "transferOwnership",
      "outputs": [],
      "stateMutability": "nonpayable",
      "type": "function"
    }
  ],
  "transactionHash": "0x0b4efaabbd68ad990bfe43bb51b8effb28e00b9278ac8b478dfeba76e71207de",
  "args": [
    "0x54431918cEC22932fCF97E54769F4E00f646690F",
    [
      "0xB89A664FdAf504CDc7826B97Ba6e522d9b78dbE7",
      "0x750c1b699552cAf908D67F5cCFd20A261305328c",
      "0x89314d57A8A4E636A00922ac289BC3a9a69C4361",
      "0x59Bc892E1832aE86C268fC21a91fE940830a52b0",
      "0xCC54299Fc291B261B2bF5552E7F0E5d2F8613E8C"
    ],
    [
      0,
      0,
      0,
      0,
      0
    ],
    [
      "0x0000000000000000000000000000000000000000",
      "0xFFfFfFffFFfffFFfFFfFFFFFffFFFffffFfFFFfF",
      "0x0d500B1d8E8eF31E21C99d1Db9A6444d3ADf1270",
      "0x2791Bca1f2de4661ED88A30C99A7a9449Aa84174"
    ],
    "0x0d500B1d8E8eF31E21C99d1Db9A6444d3ADf1270",
    "0x56E44874F624EbDE6efCc783eFD685f0FBDC6dcF"
  ],
  "numDeployments": 3,
  "solcInputHash": "edb6444afada1f09d5e3ae7cac8824fd",
  "bytecode": "0x604060a08152346200043b576200338b803803806200001e8162000474565b92833981019060a0818303126200043b5780516001600160a01b039190828116908190036200043b576020828101516001600160401b0394919291908581116200043b5784019386601f860112156200043b57845194620000896200008387620004b0565b62000474565b95858088838152019160051b830101918983116200043b578601905b8282106200045a57505050878101518681116200043b5781019587601f880112156200043b57865196620000dd6200008389620004b0565b9786808a838152019160051b830101918a83116200043b578701905b828210620004405750505060608201519081116200043b5781019680601f890112156200043b578751620001316200008382620004b0565b9886808b848152019260051b8201019283116200043b5786809101915b8383106200042057505050506080620001689101620004c8565b600080546001600160a01b03198082163390811784558b51939693919286167f8be0079c531659141344cd1fd0a4f28419497f9722a3daafe3b4186f6b6457e08880a38751895103620004115750817f1030152fe2062b574a830e6b9f13c65995990df31e4dc708d142533bb3ad0f5292879260075416176007558a51908152a1825b85518110156200036c576200020b620002058289620004dd565b62000508565b600390818110156200029d57620002c25762000235846200022d848a620004dd565b51166200052c565b15620002b1575b83620002498389620004dd565b5116906200025c62000205848b620004dd565b908b519283528110156200029d578a827f5874b2072ff37562df54063dd700c59d45f311bdf6f9cabb5a15f0ffb2e9f6229289600196950152a101620001eb565b634e487b7160e01b86526021600452602486fd5b8951633295224f60e11b8152600490fd5b620002d262000205838a620004dd565b818110156200029d576001036200031257620002fc84620002f4848a620004dd565b5116620005b3565b6200023c578951633295224f60e11b8152600490fd5b6200032262000205838a620004dd565b818110156200029d576002036200035b5762000344846200022d848a620004dd565b15620002b157620002fc84620002f4848a620004dd565b89516398420d9360e01b8152600490fd5b5083889288855b8151811015620003ee5762000396836200038e8385620004dd565b51166200062b565b15620003dd57807fff88af5d962d47fd25d87755e8267a029fad5a91740c67d0dade2bdbe5268a1d8585620003ce60019587620004dd565b51168951908152a10162000373565b8551630a606b6760e41b8152600490fd5b858560805251612cec90816200069f82396080518181816120df015261247f0152f35b6307e11acb60e51b8152600490fd5b81906200042d84620004c8565b81520191019086906200014e565b600080fd5b815160038110156200043b578152908701908701620000f9565b815185811681036200043b578152908601908601620000a5565b6040519190601f01601f191682016001600160401b038111838210176200049a57604052565b634e487b7160e01b600052604160045260246000fd5b6001600160401b0381116200049a5760051b60200190565b51906001600160a01b03821682036200043b57565b8051821015620004f25760209160051b010190565b634e487b7160e01b600052603260045260246000fd5b516003811015620005165790565b634e487b7160e01b600052602160045260246000fd5b6000908082526002602052604082205415600014620005af576001918254680100000000000000008110156200059b578381018085558110156200058757908260409285835260208320015583549281526002602052205590565b634e487b7160e01b82526032600452602482fd5b634e487b7160e01b82526041600452602482fd5b5090565b6000818152600460205260408120546200062657600354680100000000000000008110156200059b57600181018060035581101562000587577fc2575a0e9e593c00f959f8c92f12db2869c3395a3b0502d05e2516446f71f85b0182905560035491815260046020526040902055600190565b905090565b6000818152600660205260408120546200062657600554680100000000000000008110156200059b57600181018060055581101562000587577f036b6384b5eca791c62761152d0c79bb0604c104a5fb6f4eb0703f3154bb3db0018290556005549181526006602052604090205560019056fe604060a0815260048036101561001457600080fd5b600091823560e01c80631a6c6a9814610c555780632857373a14610b7d57806365050a6814610a575780636744d6c7146109ef5780636f9293b914610970578063715018a6146108d457806378159aae146108755780637de4fd101461081b578063802431fb146107b85780638da5cb5b146107675780639d4d7b1c1461060d578063aa16d4c014610553578063ade8b048146104d4578063b77910dc14610481578063d0626518146103d1578063f0b92e40146102195763f2fde38b146100db57600080fd5b346102155760207ffffffffffffffffffffffffffffffffffffffffffffffffffffffffffffffffc3601126102155781359173ffffffffffffffffffffffffffffffffffffffff9182841680940361021157610135610f49565b831561018e5750508254827fffffffffffffffffffffffff00000000000000000000000000000000000000008216178455167f8be0079c531659141344cd1fd0a4f28419497f9722a3daafe3b4186f6b6457e08380a380f35b90602060849251917f08c379a0000000000000000000000000000000000000000000000000000000008352820152602660248201527f4f776e61626c653a206e6577206f776e657220697320746865207a65726f206160448201527f64647265737300000000000000000000000000000000000000000000000000006064820152fd5b8480fd5b8280fd5b509190346103cd5761022a36610eef565b91610233610f49565b60038310156103a157826102c45761026073ffffffffffffffffffffffffffffffffffffffff83166115db565b1561029d57506102977f7a7f56716fe703fb190529c336e57df71ab88188ba47e8d786bac684b61ab9a693945b51928392836112fc565b0390a180f35b84517f9444a6da000000000000000000000000000000000000000000000000000000008152fd5b6001830361031c576102eb73ffffffffffffffffffffffffffffffffffffffff83166116a2565b1561029d57506102977f7a7f56716fe703fb190529c336e57df71ab88188ba47e8d786bac684b61ab9a6939461028d565b6002830361037a5773ffffffffffffffffffffffffffffffffffffffff8216610344816115db565b15610352576102eb906116a2565b5084517f9444a6da000000000000000000000000000000000000000000000000000000008152fd5b84517f98420d93000000000000000000000000000000000000000000000000000000008152fd5b8360216024927f4e487b7100000000000000000000000000000000000000000000000000000000835252fd5b5080fd5b5090346102155760207ffffffffffffffffffffffffffffffffffffffffffffffffffffffffffffffffc36011261021557359073ffffffffffffffffffffffffffffffffffffffff8216809203610215577f1030152fe2062b574a830e6b9f13c65995990df31e4dc708d142533bb3ad0f529160209161044f610f49565b817fffffffffffffffffffffffff0000000000000000000000000000000000000000600754161760075551908152a180f35b8382346103cd57817ffffffffffffffffffffffffffffffffffffffffffffffffffffffffffffffffc3601126103cd5760209073ffffffffffffffffffffffffffffffffffffffff600754169051908152f35b5082346105505760807ffffffffffffffffffffffffffffffffffffffffffffffffffffffffffffffffc3601126105505761050d610d0f565b92610516610da5565b916044359067ffffffffffffffff821161055057509161053f6020959261054994369101610e74565b906064359261243f565b9051908152f35b80fd5b50346102155760207ffffffffffffffffffffffffffffffffffffffffffffffffffffffffffffffffc3601126102155773ffffffffffffffffffffffffffffffffffffffff6105a0610d0f565b6105a8610f49565b16916105b383611436565b156105e657507fff88af5d962d47fd25d87755e8267a029fad5a91740c67d0dade2bdbe5268a1d9160209151908152a180f35b90517fa606b670000000000000000000000000000000000000000000000000000000008152fd5b509190346103cd5761061e36610eef565b91610627610f49565b60038310156103a157826106b15761065473ffffffffffffffffffffffffffffffffffffffff831661132b565b1561068a57506102977f5874b2072ff37562df54063dd700c59d45f311bdf6f9cabb5a15f0ffb2e9f622939451928392836112fc565b84517f652a449e000000000000000000000000000000000000000000000000000000008152fd5b60018303610709576106d873ffffffffffffffffffffffffffffffffffffffff83166113e4565b1561068a57506102977f5874b2072ff37562df54063dd700c59d45f311bdf6f9cabb5a15f0ffb2e9f622939461028d565b6002830361037a5773ffffffffffffffffffffffffffffffffffffffff82166107318161132b565b1561073f576106d8906113e4565b5084517f652a449e000000000000000000000000000000000000000000000000000000008152fd5b8382346103cd57817ffffffffffffffffffffffffffffffffffffffffffffffffffffffffffffffffc3601126103cd5773ffffffffffffffffffffffffffffffffffffffff60209254169051908152f35b8382346103cd5760607ffffffffffffffffffffffffffffffffffffffffffffffffffffffffffffffffc3601126103cd576105496020926107f7610d0f565b6107ff610d37565b610807610d96565b9185519361081485610dff565b845261188d565b8382346103cd57807ffffffffffffffffffffffffffffffffffffffffffffffffffffffffffffffffc3601126103cd57610549602092610859610d0f565b610861610da5565b9084519261086e84610dff565b83526120a7565b8382346103cd5760607ffffffffffffffffffffffffffffffffffffffffffffffffffffffffffffffffc3601126103cd576105496020926108b4610d0f565b906108bd610da5565b8451916108c983610dff565b82526044359261243f565b833461055057807ffffffffffffffffffffffffffffffffffffffffffffffffffffffffffffffffc3601126105505761090b610f49565b8073ffffffffffffffffffffffffffffffffffffffff81547fffffffffffffffffffffffff000000000000000000000000000000000000000081168355167f8be0079c531659141344cd1fd0a4f28419497f9722a3daafe3b4186f6b6457e08280a380f35b5090346102155760a07ffffffffffffffffffffffffffffffffffffffffffffffffffffffffffffffffc360112610215576109a9610d0f565b926109b2610d37565b916109bb610d96565b916064359067ffffffffffffffff82116105505750916109e5610549949260209794369101610e74565b9160843593611c34565b8382346103cd5760807ffffffffffffffffffffffffffffffffffffffffffffffffffffffffffffffffc3601126103cd57610549602092610a2e610d0f565b90610a37610d37565b610a3f610d96565b90855192610a4c84610dff565b835260643593611c34565b50823461055057807ffffffffffffffffffffffffffffffffffffffffffffffffffffffffffffffffc360112610550576005805491610a9583610fc8565b92815b8451811015610b265781811015610afa5760019084845273ffffffffffffffffffffffffffffffffffffffff817f036b6384b5eca791c62761152d0c79bb0604c104a5fb6f4eb0703f3154bb3db0015416610af382886110f8565b5201610a98565b6024836032897f4e487b7100000000000000000000000000000000000000000000000000000000835252fd5b8551602080825286518183018190528291828a0191818a0191885b828110610b5057505050500390f35b835173ffffffffffffffffffffffffffffffffffffffff1685528695509381019392810192600101610b41565b8382346103cd57817ffffffffffffffffffffffffffffffffffffffffffffffffffffffffffffffffc3601126103cd5790610bb6611118565b9091835193849381850191855280518092526060850191602080920190845b818110610c2857505050848203818601528080855193848152019401925b828110610c0257505050500390f35b9193839550908082610c18600194839751610d5a565b0195019101918594939192610bf3565b825173ffffffffffffffffffffffffffffffffffffffff1685528897509383019391830191600101610bd5565b50346102155760207ffffffffffffffffffffffffffffffffffffffffffffffffffffffffffffffffc3601126102155773ffffffffffffffffffffffffffffffffffffffff610ca2610d0f565b610caa610f49565b1691610cb583611488565b15610ce857507f6825b26a0827e9c2ceca01d6289ce4a40e629dc074ec48ea4727d1afbff359f59160209151908152a180f35b90517f30bd159a000000000000000000000000000000000000000000000000000000008152fd5b6004359073ffffffffffffffffffffffffffffffffffffffff82168203610d3257565b600080fd5b6024359073ffffffffffffffffffffffffffffffffffffffff82168203610d3257565b906003821015610d675752565b7f4e487b7100000000000000000000000000000000000000000000000000000000600052602160045260246000fd5b604435908115158203610d3257565b602435908115158203610d3257565b6040810190811067ffffffffffffffff821117610dd057604052565b7f4e487b7100000000000000000000000000000000000000000000000000000000600052604160045260246000fd5b6020810190811067ffffffffffffffff821117610dd057604052565b90601f7fffffffffffffffffffffffffffffffffffffffffffffffffffffffffffffffe0910116810190811067ffffffffffffffff821117610dd057604052565b67ffffffffffffffff8111610dd05760051b60200190565b81601f82011215610d3257803591610e8b83610e5c565b92610e996040519485610e1b565b808452602092838086019260051b820101928311610d32578301905b828210610ec3575050505090565b813573ffffffffffffffffffffffffffffffffffffffff81168103610d32578152908301908301610eb5565b7ffffffffffffffffffffffffffffffffffffffffffffffffffffffffffffffffc6040910112610d325760043573ffffffffffffffffffffffffffffffffffffffff81168103610d3257906024356003811015610d325790565b73ffffffffffffffffffffffffffffffffffffffff600054163303610f6a57565b60646040517f08c379a000000000000000000000000000000000000000000000000000000000815260206004820152602060248201527f4f776e61626c653a2063616c6c6572206973206e6f7420746865206f776e65726044820152fd5b90610fd282610e5c565b610fdf6040519182610e1b565b8281527fffffffffffffffffffffffffffffffffffffffffffffffffffffffffffffffe061100d8294610e5c565b0190602036910137565b60015481101561104e5760016000527fb10e2d527612073b26eecdfd717e6a320cf44b4afac2b0732d9fcbe2b7fa0cf60190600090565b7f4e487b7100000000000000000000000000000000000000000000000000000000600052603260045260246000fd5b60035481101561104e5760036000527fc2575a0e9e593c00f959f8c92f12db2869c3395a3b0502d05e2516446f71f85b0190600090565b60055481101561104e5760056000527f036b6384b5eca791c62761152d0c79bb0604c104a5fb6f4eb0703f3154bb3db00190600090565b80511561104e5760200190565b805182101561104e5760209160051b010190565b6003821015610d675752565b6001805491600391825461112d818601610fc8565b936111388551610fc8565b958360005b82811061129e5750509160005b8181106111d357505061115c82610fc8565b9561116683610fc8565b9560005b84811061117957505050505050565b73ffffffffffffffffffffffffffffffffffffffff61119882846110f8565b51166111a4828b6110f8565b526111af81846110f8565b519084821015610d67576111cd87926111c8838c6110f8565b61110c565b0161116a565b849084918460005273ffffffffffffffffffffffffffffffffffffffff9283837fc2575a0e9e593c00f959f8c92f12db2869c3395a3b0502d05e2516446f71f85b0154169388806000905b611262575b50505085821015610d675787938a858414611259575b916111c89161124c8261125396956110f8565b528c6110f8565b0161114a565b97850197611239565b868d8051831015611297576112788386926110f8565b5116146112875781018161121e565b9350505050600290388881611223565b5050611223565b8160005273ffffffffffffffffffffffffffffffffffffffff817fb10e2d527612073b26eecdfd717e6a320cf44b4afac2b0732d9fcbe2b7fa0cf60154166112e6828a6110f8565b5260006112f3828b6110f8565b5201849061113d565b91602061132992949373ffffffffffffffffffffffffffffffffffffffff60408201961681520190610d5a565b565b6000818152600260205260408120546113df57600154680100000000000000008110156113b257908261139e61136984600160409601600155611017565b81939154907fffffffffffffffffffffffffffffffffffffffffffffffffffffffffffffffff9060031b92831b921b19161790565b905560015492815260026020522055600190565b6024827f4e487b710000000000000000000000000000000000000000000000000000000081526041600452fd5b905090565b6000818152600460205260408120546113df57600354680100000000000000008110156113b25790826114226113698460016040960160035561107d565b905560035492815260046020522055600190565b6000818152600660205260408120546113df57600554680100000000000000008110156113b2579082611474611369846001604096016005556110b4565b905560055492815260066020522055600190565b60008181526006602052604081205490919080156115d6577fffffffffffffffffffffffffffffffffffffffffffffffffffffffffffffffff908181018181116115a9576005549083820191821161157c57808203611548575b505050600554801561151b578101906114fa826110b4565b909182549160031b1b19169055600555815260066020526040812055600190565b6024847f4e487b710000000000000000000000000000000000000000000000000000000081526031600452fd5b611566611557611369936110b4565b90549060031b1c9283926110b4565b90558452600660205260408420553880806114e2565b6024867f4e487b710000000000000000000000000000000000000000000000000000000081526011600452fd5b6024857f4e487b710000000000000000000000000000000000000000000000000000000081526011600452fd5b505090565b60008181526002602052604081205490919080156115d6577fffffffffffffffffffffffffffffffffffffffffffffffffffffffffffffffff908181018181116115a9576001549083820191821161157c5780820361166e575b505050600154801561151b5781019061164d82611017565b909182549160031b1b19169055600155815260026020526040812055600190565b61168c61167d61136993611017565b90549060031b1c928392611017565b9055845260026020526040842055388080611635565b6000908082526004908160205260408320548015156000146117ee577fffffffffffffffffffffffffffffffffffffffffffffffffffffffffffffffff908181018181116117c2576003549083820191821161179657808203611763575b5050506003548015611737578101906117188261107d565b909182549160031b1b1916905560035582526020526040812055600190565b6024856031867f4e487b7100000000000000000000000000000000000000000000000000000000835252fd5b6117816117726113699361107d565b90549060031b1c92839261107d565b90558552836020526040852055388080611700565b6024876011887f4e487b7100000000000000000000000000000000000000000000000000000000835252fd5b6024866011877f4e487b7100000000000000000000000000000000000000000000000000000000835252fd5b50505090565b8181029291811591840414171561180757565b7f4e487b7100000000000000000000000000000000000000000000000000000000600052601160045260246000fd5b90600281101561104e5760051b0190565b9190820180921161180757565b811561185e570490565b7f4e487b7100000000000000000000000000000000000000000000000000000000600052601260045260246000fd5b90919260009273ffffffffffffffffffffffffffffffffffffffff811673ffffffffffffffffffffffffffffffffffffffff841614611c0a576118f0906118e86118e0876118d9611118565b50966127ba565b9790926127ba565b9290936129b8565b9361192461191c61190484518751906117f4565b61191688515160208a01515190611847565b906117f4565b8251906117f4565b916040519260208160061b85010160405283526000936000956000985b83518a1015611b8e5760005b8251811015611b835773ffffffffffffffffffffffffffffffffffffffff6119758c876110f8565b511673ffffffffffffffffffffffffffffffffffffffff61199683866110f8565b511614611b4d5760005b600281106119b1575060010161194d565b8a9c9394959691926119c58260009d611836565b51518c1015611b3c579c8c9d73ffffffffffffffffffffffffffffffffffffffff611a0d8e9f9b9c9d9e611a0483916119fe8888611836565b516110f8565b51169b8b6110f8565b51168a148015611b13575b611afe5760009e9d9c9e5b8451811015611ae6578e9f809e9f8c8c8c8c8c611a8b8d73ffffffffffffffffffffffffffffffffffffffff611a838f611a7c8b848f611a929e82611a6c611a74938b986110f8565b51169d6110f8565b5116976110f8565b51966110f8565b5116946110f8565b5193612ba0565b906020820151611aab575b50506001019e9d9c9e611a23565b909d60018f918f8181602095611ac483611aca956110f8565b526110f8565b50019e0151908111611add575b8e611a9d565b9d506001611ad7565b50909d9a9998506119c5828f9d6001905b019d611836565b909d9c8e9c9b9a99508260016119c592611af7565b5073ffffffffffffffffffffffffffffffffffffffff611b3386896110f8565b51168a14611a18565b9291969594939c9a506001016119a0565b965050509550505050611b789150611b71611b7f94670de0b6b3a7640000966110f8565b51926110f8565b51906117f4565b0490565b509860010198611941565b98505050505095945091505083526000926000915b8151831015611bf157600190611bb984846110f8565b50611bc484846110f8565b51516020611bd286866110f8565b5101510201946020611be485856110f8565b5101510192019193611ba3565b9391505080611bfd5750565b611c079192611854565b90565b60046040517f3445e17c000000000000000000000000000000000000000000000000000000008152fd5b909293919360009173ffffffffffffffffffffffffffffffffffffffff851673ffffffffffffffffffffffffffffffffffffffff821614611c0a576064841015611fa257611ca594611c9d611c9588611c8e979697611118565b50946127ba565b9890926127ba565b9690936129b8565b95611cd3611ccb611cb984518751906117f4565b6119168a515160208c01515190611847565b8451906117f4565b936040519460208160061b870101604052855260009560009760006080525b84516080511015611f185760005b8351811015611f095773ffffffffffffffffffffffffffffffffffffffff611d2a608051886110f8565b511673ffffffffffffffffffffffffffffffffffffffff611d4b83876110f8565b511614611ee05760005b60028110611d665750600101611d00565b909b929a60009792979b5b611d7b8383611836565b51518d1015611ecf578d73ffffffffffffffffffffffffffffffffffffffff611da88f6119fe8787611836565b51169973ffffffffffffffffffffffffffffffffffffffff611dcc6080518c6110f8565b51168b148015611ea6575b611e985760005b8651811015611e84578e611e3a8d8d8d8d8d611a8b8a8f611a8382611a7c73ffffffffffffffffffffffffffffffffffffffff611e2e8f611e2283979184926110f8565b51169b608051906110f8565b511696608051906110f8565b906020820151611e4f575b5050600101611dde565b909e8f8f91611e688184600194611ac4836020986110f8565b50019f0151908111611e7b575b8f611e45565b9e506001611e75565b509d90506001919299505b019b9790611d71565b9d9050600191929950611e8f565b5073ffffffffffffffffffffffffffffffffffffffff611ec6838a6110f8565b51168b14611dd7565b939c916001919c5097929701611d55565b965050505094505050611b7f9350611b789150611b71670de0b6b3a764000095608051906110f8565b50608080516001019052611cf2565b985099985050505050919082526000946000935b8351851015611f945760646020611f4387876110f8565b5101510282840211611f8a57600190611f5c86866110f8565b51516020611f6a88886110f8565b5101510201966020611f7c87876110f8565b51015101945b019395611f2c565b9593600190611f82565b95935050505080611bfd5750565b60046040517f215a716b000000000000000000000000000000000000000000000000000000008152fd5b60405190600354808352826020918282019060036000527fc2575a0e9e593c00f959f8c92f12db2869c3395a3b0502d05e2516446f71f85b936000905b82821061201f5750505061132992500383610e1b565b855484526001958601958895509381019390910190612009565b6040519081600180549081835260209081840192816000527fb10e2d527612073b26eecdfd717e6a320cf44b4afac2b0732d9fcbe2b7fa0cf6926000905b82821061208f57505050505090611329910383610e1b565b84548652889650948501949383019390830190612077565b90916120b76000936000936127ba565b90604051906120c582610db4565b84825273ffffffffffffffffffffffffffffffffffffffff7f00000000000000000000000000000000000000000000000000000000000000001660208301526040519461211186610db4565b612119611fcc565b8652612133612126612039565b95602088019687526129b8565b9482518060011b90808204600214901517156124125790611916612166612173936119168a515160208c01515190611847565b9189515190515190611847565b91604051928060061b8401604052835281938295835b83518110156123a457845b600281106121a55750600101612189565b73ffffffffffffffffffffffffffffffffffffffff6121c483876110f8565b511673ffffffffffffffffffffffffffffffffffffffff6121e58387611836565b51161461238b57855b600281106121ff5750600101612194565b9093959b97998c9b92939597999b9c5b8d61221a8484611836565b515111156123745773ffffffffffffffffffffffffffffffffffffffff6122458f6119fe8686611836565b51169973ffffffffffffffffffffffffffffffffffffffff612267878c6110f8565b51168b14801561234b575b61234057815b6122828887611836565b5151811015612330578e6122e68d8d8d8d73ffffffffffffffffffffffffffffffffffffffff6122de8f8f8f90846122cf82828f6122c7906119fe896122d799611836565b51169a6110f8565b5116956110f8565b5194611836565b511692612a4e565b9060208201516122fb575b5050600101612278565b909e8f8f916123148184600194611ac4836020986110f8565b50019f0151908111612327575b8f6122f1565b9e506001612321565b509d6001919a505b019c9861220f565b9d6001919a50612338565b5073ffffffffffffffffffffffffffffffffffffffff61236b888b611836565b51168b14612272565b9694916001919b999d509b99979593929b016121ee565b50985096505050505050506123a092506110f8565b5190565b5050505094509250905093929380825282915b8183106123c95750505080611bfd5750565b909192946001906123da85846110f8565b506123e585846110f8565b515160206123f387866110f8565b510151020195602061240586856110f8565b51015101930191906123b7565b6024837f4e487b710000000000000000000000000000000000000000000000000000000081526011600452fd5b600092916064851015611fa257612455916127ba565b92906040519061246482610db4565b6000825273ffffffffffffffffffffffffffffffffffffffff7f00000000000000000000000000000000000000000000000000000000000000001660208301526040516124b081610db4565b6124b8611fcc565b81526124d26124c5612039565b95602083019687526129b8565b948251908160011b918083046002149015171561180757611916612505612512936119168a515160208c01515190611847565b9184515190515190611847565b91604051928060061b8401604052835260009360009560005b83518110156127295760005b60028110612548575060010161252b565b73ffffffffffffffffffffffffffffffffffffffff61256783876110f8565b511673ffffffffffffffffffffffffffffffffffffffff6125888387611836565b5116146127145760005b600281106125a35750600101612537565b9093959192979960009b9597999b9c5b8d6125be8484611836565b515111156126fd5773ffffffffffffffffffffffffffffffffffffffff6125e98f6119fe8686611836565b51169973ffffffffffffffffffffffffffffffffffffffff61260b878c6110f8565b51168b1480156126d4575b6126c85760005b6126278887611836565b51518110156126b6578e61266c8d8d8d8d73ffffffffffffffffffffffffffffffffffffffff6122de8f8f8f90846122cf82828f6122c7906119fe896122d799611836565b906020820151612681575b505060010161261d565b909e8f8f9161269a8184600194611ac4836020986110f8565b50019f01519081116126ad575b8f612677565b9e5060016126a7565b509d600191929a505b019c98906125b3565b9d600191929a506126bf565b5073ffffffffffffffffffffffffffffffffffffffff6126f4888b611836565b51168b14612616565b9c50999792919593906001909b9997959b01612592565b50989750505050505050506123a092506110f8565b5099989650505050909193508181526000936000935b83851061275357505050505080611bfd5750565b909192939496602061276587866110f8565b510151606483850204116127b05760019061278087866110f8565b5151602061278e89886110f8565b51015102019760206127a088876110f8565b51015101955b019392919061273f565b96946001906127a6565b919061282757604051916127cd83610db4565b600183526020368185013773ffffffffffffffffffffffffffffffffffffffff6127f6846110eb565b911690526040519061280782610db4565b6001825260203681840137670de0b6b3a7640000612824836110eb565b52565b73ffffffffffffffffffffffffffffffffffffffff809281600754166040519485927fcb991d9400000000000000000000000000000000000000000000000000000000845216600483015281602460009384935afa9384156129ab5781928295612893575b5050509190565b91945091503d8085843e6128a78184610e1b565b820160408382031261021157825167ffffffffffffffff908181116129875784019382601f86011215612987578451946128e086610e5c565b956128ee6040519788610e1b565b808752602095868089019260051b840101928684116129a7578701915b83831061298b575050505083810151918211612987570181601f820112156129835780519061293982610e5c565b966129476040519889610e1b565b828852848089019360051b83010193841161055057508301905b828210612974575050505038808061288c565b81518152908301908301612961565b8580fd5b8680fd5b825182811681036129a357815291870191870161290b565b8b80fd5b8a80fd5b50604051903d90823e3d90fd5b9060409182516129c781610db4565b60005b848110612a405750809351908160055480845281602080950160056000527f036b6384b5eca791c62761152d0c79bb0604c104a5fb6f4eb0703f3154bb3db09260005b87828210612a2a57505050612a2492500382610e1b565b81520152565b8554845260019586019587955093019201612a0d565b6060828201526020016129ca565b9194939294604080926064825196612a6588610db4565b60009788815288602082015299845197889485937f14999e7900000000000000000000000000000000000000000000000000000000855273ffffffffffffffffffffffffffffffffffffffff8094818094166004880152166024860152166044840152165afa928385918695612b69575b50612ae3575b5050505050565b612af19293949596506117f4565b92670de0b6b3a764000093848102948186041490151715612b3c57506ec097ce7bc90715b34b9f1000000000905192612b2984610db4565b0482526020820152903880808080612adc565b807f4e487b7100000000000000000000000000000000000000000000000000000000602492526011600452fd5b84809296508193503d8311612b99575b612b838183610e1b565b8101031261021157602081519101519338612ad6565b503d612b79565b92959493919093604080956064825193612bb985610db4565b6000948581528560208201529a845198899485937f14999e7900000000000000000000000000000000000000000000000000000000855273ffffffffffffffffffffffffffffffffffffffff8094818094166004880152166024860152166044840152165afa8094828096612c7d575b5050612c36575050505050565b6ec097ce7bc90715b34b9f10000000009394959650612c5e9291612c59916117f4565b6117f4565b04915191612c6b83610db4565b82526020820152903880808080612adc565b91955091508582813d8311612caf575b612c978183610e1b565b81010312610550575060208151910151933880612c29565b503d612c8d56fea2646970667358221220530f04a79e984b5dff092974003627fd34fc1109ea4946afeb9a75791151089464736f6c63430008130033",
  "devdoc": {
    "kind": "dev",
    "methods": {
      "addConnector(address)": {
        "params": {
          "connector": "The address of the new connector to add"
        }
      },
      "addOracle(address,uint8)": {
        "params": {
          "oracle": "The address of the new oracle to add",
          "oracleKind": "The type of the new oracle"
        }
      },
      "connectors()": {
        "returns": {
          "allConnectors": "An array of all registered connectors"
        }
      },
      "getRate(address,address,bool)": {
        "params": {
          "dstToken": "The destination token",
          "srcToken": "The source token",
          "useWrappers": "Boolean flag to use or not use token wrappers"
        },
        "returns": {
          "weightedRate": "weighted rate between the two tokens"
        }
      },
      "getRateWithCustomConnectors(address,address,bool,address[],uint256)": {
        "params": {
          "customConnectors": "An array of custom connectors to use",
          "dstToken": "The destination token",
          "srcToken": "The source token",
          "thresholdFilter": "The threshold percentage (from 0 to 100) used to filter out rates below the threshold",
          "useWrappers": "Boolean flag to use or not use token wrappers"
        },
        "returns": {
          "weightedRate": "The weighted rate between the two tokens"
        }
      },
      "getRateWithThreshold(address,address,bool,uint256)": {
        "params": {
          "dstToken": "The destination token",
          "srcToken": "The source token",
          "thresholdFilter": "The threshold percentage (from 0 to 100) used to filter out rates below the threshold",
          "useWrappers": "Boolean flag to use or not use token wrappers"
        },
        "returns": {
          "weightedRate": "weighted rate between the two tokens"
        }
      },
      "oracles()": {
        "returns": {
          "allOracles": "An array of all registered oracles",
          "oracleTypes": "An array of the corresponding types for each oracle"
        }
      },
      "owner()": {
        "details": "Returns the address of the current owner."
      },
      "removeConnector(address)": {
        "params": {
          "connector": "The address of the connector to remove"
        }
      },
      "removeOracle(address,uint8)": {
        "params": {
          "oracle": "The address of the oracle to remove",
          "oracleKind": "The type of the oracle to remove"
        }
      },
      "renounceOwnership()": {
        "details": "Leaves the contract without owner. It will not be possible to call `onlyOwner` functions anymore. Can only be called by the current owner. NOTE: Renouncing ownership will leave the contract without an owner, thereby removing any functionality that is only available to the owner."
      },
      "setMultiWrapper(address)": {
        "params": {
          "_multiWrapper": "The address of the MultiWrapper contract"
        }
      },
      "transferOwnership(address)": {
        "details": "Transfers ownership of the contract to a new account (`newOwner`). Can only be called by the current owner."
      }
    },
    "version": 1
  },
  "userdoc": {
    "kind": "user",
    "methods": {
      "addConnector(address)": {
        "notice": "Adds a new connector to the registry."
      },
      "addOracle(address,uint8)": {
        "notice": "Adds a new oracle to the registry with the given oracle type."
      },
      "connectors()": {
        "notice": "Returns an array of all registered connectors."
      },
      "getRate(address,address,bool)": {
        "notice": "WARNING!    Usage of the dex oracle on chain is highly discouraged!    getRate function can be easily manipulated inside transaction!Returns the weighted rate between two tokens using default connectors, with the option to filter out rates below a certain threshold."
      },
      "getRateToEth(address,bool)": {
        "notice": "WARNING!    Usage of the dex oracle on chain is highly discouraged!    getRate function can be easily manipulated inside transaction!The same as `getRate` but checks against `ETH` and `WETH` only"
      },
      "getRateToEthWithCustomConnectors(address,bool,address[],uint256)": {
        "notice": "WARNING!    Usage of the dex oracle on chain is highly discouraged!    getRate function can be easily manipulated inside transaction!The same as `getRateWithCustomConnectors` but checks against `ETH` and `WETH` only"
      },
      "getRateToEthWithThreshold(address,bool,uint256)": {
        "notice": "WARNING!    Usage of the dex oracle on chain is highly discouraged!    getRate function can be easily manipulated inside transaction!The same as `getRate` but checks against `ETH` and `WETH` only"
      },
      "getRateWithCustomConnectors(address,address,bool,address[],uint256)": {
        "notice": "WARNING!    Usage of the dex oracle on chain is highly discouraged!    getRate function can be easily manipulated inside transaction!Returns the weighted rate between two tokens using custom connectors, with the option to filter out rates below a certain threshold."
      },
      "getRateWithThreshold(address,address,bool,uint256)": {
        "notice": "WARNING!    Usage of the dex oracle on chain is highly discouraged!    getRate function can be easily manipulated inside transaction!Returns the weighted rate between two tokens using default connectors, with the option to filter out rates below a certain threshold."
      },
      "oracles()": {
        "notice": "Returns all registered oracles along with their corresponding oracle types."
      },
      "removeConnector(address)": {
        "notice": "Removes a connector from the registry."
      },
      "removeOracle(address,uint8)": {
        "notice": "Removes an oracle from the registry with the given oracle type."
      },
      "setMultiWrapper(address)": {
        "notice": "Sets the MultiWrapper contract address."
      }
    },
    "version": 1
  },
  "storageLayout": {
    "storage": [
      {
        "astId": 7,
        "contract": "contracts/OffchainOracle.sol:OffchainOracle",
        "label": "_owner",
        "offset": 0,
        "slot": "0",
        "type": "t_address"
      },
      {
        "astId": 5058,
        "contract": "contracts/OffchainOracle.sol:OffchainOracle",
        "label": "_wethOracles",
        "offset": 0,
        "slot": "1",
        "type": "t_struct(AddressSet)4198_storage"
      },
      {
        "astId": 5061,
        "contract": "contracts/OffchainOracle.sol:OffchainOracle",
        "label": "_ethOracles",
        "offset": 0,
        "slot": "3",
        "type": "t_struct(AddressSet)4198_storage"
      },
      {
        "astId": 5064,
        "contract": "contracts/OffchainOracle.sol:OffchainOracle",
        "label": "_connectors",
        "offset": 0,
        "slot": "5",
        "type": "t_struct(AddressSet)4198_storage"
      },
      {
        "astId": 5067,
        "contract": "contracts/OffchainOracle.sol:OffchainOracle",
        "label": "multiWrapper",
        "offset": 0,
        "slot": "7",
        "type": "t_contract(MultiWrapper)4977"
      }
    ],
    "types": {
      "t_address": {
        "encoding": "inplace",
        "label": "address",
        "numberOfBytes": "20"
      },
      "t_array(t_bytes32)dyn_storage": {
        "base": "t_bytes32",
        "encoding": "dynamic_array",
        "label": "bytes32[]",
        "numberOfBytes": "32"
      },
      "t_bytes32": {
        "encoding": "inplace",
        "label": "bytes32",
        "numberOfBytes": "32"
      },
      "t_contract(MultiWrapper)4977": {
        "encoding": "inplace",
        "label": "contract MultiWrapper",
        "numberOfBytes": "20"
      },
      "t_mapping(t_bytes32,t_uint256)": {
        "encoding": "mapping",
        "key": "t_bytes32",
        "label": "mapping(bytes32 => uint256)",
        "numberOfBytes": "32",
        "value": "t_uint256"
      },
      "t_struct(AddressSet)4198_storage": {
        "encoding": "inplace",
        "label": "struct EnumerableSet.AddressSet",
        "members": [
          {
            "astId": 4197,
            "contract": "contracts/OffchainOracle.sol:OffchainOracle",
            "label": "_inner",
            "offset": 0,
            "slot": "0",
            "type": "t_struct(Set)3883_storage"
          }
        ],
        "numberOfBytes": "64"
      },
      "t_struct(Set)3883_storage": {
        "encoding": "inplace",
        "label": "struct EnumerableSet.Set",
        "members": [
          {
            "astId": 3878,
            "contract": "contracts/OffchainOracle.sol:OffchainOracle",
            "label": "_values",
            "offset": 0,
            "slot": "0",
            "type": "t_array(t_bytes32)dyn_storage"
          },
          {
            "astId": 3882,
            "contract": "contracts/OffchainOracle.sol:OffchainOracle",
            "label": "_indexes",
            "offset": 0,
            "slot": "1",
            "type": "t_mapping(t_bytes32,t_uint256)"
          }
        ],
        "numberOfBytes": "64"
      },
      "t_uint256": {
        "encoding": "inplace",
        "label": "uint256",
        "numberOfBytes": "32"
      }
    }
  }
}