{
  "address": "0x8e8e48829A49A63Af9E6733D52BDb15ecBB65934",
  "abi": [
    {
      "inputs": [],
      "name": "FACTORY",
      "outputs": [
        {
          "internalType": "address",
          "name": "",
          "type": "address"
        }
      ],
      "stateMutability": "view",
      "type": "function"
    },
    {
      "inputs": [],
      "name": "POOL_INIT_CODE_HASH",
      "outputs": [
        {
          "internalType": "bytes32",
          "name": "",
          "type": "bytes32"
        }
      ],
      "stateMutability": "view",
      "type": "function"
    },
    {
      "inputs": [
        {
          "internalType": "contract IERC20",
          "name": "srcToken",
          "type": "address"
        },
        {
          "internalType": "contract IERC20",
          "name": "dstToken",
          "type": "address"
        },
        {
          "internalType": "contract IERC20",
          "name": "connector",
          "type": "address"
        }
      ],
      "name": "getRate",
      "outputs": [
        {
          "internalType": "uint256",
          "name": "rate",
          "type": "uint256"
        },
        {
          "internalType": "uint256",
          "name": "weight",
          "type": "uint256"
        }
      ],
      "stateMutability": "view",
      "type": "function"
    }
  ],
  "transactionHash": "0x744e55e45f736f5553fceab0128a38270bb87688c3d54c77a9efbb54e138cb1c",
  "args": [],
  "numDeployments": 1,
  "solcInputHash": "349869773c4f0d877f16fdce3d550d66",
  "bytecode": "0x608060405234801561001057600080fd5b50610906806100206000396000f3fe608060405234801561001057600080fd5b50600436106100415760003560e01c806314999e79146100465780632dd31000146100a4578063dc6fd8ab146100e8575b600080fd5b61008b6004803603606081101561005c57600080fd5b5073ffffffffffffffffffffffffffffffffffffffff8135811691602081013582169160409091013516610121565b6040805192835260208301919091528051918290030190f35b6100bf731f98431c8ad98523631ae4a59f267346ea31f98481565b6040805173ffffffffffffffffffffffffffffffffffffffff9092168252519081900360200190f35b61010f7fe34f199b19b2b4f47f68442619d555527d244f78a3297ea89325f843f87b8b5481565b60408051918252519081900360200190f35b60408051608081018252606481526101f46020820152610bb891810191909152612710606082015260009081907fffffffffffffffffffffffff000000000000000000000000000000000000000173ffffffffffffffffffffffffffffffffffffffff85160161020a5760005b60048110156102045760008060006101bd8a8a8787600481106101b3576101b36107b3565b602002015161033f565b9194509250905060006101d0838361072a565b90506101e66101df858361072a565b899061073d565b97506101f2878261073d565b9650506001909301925061018e915050565b50610318565b60005b60048110156103165760005b600481101561030d57600080600061023e8b8a8888600481106101b3576101b36107b3565b9250925092508160001480610251575080155b1561025e57505050610305565b600080600061027a8c8e8b8a600481106101b3576101b36107b3565b925092509250816000148061028d575080155b1561029d57505050505050610305565b838210156102a9579092905b60006102c9836102c3876102bd8a8761072a565b9061072a565b90610749565b90506102ef6102e8826102bd670de0b6b3a76400006102c38c8a61072a565b8d9061073d565b9b506102fb8b8261073d565b9a50505050505050505b600101610219565b5060010161020d565b505b8115610336576103288284610840565b925061033382610755565b91505b50935093915050565b60008060008060008673ffffffffffffffffffffffffffffffffffffffff168873ffffffffffffffffffffffffffffffffffffffff1610610381578688610384565b87875b6040805173ffffffffffffffffffffffffffffffffffffffff8085166020808401919091529084168284015262ffffff8b16606080840191909152835180840390910181526080830184528051908201207fff0000000000000000000000000000000000000000000000000000000000000060a08401527f1f98431c8ad98523631ae4a59f267346ea31f98400000000000000000000000060a184015260b58301527fe34f199b19b2b4f47f68442619d555527d244f78a3297ea89325f843f87b8b5460d5808401919091528351808403909101815260f59092019092528051910120919350915073ffffffffffffffffffffffffffffffffffffffff81163b158061050257508073ffffffffffffffffffffffffffffffffffffffff16631a6865026040518163ffffffff1660e01b8152600401602060405180830381865afa1580156104d6573d6000803e3d6000fd5b505050506040513d60208110156104ec57600080fd5b50516fffffffffffffffffffffffffffffffff16155b1561051a576000806000955095509550505050610721565b60008173ffffffffffffffffffffffffffffffffffffffff16633850c7bd6040518163ffffffff1660e01b815260040160e060405180830381865afa158015610567573d6000803e3d6000fd5b505050506040513d60e081101561057d57600080fd5b505173ffffffffffffffffffffffffffffffffffffffff9081169150848116908b16036105ce57606081816105ba82670de0b6b3a764000061087b565b6105c592911c61087b565b901c9650610606565b806105f9817f0de0b6b3a7640000000000000000000000000000000000000000000000000000610840565b6106039190610840565b96505b8973ffffffffffffffffffffffffffffffffffffffff166370a08231836040518263ffffffff1660e01b8152600401808273ffffffffffffffffffffffffffffffffffffffff168152602001915050602060405180830381865afa158015610672573d6000803e3d6000fd5b505050506040513d602081101561068857600080fd5b5051604080517f70a0823100000000000000000000000000000000000000000000000000000000815273ffffffffffffffffffffffffffffffffffffffff85811660048301529151929850908b16916370a08231916024808201926020929091908290030181865afa158015610702573d6000803e3d6000fd5b505050506040513d602081101561071857600080fd5b50519450505050505b93509350939050565b6000610736828461087b565b9392505050565b600061073682846108b8565b60006107368284610840565b600060038211156107a4575080600160028204015b8181101561079e57809150600281828581610787576107876107e2565b040181610796576107966107e2565b04905061076a565b50919050565b81156107ae575060015b919050565b7f4e487b7100000000000000000000000000000000000000000000000000000000600052603260045260246000fd5b7f4e487b7100000000000000000000000000000000000000000000000000000000600052601260045260246000fd5b7f4e487b7100000000000000000000000000000000000000000000000000000000600052601160045260246000fd5b600082610876577f4e487b7100000000000000000000000000000000000000000000000000000000600052601260045260246000fd5b500490565b6000817fffffffffffffffffffffffffffffffffffffffffffffffffffffffffffffffff04831182151516156108b3576108b3610811565b500290565b600082198211156108cb576108cb610811565b50019056fea26469706673582212200c795a22e6eaa90668d31b90ba96b28663ba2025939af095a93ac906f610688464736f6c634300080f0033",
  "devdoc": {
    "kind": "dev",
    "methods": {},
    "version": 1
  },
  "userdoc": {
    "kind": "user",
    "methods": {},
    "version": 1
  },
  "storageLayout": {
    "storage": [],
    "types": null
  }
}