{
  "address": "0xFbF54317e4820B461E7fA1B2819B6755e1cc0F62",
  "abi": [
    {
      "inputs": [
        {
          "internalType": "contract IUniswapV4StateView",
          "name": "_stateView",
          "type": "address"
        },
        {
          "internalType": "uint24[]",
          "name": "_fees",
          "type": "uint24[]"
        },
        {
          "internalType": "int24[]",
          "name": "_spacings",
          "type": "int24[]"
        }
      ],
      "stateMutability": "nonpayable",
      "type": "constructor"
    },
    {
      "inputs": [],
      "name": "ConnectorShouldBeNone",
      "type": "error"
    },
    {
      "inputs": [],
      "name": "PoolNotFound",
      "type": "error"
    },
    {
      "inputs": [],
      "name": "PoolWithConnectorNotFound",
      "type": "error"
    },
    {
      "inputs": [],
      "name": "STATE_VIEW",
      "outputs": [
        {
          "internalType": "contract IUniswapV4StateView",
          "name": "",
          "type": "address"
        }
      ],
      "stateMutability": "view",
      "type": "function"
    },
    {
      "inputs": [
        {
          "internalType": "uint256",
          "name": "",
          "type": "uint256"
        }
      ],
      "name": "fees",
      "outputs": [
        {
          "internalType": "uint24",
          "name": "",
          "type": "uint24"
        }
      ],
      "stateMutability": "view",
      "type": "function"
    },
    {
      "inputs": [
        {
          "internalType": "contract IERC20",
          "name": "srcToken",
          "type": "address"
        },
        {
          "internalType": "contract IERC20",
          "name": "dstToken",
          "type": "address"
        },
        {
          "internalType": "contract IERC20",
          "name": "connector",
          "type": "address"
        },
        {
          "internalType": "uint256",
          "name": "thresholdFilter",
          "type": "uint256"
        }
      ],
      "name": "getRate",
      "outputs": [
        {
          "internalType": "uint256",
          "name": "rate",
          "type": "uint256"
        },
        {
          "internalType": "uint256",
          "name": "weight",
          "type": "uint256"
        }
      ],
      "stateMutability": "view",
      "type": "function"
    },
    {
      "inputs": [
        {
          "internalType": "uint256",
          "name": "",
          "type": "uint256"
        }
      ],
      "name": "spacings",
      "outputs": [
        {
          "internalType": "int24",
          "name": "",
          "type": "int24"
        }
      ],
      "stateMutability": "view",
      "type": "function"
    }
  ],
  "transactionHash": "0x3241e176c8f8e468bf7aaa9b22d1105f1592170a86cf8fb19ae62dc8c38df075",
  "args": [
    "0x5eA1bD7974c8A611cBAB0bDCAFcB1D9CC9b3BA5a",
    [
      100,
      500,
      3000,
      10000
    ],
    [
      1,
      10,
      60,
      200
    ]
  ],
  "numDeployments": 1,
  "bytecode": "0x60a060405234620003d35762001100803803806200001d81620003f4565b9283398101606082820312620003d3578151906001600160a01b0382168203620003d3576020838101516001600160401b039491929190858111620003d357810182601f82011215620003d357805191620000826200007c846200041a565b620003f4565b9185838581520186819560051b83010191868311620003d3578701905b828210620003d757505050604081015190878211620003d357019483601f87011215620003d357855193620000d86200007c866200041a565b968688878152019087829760051b820101928311620003d3578701905b828210620003b8575050506080525193858511620002cc576801000000000000000091828611620002cc575f54865f5580871062000383575b505f808052858120600a97888104925b838110620003345750828902900380620002e0575b5050505051948511620002cc578411620002cc57600190815485835580861062000274575b5093815f52825f2092848204945f5b8681106200022a575085028083039203620001d1575b604051610cb590816200044b823960805181818160ee0152818161068d015281816107200152818161082701526108b50152f35b9491905f955f5b828110620001f357505050505001555f80808080806200019d565b909192826200021d869983975160020b908560030260031b9162ffffff809116831b921b19161790565b98019493929101620001d8565b5f805b83811062000242575086820155840162000187565b9890846200026a8892845160020b908d60030260031b9162ffffff809116831b921b19161790565b920199016200022d565b620002a290835f52845f2086600981818b01048301936003838c060280620002a9575b500104019062000432565b5f62000178565b620002c5905f198701908154905f199060200360031b1c169055565b5f62000297565b634e487b7160e01b5f52604160045260245ffd5b925f935f5b89828210620002fe575050505001555f80808062000153565b62000329849762ffffff60019495965116908560030260031b9162ffffff809116831b921b19161790565b9601929101620002e5565b5f805b8a8c82106200034f575050838201556001016200013e565b62000379889362ffffff6001949a5116908a60030260031b9162ffffff809116831b921b19161790565b9201960162000337565b620003b1905f8052865f20600a600981818c01048301936003838d060280620002a957500104019062000432565b5f6200012e565b81518060020b8103620003d3578152908701908701620000f5565b5f80fd5b815162ffffff81168103620003d35781529087019087016200009f565b6040519190601f01601f191682016001600160401b03811183821017620002cc57604052565b6001600160401b038111620002cc5760051b60200190565b8181106200043e575050565b5f81556001016200043256fe6080806040526004361015610012575f80fd5b5f3560e01c9081633d549b321461016c575080634acc79ed14610112578063aa4cfccd146100a45763e47daf6c14610048575f80fd5b346100a05760207ffffffffffffffffffffffffffffffffffffffffffffffffffffffffffffffffc3601126100a0576004356001548110156100a05761008f602091610473565b90546040519160031b1c60020b8152f35b5f80fd5b346100a0575f7ffffffffffffffffffffffffffffffffffffffffffffffffffffffffffffffffc3601126100a057602060405173ffffffffffffffffffffffffffffffffffffffff7f0000000000000000000000000000000000000000000000000000000000000000168152f35b346100a05760207ffffffffffffffffffffffffffffffffffffffffffffffffffffffffffffffffc3601126100a0576004355f548110156100a05762ffffff61015c60209261040a565b9190546040519260031b1c168152f35b346100a05760807ffffffffffffffffffffffffffffffffffffffffffffffffffffffffffffffffc3601126100a05773ffffffffffffffffffffffffffffffffffffffff8060043516600435036100a0578060243516602435036100a0576044358181168091036100a057036103e2575f54600154906101ec82826104b1565b916040516060810181811067ffffffffffffffff8211176103b55760609160409182525f81525f602082015201526040519260808160061b8501016040525f84525f602085015260608401806040860152525f5b82811061032c57835f806020830151806040850151525f905b808210610287576040848480610276575b82519182526020820152f35b908161028191610559565b9061026a565b9091610297836040870151610af6565b5193602085019485516064810290808204606414901517156102ff576102c060643589516104b1565b116102f357916102e26102ea926102dc600195518951906104b1565b90610b87565b955190610b87565b925b0190610259565b509350916001906102ec565b7f4e487b71000000000000000000000000000000000000000000000000000000005f52601160045260245ffd5b5f5b82811061033e5750600101610240565b61037562ffffff61034e8461040a565b91905460039261035d86610473565b905490851b1c60020b931b1c16602435600435610590565b919060405180604081011067ffffffffffffffff6040830111176103b5576001936103ae92604083016040528252602082015287610b0a565b500161032e565b7f4e487b71000000000000000000000000000000000000000000000000000000005f52604160045260245ffd5b807fccf7e6f70000000000000000000000000000000000000000000000000000000060049252fd5b905f54821015610446575f80526003600a8084047f290decd9548b62a8d60345a988386fc84ba6bc95484008f6362f93160ef3e5630193060290565b7f4e487b71000000000000000000000000000000000000000000000000000000005f52603260045260245ffd5b906001548210156104465760015f526003600a8084047fb10e2d527612073b26eecdfd717e6a320cf44b4afac2b0732d9fcbe2b7fa0cf60193060290565b818102929181159184041417156102ff57565b90601f7fffffffffffffffffffffffffffffffffffffffffffffffffffffffffffffffe0910116810190811067ffffffffffffffff8211176103b557604052565b51906fffffffffffffffffffffffffffffffff821682036100a057565b519062ffffff821682036100a057565b91908260409103126100a057602061054983610505565b92015180600f0b81036100a05790565b8115610563570490565b7f4e487b71000000000000000000000000000000000000000000000000000000005f52601260045260245ffd5b92919273ffffffffffffffffffffffffffffffffffffffff811673ffffffffffffffffffffffffffffffffffffffff83168082105f14610aea57505090926001915b6040519160a0830183811067ffffffffffffffff8211176103b55762ffffff9273ffffffffffffffffffffffffffffffffffffffff9160405216835273ffffffffffffffffffffffffffffffffffffffff602096168684015216604082015260a08360020b918260608201525f6080820152206040517ffa6793d5000000000000000000000000000000000000000000000000000000008152816004820152858160248173ffffffffffffffffffffffffffffffffffffffff7f0000000000000000000000000000000000000000000000000000000000000000165afa801561095f575f90610aa6575b6fffffffffffffffffffffffffffffffff915016918215610a9a576040517fc815641c00000000000000000000000000000000000000000000000000000000815282600482015260808160248173ffffffffffffffffffffffffffffffffffffffff7f0000000000000000000000000000000000000000000000000000000000000000165afa90811561095f575f975f92610a1d575b505060020b8115610563577fffffffffffffffffffffffffffffffffffffffffffffffffffffffffffffffff82147fffffffffffffffffffffffffffffffffffffffffffffffffffffffffff8000008214166102ff5781900560020b0293848060020b036102ff578294855f5b8795600282810b1361099b57604080517fcaedab5400000000000000000000000000000000000000000000000000000000815260048101889052600286810b858902820b01900b6024820152908160448173ffffffffffffffffffffffffffffffffffffffff7f0000000000000000000000000000000000000000000000000000000000000000165afa90811561095f575f9161097a575b50600f0b019182808210911802821897821561096a57604080517fcaedab5400000000000000000000000000000000000000000000000000000000815260048101889052868402600290810b87820b03900b602482015290816044817f000000000000000000000000000000000000000000000000000000000000000073ffffffffffffffffffffffffffffffffffffffff165afa90811561095f575f9161092e575b50600f0b80910398898082109118028918961461091f5760010160020b9490946107bf565b5050505050505050505f905f90565b610950915060403d604011610958575b61094881836104c4565b810190610532565b90505f6108fa565b503d61093e565b6040513d5f823e3d90fd5b505050505050505050505f905f90565b610993915060403d6040116109585761094881836104c4565b90505f610857565b5050969550505050505f146109d5576109cd73ffffffffffffffffffffffffffffffffffffffff6109d2921680610b94565b610c12565b91565b73ffffffffffffffffffffffffffffffffffffffff16801561056357806109d2917f0de0b6b3a764000000000000000000000000000000000000000000000000000004610559565b915096506080873d608011610a92575b81610a3a608093836104c4565b810103126100a05786519073ffffffffffffffffffffffffffffffffffffffff821682036100a057870151968760020b88036100a057606081610a826040610a899401610522565b5001610522565b50955f80610752565b3d9150610a2d565b5050505050505f905f90565b508581813d8311610ae3575b610abc81836104c4565b810103126100a057610ade6fffffffffffffffffffffffffffffffff91610505565b6106bc565b503d610ab2565b90945f935091506105d2565b80518210156104465760209160051b010190565b9060208101908151610b1d575050505f90565b610b3e6040840151916020850192835191610b388383610af6565b52610af6565b5080517fffffffffffffffffffffffffffffffffffffffffffffffffffffffffffffffff81146102ff576001019052519080518211610b7f575b5050600190565b525f80610b78565b919082018092116102ff57565b7fffffffffffffffffffffffffffffffffffffffffffffffffffffffffffffffff8282099082810292838084109303928084039314610c09576c010000000000000000000000009183831115610bf7570990828211900360a01b910360601c1790565b634e487b715f5260116020526024601cfd5b50505060601c90565b670de0b6b3a7640000907fffffffffffffffffffffffffffffffffffffffffffffffffffffffffffffffff8282099082810292838084109303928084039314610c09576c010000000000000000000000009183831115610bf7570990828211900360a01b910360601c179056fea2646970667358221220557fab5e29c3a3de7e6c49d71264d1917f581542c88de69ffda0f8de5ab3bdb864736f6c63430008170033"
}