{
  "address": "0x67f0a177AE57EF82f7fD4F6c37Dc87A29aD4D2cB",
  "abi": [
    {
      "inputs": [
        {
          "internalType": "contract IComptroller",
          "name": "comptroller",
          "type": "address"
        },
        {
          "internalType": "contract IERC20",
          "name": "cBase",
          "type": "address"
        }
      ],
      "stateMutability": "nonpayable",
      "type": "constructor"
    },
    {
      "inputs": [
        {
          "internalType": "contract ICToken[]",
          "name": "markets",
          "type": "address[]"
        }
      ],
      "name": "addMarkets",
      "outputs": [],
      "stateMutability": "nonpayable",
      "type": "function"
    },
    {
      "inputs": [
        {
          "internalType": "contract IERC20",
          "name": "",
          "type": "address"
        }
      ],
      "name": "cTokenToToken",
      "outputs": [
        {
          "internalType": "contract IERC20",
          "name": "",
          "type": "address"
        }
      ],
      "stateMutability": "view",
      "type": "function"
    },
    {
      "inputs": [
        {
          "internalType": "contract ICToken[]",
          "name": "markets",
          "type": "address[]"
        }
      ],
      "name": "removeMarkets",
      "outputs": [],
      "stateMutability": "nonpayable",
      "type": "function"
    },
    {
      "inputs": [
        {
          "internalType": "contract IERC20",
          "name": "",
          "type": "address"
        }
      ],
      "name": "tokenTocToken",
      "outputs": [
        {
          "internalType": "contract IERC20",
          "name": "",
          "type": "address"
        }
      ],
      "stateMutability": "view",
      "type": "function"
    },
    {
      "inputs": [
        {
          "internalType": "contract IERC20",
          "name": "token",
          "type": "address"
        }
      ],
      "name": "wrap",
      "outputs": [
        {
          "internalType": "contract IERC20",
          "name": "wrappedToken",
          "type": "address"
        },
        {
          "internalType": "uint256",
          "name": "rate",
          "type": "uint256"
        }
      ],
      "stateMutability": "view",
      "type": "function"
    }
  ],
  "transactionHash": "0xfd20fc19000749dd11c905896ab9a7d5de1fb5540945230e28f74a82268d11c6",
  "args": [
    "0x260E596DAbE3AFc463e75B6CC05d8c46aCAcFB09",
    "0xe0654C8e6fd4D733349ac7E09f6f23DA256bF475"
  ],
  "numDeployments": 1,
  "solcInputHash": "27933fcff4787bd8e116fb7cf9934456",
  "bytecode": "0x60c060405234801561001057600080fd5b50604051610c9f380380610c9f8339818101604052604081101561003357600080fd5b5080516020909101516001600160a01b039182166080521660a05260805160a051610c1061008f600039600081816102e501528181610306015281816103ab015261040101526000818161065301526108ac0152610c106000f3fe608060405234801561001057600080fd5b50600436106100675760003560e01c80637d683561116100505780637d6835611461013a578063bfef7bdf1461017d578063da40385d1461022257600080fd5b8063023276f01461006c57806346bfac4a146100cf575b600080fd5b61009f6004803603602081101561008257600080fd5b503573ffffffffffffffffffffffffffffffffffffffff166102c5565b6040805173ffffffffffffffffffffffffffffffffffffffff909316835260208301919091528051918290030190f35b610111600480360360208110156100e557600080fd5b506000602081905273ffffffffffffffffffffffffffffffffffffffff91358216815260409020541681565b6040805173ffffffffffffffffffffffffffffffffffffffff9092168252519081900360200190f35b6101116004803603602081101561015057600080fd5b50600160205273ffffffffffffffffffffffffffffffffffffffff90358116600090815260409020541681565b6102206004803603602081101561019357600080fd5b8101906020810181356401000000008111156101ae57600080fd5b8201836020820111156101c057600080fd5b803590602001918460208302840111640100000000831117156101e257600080fd5b919080806020026020016040519081016040528093929190818152602001838360200280828437600092019190915250929550610643945050505050565b005b6102206004803603602081101561023857600080fd5b81019060208101813564010000000081111561025357600080fd5b82018360208201111561026557600080fd5b8035906020019184602083028401116401000000008311171561028757600080fd5b91908080602002602001604051908101604052809392919081815260200183836020028082843760009201919091525092955061089c945050505050565b60008073ffffffffffffffffffffffffffffffffffffffff83166103a9577f00000000000000000000000000000000000000000000000000000000000000007f000000000000000000000000000000000000000000000000000000000000000073ffffffffffffffffffffffffffffffffffffffff1663182df0f56040518163ffffffff1660e01b8152600401602060405180830381865afa15801561036f573d6000803e3d6000fd5b505050506040513d602081101561038557600080fd5b50516103a0906ec097ce7bc90715b34b9f1000000000610b70565b91509150915091565b7f000000000000000000000000000000000000000000000000000000000000000073ffffffffffffffffffffffffffffffffffffffff168373ffffffffffffffffffffffffffffffffffffffff16141561048c5760007f000000000000000000000000000000000000000000000000000000000000000073ffffffffffffffffffffffffffffffffffffffff1663182df0f56040518163ffffffff1660e01b8152600401602060405180830381865afa15801561046a573d6000803e3d6000fd5b505050506040513d602081101561048057600080fd5b50519094909350915050565b73ffffffffffffffffffffffffffffffffffffffff808416600090815260208181526040808320546001909252909120549082169116811561053857818573ffffffffffffffffffffffffffffffffffffffff1663182df0f56040518163ffffffff1660e01b8152600401602060405180830381865afa158015610514573d6000803e3d6000fd5b505050506040513d602081101561052a57600080fd5b505190969095509350505050565b73ffffffffffffffffffffffffffffffffffffffff8116156105dc57808173ffffffffffffffffffffffffffffffffffffffff1663182df0f56040518163ffffffff1660e01b8152600401602060405180830381865afa1580156105a0573d6000803e3d6000fd5b505050506040513d60208110156105b657600080fd5b50516105d1906ec097ce7bc90715b34b9f1000000000610b70565b935093505050915091565b604080517f08c379a000000000000000000000000000000000000000000000000000000000815260206004820152601160248201527f556e737570706f7274656420746f6b656e000000000000000000000000000000604482015290519081900360640190fd5b60005b81518110156108985760007f000000000000000000000000000000000000000000000000000000000000000073ffffffffffffffffffffffffffffffffffffffff16638e8f294b84848151811061069f5761069f610bab565b60200260200101516040518263ffffffff1660e01b8152600401808273ffffffffffffffffffffffffffffffffffffffff168152602001915050606060405180830381865afa1580156106f6573d6000803e3d6000fd5b505050506040513d606081101561070c57600080fd5b50519050801561077d57604080517f08c379a000000000000000000000000000000000000000000000000000000000815260206004820152601060248201527f4d61726b6574206973206c697374656400000000000000000000000000000000604482015290519081900360640190fd5b600083838151811061079157610791610bab565b602002602001015173ffffffffffffffffffffffffffffffffffffffff16636f307dc36040518163ffffffff1660e01b8152600401602060405180830381865afa1580156107e3573d6000803e3d6000fd5b505050506040513d60208110156107f957600080fd5b50518451909150600090819086908690811061081757610817610bab565b60209081029190910181015173ffffffffffffffffffffffffffffffffffffffff9081168352828201939093526040918201600090812080547fffffffffffffffffffffffff000000000000000000000000000000000000000090811690915594909316835260019081905291208054909216909155919091019050610646565b5050565b60005b81518110156108985760007f000000000000000000000000000000000000000000000000000000000000000073ffffffffffffffffffffffffffffffffffffffff16638e8f294b8484815181106108f8576108f8610bab565b60200260200101516040518263ffffffff1660e01b8152600401808273ffffffffffffffffffffffffffffffffffffffff168152602001915050606060405180830381865afa15801561094f573d6000803e3d6000fd5b505050506040513d606081101561096557600080fd5b50519050806109d557604080517f08c379a000000000000000000000000000000000000000000000000000000000815260206004820152601460248201527f4d61726b6574206973206e6f74206c6973746564000000000000000000000000604482015290519081900360640190fd5b60008383815181106109e9576109e9610bab565b602002602001015173ffffffffffffffffffffffffffffffffffffffff16636f307dc36040518163ffffffff1660e01b8152600401602060405180830381865afa158015610a3b573d6000803e3d6000fd5b505050506040513d6020811015610a5157600080fd5b5051845190915081906000908190879087908110610a7157610a71610bab565b602002602001015173ffffffffffffffffffffffffffffffffffffffff1673ffffffffffffffffffffffffffffffffffffffff16815260200190815260200160002060006101000a81548173ffffffffffffffffffffffffffffffffffffffff021916908373ffffffffffffffffffffffffffffffffffffffff160217905550838381518110610b0357610b03610bab565b60209081029190910181015173ffffffffffffffffffffffffffffffffffffffff92831660009081526001928390526040902080547fffffffffffffffffffffffff000000000000000000000000000000000000000016939091169290921790915591909101905061089f565b600082610ba6577f4e487b7100000000000000000000000000000000000000000000000000000000600052601260045260246000fd5b500490565b7f4e487b7100000000000000000000000000000000000000000000000000000000600052603260045260246000fdfea2646970667358221220a143df38f5a7cc6ba2e0f233952bdf95a7c55af3350e9ea91dc2fa566861655b64736f6c634300080b0033",
  "devdoc": {
    "kind": "dev",
    "methods": {},
    "version": 1
  },
  "userdoc": {
    "kind": "user",
    "methods": {},
    "version": 1
  },
  "storageLayout": {
    "storage": [
      {
        "astId": 7441,
        "contract": "contracts/wrappers/CompoundLikeWrapper.sol:CompoundLikeWrapper",
        "label": "cTokenToToken",
        "offset": 0,
        "slot": "0",
        "type": "t_mapping(t_contract(IERC20)770,t_contract(IERC20)770)"
      },
      {
        "astId": 7447,
        "contract": "contracts/wrappers/CompoundLikeWrapper.sol:CompoundLikeWrapper",
        "label": "tokenTocToken",
        "offset": 0,
        "slot": "1",
        "type": "t_mapping(t_contract(IERC20)770,t_contract(IERC20)770)"
      }
    ],
    "types": {
      "t_contract(IERC20)770": {
        "encoding": "inplace",
        "label": "contract IERC20",
        "numberOfBytes": "20"
      },
      "t_mapping(t_contract(IERC20)770,t_contract(IERC20)770)": {
        "encoding": "mapping",
        "key": "t_contract(IERC20)770",
        "label": "mapping(contract IERC20 => contract IERC20)",
        "numberOfBytes": "32",
        "value": "t_contract(IERC20)770"
      }
    }
  }
}