{
  "address": "0x0bA0D1B119d8a8E193e2802c2C7Ef1BDfAdddc49",
  "abi": [
    {
      "inputs": [
        {
          "internalType": "contract ICurveProvider",
          "name": "_addressProvider",
          "type": "address"
        },
        {
          "internalType": "uint256",
          "name": "_maxPools",
          "type": "uint256"
        },
        {
          "internalType": "uint256[]",
          "name": "_registryIds",
          "type": "uint256[]"
        },
        {
          "internalType": "enum CurveOracle.CurveRegistryType[]",
          "name": "_registryTypes",
          "type": "uint8[]"
        }
      ],
      "stateMutability": "nonpayable",
      "type": "constructor"
    },
    {
      "inputs": [],
      "name": "ConnectorShouldBeNone",
      "type": "error"
    },
    {
      "inputs": [],
      "name": "MathOverflowedMulDiv",
      "type": "error"
    },
    {
      "inputs": [],
      "name": "PoolNotFound",
      "type": "error"
    },
    {
      "inputs": [],
      "name": "PoolWithConnectorNotFound",
      "type": "error"
    },
    {
      "inputs": [],
      "name": "MAX_POOLS",
      "outputs": [
        {
          "internalType": "uint256",
          "name": "",
          "type": "uint256"
        }
      ],
      "stateMutability": "view",
      "type": "function"
    },
    {
      "inputs": [],
      "name": "REGISTRIES_COUNT",
      "outputs": [
        {
          "internalType": "uint256",
          "name": "",
          "type": "uint256"
        }
      ],
      "stateMutability": "view",
      "type": "function"
    },
    {
      "inputs": [
        {
          "internalType": "contract IERC20",
          "name": "srcToken",
          "type": "address"
        },
        {
          "internalType": "contract IERC20",
          "name": "dstToken",
          "type": "address"
        },
        {
          "internalType": "contract IERC20",
          "name": "connector",
          "type": "address"
        },
        {
          "internalType": "uint256",
          "name": "thresholdFilter",
          "type": "uint256"
        }
      ],
      "name": "getRate",
      "outputs": [
        {
          "internalType": "uint256",
          "name": "rate",
          "type": "uint256"
        },
        {
          "internalType": "uint256",
          "name": "weight",
          "type": "uint256"
        }
      ],
      "stateMutability": "view",
      "type": "function"
    },
    {
      "inputs": [
        {
          "internalType": "uint256",
          "name": "",
          "type": "uint256"
        }
      ],
      "name": "registries",
      "outputs": [
        {
          "internalType": "contract ICurveRegistry",
          "name": "",
          "type": "address"
        }
      ],
      "stateMutability": "view",
      "type": "function"
    },
    {
      "inputs": [
        {
          "internalType": "uint256",
          "name": "",
          "type": "uint256"
        }
      ],
      "name": "registryTypes",
      "outputs": [
        {
          "internalType": "enum CurveOracle.CurveRegistryType",
          "name": "",
          "type": "uint8"
        }
      ],
      "stateMutability": "view",
      "type": "function"
    }
  ],
  "args": [
    "0x0000000022d53366457f9d5e68ec105046fc4383",
    100,
    [
      0,
      3,
      5
    ],
    [
      0,
      8,
      2
    ]
  ],
  "numDeployments": 1,
  "bytecode": "0x60c0604081815234620002a757620015ee8038038091620000218286620002bd565b8439820190608083830312620002a75782516001600160a01b03928382169291839003620002a757602085810151838701516001600160401b03969293929190878111620002a75788019683601f89011215620002a757875198620000868a620002f7565b986200009588519a8b620002bd565b8a8a52868a018760059c60051b83010191878311620002a75788809101915b838310620002ac57505050506060810151918211620002a757019280601f85011215620002a7578351620000e881620002f7565b94620000f788519687620002bd565b818652868087019260051b820101928311620002a7578601905b8282106200028d5750505060805285519560a09660a05260005b875181101562000249576200014181836200030f565b51865163124fd3dd60e21b815260049182820152602490878183818d5afa9081156200023e57600091620001fa575b5090600b9182851015620001e65784546001600160a01b0319169087161784556200019c84886200030f565b5192600a841015620001d35750509082916001938c1c0190815460f88460031b169160ff809116831b921b1916179055016200012b565b602190634e487b7160e01b600052526000fd5b50634e487b7160e01b600090815260328452fd5b8881813d831162000236575b620002128183620002bd565b810103126200023257519086821682036200022f57503862000170565b80fd5b5080fd5b503d62000206565b89513d6000823e3d90fd5b85516112b390816200033b8239608051818181610121015281816102cb0152818161030a01528181610cc60152610df7015260a0518181816101d7015261034e0152f35b8151600a811015620002a757815290860190860162000111565b600080fd5b8251815291810191899101620000b4565b601f909101601f19168101906001600160401b03821190821017620002e157604052565b634e487b7160e01b600052604160045260246000fd5b6001600160401b038111620002e15760051b60200190565b8051821015620003245760209160051b010190565b634e487b7160e01b600052603260045260246000fdfe608080604052600436101561001357600080fd5b60003560e01c9081633d549b32146101fa5750806347400449146101a15780636347c9001461014457806381358498146100eb5763b72529f21461005657600080fd5b346100e65760207ffffffffffffffffffffffffffffffffffffffffffffffffffffffffffffffffc3601126100e657600435600b8110156100e65761009c60ff91610e45565b90549060031b1c16604051600a8210156100b7576020918152f35b7f4e487b7100000000000000000000000000000000000000000000000000000000600052602160045260246000fd5b600080fd5b346100e65760007ffffffffffffffffffffffffffffffffffffffffffffffffffffffffffffffffc3601126100e65760206040517f00000000000000000000000000000000000000000000000000000000000000008152f35b346100e65760207ffffffffffffffffffffffffffffffffffffffffffffffffffffffffffffffffc3601126100e657600435600b8110156100e65773ffffffffffffffffffffffffffffffffffffffff6020915416604051908152f35b346100e65760007ffffffffffffffffffffffffffffffffffffffffffffffffffffffffffffffffc3601126100e65760206040517f00000000000000000000000000000000000000000000000000000000000000008152f35b346100e65760807ffffffffffffffffffffffffffffffffffffffffffffffffffffffffffffffffc3601126100e6576004359073ffffffffffffffffffffffffffffffffffffffff821682036100e6576024359073ffffffffffffffffffffffffffffffffffffffff821682036100e65760443573ffffffffffffffffffffffffffffffffffffffff81168091036100e65773ffffffffffffffffffffffffffffffffffffffff03610e1d57506060604080516102b681610e5d565b600081526000602082015201526040519060807f000000000000000000000000000000000000000000000000000000000000000060061b8301016040526000825260006020830152606082018060408401527f0000000000000000000000000000000000000000000000000000000000000000905260006040805161033a81610e5d565b82815282602082015201526000916000925b7f0000000000000000000000000000000000000000000000000000000000000000841080610df4575b15610d0b57600091600b851015918261078d5773ffffffffffffffffffffffffffffffffffffffff865416936040517f6982eb0b00000000000000000000000000000000000000000000000000000000815273ffffffffffffffffffffffffffffffffffffffff8916600482015273ffffffffffffffffffffffffffffffffffffffff8716602482015260006044820152602081606481895afa90811561078157600091610cec575b50915b73ffffffffffffffffffffffffffffffffffffffff8316151580610cc3575b15610cad5761044e90610ed6565b916000908561078d576000808b60405173ffffffffffffffffffffffffffffffffffffffff60208201927feb85226d000000000000000000000000000000000000000000000000000000008452818716602484015216604482015273ffffffffffffffffffffffffffffffffffffffff8c166064820152606481526104d281610e79565b51908a5afa916104e0610f2f565b9280610ca1575b15610c91576104f58a610e45565b905490600a60ff838360031b1c1610156100b75760031b1c60ff166002148015610c6c575b8015610c47575b15610c0c576040838051810103126100e65761054b604061054460208601610f8d565b9401610f8d565b81610b8b5760405161055c81610e5d565b7f92e3cc2d0000000000000000000000000000000000000000000000000000000081527f5e0d443f0000000000000000000000000000000000000000000000000000000060208201527f556d6e9f000000000000000000000000000000000000000000000000000000006040820152925b8861078d576000807fffffffff000000000000000000000000000000000000000000000000000000008651166040516020810191825273ffffffffffffffffffffffffffffffffffffffff851660248201526024815261062c81610e5d565b51908d5afa9261063a610f2f565b9380610b7f575b15610ada57908995949392916008901561096b575b83526fffffffffffffffffffffffffffffffff9161069561069061067c85891687610f9b565b5161068986851688610f9b565b5190610faf565b610ffb565b956127106106b5816106a987851689610f9b565b51049686851690610f9b565b51048515159081610961575b506107bc575b5050505050505061078d576106db90610ed6565b6040517f6982eb0b00000000000000000000000000000000000000000000000000000000815273ffffffffffffffffffffffffffffffffffffffff89811660048301528716602482015260448101829052909690602081606481895afa90811561078157600091610752575b50915b969096610421565b610774915060203d60201161077a575b61076c8183610e95565b810190610f03565b89610747565b503d610762565b6040513d6000823e3d90fd5b7f4e487b7100000000000000000000000000000000000000000000000000000000600052603260045260246000fd5b6000807fffffffff000000000000000000000000000000000000000000000000000000006020890151166040516020810191825284600f0b602482015285600f0b60448201528860648201526064815261081581610e79565b5190865afa93610823610f2f565b9685158015610956575b6108e3575b5050505050806108d7575b61084b575b808080806106c7565b909192506020828051810103126100e657602061086992015161113e565b60405180604081011067ffffffffffffffff6040830111176108a857869261089f92604083016040528252602082015285611214565b50898080610842565b7f4e487b7100000000000000000000000000000000000000000000000000000000600052604160045260246000fd5b5060208251101561083d565b600096975086955060407fffffffff0000000000000000000000000000000000000000000000000000000091015116928160405193602085019586521660248401521660448201528560648201526064815261093e81610e79565b51915afa9061094b610f2f565b918d80808080610832565b50602088511061082d565b90501515386106c1565b95506109768d610e45565b96905496600a60ff898360031b1c1610156100b7578b978f9160031b1c60ff166001148015610aae575b8015610a82575b8015610a57575b8015610a2b575b156109c457505060045b610656565b60ff9197506109d290610e45565b90549060031b1c1695600a8710156100b7578d60068c98146000146109fa5750506003610656565b60ff919750610a0890610e45565b90549060031b1c1695600a8710156100b75760038b97036109bf57506002610656565b5060ff919750610a3a90610e45565b90549060031b1c1695600a8710156100b7578d60098c98146109b5565b5060ff919750610a6690610e45565b90549060031b1c1695600a8710156100b7578d818c98146109ae565b5060ff919750610a9190610e45565b90549060031b1c1695600a8710156100b7578d60078c98146109a7565b5060ff919750610abd90610e45565b90549060031b1c1695600a8710156100b7578d60058c98146109a0565b5050505050509250610aed600093610ed6565b6040517f6982eb0b00000000000000000000000000000000000000000000000000000000815273ffffffffffffffffffffffffffffffffffffffff89811660048301528716602482015260448101829052909690602081606481895afa90811561078157600091610b60575b509161074a565b610b79915060203d60201161077a5761076c8183610e95565b89610b59565b50604084511015610641565b604051610b9781610e5d565b7f59f4f3510000000000000000000000000000000000000000000000000000000081527f07211ef70000000000000000000000000000000000000000000000000000000060208201527f85f11d1e000000000000000000000000000000000000000000000000000000006040820152926105cd565b506060828051810103126100e657610c2660208301610f8d565b916060610c3560408301610f8d565b91015180151581036100e6579061054b565b5060ff610c538b610e45565b90549060031b1c16600a8110156100b757600614610521565b5060ff610c788b610e45565b90549060031b1c16600a8110156100b75760031461051a565b5050509250610aed600093610ed6565b506040835110156104e7565b9450505093610cbc9150610ed6565b929061034c565b507f00000000000000000000000000000000000000000000000000000000000000008110610440565b610d05915060203d60201161077a5761076c8183610e95565b8961041e565b506000806020830151806040850151526000905b808210610d4d576040848480610d3c575b82519182526020820152f35b9081610d4791610fc2565b90610d30565b9091610d5d836040870151610f9b565b519360208501948551606481029080820460641490151715610dc557610d866064358951610faf565b11610db95791610da8610db092610da260019551895190610faf565b90611270565b955190611270565b925b0190610d1f565b50935091600190610db2565b7f4e487b7100000000000000000000000000000000000000000000000000000000600052601160045260246000fd5b507f00000000000000000000000000000000000000000000000000000000000000008110610375565b807fccf7e6f70000000000000000000000000000000000000000000000000000000060049252fd5b90600b82101561078d57601f8260051c600b01921690565b6060810190811067ffffffffffffffff8211176108a857604052565b60a0810190811067ffffffffffffffff8211176108a857604052565b90601f7fffffffffffffffffffffffffffffffffffffffffffffffffffffffffffffffe0910116810190811067ffffffffffffffff8211176108a857604052565b7fffffffffffffffffffffffffffffffffffffffffffffffffffffffffffffffff8114610dc55760010190565b908160209103126100e6575173ffffffffffffffffffffffffffffffffffffffff811681036100e65790565b3d15610f88573d9067ffffffffffffffff82116108a85760405191610f7c60207fffffffffffffffffffffffffffffffffffffffffffffffffffffffffffffffe0601f8401160184610e95565b82523d6000602084013e565b606090565b519081600f0b82036100e657565b805182101561078d5760209160051b010190565b81810292918115918404141715610dc557565b8115610fcc570490565b7f4e487b7100000000000000000000000000000000000000000000000000000000600052601260045260246000fd5b8015611138576110c6816000908360801c8061112c575b508060401c8061111f575b508060201c80611112575b508060101c80611105575b508060081c806110f8575b508060041c806110eb575b508060021c806110de575b50600191828092811c6110d7575b1c1b61106e8185610fc2565b01811c61107b8185610fc2565b01811c6110888185610fc2565b01811c6110958185610fc2565b01811c6110a28185610fc2565b01811c6110af8185610fc2565b01811c6110bc8185610fc2565b01901c8092610fc2565b808210156110d2575090565b905090565b0181611062565b6002915091019038611054565b6004915091019038611049565b600891509101903861103e565b6010915091019038611033565b6020915091019038611028565b604091509101903861101d565b91505060809038611012565b50600090565b670de0b6b3a764000091828202917fffffffffffffffffffffffffffffffffffffffffffffffffffffffffffffffff8482099383808610950394808603951461120457848311156111da5782910981600003821680920460028082600302188083028203028083028203028083028203028083028203028083028203028092029003029360018380600003040190848311900302920304170290565b60046040517f227bc153000000000000000000000000000000000000000000000000000000008152fd5b5050906112119250610fc2565b90565b906020810190815161122857505050600090565b61124960408401519160208501928351916112438383610f9b565b52610f9b565b506112548151610ed6565b9052519080518211611268575b5050600190565b523880611261565b91908201809211610dc55756fea26469706673582212204b098fefe89cf9d8d130bcd1b394a619e7a09613d63db61aba5c4f062b499bff64736f6c63430008170033"
}