{
  "address": "0x4e5Cee3B8Af0CB46EFAA94Cba5E0f25f8770BB19",
  "abi": [
    {
      "inputs": [
        {
          "internalType": "contract ICurveProvider",
          "name": "curveProvider",
          "type": "address"
        },
        {
          "internalType": "uint256",
          "name": "maxPools",
          "type": "uint256"
        }
      ],
      "stateMutability": "nonpayable",
      "type": "constructor"
    },
    {
      "inputs": [],
      "name": "ConnectorShouldBeNone",
      "type": "error"
    },
    {
      "inputs": [],
      "name": "PoolNotFound",
      "type": "error"
    },
    {
      "inputs": [],
      "name": "PoolWithConnectorNotFound",
      "type": "error"
    },
    {
      "inputs": [],
      "name": "CURVE_METAREGISTRY",
      "outputs": [
        {
          "internalType": "contract ICurveMetaregistry",
          "name": "",
          "type": "address"
        }
      ],
      "stateMutability": "view",
      "type": "function"
    },
    {
      "inputs": [],
      "name": "MAX_POOLS",
      "outputs": [
        {
          "internalType": "uint256",
          "name": "",
          "type": "uint256"
        }
      ],
      "stateMutability": "view",
      "type": "function"
    },
    {
      "inputs": [
        {
          "internalType": "contract IERC20",
          "name": "srcToken",
          "type": "address"
        },
        {
          "internalType": "contract IERC20",
          "name": "dstToken",
          "type": "address"
        },
        {
          "internalType": "contract IERC20",
          "name": "connector",
          "type": "address"
        },
        {
          "internalType": "uint256",
          "name": "thresholdFilter",
          "type": "uint256"
        }
      ],
      "name": "getRate",
      "outputs": [
        {
          "internalType": "uint256",
          "name": "rate",
          "type": "uint256"
        },
        {
          "internalType": "uint256",
          "name": "weight",
          "type": "uint256"
        }
      ],
      "stateMutability": "view",
      "type": "function"
    }
  ],
  "transactionHash": "0x6b369d700f9127426166b980caae1e5d9c26f04e58db0bd845a98294b8e6b89e",
  "args": [
    "0x5ffe7FB82894076ECB99A30D6A32e969e6e35E98",
    100
  ],
  "numDeployments": 2,
  "bytecode": "0x60c08060405234610106576040816200109f8038038091610020828561010b565b8339810103126101065780516001600160a01b03808216929091839003610106576020806024920151936040519283809263124fd3dd60e21b8252600760048301525afa9081156100fa576000916100b8575b501660805260a052604051610f5a908162000145823960805181818161016f0152818161042b015281816105b40152610657015260a05181818160770152610af60152f35b6020813d6020116100f2575b816100d16020938361010b565b810103126100ee57519082821682036100eb575038610073565b80fd5b5080fd5b3d91506100c4565b6040513d6000823e3d90fd5b600080fd5b601f909101601f19168101906001600160401b0382119082101761012e57604052565b634e487b7160e01b600052604160045260246000fdfe608080604052600436101561001357600080fd5b600090813560e01c9081630caeeb2414610125575080633d549b321461009d5763813584981461004257600080fd5b3461009a57807ffffffffffffffffffffffffffffffffffffffffffffffffffffffffffffffffc36011261009a5760206040517f00000000000000000000000000000000000000000000000000000000000000008152f35b80fd5b503461009a5760807ffffffffffffffffffffffffffffffffffffffffffffffffffffffffffffffffc36011261009a576004359073ffffffffffffffffffffffffffffffffffffffff90818316830361009a5760243590828216820361009a57604435928316830361009a576040610119606435858588610390565b82519182526020820152f35b90503461019357817ffffffffffffffffffffffffffffffffffffffffffffffffffffffffffffffffc3601126101935760209073ffffffffffffffffffffffffffffffffffffffff7f0000000000000000000000000000000000000000000000000000000000000000168152f35b5080fd5b6040810190811067ffffffffffffffff8211176101b357604052565b7f4e487b7100000000000000000000000000000000000000000000000000000000600052604160045260246000fd5b90601f7fffffffffffffffffffffffffffffffffffffffffffffffffffffffffffffffe0910116810190811067ffffffffffffffff8211176101b357604052565b7fffffffffffffffffffffffffffffffffffffffffffffffffffffffffffffffff81146102505760010190565b7f4e487b7100000000000000000000000000000000000000000000000000000000600052601160045260246000fd5b80518210156102935760209160051b010190565b7f4e487b7100000000000000000000000000000000000000000000000000000000600052603260045260246000fd5b519081600f0b82036102d057565b600080fd5b9060088110156102935760051b0190565b3d1561033f573d9067ffffffffffffffff82116101b3576040519161033360207fffffffffffffffffffffffffffffffffffffffffffffffffffffffffffffffe0601f84011601846101e2565b82523d6000602084013e565b606090565b8181029291811591840414171561025057565b8115610361570490565b7f4e487b7100000000000000000000000000000000000000000000000000000000600052601260045260246000fd5b909173ffffffffffffffffffffffffffffffffffffffff80911603610c7e57604051917fa064072b00000000000000000000000000000000000000000000000000000000835273ffffffffffffffffffffffffffffffffffffffff8216600484015273ffffffffffffffffffffffffffffffffffffffff8116602484015260008360448173ffffffffffffffffffffffffffffffffffffffff7f0000000000000000000000000000000000000000000000000000000000000000165afa9283156109cf57600093610bcd575b50825115610bc15773ffffffffffffffffffffffffffffffffffffffff821673eeeeeeeeeeeeeeeeeeeeeeeeeeeeeeeeeeeeeeee03610b1b57670de0b6b3a7640000905b83519560405180606081011067ffffffffffffffff6060830111176101b35760408160608093018252600081526000602082015201526040519660808160061b8901016040526000885260006020890152606088016040890152606088015260005b8551811080610aee575b15610a335773ffffffffffffffffffffffffffffffffffffffff610530828861027f565b511690604051917feb85226d000000000000000000000000000000000000000000000000000000008352600483015273ffffffffffffffffffffffffffffffffffffffff8616602483015273ffffffffffffffffffffffffffffffffffffffff8416604483015260608260648173ffffffffffffffffffffffffffffffffffffffff7f0000000000000000000000000000000000000000000000000000000000000000165afa80156109cf576000926000906000926109db575b5073ffffffffffffffffffffffffffffffffffffffff61060a848b61027f565b511691604051927f59f4f35100000000000000000000000000000000000000000000000000000000845260048401526101008360248173ffffffffffffffffffffffffffffffffffffffff7f0000000000000000000000000000000000000000000000000000000000000000165afa9283156109cf57600093610935575b5089886106a76fffffffffffffffffffffffffffffffff8816866102d5565b5111801590610911575b610903576106e073ffffffffffffffffffffffffffffffffffffffff6106d98760ff9461027f565b5116610ca8565b16159081806108fc575b1561089b5750507f07211ef7000000000000000000000000000000000000000000000000000000005b73ffffffffffffffffffffffffffffffffffffffff610732858c61027f565b51166040519160208301526fffffffffffffffffffffffffffffffff861660248301526fffffffffffffffffffffffffffffffff83166044830152886064830152606482528160a081011067ffffffffffffffff60a0840111176101b357816000929160a0849301604052602082519201905afa6107ae6102e6565b908061088f575b6107cc575b5050506107c79150610223565b610502565b6020818051810103126102d0576020015190811580156107ed575b506107ba565b670de0b6b3a7640000908382810204821417156102505761084c936fffffffffffffffffffffffffffffffff6108378161082f8d610840966108479902610357565b9916836102d5565b519316906102d5565b5190610344565b610d78565b9160405180604081011067ffffffffffffffff6040830111176101b3576107c7936108859260408301604052825260208201528a610ebb565b50388080806107e7565b506020815110156107b5565b816108f3575b50156108cd577f5e0d443f00000000000000000000000000000000000000000000000000000000610713565b7f556d6e9f00000000000000000000000000000000000000000000000000000000610713565b905015386108a1565b50806106ea565b505050506107c79150610223565b5061092e6fffffffffffffffffffffffffffffffff8416856102d5565b51156106b1565b909250610100903d610100116109c7575b61095082826101e2565b6101008183810103126102d057818101601f820112156102d057604051918261010081011067ffffffffffffffff610100850111176101b3576101008301604052829082016101008301116102d05781905b610100830182106109b7575050509138610688565b81518152602091820191016109a2565b3d9150610946565b6040513d6000823e3d90fd5b935050506060823d606011610a2b575b816109f8606093836101e2565b810103126102d057610a09826102c2565b6040610a17602085016102c2565b9301519081151582036102d05792386105ea565b3d91506109eb565b50949593505050506000906000936020820151806040840151526000925b818410610a7457505050508280610a6757509190565b610a7091610357565b9190565b90919295610a8687604084015161027f565b51946020860195865160649081810291818304149015171561025057610aad878651610344565b11610ae25791610acf610ad792610ac9600195518a5190610344565b90610f17565b965190610f17565b965b01929190610a51565b50945095600190610ad9565b5060208801517f00000000000000000000000000000000000000000000000000000000000000001161050c565b6040517f313ce56700000000000000000000000000000000000000000000000000000000815260208160048173ffffffffffffffffffffffffffffffffffffffff87165afa80156109cf57600090610b84575b60ff915016604d811161025057600a0a906104a0565b506020813d602011610bb9575b81610b9e602093836101e2565b810103126102d0575160ff811681036102d05760ff90610b6e565b3d9150610b91565b50505050600090600090565b9092503d806000833e610be081836101e2565b810160209081838203126102d057825167ffffffffffffffff938482116102d0570181601f820112156102d05780519384116101b3578360051b9060405194610c2b858401876101e2565b855283808601928201019283116102d0578301905b828210610c525750505050913861045c565b815173ffffffffffffffffffffffffffffffffffffffff811681036102d0578152908301908301610c40565b60046040517fccf7e6f7000000000000000000000000000000000000000000000000000000008152fd5b60008060405160208101907f49fe9e7700000000000000000000000000000000000000000000000000000000825260048152610ce381610197565b5190845afa610cf06102e6565b81610d6b575b50610d65576000809160405160208101907f095a0fc600000000000000000000000000000000000000000000000000000000825260048152610d3781610197565b51915afa610d436102e6565b81610d58575b50610d5357600090565b600290565b6020915051101538610d49565b50600190565b6020915051101538610cf6565b8015610eb557610e43816000908360801c80610ea9575b508060401c80610e9c575b508060201c80610e8f575b508060101c80610e82575b508060081c80610e75575b508060041c80610e68575b508060021c80610e5b575b50600191828092811c610e54575b1c1b610deb8185610357565b01811c610df88185610357565b01811c610e058185610357565b01811c610e128185610357565b01811c610e1f8185610357565b01811c610e2c8185610357565b01811c610e398185610357565b01901c8092610357565b80821015610e4f575090565b905090565b0181610ddf565b6002915091019038610dd1565b6004915091019038610dc6565b6008915091019038610dbb565b6010915091019038610db0565b6020915091019038610da5565b6040915091019038610d9a565b91505060809038610d8f565b50600090565b9060208101908151610ecf57505050600090565b610ef06040840151916020850192835191610eea838361027f565b5261027f565b50610efb8151610223565b9052519080518211610f0f575b5050600190565b523880610f08565b919082018092116102505756fea2646970667358221220bf934760b8c950184fbb00c61df2e4b7bc157005de6bde022cb80f0c51b48f5464736f6c63430008170033"
}