{
  "address": "0x04098C93b15E5Cbb5A49651f20218C85F202Cd27",
  "abi": [
    {
      "inputs": [
        {
          "internalType": "address",
          "name": "_factory",
          "type": "address"
        },
        {
          "internalType": "bytes32",
          "name": "_initcodeHash",
          "type": "bytes32"
        },
        {
          "internalType": "uint24[4]",
          "name": "_fees",
          "type": "uint24[4]"
        }
      ],
      "stateMutability": "nonpayable",
      "type": "constructor"
    },
    {
      "inputs": [],
      "name": "ConnectorShouldBeNone",
      "type": "error"
    },
    {
      "inputs": [],
      "name": "PoolNotFound",
      "type": "error"
    },
    {
      "inputs": [],
      "name": "PoolWithConnectorNotFound",
      "type": "error"
    },
    {
      "inputs": [],
      "name": "factory",
      "outputs": [
        {
          "internalType": "address",
          "name": "",
          "type": "address"
        }
      ],
      "stateMutability": "view",
      "type": "function"
    },
    {
      "inputs": [
        {
          "internalType": "uint256",
          "name": "",
          "type": "uint256"
        }
      ],
      "name": "fees",
      "outputs": [
        {
          "internalType": "uint24",
          "name": "",
          "type": "uint24"
        }
      ],
      "stateMutability": "view",
      "type": "function"
    },
    {
      "inputs": [
        {
          "internalType": "contract IERC20",
          "name": "srcToken",
          "type": "address"
        },
        {
          "internalType": "contract IERC20",
          "name": "dstToken",
          "type": "address"
        },
        {
          "internalType": "contract IERC20",
          "name": "connector",
          "type": "address"
        }
      ],
      "name": "getRate",
      "outputs": [
        {
          "internalType": "uint256",
          "name": "rate",
          "type": "uint256"
        },
        {
          "internalType": "uint256",
          "name": "weight",
          "type": "uint256"
        }
      ],
      "stateMutability": "view",
      "type": "function"
    },
    {
      "inputs": [],
      "name": "initcodeHash",
      "outputs": [
        {
          "internalType": "bytes32",
          "name": "",
          "type": "bytes32"
        }
      ],
      "stateMutability": "view",
      "type": "function"
    }
  ],
  "transactionHash": "0x4d5af4635112713f4462fae9bab685f13919e4726e1810cc46bbeaf2a84d42ec",
  "args": [
    "0x41ff9AA7e16B8B1a8a8dc4f0eFacd93D02d071c9",
    "0x6ce8eb472fa82df5469c6ab6d485f17c3ad13c8cd7af59b3d4a8026c5ce0f7e2",
    [
      100,
      500,
      2500,
      10000
    ]
  ],
  "numDeployments": 1,
  "solcInputHash": "9674a41f0695d2a5a280823cdc2f1983",
  "bytecode": "0x60c034610121576001600160401b03610d3f3881900390601f8201601f191684019083821185831017610126578291604052843982019160c0818403126101215780516001600160a01b038116810361012157602093848301519281605f820112156101215760405194608086019081118682101761012657604052849060c0810192831161012157604001905b8282106101065750505060805260a05260009182905b600482106100dc5783600055604051610c02908161013d823960805181818160980152610656015260a05181818160f501526106850152f35b9091928160019162ffffff9081875116916003878102901b92831b921b19161794019201906100a3565b815162ffffff8116810361012157815290860190860161008d565b600080fd5b634e487b7160e01b600052604160045260246000fdfe6040608081526004908136101561001557600080fd5b600091823560e01c90816314999e79146101755781634acc79ed14610118575080635a4fb9a8146100c05763c45a01551461004f57600080fd5b346100bc57817ffffffffffffffffffffffffffffffffffffffffffffffffffffffffffffffffc3601126100bc576020905173ffffffffffffffffffffffffffffffffffffffff7f0000000000000000000000000000000000000000000000000000000000000000168152f35b5080fd5b50346100bc57817ffffffffffffffffffffffffffffffffffffffffffffffffffffffffffffffffc3601126100bc57602090517f00000000000000000000000000000000000000000000000000000000000000008152f35b8284346101725760207ffffffffffffffffffffffffffffffffffffffffffffffffffffffffffffffffc36011261017257823592831015610172575062ffffff610163602093610350565b92905490519260031b1c168152f35b80fd5b905082346101725760607ffffffffffffffffffffffffffffffffffffffffffffffffffffffffffffffffc3601126101725773ffffffffffffffffffffffffffffffffffffffff918035838116810361034c5760243584811681036103485760443593858516948581036100bc57819682961460001461027157509291905b82841061022357505050505b80610212575b82519182526020820152f35b908161021d91610396565b90610206565b909192939461026761025b61026160019361025362ffffff6102448b610350565b90549060031b1c168789610586565b80949161040b565b906103cf565b976103cf565b94019291906101f4565b939290805b84811061028857505050505050610200565b815b85811061029a5750600101610276565b96976102a582610350565b6102c062ffffff939293809454600393841b1c168a88610586565b939091841561033a57906102e4916102d78d610350565b9054911b1c16888b610586565b809491941561033a579261025b60019593670de0b6b3a764000061031c6103229561032898808210600014610330575096879361040b565b0461040b565b9a6103cf565b975b0161028a565b905096879361040b565b50505098976001915061032a565b8380fd5b8280fd5b906004821015610367576003600a80840493060290565b7f4e487b7100000000000000000000000000000000000000000000000000000000600052603260045260246000fd5b81156103a0570490565b7f4e487b7100000000000000000000000000000000000000000000000000000000600052601260045260246000fd5b919082018092116103dc57565b7f4e487b7100000000000000000000000000000000000000000000000000000000600052601160045260246000fd5b818102929181159184041417156103dc57565b6080810190811067ffffffffffffffff82111761043a57604052565b7f4e487b7100000000000000000000000000000000000000000000000000000000600052604160045260246000fd5b90601f7fffffffffffffffffffffffffffffffffffffffffffffffffffffffffffffffe0910116810190811067ffffffffffffffff82111761043a57604052565b51906fffffffffffffffffffffffffffffffff821682036104c757565b600080fd5b519073ffffffffffffffffffffffffffffffffffffffff821682036104c757565b51908160020b82036104c757565b9060020b9060020b02908160020b9182036103dc57565b9190826101009103126104c757610528826104aa565b91602081015180600f0b81036104c7579160408201519160608101519160808201518060060b81036104c7579161056160a082016104cc565b9160c082015163ffffffff811681036104c75760e09092015180151581036104c75790565b92919073ffffffffffffffffffffffffffffffffffffffff81168073ffffffffffffffffffffffffffffffffffffffff861610600014610bad575073ffffffffffffffffffffffffffffffffffffffff84915b60405162ffffff60209584878401948188168652166040840152166060820152606081526106068161041e565b519020604051848101917fff0000000000000000000000000000000000000000000000000000000000000083527fffffffffffffffffffffffffffffffffffffffff0000000000000000000000007f000000000000000000000000000000000000000000000000000000000000000060601b16602183015260358201527f00000000000000000000000000000000000000000000000000000000000000006055820152605581526106b68161041e565b5190201691823b15610ba0576040517f1a6865020000000000000000000000000000000000000000000000000000000081528181600481875afa80156109ed57600090610b5c575b6fffffffffffffffffffffffffffffffff915016928315610b4e57604051917f3850c7bd000000000000000000000000000000000000000000000000000000008352604083600481855afa80156109ed576000938491610b07575b506040517fd0c93a7c0000000000000000000000000000000000000000000000000000000081528281600481875afa9283156109ed57600093610ace575b505060020b8160020b9081156103a0577fffffffffffffffffffffffffffffffffffffffffffffffffffffffffffffffff82147fffffffffffffffffffffffffffffffffffffffffffffffffffffffffff8000008214166103dc57610801918391979597056104fb565b908395849060005b8892600282810b13610a3d5761081f85836104fb565b60020b8660020b017fffffffffffffffffffffffffffffffffffffffffffffffffffffffffff8000008112627fffff8213176103dc57604051907ff30dba9300000000000000000000000000000000000000000000000000000000825260020b6004820152610100816024818b5afa9081156109ed57600091610a14575b50600f0b90600082820192831291129080158216911516176103dc578097818110600014610a0d575b90156109f9576108d685836104fb565b60020b8660020b03627fffff81137fffffffffffffffffffffffffffffffffffffffffffffffffffffffffff8000008212176103dc57604051907ff30dba9300000000000000000000000000000000000000000000000000000000825260020b6004820152610100816024818b5afa9081156109ed576000916109b4575b50600f0b90818b039a60008312818d128116918d13901516176103dc578a808210156109ad57505b931461099a5760020b627fffff81146103dc57600101959195610809565b5050505050505050509050600090600090565b905061097c565b6109d891506101003d610100116109e6575b6109d08183610469565b810190610512565b505050505050905038610954565b503d6109c6565b6040513d6000823e3d90fd5b505050505050505050509050600090600090565b50806108c6565b610a2f91506101003d610100116109e6576109d08183610469565b50505050505090503861089d565b50509591505073ffffffffffffffffffffffffffffffffffffffff95508592508291509692959616911614600014610a985716670de0b6b3a76400009080820291820481036103dc57610a929160601c61040b565b60601c91565b1680156103a05780610acb917f0de0b6b3a764000000000000000000000000000000000000000000000000000004610396565b91565b8181949293943d8311610b00575b610ae68183610469565b810103126101725750610af8906104ed565b903880610797565b503d610adc565b9390506040843d604011610b46575b81610b2360409383610469565b810103126101725750610b4081610b39856104cc565b94016104ed565b38610759565b3d9150610b16565b505050509050600090600090565b8282813d8311610b99575b610b718183610469565b810103126101725750610b946fffffffffffffffffffffffffffffffff916104aa565b6106fe565b503d610b67565b5050509050600090600090565b905073ffffffffffffffffffffffffffffffffffffffff8085166105d956fea2646970667358221220593941f15ac3f283af4d57cc4889cf9411317989cb9b2f3b92f95aa986a7bb8464736f6c63430008130033",
  "devdoc": {
    "kind": "dev",
    "methods": {},
    "version": 1
  },
  "userdoc": {
    "kind": "user",
    "methods": {},
    "version": 1
  },
  "storageLayout": {
    "storage": [
      {
        "astId": 1757,
        "contract": "contracts/oracles/UniswapV3LikeOracle.sol:UniswapV3LikeOracle",
        "label": "fees",
        "offset": 0,
        "slot": "0",
        "type": "t_array(t_uint24)4_storage"
      }
    ],
    "types": {
      "t_array(t_uint24)4_storage": {
        "base": "t_uint24",
        "encoding": "inplace",
        "label": "uint24[4]",
        "numberOfBytes": "32"
      },
      "t_uint24": {
        "encoding": "inplace",
        "label": "uint24",
        "numberOfBytes": "3"
      }
    }
  }
}