{
  "address": "0x52cbE0f49CcdD4Dc6E9C13BAb024EABD2842045B",
  "abi": [
    {
      "inputs": [
        {
          "internalType": "contract MultiWrapper",
          "name": "_multiWrapper",
          "type": "address"
        },
        {
          "internalType": "contract IOracle[]",
          "name": "existingOracles",
          "type": "address[]"
        },
        {
          "internalType": "enum OffchainOracle.OracleType[]",
          "name": "oracleTypes",
          "type": "uint8[]"
        },
        {
          "internalType": "contract IERC20[]",
          "name": "existingConnectors",
          "type": "address[]"
        },
        {
          "internalType": "contract IERC20",
          "name": "wBase",
          "type": "address"
        },
        {
          "internalType": "address",
          "name": "owner",
          "type": "address"
        }
      ],
      "stateMutability": "nonpayable",
      "type": "constructor"
    },
    {
      "inputs": [],
      "name": "ArraysLengthMismatch",
      "type": "error"
    },
    {
      "inputs": [],
      "name": "ConnectorAlreadyAdded",
      "type": "error"
    },
    {
      "inputs": [],
      "name": "InvalidOracleTokenKind",
      "type": "error"
    },
    {
      "inputs": [],
      "name": "OracleAlreadyAdded",
      "type": "error"
    },
    {
      "inputs": [],
      "name": "SameTokens",
      "type": "error"
    },
    {
      "inputs": [],
      "name": "TooBigThreshold",
      "type": "error"
    },
    {
      "inputs": [],
      "name": "UnknownConnector",
      "type": "error"
    },
    {
      "inputs": [],
      "name": "UnknownOracle",
      "type": "error"
    },
    {
      "anonymous": false,
      "inputs": [
        {
          "indexed": false,
          "internalType": "contract IERC20",
          "name": "connector",
          "type": "address"
        }
      ],
      "name": "ConnectorAdded",
      "type": "event"
    },
    {
      "anonymous": false,
      "inputs": [
        {
          "indexed": false,
          "internalType": "contract IERC20",
          "name": "connector",
          "type": "address"
        }
      ],
      "name": "ConnectorRemoved",
      "type": "event"
    },
    {
      "anonymous": false,
      "inputs": [
        {
          "indexed": false,
          "internalType": "contract MultiWrapper",
          "name": "multiWrapper",
          "type": "address"
        }
      ],
      "name": "MultiWrapperUpdated",
      "type": "event"
    },
    {
      "anonymous": false,
      "inputs": [
        {
          "indexed": false,
          "internalType": "contract IOracle",
          "name": "oracle",
          "type": "address"
        },
        {
          "indexed": false,
          "internalType": "enum OffchainOracle.OracleType",
          "name": "oracleType",
          "type": "uint8"
        }
      ],
      "name": "OracleAdded",
      "type": "event"
    },
    {
      "anonymous": false,
      "inputs": [
        {
          "indexed": false,
          "internalType": "contract IOracle",
          "name": "oracle",
          "type": "address"
        },
        {
          "indexed": false,
          "internalType": "enum OffchainOracle.OracleType",
          "name": "oracleType",
          "type": "uint8"
        }
      ],
      "name": "OracleRemoved",
      "type": "event"
    },
    {
      "anonymous": false,
      "inputs": [
        {
          "indexed": true,
          "internalType": "address",
          "name": "previousOwner",
          "type": "address"
        },
        {
          "indexed": true,
          "internalType": "address",
          "name": "newOwner",
          "type": "address"
        }
      ],
      "name": "OwnershipTransferred",
      "type": "event"
    },
    {
      "inputs": [
        {
          "internalType": "contract IERC20",
          "name": "connector",
          "type": "address"
        }
      ],
      "name": "addConnector",
      "outputs": [],
      "stateMutability": "nonpayable",
      "type": "function"
    },
    {
      "inputs": [
        {
          "internalType": "contract IOracle",
          "name": "oracle",
          "type": "address"
        },
        {
          "internalType": "enum OffchainOracle.OracleType",
          "name": "oracleKind",
          "type": "uint8"
        }
      ],
      "name": "addOracle",
      "outputs": [],
      "stateMutability": "nonpayable",
      "type": "function"
    },
    {
      "inputs": [],
      "name": "connectors",
      "outputs": [
        {
          "internalType": "contract IERC20[]",
          "name": "allConnectors",
          "type": "address[]"
        }
      ],
      "stateMutability": "view",
      "type": "function"
    },
    {
      "inputs": [
        {
          "internalType": "contract IERC20",
          "name": "srcToken",
          "type": "address"
        },
        {
          "internalType": "contract IERC20",
          "name": "dstToken",
          "type": "address"
        },
        {
          "internalType": "bool",
          "name": "useWrappers",
          "type": "bool"
        }
      ],
      "name": "getRate",
      "outputs": [
        {
          "internalType": "uint256",
          "name": "weightedRate",
          "type": "uint256"
        }
      ],
      "stateMutability": "view",
      "type": "function"
    },
    {
      "inputs": [
        {
          "internalType": "contract IERC20",
          "name": "srcToken",
          "type": "address"
        },
        {
          "internalType": "bool",
          "name": "useSrcWrappers",
          "type": "bool"
        }
      ],
      "name": "getRateToEth",
      "outputs": [
        {
          "internalType": "uint256",
          "name": "weightedRate",
          "type": "uint256"
        }
      ],
      "stateMutability": "view",
      "type": "function"
    },
    {
      "inputs": [
        {
          "internalType": "contract IERC20",
          "name": "srcToken",
          "type": "address"
        },
        {
          "internalType": "bool",
          "name": "useSrcWrappers",
          "type": "bool"
        },
        {
          "internalType": "contract IERC20[]",
          "name": "customConnectors",
          "type": "address[]"
        },
        {
          "internalType": "uint256",
          "name": "thresholdFilter",
          "type": "uint256"
        }
      ],
      "name": "getRateToEthWithCustomConnectors",
      "outputs": [
        {
          "internalType": "uint256",
          "name": "weightedRate",
          "type": "uint256"
        }
      ],
      "stateMutability": "view",
      "type": "function"
    },
    {
      "inputs": [
        {
          "internalType": "contract IERC20",
          "name": "srcToken",
          "type": "address"
        },
        {
          "internalType": "bool",
          "name": "useSrcWrappers",
          "type": "bool"
        },
        {
          "internalType": "uint256",
          "name": "thresholdFilter",
          "type": "uint256"
        }
      ],
      "name": "getRateToEthWithThreshold",
      "outputs": [
        {
          "internalType": "uint256",
          "name": "weightedRate",
          "type": "uint256"
        }
      ],
      "stateMutability": "view",
      "type": "function"
    },
    {
      "inputs": [
        {
          "internalType": "contract IERC20",
          "name": "srcToken",
          "type": "address"
        },
        {
          "internalType": "contract IERC20",
          "name": "dstToken",
          "type": "address"
        },
        {
          "internalType": "bool",
          "name": "useWrappers",
          "type": "bool"
        },
        {
          "internalType": "contract IERC20[]",
          "name": "customConnectors",
          "type": "address[]"
        },
        {
          "internalType": "uint256",
          "name": "thresholdFilter",
          "type": "uint256"
        }
      ],
      "name": "getRateWithCustomConnectors",
      "outputs": [
        {
          "internalType": "uint256",
          "name": "weightedRate",
          "type": "uint256"
        }
      ],
      "stateMutability": "view",
      "type": "function"
    },
    {
      "inputs": [
        {
          "internalType": "contract IERC20",
          "name": "srcToken",
          "type": "address"
        },
        {
          "internalType": "contract IERC20",
          "name": "dstToken",
          "type": "address"
        },
        {
          "internalType": "bool",
          "name": "useWrappers",
          "type": "bool"
        },
        {
          "internalType": "uint256",
          "name": "thresholdFilter",
          "type": "uint256"
        }
      ],
      "name": "getRateWithThreshold",
      "outputs": [
        {
          "internalType": "uint256",
          "name": "weightedRate",
          "type": "uint256"
        }
      ],
      "stateMutability": "view",
      "type": "function"
    },
    {
      "inputs": [],
      "name": "multiWrapper",
      "outputs": [
        {
          "internalType": "contract MultiWrapper",
          "name": "",
          "type": "address"
        }
      ],
      "stateMutability": "view",
      "type": "function"
    },
    {
      "inputs": [],
      "name": "oracles",
      "outputs": [
        {
          "internalType": "contract IOracle[]",
          "name": "allOracles",
          "type": "address[]"
        },
        {
          "internalType": "enum OffchainOracle.OracleType[]",
          "name": "oracleTypes",
          "type": "uint8[]"
        }
      ],
      "stateMutability": "view",
      "type": "function"
    },
    {
      "inputs": [],
      "name": "owner",
      "outputs": [
        {
          "internalType": "address",
          "name": "",
          "type": "address"
        }
      ],
      "stateMutability": "view",
      "type": "function"
    },
    {
      "inputs": [
        {
          "internalType": "contract IERC20",
          "name": "connector",
          "type": "address"
        }
      ],
      "name": "removeConnector",
      "outputs": [],
      "stateMutability": "nonpayable",
      "type": "function"
    },
    {
      "inputs": [
        {
          "internalType": "contract IOracle",
          "name": "oracle",
          "type": "address"
        },
        {
          "internalType": "enum OffchainOracle.OracleType",
          "name": "oracleKind",
          "type": "uint8"
        }
      ],
      "name": "removeOracle",
      "outputs": [],
      "stateMutability": "nonpayable",
      "type": "function"
    },
    {
      "inputs": [],
      "name": "renounceOwnership",
      "outputs": [],
      "stateMutability": "nonpayable",
      "type": "function"
    },
    {
      "inputs": [
        {
          "internalType": "contract MultiWrapper",
          "name": "_multiWrapper",
          "type": "address"
        }
      ],
      "name": "setMultiWrapper",
      "outputs": [],
      "stateMutability": "nonpayable",
      "type": "function"
    },
    {
      "inputs": [
        {
          "internalType": "address",
          "name": "newOwner",
          "type": "address"
        }
      ],
      "name": "transferOwnership",
      "outputs": [],
      "stateMutability": "nonpayable",
      "type": "function"
    }
  ],
  "transactionHash": "0x343711333bb39b108bca0e59caa9e2cad6944cf70ad7803c7c17dd7e7a6b44a7",
  "args": [
    "0xc197Ab9d47206dAf739a47AC75D0833fD2b0f87F",
    [
      "0x750c1b699552cAf908D67F5cCFd20A261305328c",
      "0x89314d57A8A4E636A00922ac289BC3a9a69C4361",
      "0x59Bc892E1832aE86C268fC21a91fE940830a52b0",
      "0xCC54299Fc291B261B2bF5552E7F0E5d2F8613E8C",
      "0xFdCB8fA524f84081988e6065Fc8EF060f2CF0C27",
      "0xf023D71EfB08339EA28F0C186AE130c74D44C58c"
    ],
    [
      "0",
      "0",
      "0",
      "0",
      "0",
      "0"
    ],
    [
      "0xFFfFfFffFFfffFFfFFfFFFFFffFFFffffFfFFFfF",
      "0x4200000000000000000000000000000000000006"
    ],
    "0x4200000000000000000000000000000000000006",
    "0x56E44874F624EbDE6efCc783eFD685f0FBDC6dcF"
  ],
  "numDeployments": 1,
  "bytecode": "0x604060a0815234620004e5576200389e90813803806200001f8162000539565b93843982019160c081840312620004e55780516001600160a01b038082169390929091849003620004e55760208181015190936001600160401b03929091838111620004e55781019680601f89011215620004e5578751976200008c620000868a62000575565b62000539565b9887808b838152019160051b83010191838311620004e5578801905b8282106200051f5750505084820151848111620004e55782019381601f86011215620004e557845194620000e0620000868762000575565b95888088838152019160051b83010191848311620004e5578901905b82821062000505575050506060830151908111620004e55782019080601f83011215620004e557815162000134620000868262000575565b92888085848152019260051b820101928311620004e55788809101915b838310620004ea575050505060a06200016d608084016200058d565b92015183811697888203620004e5576200018733620005db565b8951865103620004d457600780546001600160a01b0319168217905586519081527f1030152fe2062b574a830e6b9f13c65995990df31e4dc708d142533bb3ad0f52908890a160005b89518110156200036357620001f0620001ea8288620005a2565b620005cd565b90600391828110156200028857868c839215600014620002af5762000222926200021a91620005a2565b511662000622565b156200029e575b8562000236828d620005a2565b511662000248620001ea838a620005a2565b928951918252831015620002885788816001948c7f5874b2072ff37562df54063dd700c59d45f311bdf6f9cabb5a15f0ffb2e9f622940152a101620001d0565b634e487b7160e01b600052602160045260246000fd5b8751633295224f60e11b8152600490fd5b5050620001ea620002c19189620005a2565b828110156200028857868c60018493146000146200030757620002f192620002e991620005a2565b5116620006a9565b62000229578751633295224f60e11b8152600490fd5b5050620001ea620003199189620005a2565b82811015620002885760020362000352576200033b866200021a838e620005a2565b156200029e57620002f186620002e9838e620005a2565b87516398420d9360e01b8152600490fd5b5086939294508760005b8351811015620003e8576200039085620003888387620005a2565b511662000721565b15620003d757807fff88af5d962d47fd25d87755e8267a029fad5a91740c67d0dade2bdbe5268a1d8787620003c860019589620005a2565b51168b51908152a1016200036d565b8751630a606b6760e41b8152600490fd5b509291509360805233820362000418575b8451613109908162000795823960805181818161217501526125250152f35b339060005416036200049257156200044057506200043690620005db565b81808080620003f9565b60849083519062461bcd60e51b82526004820152602660248201527f4f776e61626c653a206e6577206f776e657220697320746865207a65726f206160448201526564647265737360d01b6064820152fd5b60648285519062461bcd60e51b825280600483015260248201527f4f776e61626c653a2063616c6c6572206973206e6f7420746865206f776e65726044820152fd5b86516307e11acb60e51b8152600490fd5b600080fd5b8190620004f7846200058d565b815201910190889062000151565b81516003811015620004e5578152908901908901620000fc565b81518681168103620004e5578152908801908801620000a8565b6040519190601f01601f191682016001600160401b038111838210176200055f57604052565b634e487b7160e01b600052604160045260246000fd5b6001600160401b0381116200055f5760051b60200190565b51906001600160a01b0382168203620004e557565b8051821015620005b75760209160051b010190565b634e487b7160e01b600052603260045260246000fd5b516003811015620002885790565b600080546001600160a01b039283166001600160a01b03198216811783559216907f8be0079c531659141344cd1fd0a4f28419497f9722a3daafe3b4186f6b6457e09080a3565b6000908082526002602052604082205415600014620006a55760019182546801000000000000000081101562000691578381018085558110156200067d57908260409285835260208320015583549281526002602052205590565b634e487b7160e01b82526032600452602482fd5b634e487b7160e01b82526041600452602482fd5b5090565b6000818152600460205260408120546200071c5760035468010000000000000000811015620006915760018101806003558110156200067d577fc2575a0e9e593c00f959f8c92f12db2869c3395a3b0502d05e2516446f71f85b0182905560035491815260046020526040902055600190565b905090565b6000818152600660205260408120546200071c5760055468010000000000000000811015620006915760018101806005558110156200067d577f036b6384b5eca791c62761152d0c79bb0604c104a5fb6f4eb0703f3154bb3db0018290556005549181526006602052604090205560019056fe604060a0815260048036101561001457600080fd5b600091823560e01c80631a6c6a9814610c555780632857373a14610b7d57806365050a6814610a575780636744d6c7146109ef5780636f9293b914610970578063715018a6146108d457806378159aae146108755780637de4fd101461081b578063802431fb146107b85780638da5cb5b146107675780639d4d7b1c1461060d578063aa16d4c014610553578063ade8b048146104d4578063b77910dc14610481578063d0626518146103d1578063f0b92e40146102195763f2fde38b146100db57600080fd5b346102155760207ffffffffffffffffffffffffffffffffffffffffffffffffffffffffffffffffc3601126102155781359173ffffffffffffffffffffffffffffffffffffffff9182841680940361021157610135610f65565b831561018e5750508254827fffffffffffffffffffffffff00000000000000000000000000000000000000008216178455167f8be0079c531659141344cd1fd0a4f28419497f9722a3daafe3b4186f6b6457e08380a380f35b90602060849251917f08c379a0000000000000000000000000000000000000000000000000000000008352820152602660248201527f4f776e61626c653a206e6577206f776e657220697320746865207a65726f206160448201527f64647265737300000000000000000000000000000000000000000000000000006064820152fd5b8480fd5b8280fd5b509190346103cd5761022a36610f0b565b91610233610f65565b60038310156103a157826102c45761026073ffffffffffffffffffffffffffffffffffffffff83166115f7565b1561029d57506102977f7a7f56716fe703fb190529c336e57df71ab88188ba47e8d786bac684b61ab9a693945b5192839283611318565b0390a180f35b84517f9444a6da000000000000000000000000000000000000000000000000000000008152fd5b6001830361031c576102eb73ffffffffffffffffffffffffffffffffffffffff83166116be565b1561029d57506102977f7a7f56716fe703fb190529c336e57df71ab88188ba47e8d786bac684b61ab9a6939461028d565b6002830361037a5773ffffffffffffffffffffffffffffffffffffffff8216610344816115f7565b15610352576102eb906116be565b5084517f9444a6da000000000000000000000000000000000000000000000000000000008152fd5b84517f98420d93000000000000000000000000000000000000000000000000000000008152fd5b8360216024927f4e487b7100000000000000000000000000000000000000000000000000000000835252fd5b5080fd5b5090346102155760207ffffffffffffffffffffffffffffffffffffffffffffffffffffffffffffffffc36011261021557359073ffffffffffffffffffffffffffffffffffffffff8216809203610215577f1030152fe2062b574a830e6b9f13c65995990df31e4dc708d142533bb3ad0f529160209161044f610f65565b817fffffffffffffffffffffffff0000000000000000000000000000000000000000600754161760075551908152a180f35b8382346103cd57817ffffffffffffffffffffffffffffffffffffffffffffffffffffffffffffffffc3601126103cd5760209073ffffffffffffffffffffffffffffffffffffffff600754169051908152f35b5082346105505760807ffffffffffffffffffffffffffffffffffffffffffffffffffffffffffffffffc3601126105505761050d610d0f565b92610516610da5565b916044359067ffffffffffffffff821161055057509161053f6020959261054994369101610e90565b90606435926124e5565b9051908152f35b80fd5b50346102155760207ffffffffffffffffffffffffffffffffffffffffffffffffffffffffffffffffc3601126102155773ffffffffffffffffffffffffffffffffffffffff6105a0610d0f565b6105a8610f65565b16916105b383611452565b156105e657507fff88af5d962d47fd25d87755e8267a029fad5a91740c67d0dade2bdbe5268a1d9160209151908152a180f35b90517fa606b670000000000000000000000000000000000000000000000000000000008152fd5b509190346103cd5761061e36610f0b565b91610627610f65565b60038310156103a157826106b15761065473ffffffffffffffffffffffffffffffffffffffff8316611347565b1561068a57506102977f5874b2072ff37562df54063dd700c59d45f311bdf6f9cabb5a15f0ffb2e9f62293945192839283611318565b84517f652a449e000000000000000000000000000000000000000000000000000000008152fd5b60018303610709576106d873ffffffffffffffffffffffffffffffffffffffff8316611400565b1561068a57506102977f5874b2072ff37562df54063dd700c59d45f311bdf6f9cabb5a15f0ffb2e9f622939461028d565b6002830361037a5773ffffffffffffffffffffffffffffffffffffffff821661073181611347565b1561073f576106d890611400565b5084517f652a449e000000000000000000000000000000000000000000000000000000008152fd5b8382346103cd57817ffffffffffffffffffffffffffffffffffffffffffffffffffffffffffffffffc3601126103cd5773ffffffffffffffffffffffffffffffffffffffff60209254169051908152f35b8382346103cd5760607ffffffffffffffffffffffffffffffffffffffffffffffffffffffffffffffffc3601126103cd576105496020926107f7610d0f565b6107ff610d37565b610807610d96565b9185519361081485610e1b565b84526118a9565b8382346103cd57807ffffffffffffffffffffffffffffffffffffffffffffffffffffffffffffffffc3601126103cd57610549602092610859610d0f565b610861610da5565b9084519261086e84610e1b565b835261213d565b8382346103cd5760607ffffffffffffffffffffffffffffffffffffffffffffffffffffffffffffffffc3601126103cd576105496020926108b4610d0f565b906108bd610da5565b8451916108c983610e1b565b8252604435926124e5565b833461055057807ffffffffffffffffffffffffffffffffffffffffffffffffffffffffffffffffc3601126105505761090b610f65565b8073ffffffffffffffffffffffffffffffffffffffff81547fffffffffffffffffffffffff000000000000000000000000000000000000000081168355167f8be0079c531659141344cd1fd0a4f28419497f9722a3daafe3b4186f6b6457e08280a380f35b5090346102155760a07ffffffffffffffffffffffffffffffffffffffffffffffffffffffffffffffffc360112610215576109a9610d0f565b926109b2610d37565b916109bb610d96565b916064359067ffffffffffffffff82116105505750916109e5610549949260209794369101610e90565b9160843593611c79565b8382346103cd5760807ffffffffffffffffffffffffffffffffffffffffffffffffffffffffffffffffc3601126103cd57610549602092610a2e610d0f565b90610a37610d37565b610a3f610d96565b90855192610a4c84610e1b565b835260643593611c79565b50823461055057807ffffffffffffffffffffffffffffffffffffffffffffffffffffffffffffffffc360112610550576005805491610a9583610fe4565b92815b8451811015610b265781811015610afa5760019084845273ffffffffffffffffffffffffffffffffffffffff817f036b6384b5eca791c62761152d0c79bb0604c104a5fb6f4eb0703f3154bb3db0015416610af38288611114565b5201610a98565b6024836032897f4e487b7100000000000000000000000000000000000000000000000000000000835252fd5b8551602080825286518183018190528291828a0191818a0191885b828110610b5057505050500390f35b835173ffffffffffffffffffffffffffffffffffffffff1685528695509381019392810192600101610b41565b8382346103cd57817ffffffffffffffffffffffffffffffffffffffffffffffffffffffffffffffffc3601126103cd5790610bb6611134565b9091835193849381850191855280518092526060850191602080920190845b818110610c2857505050848203818601528080855193848152019401925b828110610c0257505050500390f35b9193839550908082610c18600194839751610d5a565b0195019101918594939192610bf3565b825173ffffffffffffffffffffffffffffffffffffffff1685528897509383019391830191600101610bd5565b50346102155760207ffffffffffffffffffffffffffffffffffffffffffffffffffffffffffffffffc3601126102155773ffffffffffffffffffffffffffffffffffffffff610ca2610d0f565b610caa610f65565b1691610cb5836114a4565b15610ce857507f6825b26a0827e9c2ceca01d6289ce4a40e629dc074ec48ea4727d1afbff359f59160209151908152a180f35b90517f30bd159a000000000000000000000000000000000000000000000000000000008152fd5b6004359073ffffffffffffffffffffffffffffffffffffffff82168203610d3257565b600080fd5b6024359073ffffffffffffffffffffffffffffffffffffffff82168203610d3257565b906003821015610d675752565b7f4e487b7100000000000000000000000000000000000000000000000000000000600052602160045260246000fd5b604435908115158203610d3257565b602435908115158203610d3257565b6040810190811067ffffffffffffffff821117610dd057604052565b7f4e487b7100000000000000000000000000000000000000000000000000000000600052604160045260246000fd5b6060810190811067ffffffffffffffff821117610dd057604052565b6020810190811067ffffffffffffffff821117610dd057604052565b90601f7fffffffffffffffffffffffffffffffffffffffffffffffffffffffffffffffe0910116810190811067ffffffffffffffff821117610dd057604052565b67ffffffffffffffff8111610dd05760051b60200190565b81601f82011215610d3257803591610ea783610e78565b92610eb56040519485610e37565b808452602092838086019260051b820101928311610d32578301905b828210610edf575050505090565b813573ffffffffffffffffffffffffffffffffffffffff81168103610d32578152908301908301610ed1565b7ffffffffffffffffffffffffffffffffffffffffffffffffffffffffffffffffc6040910112610d325760043573ffffffffffffffffffffffffffffffffffffffff81168103610d3257906024356003811015610d325790565b73ffffffffffffffffffffffffffffffffffffffff600054163303610f8657565b60646040517f08c379a000000000000000000000000000000000000000000000000000000000815260206004820152602060248201527f4f776e61626c653a2063616c6c6572206973206e6f7420746865206f776e65726044820152fd5b90610fee82610e78565b610ffb6040519182610e37565b8281527fffffffffffffffffffffffffffffffffffffffffffffffffffffffffffffffe06110298294610e78565b0190602036910137565b60015481101561106a5760016000527fb10e2d527612073b26eecdfd717e6a320cf44b4afac2b0732d9fcbe2b7fa0cf60190600090565b7f4e487b7100000000000000000000000000000000000000000000000000000000600052603260045260246000fd5b60035481101561106a5760036000527fc2575a0e9e593c00f959f8c92f12db2869c3395a3b0502d05e2516446f71f85b0190600090565b60055481101561106a5760056000527f036b6384b5eca791c62761152d0c79bb0604c104a5fb6f4eb0703f3154bb3db00190600090565b80511561106a5760200190565b805182101561106a5760209160051b010190565b6003821015610d675752565b60018054916003918254611149818601610fe4565b936111548551610fe4565b958360005b8281106112ba5750509160005b8181106111ef57505061117882610fe4565b9561118283610fe4565b9560005b84811061119557505050505050565b73ffffffffffffffffffffffffffffffffffffffff6111b48284611114565b51166111c0828b611114565b526111cb8184611114565b519084821015610d67576111e987926111e4838c611114565b611128565b01611186565b849084918460005273ffffffffffffffffffffffffffffffffffffffff9283837fc2575a0e9e593c00f959f8c92f12db2869c3395a3b0502d05e2516446f71f85b0154169388806000905b61127e575b50505085821015610d675787938a858414611275575b916111e4916112688261126f9695611114565b528c611114565b01611166565b97850197611255565b868d80518310156112b357611294838692611114565b5116146112a35781018161123a565b935050505060029038888161123f565b505061123f565b8160005273ffffffffffffffffffffffffffffffffffffffff817fb10e2d527612073b26eecdfd717e6a320cf44b4afac2b0732d9fcbe2b7fa0cf6015416611302828a611114565b52600061130f828b611114565b52018490611159565b91602061134592949373ffffffffffffffffffffffffffffffffffffffff60408201961681520190610d5a565b565b6000818152600260205260408120546113fb57600154680100000000000000008110156113ce5790826113ba61138584600160409601600155611033565b81939154907fffffffffffffffffffffffffffffffffffffffffffffffffffffffffffffffff9060031b92831b921b19161790565b905560015492815260026020522055600190565b6024827f4e487b710000000000000000000000000000000000000000000000000000000081526041600452fd5b905090565b6000818152600460205260408120546113fb57600354680100000000000000008110156113ce57908261143e61138584600160409601600355611099565b905560035492815260046020522055600190565b6000818152600660205260408120546113fb57600554680100000000000000008110156113ce579082611490611385846001604096016005556110d0565b905560055492815260066020522055600190565b60008181526006602052604081205490919080156115f2577fffffffffffffffffffffffffffffffffffffffffffffffffffffffffffffffff908181018181116115c5576005549083820191821161159857808203611564575b505050600554801561153757810190611516826110d0565b909182549160031b1b19169055600555815260066020526040812055600190565b6024847f4e487b710000000000000000000000000000000000000000000000000000000081526031600452fd5b611582611573611385936110d0565b90549060031b1c9283926110d0565b90558452600660205260408420553880806114fe565b6024867f4e487b710000000000000000000000000000000000000000000000000000000081526011600452fd5b6024857f4e487b710000000000000000000000000000000000000000000000000000000081526011600452fd5b505090565b60008181526002602052604081205490919080156115f2577fffffffffffffffffffffffffffffffffffffffffffffffffffffffffffffffff908181018181116115c557600154908382019182116115985780820361168a575b50505060015480156115375781019061166982611033565b909182549160031b1b19169055600155815260026020526040812055600190565b6116a861169961138593611033565b90549060031b1c928392611033565b9055845260026020526040842055388080611651565b60009080825260049081602052604083205480151560001461180a577fffffffffffffffffffffffffffffffffffffffffffffffffffffffffffffffff908181018181116117de57600354908382019182116117b25780820361177f575b50505060035480156117535781019061173482611099565b909182549160031b1b1916905560035582526020526040812055600190565b6024856031867f4e487b7100000000000000000000000000000000000000000000000000000000835252fd5b61179d61178e61138593611099565b90549060031b1c928392611099565b9055855283602052604085205538808061171c565b6024876011887f4e487b7100000000000000000000000000000000000000000000000000000000835252fd5b6024866011877f4e487b7100000000000000000000000000000000000000000000000000000000835252fd5b50505090565b8181029291811591840414171561182357565b7f4e487b7100000000000000000000000000000000000000000000000000000000600052601160045260246000fd5b90600281101561106a5760051b0190565b9190820180921161182357565b811561187a570490565b7f4e487b7100000000000000000000000000000000000000000000000000000000600052601260045260246000fd5b90919260009273ffffffffffffffffffffffffffffffffffffffff811673ffffffffffffffffffffffffffffffffffffffff841614611c4f5761190c906119046118fc876118f5611134565b509661286b565b97909261286b565b929093612a69565b936119406119386119208451875190611810565b61193288515160208a01515190611863565b90611810565b825190611810565b916040519260208160061b85010160405283526000936000956000985b83518a1015611baa5760005b8251811015611b9f5773ffffffffffffffffffffffffffffffffffffffff6119918c87611114565b511673ffffffffffffffffffffffffffffffffffffffff6119b28386611114565b511614611b695760005b600281106119cd5750600101611969565b8a9c9394959691926119e18260009d611852565b51518c1015611b58579c8c9d73ffffffffffffffffffffffffffffffffffffffff611a298e9f9b9c9d9e611a208391611a1a8888611852565b51611114565b51169b8b611114565b51168a148015611b2f575b611b1a5760009e9d9c9e5b8451811015611b02578e9f809e9f8c8c8c8c8c611aa78d73ffffffffffffffffffffffffffffffffffffffff611a9f8f611a988b848f611aae9e82611a88611a90938b98611114565b51169d611114565b511697611114565b5196611114565b511694611114565b5193612c27565b906020820151611ac7575b50506001019e9d9c9e611a3f565b909d60018f918f8181602095611ae083611ae695611114565b52611114565b50019e0151908111611af9575b8e611ab9565b9d506001611af3565b50909d9a9998506119e1828f9d6001905b019d611852565b909d9c8e9c9b9a99508260016119e192611b13565b5073ffffffffffffffffffffffffffffffffffffffff611b4f8689611114565b51168a14611a34565b9291969594939c9a506001016119bc565b965050509550505050611b949150611b8d611b9b94670de0b6b3a764000096611114565b5192611114565b5190611810565b0490565b50986001019861195d565b9a9950505050509350915050815260009060005b8151811015611c3857611bd18183611114565b50611bf6611bdf8284611114565b51516020611bed8486611114565b51015190612030565b90611c05575b50600101611bbe565b611c0f9195612d4e565b9490611c1c575b38611bfc565b916001906020611c2c8585611114565b51015101929050611c16565b505080611c425750565b611c4c9192611870565b90565b60046040517f3445e17c000000000000000000000000000000000000000000000000000000008152fd5b909293919360009173ffffffffffffffffffffffffffffffffffffffff851673ffffffffffffffffffffffffffffffffffffffff821614611c4f57606484101561200657611cea94611ce2611cda88611cd3979697611134565b509461286b565b98909261286b565b969093612a69565b95611d18611d10611cfe8451875190611810565b6119328a515160208c01515190611863565b845190611810565b936040519460208160061b870101604052855260009560009760006080525b84516080511015611f5d5760005b8351811015611f4e5773ffffffffffffffffffffffffffffffffffffffff611d6f60805188611114565b511673ffffffffffffffffffffffffffffffffffffffff611d908387611114565b511614611f255760005b60028110611dab5750600101611d45565b909b929a60009792979b5b611dc08383611852565b51518d1015611f14578d73ffffffffffffffffffffffffffffffffffffffff611ded8f611a1a8787611852565b51169973ffffffffffffffffffffffffffffffffffffffff611e116080518c611114565b51168b148015611eeb575b611edd5760005b8651811015611ec9578e611e7f8d8d8d8d8d611aa78a8f611a9f82611a9873ffffffffffffffffffffffffffffffffffffffff611e738f611e678397918492611114565b51169b60805190611114565b51169660805190611114565b906020820151611e94575b5050600101611e23565b909e8f8f91611ead8184600194611ae083602098611114565b50019f0151908111611ec0575b8f611e8a565b9e506001611eba565b509d90506001919299505b019b9790611db6565b9d9050600191929950611ed4565b5073ffffffffffffffffffffffffffffffffffffffff611f0b838a611114565b51168b14611e1c565b939c916001919c5097929701611d9a565b965050505094505050611b9b9350611b949150611b8d670de0b6b3a76400009560805190611114565b50608080516001019052611d37565b9a99509750505050509190825260009260005b8351811015611ffa5760646020611f878387611114565b5101510282840211611ff257611fae611fa08286611114565b51516020611bed8488611114565b90611fbf575b506001905b01611f70565b611fc99197612d4e565b9690611fd6575b38611fb4565b936001906020611fe68787611114565b51015101949050611fd0565b600190611fb9565b5050505080611c425750565b60046040517f215a716b000000000000000000000000000000000000000000000000000000008152fd5b91908215612058576120458184029384611870565b036120505760019190565b600091508190565b5060019150600090565b60405190600354808352826020918282019060036000527fc2575a0e9e593c00f959f8c92f12db2869c3395a3b0502d05e2516446f71f85b936000905b8282106120b55750505061134592500383610e37565b85548452600195860195889550938101939091019061209f565b6040519081600180549081835260209081840192816000527fb10e2d527612073b26eecdfd717e6a320cf44b4afac2b0732d9fcbe2b7fa0cf6926000905b82821061212557505050505090611345910383610e37565b8454865288965094850194938301939083019061210d565b909161214d60009360009361286b565b906040519061215b82610db4565b84825273ffffffffffffffffffffffffffffffffffffffff7f0000000000000000000000000000000000000000000000000000000000000000166020830152604051946121a786610db4565b6121af612062565b86526121c96121bc6120cf565b9560208801968752612a69565b9482518060011b90808204600214901517156124b857906119326121fc612209936119328a515160208c01515190611863565b9189515190515190611863565b91604051928060061b8401604052835281938295835b835181101561243a57845b6002811061223b575060010161221f565b73ffffffffffffffffffffffffffffffffffffffff61225a8387611114565b511673ffffffffffffffffffffffffffffffffffffffff61227b8387611852565b51161461242157855b60028110612295575060010161222a565b9093959b97998c9b92939597999b9c5b8d6122b08484611852565b5151111561240a5773ffffffffffffffffffffffffffffffffffffffff6122db8f611a1a8686611852565b51169973ffffffffffffffffffffffffffffffffffffffff6122fd878c611114565b51168b1480156123e1575b6123d657815b6123188887611852565b51518110156123c6578e61237c8d8d8d8d73ffffffffffffffffffffffffffffffffffffffff6123748f8f8f908461236582828f61235d90611a1a8961236d99611852565b51169a611114565b511695611114565b5194611852565b511692612aff565b906020820151612391575b505060010161230e565b909e8f8f916123aa8184600194611ae083602098611114565b50019f01519081116123bd575b8f612387565b9e5060016123b7565b509d6001919a505b019c986122a5565b9d6001919a506123ce565b5073ffffffffffffffffffffffffffffffffffffffff612401888b611852565b51168b14612308565b9694916001919b999d509b99979593929b01612284565b50985096505050505050506124369250611114565b5190565b50505050945091509150939293818152825b82811061245e5750505080611c425750565b6124688183611114565b50612476611bdf8284611114565b90612485575b5060010161244c565b61248f9196612d4e565b959061249c575b3861247c565b9260019060206124ac8685611114565b51015101939050612496565b6024837f4e487b710000000000000000000000000000000000000000000000000000000081526011600452fd5b600092916064851015612006576124fb9161286b565b92906040519061250a82610db4565b6000825273ffffffffffffffffffffffffffffffffffffffff7f000000000000000000000000000000000000000000000000000000000000000016602083015260405161255681610db4565b61255e612062565b815261257861256b6120cf565b9560208301968752612a69565b948251908160011b9180830460021490151715611823576119326125ab6125b8936119328a515160208c01515190611863565b9184515190515190611863565b91604051928060061b8401604052835260009360009560005b83518110156127cf5760005b600281106125ee57506001016125d1565b73ffffffffffffffffffffffffffffffffffffffff61260d8387611114565b511673ffffffffffffffffffffffffffffffffffffffff61262e8387611852565b5116146127ba5760005b6002811061264957506001016125dd565b9093959192979960009b9597999b9c5b8d6126648484611852565b515111156127a35773ffffffffffffffffffffffffffffffffffffffff61268f8f611a1a8686611852565b51169973ffffffffffffffffffffffffffffffffffffffff6126b1878c611114565b51168b14801561277a575b61276e5760005b6126cd8887611852565b515181101561275c578e6127128d8d8d8d73ffffffffffffffffffffffffffffffffffffffff6123748f8f8f908461236582828f61235d90611a1a8961236d99611852565b906020820151612727575b50506001016126c3565b909e8f8f916127408184600194611ae083602098611114565b50019f0151908111612753575b8f61271d565b9e50600161274d565b509d600191929a505b019c9890612659565b9d600191929a50612765565b5073ffffffffffffffffffffffffffffffffffffffff61279a888b611852565b51168b146126bc565b9c50999792919593906001909b9997959b01612638565b50989750505050505050506124369250611114565b50999897505050509190925082825260009360005b8481106127f857505050505080611c425750565b60206128048286611114565b510151606483850204116128635761281f611fa08286611114565b90612830575b506001905b016127e4565b61283a9198612d4e565b9790612847575b38612825565b9460019060206128578887611114565b51015101959050612841565b60019061282a565b91906128d8576040519161287e83610db4565b600183526020368185013773ffffffffffffffffffffffffffffffffffffffff6128a784611107565b91169052604051906128b882610db4565b6001825260203681840137670de0b6b3a76400006128d583611107565b52565b73ffffffffffffffffffffffffffffffffffffffff809281600754166040519485927fcb991d9400000000000000000000000000000000000000000000000000000000845216600483015281602460009384935afa938415612a5c5781928295612944575b5050509190565b91945091503d8085843e6129588184610e37565b820160408382031261021157825167ffffffffffffffff90818111612a385784019382601f86011215612a385784519461299186610e78565b9561299f6040519788610e37565b808752602095868089019260051b84010192868411612a58578701915b838310612a3c575050505083810151918211612a38570181601f82011215612a34578051906129ea82610e78565b966129f86040519889610e37565b828852848089019360051b83010193841161055057508301905b828210612a25575050505038808061293d565b81518152908301908301612a12565b8580fd5b8680fd5b82518281168103612a545781529187019187016129bc565b8b80fd5b8a80fd5b50604051903d90823e3d90fd5b906040918251612a7881610db4565b60005b848110612af15750809351908160055480845281602080950160056000527f036b6384b5eca791c62761152d0c79bb0604c104a5fb6f4eb0703f3154bb3db09260005b87828210612adb57505050612ad592500382610e37565b81520152565b8554845260019586019587955093019201612abe565b606082820152602001612a7b565b9294939091604080936064825194612b1686610db4565b60009586815286602082015299845198899485937f14999e7900000000000000000000000000000000000000000000000000000000855273ffffffffffffffffffffffffffffffffffffffff8094818094166004880152166024860152166044840152165afa938483918496612bf0575b50612b94575b5050505050565b83612bc29394959697505191612ba983610dff565b82526020820152670de0b6b3a764000084820152612d68565b9283612be85750905b5191612bd683610db4565b82526020820152903880808080612b8d565b905090612bcb565b85809297508193503d8311612c20575b612c0a8183610e37565b8101031261021557602081519101519438612b87565b503d612c00565b93959491909295604080946064825195612c4087610db4565b6000968781528760208201529a8451998a9485937f14999e7900000000000000000000000000000000000000000000000000000000855273ffffffffffffffffffffffffffffffffffffffff8094818094166004880152166024860152166044840152165afa948584918597612d13575b50612cbf575b505050505050565b84612ce49495969798505192612cd484610dff565b8352602083015284820152612d68565b9283612d0b5750905b5191612cf883610db4565b8252602082015290388080808080612cb7565b905090612ced565b86809298508193503d8311612d47575b612d2d8183610e37565b81010312612d4357602081519101519538612cb1565b8380fd5b503d612d23565b9190820191808310612d61575060019190565b6000925090565b80519081158015612f36575b8015612f2a575b612f23576020810191825190818111612f18575b505080516040820190815190818111612f0d575b50508251815190818111612f02575b5050600092825192612dc8825185029485611870565b9151809203612eac575b505080518202612de28382611870565b825114612e795750518215612e6457670de0b6b3a76400005b7fffffffffffffffffffffffffffffffffffffffffffffffffffffffffffffffff8284098284028082109103031015612e5c57611c4c9215612e4657670de0b6b3a764000091613032565b6ec097ce7bc90715b34b9f100000000091613032565b505050600090565b6ec097ce7bc90715b34b9f1000000000612dfb565b915050611c4c91600014612e9657670de0b6b3a764000090611870565b6ec097ce7bc90715b34b9f100000000090611870565b90919250517fffffffffffffffffffffffffffffffffffffffffffffffffffffffffffffffff828209828202808210910303670de0b6b3a7640000111561180a57612ef8929350612f42565b6001913880612dd2565b825283523880612db2565b825282523880612da3565b835281523880612d8f565b5050600090565b50604081015115612d7b565b50602081015115612d74565b907fffffffffffffffffffffffffffffffffffffffffffffffffffffffffffffffff8183098183029182808310920391808303921461302157670de0b6b3a76400009082821115612fc3577faccb18165bd6fe31ae1cf318dc5b51eee0e1ba569b88cd74c1773b91fac10669940990828211900360ee1b910360121c170290565b60646040517f08c379a000000000000000000000000000000000000000000000000000000000815260206004820152601560248201527f4d6174683a206d756c446976206f766572666c6f7700000000000000000000006044820152fd5b5050670de0b6b3a764000091500490565b917fffffffffffffffffffffffffffffffffffffffffffffffffffffffffffffffff82840992828102928380861095039480860395146130c65784831115612fc3578291096001821901821680920460028082600302188083028203028083028203028083028203028083028203028083028203028092029003029360018380600003040190848311900302920304170290565b505090611c4c925061187056fea2646970667358221220b49a007f9d1b2bae9171d0885b3f108e533166f04abcd2005b05634a4206323864736f6c63430008130033"
}