{
  "address": "0xB9fa95a38D50c5Bad1eA2b4E85e106Fe886cCb3A",
  "abi": [
    {
      "inputs": [
        {
          "internalType": "address",
          "name": "_factory",
          "type": "address"
        },
        {
          "internalType": "bytes32",
          "name": "_initcodeHash",
          "type": "bytes32"
        }
      ],
      "stateMutability": "nonpayable",
      "type": "constructor"
    },
    {
      "inputs": [],
      "name": "ConnectorShouldBeNone",
      "type": "error"
    },
    {
      "inputs": [],
      "name": "PoolNotFound",
      "type": "error"
    },
    {
      "inputs": [],
      "name": "PoolWithConnectorNotFound",
      "type": "error"
    },
    {
      "inputs": [],
      "name": "factory",
      "outputs": [
        {
          "internalType": "address",
          "name": "",
          "type": "address"
        }
      ],
      "stateMutability": "view",
      "type": "function"
    },
    {
      "inputs": [
        {
          "internalType": "contract IERC20",
          "name": "srcToken",
          "type": "address"
        },
        {
          "internalType": "contract IERC20",
          "name": "dstToken",
          "type": "address"
        },
        {
          "internalType": "contract IERC20",
          "name": "connector",
          "type": "address"
        }
      ],
      "name": "getRate",
      "outputs": [
        {
          "internalType": "uint256",
          "name": "rate",
          "type": "uint256"
        },
        {
          "internalType": "uint256",
          "name": "weight",
          "type": "uint256"
        }
      ],
      "stateMutability": "view",
      "type": "function"
    },
    {
      "inputs": [],
      "name": "initcodeHash",
      "outputs": [
        {
          "internalType": "bytes32",
          "name": "",
          "type": "bytes32"
        }
      ],
      "stateMutability": "view",
      "type": "function"
    }
  ],
  "transactionHash": "0x9e26e17acec8c24a26b1762d2dd92749145569ef4905651ecedc07774f5a552a",
  "args": [
    "0xe21aac7f113bd5dc2389e4d8a8db854a87fd6951",
    "0x0ccd005ee58d5fb11632ef5c2e0866256b240965c62c8e990c0f84a97f311879"
  ],
  "numDeployments": 1,
  "solcInputHash": "7fcc2219eabb9f23667614e353f01c19",
  "bytecode": "0x60c03461008857601f61086438819003918201601f19168301916001600160401b0383118484101761008d578084926040948552833981010312610088578051906001600160a01b038216820361008857602001519060805260a0526040516107c090816100a48239608051818181608b01526102f6015260a05181818160ea01526103250152f35b600080fd5b634e487b7160e01b600052604160045260246000fdfe608080604052600436101561001357600080fd5b60003560e01c90816314999e791461010d575080635a4fb9a8146100b45763c45a01551461004057600080fd5b346100af5760007ffffffffffffffffffffffffffffffffffffffffffffffffffffffffffffffffc3601126100af57602060405173ffffffffffffffffffffffffffffffffffffffff7f0000000000000000000000000000000000000000000000000000000000000000168152f35b600080fd5b346100af5760007ffffffffffffffffffffffffffffffffffffffffffffffffffffffffffffffffc3601126100af5760206040517f00000000000000000000000000000000000000000000000000000000000000008152f35b346100af5760607ffffffffffffffffffffffffffffffffffffffffffffffffffffffffffffffffc3601126100af5773ffffffffffffffffffffffffffffffffffffffff60043516600435036100af5760249073ffffffffffffffffffffffffffffffffffffffff8235168235036100af5760443573ffffffffffffffffffffffffffffffffffffffff81168091036100af5760009173ffffffffffffffffffffffffffffffffffffffff600092036106da575060005b600281106101f35760408383806101e2575b82519182526020820152f35b90816101ed91610744565b906101d6565b9091816106d2576001905b73ffffffffffffffffffffffffffffffffffffffff85351673ffffffffffffffffffffffffffffffffffffffff600435161060001461069a57600435918535905b7fffffffffffffffffffffffffffffffffffffffff00000000000000000000000060405192818660601b16602085015260601b166034830152151560f81b60488201526029815280606081011067ffffffffffffffff60608301111761066c5760608101604052805160208201207fff0000000000000000000000000000000000000000000000000000000000000060808301527fffffffffffffffffffffffffffffffffffffffff0000000000000000000000007f000000000000000000000000000000000000000000000000000000000000000060601b16608183015260958201527f000000000000000000000000000000000000000000000000000000000000000060b5820152605560608201526060810160e082011067ffffffffffffffff60e08301111761066c5760e081016040819052606082015160808301207f0902f1ac000000000000000000000000000000000000000000000000000000006101008401526004825273ffffffffffffffffffffffffffffffffffffffff169067ffffffffffffffff610120840190811191111761063657816000929161012084930160405261010060e08301519201905afa3d15610664573d9067ffffffffffffffff821161063657604051917fffffffffffffffffffffffffffffffffffffffffffffffffffffffffffffffe067ffffffffffffffff601f83018216603f01821685019081119085111761060857601f82018116603f0116830160405282523d6000602084013e5b806105fd575b156105f1576040818051810103126100af5773ffffffffffffffffffffffffffffffffffffffff60406020830151920151931673ffffffffffffffffffffffffffffffffffffffff60043516146000146105ec57915b6104d18184610702565b91600060038411156105dd5750600183811c01835b8482106105bc5750505b670de0b6b3a764000093828581020485148315171561058e578361051f610524926105309761052a9602610744565b610702565b9061077d565b9361077d565b907fffffffffffffffffffffffffffffffffffffffffffffffffffffffffffffffff8114610560576001016101c4565b837f4e487b710000000000000000000000000000000000000000000000000000000060005260116004526000fd5b877f4e487b710000000000000000000000000000000000000000000000000000000060005260116004526000fd5b90809596979450946105ce8183610744565b0160011c9096959493966104e6565b92156104f057600192506104f0565b6104c7565b506001915060006104c7565b506060815114610471565b887f4e487b710000000000000000000000000000000000000000000000000000000060005260416004526000fd5b867f4e487b710000000000000000000000000000000000000000000000000000000060005260416004526000fd5b60609061046b565b857f4e487b710000000000000000000000000000000000000000000000000000000060005260416004526000fd5b73ffffffffffffffffffffffffffffffffffffffff8535169173ffffffffffffffffffffffffffffffffffffffff600435169061023f565b6000906101fe565b807fccf7e6f70000000000000000000000000000000000000000000000000000000060049252fd5b8181029291811591840414171561071557565b7f4e487b7100000000000000000000000000000000000000000000000000000000600052601160045260246000fd5b811561074e570490565b7f4e487b7100000000000000000000000000000000000000000000000000000000600052601260045260246000fd5b919082018092116107155756fea26469706673582212202d9f8b8c9439bffb96b14cc9c7cd57aec3b89a031977a1b39cf234cbfc81b1ec64736f6c63430008130033",
  "devdoc": {
    "kind": "dev",
    "methods": {},
    "version": 1
  },
  "userdoc": {
    "kind": "user",
    "methods": {},
    "version": 1
  },
  "storageLayout": {
    "storage": [],
    "types": null
  }
}