{
  "address": "0x59Bc892E1832aE86C268fC21a91fE940830a52b0",
  "abi": [
    {
      "inputs": [
        {
          "internalType": "address",
          "name": "_factory",
          "type": "address"
        },
        {
          "internalType": "bytes32",
          "name": "_initcodeHash",
          "type": "bytes32"
        }
      ],
      "stateMutability": "nonpayable",
      "type": "constructor"
    },
    {
      "inputs": [],
      "name": "ConnectorShouldBeNone",
      "type": "error"
    },
    {
      "inputs": [],
      "name": "PoolNotFound",
      "type": "error"
    },
    {
      "inputs": [],
      "name": "PoolWithConnectorNotFound",
      "type": "error"
    },
    {
      "inputs": [],
      "name": "factory",
      "outputs": [
        {
          "internalType": "address",
          "name": "",
          "type": "address"
        }
      ],
      "stateMutability": "view",
      "type": "function"
    },
    {
      "inputs": [
        {
          "internalType": "contract IERC20",
          "name": "srcToken",
          "type": "address"
        },
        {
          "internalType": "contract IERC20",
          "name": "dstToken",
          "type": "address"
        }
      ],
      "name": "getPool",
      "outputs": [
        {
          "internalType": "address",
          "name": "",
          "type": "address"
        }
      ],
      "stateMutability": "view",
      "type": "function"
    },
    {
      "inputs": [
        {
          "internalType": "contract IERC20",
          "name": "srcToken",
          "type": "address"
        },
        {
          "internalType": "contract IERC20",
          "name": "dstToken",
          "type": "address"
        },
        {
          "internalType": "contract IERC20",
          "name": "connector",
          "type": "address"
        }
      ],
      "name": "getRate",
      "outputs": [
        {
          "internalType": "uint256",
          "name": "rate",
          "type": "uint256"
        },
        {
          "internalType": "uint256",
          "name": "weight",
          "type": "uint256"
        }
      ],
      "stateMutability": "view",
      "type": "function"
    },
    {
      "inputs": [],
      "name": "initcodeHash",
      "outputs": [
        {
          "internalType": "bytes32",
          "name": "",
          "type": "bytes32"
        }
      ],
      "stateMutability": "view",
      "type": "function"
    }
  ],
  "transactionHash": "0xe81ac36049c1a102ab28af2c3029236689345404630cd89fc39b2a3011d17df8",
  "args": [
    "0x04c9f118d21e8b767d2e50c946f0cc9f6c367300",
    "0xb64118b4e99d4a4163453838112a1695032df46c09f7f09064d4777d2767f8ea"
  ],
  "numDeployments": 1,
  "solcInputHash": "5706069c0f1d66e3bdea1be8a03c88c6",
  "bytecode": "0x60c03461008857601f6107ce38819003918201601f19168301916001600160401b0383118484101761008d578084926040948552833981010312610088578051906001600160a01b038216820361008857602001519060805260a05260405161072a90816100a4823960805181818160940152610641015260a05181818160f101526106700152f35b600080fd5b634e487b7160e01b600052604160045260246000fdfe604060808152600436101561001357600080fd5b600090813560e01c806314999e7914610197578063531aa03e146101145780635a4fb9a8146100bc5763c45a01551461004b57600080fd5b346100b857817ffffffffffffffffffffffffffffffffffffffffffffffffffffffffffffffffc3601126100b8576020905173ffffffffffffffffffffffffffffffffffffffff7f0000000000000000000000000000000000000000000000000000000000000000168152f35b5080fd5b50346100b857817ffffffffffffffffffffffffffffffffffffffffffffffffffffffffffffffffc3601126100b857602090517f00000000000000000000000000000000000000000000000000000000000000008152f35b50346100b857807ffffffffffffffffffffffffffffffffffffffffffffffffffffffffffffffffc3601126100b857602091610186610151610312565b61015961033a565b73ffffffffffffffffffffffffffffffffffffffff9350908381168483168082101561018e5750506105b0565b915191168152f35b915091506105b0565b50903461030f5760607ffffffffffffffffffffffffffffffffffffffffffffffffffffffffffffffffc36011261030f576101d0610312565b6101d861033a565b9060443573ffffffffffffffffffffffffffffffffffffffff80821680830361030b570361027e57509061020b9161043c565b61021d610218828461035d565b6103d8565b925b670de0b6b3a7640000918281029281840414901517156102515750906102449161039f565b9082519182526020820152f35b807f4e487b7100000000000000000000000000000000000000000000000000000000602492526011600452fd5b61028b816102959361043c565b929093849261043c565b9182828511156102e95750506102ce6102c76102bf856102ba856102dc97989961035d565b61039f565b955b8661035d565b918461035d565b808210156102e257506103d8565b9261021f565b90506103d8565b6102ce9195506102dc9350610305836102ba876102c79461035d565b946102c1565b8580fd5b80fd5b6004359073ffffffffffffffffffffffffffffffffffffffff8216820361033557565b600080fd5b6024359073ffffffffffffffffffffffffffffffffffffffff8216820361033557565b8181029291811591840414171561037057565b7f4e487b7100000000000000000000000000000000000000000000000000000000600052601160045260246000fd5b81156103a9570490565b7f4e487b7100000000000000000000000000000000000000000000000000000000600052601260045260246000fd5b906000600383111561041457508160018082811c01915b8483106103fb57505050565b919350908361040a818361039f565b01821c91906103ef565b9161041b57565b60019150565b51906dffffffffffffffffffffffffffff8216820361033557565b73ffffffffffffffffffffffffffffffffffffffff9190828116908383168083101561059d5750926060816104746004955b876105b0565b16604051948580927f0902f1ac0000000000000000000000000000000000000000000000000000000082525afa9283156105915760009081946104d8575b506dffffffffffffffffffffffffffff80911693169316146000146104d45791565b9091565b935060603d811161058a575b7fffffffffffffffffffffffffffffffffffffffffffffffffffffffffffffffe0601f820116850185811067ffffffffffffffff82111761055d5760609186916040528101031261030f5761053884610421565b90604061054760208701610421565b95015163ffffffff81160361030f5750386104b2565b6024837f4e487b710000000000000000000000000000000000000000000000000000000081526041600452fd5b503d6104e4565b6040513d6000823e3d90fd5b905060049250926060816104748461046e565b906040519160208301907fffffffffffffffffffffffffffffffffffffffff0000000000000000000000009283809260601b16835260601b16603484015260288352606083019067ffffffffffffffff93808310858411176106c55760e091836040528151902060808201947fff0000000000000000000000000000000000000000000000000000000000000086527f000000000000000000000000000000000000000000000000000000000000000060601b16608183015260958201527f000000000000000000000000000000000000000000000000000000000000000060b5820152605583520192818410908411176106c55773ffffffffffffffffffffffffffffffffffffffff926040525190201690565b7f4e487b7100000000000000000000000000000000000000000000000000000000600052604160045260246000fdfea2646970667358221220829dbb93b13c8fda3ad5becc5499b025c707092a58a73181b79bde79db67e08864736f6c63430008130033",
  "devdoc": {
    "kind": "dev",
    "methods": {},
    "version": 1
  },
  "userdoc": {
    "kind": "user",
    "methods": {},
    "version": 1
  },
  "storageLayout": {
    "storage": [],
    "types": null
  }
}