{
  "address": "0x5E7F87697dA35E243B4bae742e80e151f0D51f70",
  "abi": [
    {
      "inputs": [
        {
          "internalType": "address",
          "name": "_factory",
          "type": "address"
        },
        {
          "internalType": "bytes32",
          "name": "_initcodeHash",
          "type": "bytes32"
        },
        {
          "internalType": "uint24[]",
          "name": "_fees",
          "type": "uint24[]"
        }
      ],
      "stateMutability": "nonpayable",
      "type": "constructor"
    },
    {
      "inputs": [],
      "name": "ConnectorShouldBeNone",
      "type": "error"
    },
    {
      "inputs": [],
      "name": "PoolNotFound",
      "type": "error"
    },
    {
      "inputs": [],
      "name": "PoolWithConnectorNotFound",
      "type": "error"
    },
    {
      "inputs": [],
      "name": "FACTORY",
      "outputs": [
        {
          "internalType": "address",
          "name": "",
          "type": "address"
        }
      ],
      "stateMutability": "view",
      "type": "function"
    },
    {
      "inputs": [],
      "name": "INITCODE_HASH",
      "outputs": [
        {
          "internalType": "bytes32",
          "name": "",
          "type": "bytes32"
        }
      ],
      "stateMutability": "view",
      "type": "function"
    },
    {
      "inputs": [],
      "name": "SUPPORTED_FEES_COUNT",
      "outputs": [
        {
          "internalType": "uint256",
          "name": "",
          "type": "uint256"
        }
      ],
      "stateMutability": "view",
      "type": "function"
    },
    {
      "inputs": [
        {
          "internalType": "uint256",
          "name": "",
          "type": "uint256"
        }
      ],
      "name": "fees",
      "outputs": [
        {
          "internalType": "uint24",
          "name": "",
          "type": "uint24"
        }
      ],
      "stateMutability": "view",
      "type": "function"
    },
    {
      "inputs": [
        {
          "internalType": "contract IERC20",
          "name": "srcToken",
          "type": "address"
        },
        {
          "internalType": "contract IERC20",
          "name": "dstToken",
          "type": "address"
        },
        {
          "internalType": "contract IERC20",
          "name": "connector",
          "type": "address"
        },
        {
          "internalType": "uint256",
          "name": "thresholdFilter",
          "type": "uint256"
        }
      ],
      "name": "getRate",
      "outputs": [
        {
          "internalType": "uint256",
          "name": "rate",
          "type": "uint256"
        },
        {
          "internalType": "uint256",
          "name": "weight",
          "type": "uint256"
        }
      ],
      "stateMutability": "view",
      "type": "function"
    }
  ],
  "transactionHash": "0xbd5371bb9c9f7465d6195e10d6d9460ff851fd8a027561a97a56b1bf20ebe01d",
  "args": [
    "0x5e7BB104d84c7CB9B682AaC2F3d509f5F406809A",
    "0xffb9af9ea6d9e39da47392ecc7055277b9915b8bfc9f83f105821b7791a6ae30",
    [
      1,
      50,
      100,
      200,
      2000,
      10
    ]
  ],
  "numDeployments": 1,
  "solcInputHash": "d6e5edafc719d0aa6028bc97fdac07f3",
  "bytecode": "0x60e060405234620001895762000f69803803806200001d81620001a1565b92833981019060608183031262000189578051916001600160a01b038316830362000189576020928383015190604084015160018060401b03948582116200018957019280601f85011215620001895783519485116200018d576005938560051b9087806200008e818501620001a1565b80998152019282010192831162000189578701905b8282106200016c5750505060a05260c0528151926080936080525f5b845181101562000126578351811015620001125762ffffff90818382861b870101511691600a9283831015620001125783600194840492600380855493870602901b92831b921b191617905501620000bf565b634e487b7160e01b5f52603260045260245ffd5b604051610da19081620001c882396080518181816101940152818161030801526104c9015260a05181818161047201526107a7015260c051818181608b01526107d60152f35b815162ffffff8116810362000189578152908701908701620000a3565b5f80fd5b634e487b7160e01b5f52604160045260245ffd5b6040519190601f01601f191682016001600160401b038111838210176200018d5760405256fe6080604090808252600480361015610015575f80fd5b5f3560e01c918263152b8c6914610496575081632dd31000146104285781633d549b321461010d575080634acc79ed146100b25763f846188414610057575f80fd5b346100ae575f7ffffffffffffffffffffffffffffffffffffffffffffffffffffffffffffffffc3601126100ae57602090517f00000000000000000000000000000000000000000000000000000000000000008152f35b5f80fd5b50346100ae5760207ffffffffffffffffffffffffffffffffffffffffffffffffffffffffffffffffc3601126100ae5760043590600a8210156100ae5762ffffff6100fe6020936104ec565b92905490519260031b1c168152f35b9050346100ae5760807ffffffffffffffffffffffffffffffffffffffffffffffffffffffffffffffffc3601126100ae5773ffffffffffffffffffffffffffffffffffffffff60043581811681036100ae57602480359383851685036100ae5760443592848416938481036100ae576064956064359561018b6105d6565b500361030457507f0000000000000000000000000000000000000000000000000000000000000000906101bd82610606565b965f5b8381106102bf5750505050939190915b5f945f9460209060208401519389810196858851525f975b868910610215578b8b8b80610204575b82519182526020820152f35b908161020f91610688565b906101f8565b9091929394959697986102298a8351610ccd565b519a868c019b8c51878102908082048914901517156102945761024d8c88516106bf565b1161028857916102706102789261026a8f600196519051906106bf565b90610d5e565b9c5190610d5e565b995b0197969594939291906101e8565b509a509860019061027a565b8560118b7f4e487b71000000000000000000000000000000000000000000000000000000005f52525ffd5b806102fd6102e462ffffff6102d56001956104ec565b90549060031b1c1685876106ff565b8d51916102f083610530565b825260208201528b610ce1565b50016101c0565b95907f0000000000000000000000000000000000000000000000000000000000000000906103346002830a610606565b975f5b83811061034c575050505050939190916101d0565b610355816104ec565b9061036e62ffffff809254600394851b1c1685876106ff565b91909283158015610420575b610414578e8e5f915b8a831061039b57505050505050506001905b01610337565b9082916103bc8d876103ae6001976104ec565b905490891b1c16908c6106ff565b81939115801561040c575b610403576103d86103f8948b610c28565b9251926103e484610530565b8352808910818a1802186020830152610ce1565b505b018f8f90610383565b505050506103fa565b5080156103c7565b50505050600190610395565b50821561037a565b82346100ae575f7ffffffffffffffffffffffffffffffffffffffffffffffffffffffffffffffffc3601126100ae576020905173ffffffffffffffffffffffffffffffffffffffff7f0000000000000000000000000000000000000000000000000000000000000000168152f35b346100ae575f7ffffffffffffffffffffffffffffffffffffffffffffffffffffffffffffffffc3601126100ae576020907f00000000000000000000000000000000000000000000000000000000000000008152f35b90600a821015610503576003600a80840493060290565b7f4e487b71000000000000000000000000000000000000000000000000000000005f52603260045260245ffd5b6040810190811067ffffffffffffffff82111761054c57604052565b7f4e487b71000000000000000000000000000000000000000000000000000000005f52604160045260245ffd5b6080810190811067ffffffffffffffff82111761054c57604052565b90601f7fffffffffffffffffffffffffffffffffffffffffffffffffffffffffffffffe0910116810190811067ffffffffffffffff82111761054c57604052565b604051906060820182811067ffffffffffffffff82111761054c5760405260606040835f81525f60208201520152565b9061060f6105d6565b506040519160808160061b8401016040525f83525f60208401526060830180604085015252565b51906fffffffffffffffffffffffffffffffff821682036100ae57565b51908160020b82036100ae57565b91908260409103126100ae57602061067883610636565b92015180600f0b81036100ae5790565b8115610692570490565b7f4e487b71000000000000000000000000000000000000000000000000000000005f52601260045260245ffd5b818102929181159184041417156106d257565b7f4e487b71000000000000000000000000000000000000000000000000000000005f52601160045260245ffd5b919073ffffffffffffffffffffffffffffffffffffffff9182821680848616105f14610c1d57508284925b60405162ffffff602094848684019481891686521660408401521660608201526060815261075781610579565b519020604051838101917fff0000000000000000000000000000000000000000000000000000000000000083527fffffffffffffffffffffffffffffffffffffffff0000000000000000000000007f000000000000000000000000000000000000000000000000000000000000000060601b16602183015260358201527f000000000000000000000000000000000000000000000000000000000000000060558201526055815261080781610579565b51902016803b15610c12576040517f1a6865020000000000000000000000000000000000000000000000000000000081528281600481855afa8015610a81575f90610bce575b6fffffffffffffffffffffffffffffffff915016918215610bc257604051947f3850c7bd000000000000000000000000000000000000000000000000000000008652604086600481865afa8015610a81575f965f91610b79575b506040517fd0c93a7c0000000000000000000000000000000000000000000000000000000081528381600481885afa938415610a81575f94610b41575b505060020b8260020b908115610692577fffffffffffffffffffffffffffffffffffffffffffffffffffffffffffffffff82147fffffffffffffffffffffffffffffffffffffffffffffffffffffffffff8000008214166106d25781900560020b0290818060020b036106d25793809681955f5b8997600282810b13610abf576040517ff30dba9300000000000000000000000000000000000000000000000000000000815287830260020b8760020b0160020b60048201526040816024818c5afa908115610a81575f91610a9e575b50600f0b0193848082109118028418998415610a8c576040517ff30dba9300000000000000000000000000000000000000000000000000000000815287830260020b8760020b0360020b60048201526040816024818c5afa908115610a81575f91610a50575b50600f0b8091039a8b8082109118028b189814610a3f5760010160020b969296610958565b50505050505050505050505f905f90565b610a72915060403d604011610a7a575b610a6a8183610595565b810190610661565b90505f610a1a565b503d610a60565b6040513d5f823e3d90fd5b5050505050505050505050505f905f90565b610ab7915060403d604011610a7a57610a6a8183610595565b90505f6109b4565b50509692509650969350849250829150169116145f14610b0757670de0b6b3a7640000908083168202918204818416036106d257610b0192169060601c6106bf565b60601c91565b908181161561069257610b3e91167f0de0b6b3a7640000000000000000000000000000000000000000000000000000819004610688565b91565b9080929450813d8311610b72575b610b598183610595565b810103126100ae57610b6a90610653565b915f806108e4565b503d610b4f565b9650506040863d604011610bba575b81610b9560409383610595565b810103126100ae5785519581871687036100ae5782610bb49101610653565b5f6108a7565b3d9150610b88565b5050505050505f905f90565b508281813d8311610c0b575b610be48183610595565b810103126100ae57610c066fffffffffffffffffffffffffffffffff91610636565b61084d565b503d610bda565b50505050505f905f90565b91508284811661072a565b90808202907fffffffffffffffffffffffffffffffffffffffffffffffffffffffffffffffff81840990828083109203918083039214610cbc57670de0b6b3a76400009082821115610caa577faccb18165bd6fe31ae1cf318dc5b51eee0e1ba569b88cd74c1773b91fac10669940990828211900360ee1b910360121c170290565b634e487b715f5260116020526024601cfd5b5050670de0b6b3a764000091500490565b80518210156105035760209160051b010190565b9060208101908151610cf4575050505f90565b610d156040840151916020850192835191610d0f8383610ccd565b52610ccd565b5080517fffffffffffffffffffffffffffffffffffffffffffffffffffffffffffffffff81146106d2576001019052519080518211610d56575b5050600190565b525f80610d4f565b919082018092116106d25756fea26469706673582212209e4303aea8b54174e25251cf4800f39af9735352b83967c2ce502ecfc344b8f464736f6c63430008170033",
  "devdoc": {
    "kind": "dev",
    "methods": {},
    "version": 1
  },
  "userdoc": {
    "kind": "user",
    "methods": {},
    "version": 1
  },
  "storageLayout": {
    "storage": [
      {
        "astId": 13605,
        "contract": "contracts/oracles/UniswapV3LikeOracle.sol:UniswapV3LikeOracle",
        "label": "fees",
        "offset": 0,
        "slot": "0",
        "type": "t_array(t_uint24)10_storage"
      }
    ],
    "types": {
      "t_array(t_uint24)10_storage": {
        "base": "t_uint24",
        "encoding": "inplace",
        "label": "uint24[10]",
        "numberOfBytes": "32"
      },
      "t_uint24": {
        "encoding": "inplace",
        "label": "uint24",
        "numberOfBytes": "3"
      }
    }
  }
}