{
  "address": "0x715C0357F8F29FB7a71acDcaeFdde2B964824B23",
  "abi": [
    {
      "inputs": [
        {
          "internalType": "address",
          "name": "_factory",
          "type": "address"
        },
        {
          "internalType": "bytes32",
          "name": "_initcodeHash",
          "type": "bytes32"
        },
        {
          "internalType": "uint24[]",
          "name": "_fees",
          "type": "uint24[]"
        }
      ],
      "stateMutability": "nonpayable",
      "type": "constructor"
    },
    {
      "inputs": [],
      "name": "ConnectorShouldBeNone",
      "type": "error"
    },
    {
      "inputs": [],
      "name": "PoolNotFound",
      "type": "error"
    },
    {
      "inputs": [],
      "name": "PoolWithConnectorNotFound",
      "type": "error"
    },
    {
      "inputs": [],
      "name": "factory",
      "outputs": [
        {
          "internalType": "address",
          "name": "",
          "type": "address"
        }
      ],
      "stateMutability": "view",
      "type": "function"
    },
    {
      "inputs": [
        {
          "internalType": "uint256",
          "name": "",
          "type": "uint256"
        }
      ],
      "name": "fees",
      "outputs": [
        {
          "internalType": "uint24",
          "name": "",
          "type": "uint24"
        }
      ],
      "stateMutability": "view",
      "type": "function"
    },
    {
      "inputs": [
        {
          "internalType": "contract IERC20",
          "name": "srcToken",
          "type": "address"
        },
        {
          "internalType": "contract IERC20",
          "name": "dstToken",
          "type": "address"
        },
        {
          "internalType": "contract IERC20",
          "name": "connector",
          "type": "address"
        },
        {
          "internalType": "uint256",
          "name": "thresholdFilter",
          "type": "uint256"
        }
      ],
      "name": "getRate",
      "outputs": [
        {
          "internalType": "uint256",
          "name": "rate",
          "type": "uint256"
        },
        {
          "internalType": "uint256",
          "name": "weight",
          "type": "uint256"
        }
      ],
      "stateMutability": "view",
      "type": "function"
    },
    {
      "inputs": [],
      "name": "initcodeHash",
      "outputs": [
        {
          "internalType": "bytes32",
          "name": "",
          "type": "bytes32"
        }
      ],
      "stateMutability": "view",
      "type": "function"
    },
    {
      "inputs": [],
      "name": "supportedFeesCount",
      "outputs": [
        {
          "internalType": "uint256",
          "name": "",
          "type": "uint256"
        }
      ],
      "stateMutability": "view",
      "type": "function"
    }
  ],
  "transactionHash": "0xf2bcd026c874c708942ddd40c3e1233765198b36ab3f48db12427b132c098e84",
  "args": [
    "0x33128a8fC17869897dcE68Ed026d694621f6FDfD",
    "0xe34f199b19b2b4f47f68442619d555527d244f78a3297ea89325f843f87b8b54",
    [
      100,
      500,
      3000,
      10000
    ]
  ],
  "numDeployments": 2,
  "solcInputHash": "52bb98b4f229f6e0add5d152dfaf943a",
  "bytecode": "0x60e06040523480156200001157600080fd5b50604051620012f2380380620012f28339810160408190526200003491620000fa565b6001600160a01b03831660a05260c0829052805160805260005b608051811015620000c1578181815181106200006e576200006e620001f9565b6020026020010151600082600a81106200008c576200008c620001f9565b600a91828204019190066003026101000a81548162ffffff021916908362ffffff16021790555080806001019150506200004e565b505050506200020f565b634e487b7160e01b600052604160045260246000fd5b805162ffffff81168114620000f557600080fd5b919050565b6000806000606084860312156200011057600080fd5b83516001600160a01b03811681146200012857600080fd5b60208581015160408701519295509350906001600160401b03808211156200014f57600080fd5b818701915087601f8301126200016457600080fd5b815181811115620001795762000179620000cb565b8060051b604051601f19603f83011681018181108582111715620001a157620001a1620000cb565b60405291825284820192508381018501918a831115620001c057600080fd5b938501935b82851015620001e957620001d985620000e1565b84529385019392850192620001c5565b8096505050505050509250925092565b634e487b7160e01b600052603260045260246000fd5b60805160a05160c0516110846200026e6000396000818160fa0152610bf80152600081816101210152610bbd0152600081816071015281816101d1015281816101fc015281816102a0015281816102cc01526102f701526110846000f3fe608060405234801561001057600080fd5b50600436106100675760003560e01c80634acc79ed116100505780634acc79ed146100ce5780635a4fb9a8146100f5578063c45a01551461011c57600080fd5b80632e1349d31461006c5780633d549b32146100a6575b600080fd5b6100937f000000000000000000000000000000000000000000000000000000000000000081565b6040519081526020015b60405180910390f35b6100b96100b4366004610cea565b610168565b6040805192835260208301919091520161009d565b6100e16100dc366004610d3b565b6103e5565b60405162ffffff909116815260200161009d565b6100937f000000000000000000000000000000000000000000000000000000000000000081565b6101437f000000000000000000000000000000000000000000000000000000000000000081565b60405173ffffffffffffffffffffffffffffffffffffffff909116815260200161009d565b60008061018f60405180606001604052806000815260200160008152602001606081525090565b7fffffffffffffffffffffffff000000000000000000000000000000000000000173ffffffffffffffffffffffffffffffffffffffff861601610299576101f57f0000000000000000000000000000000000000000000000000000000000000000610414565b905060005b7f00000000000000000000000000000000000000000000000000000000000000008110156102935760008061025d8a8a600086600a811061023d5761023d610d54565b600a91828204019190066003029054906101000a900462ffffff16610461565b91509150610288604051806040016040528084815260200183815250856108fb90919063ffffffff16565b5050506001016101fa565b506103cd565b6102c560027f00000000000000000000000000000000000000000000000000000000000000000a610414565b905060005b7f00000000000000000000000000000000000000000000000000000000000000008110156103cb5760005b7f00000000000000000000000000000000000000000000000000000000000000008110156103c2576000806103388b8a600087600a811061023d5761023d610d54565b915091508060000361034b5750506103ba565b6000806103668b8d600088600a811061023d5761023d610d54565b915091508060000361037b57505050506103ba565b6103b4604051806040016040528061039c8786670de0b6b3a764000061096a565b81526020016103ab8685610a9e565b905288906108fb565b50505050505b6001016102f5565b506001016102ca565b505b6103d78185610ab4565b925092505094509492505050565b600081600a81106103f557600080fd5b600a9182820401919006600302915054906101000a900462ffffff1681565b61043860405180606001604052806000815260200160008152602001606081525090565b506040805182820281016080018252600080825260208201526060810191810182905291905290565b6000806000808573ffffffffffffffffffffffffffffffffffffffff168773ffffffffffffffffffffffffffffffffffffffff16106104a15785876104a4565b86865b9150915060006104b5838388610b83565b905073ffffffffffffffffffffffffffffffffffffffff81163b6104e257600080945094505050506108f3565b8073ffffffffffffffffffffffffffffffffffffffff16631a6865026040518163ffffffff1660e01b8152600401602060405180830381865afa15801561052d573d6000803e3d6000fd5b505050506040513d601f19601f820116820180604052508101906105519190610da8565b6fffffffffffffffffffffffffffffffff1693508360000361057c57600080945094505050506108f3565b6000808273ffffffffffffffffffffffffffffffffffffffff16633850c7bd6040518163ffffffff1660e01b81526004016040805180830381865afa1580156105c9573d6000803e3d6000fd5b505050506040513d601f19601f820116820180604052508101906105ed9190610dd5565b915073ffffffffffffffffffffffffffffffffffffffff16915060008373ffffffffffffffffffffffffffffffffffffffff1663d0c93a7c6040518163ffffffff1660e01b8152600401602060405180830381865afa158015610654573d6000803e3d6000fd5b505050506040513d601f19601f820116820180604052508101906106789190610e0a565b9050806106858184610e83565b61068f9190610ef7565b9150868060005b600281810b13610854576040517ff30dba93000000000000000000000000000000000000000000000000000000008152848202860160020b600482015260009073ffffffffffffffffffffffffffffffffffffffff89169063f30dba939060240161010060405180830381865afa158015610715573d6000803e3d6000fd5b505050506040513d601f19601f820116820180604052508101906107399190610f2e565b505050505050600f0b91505080830192506107548b84610a9e565b9a5082600003610774576000809b509b50505050505050505050506108f3565b6040517ff30dba93000000000000000000000000000000000000000000000000000000008152858302870360020b600482015273ffffffffffffffffffffffffffffffffffffffff89169063f30dba939060240161010060405180830381865afa1580156107e6573d6000803e3d6000fd5b505050506040513d601f19601f8201168201806040525081019061080a9190610f2e565b50505050600f9290920b9687900396935061082b92508d9150869050610a9e565b9a508360000361084b576000809b509b50505050505050505050506108f3565b50600101610696565b508773ffffffffffffffffffffffffffffffffffffffff168d73ffffffffffffffffffffffffffffffffffffffff16036108b2576060858161089e82670de0b6b3a7640000610fd8565b6108a992911c610fd8565b901c99506108ea565b846108dd817f0de0b6b3a7640000000000000000000000000000000000000000000000000000610fef565b6108e79190610fef565b99505b50505050505050505b935093915050565b6020810151600090156109605781836040015184602001518151811061092357610923610d54565b602002602001018190525082602001805180919061094090611003565b90525082516020830151111561095857602082015183525b506001610964565b5060005b92915050565b600080807fffffffffffffffffffffffffffffffffffffffffffffffffffffffffffffffff858709858702925082811083820303915050806000036109c2578382816109b8576109b8610e25565b0492505050610a97565b808411610a2f576040517f08c379a000000000000000000000000000000000000000000000000000000000815260206004820152601560248201527f4d6174683a206d756c446976206f766572666c6f770000000000000000000000604482015260640160405180910390fd5b600084868809851960019081018716968790049682860381900495909211909303600082900391909104909201919091029190911760038402600290811880860282030280860282030280860282030280860282030280860282030280860290910302029150505b9392505050565b6000818310610aad5781610a97565b5090919050565b602082015160408301518190526000908190815b81811015610b6157600086604001518281518110610ae857610ae8610d54565b60200260200101519050858760000151610b029190610fd8565b6020820151610b12906064610fd8565b1015610b1e5750610b4f565b60208101518151610b2f9190610fd8565b610b39908661103b565b9450806020015184610b4b919061103b565b9350505b80610b5981611003565b915050610ac8565b508115610b7b57818381610b7757610b77610e25565b0492505b509250929050565b6040805173ffffffffffffffffffffffffffffffffffffffff808616602083015284169181019190915262ffffff821660608201526000907f000000000000000000000000000000000000000000000000000000000000000090608001604051602081830303815290604052805190602001207f0000000000000000000000000000000000000000000000000000000000000000604051602001610c87939291907fff00000000000000000000000000000000000000000000000000000000000000815260609390931b7fffffffffffffffffffffffffffffffffffffffff0000000000000000000000001660018401526015830191909152603582015260550190565b604080517fffffffffffffffffffffffffffffffffffffffffffffffffffffffffffffffe08184030181529190528051602090910120949350505050565b73ffffffffffffffffffffffffffffffffffffffff81168114610ce757600080fd5b50565b60008060008060808587031215610d0057600080fd5b8435610d0b81610cc5565b93506020850135610d1b81610cc5565b92506040850135610d2b81610cc5565b9396929550929360600135925050565b600060208284031215610d4d57600080fd5b5035919050565b7f4e487b7100000000000000000000000000000000000000000000000000000000600052603260045260246000fd5b80516fffffffffffffffffffffffffffffffff81168114610da357600080fd5b919050565b600060208284031215610dba57600080fd5b610a9782610d83565b8051600281900b8114610da357600080fd5b60008060408385031215610de857600080fd5b8251610df381610cc5565b9150610e0160208401610dc3565b90509250929050565b600060208284031215610e1c57600080fd5b610a9782610dc3565b7f4e487b7100000000000000000000000000000000000000000000000000000000600052601260045260246000fd5b7f4e487b7100000000000000000000000000000000000000000000000000000000600052601160045260246000fd5b60008160020b8360020b80610e9a57610e9a610e25565b7fffffffffffffffffffffffffffffffffffffffffffffffffffffffffffffffff81147fffffffffffffffffffffffffffffffffffffffffffffffffffffffffff80000083141615610eee57610eee610e54565b90059392505050565b60008260020b8260020b028060020b9150808214610f1757610f17610e54565b5092915050565b80518015158114610da357600080fd5b600080600080600080600080610100898b031215610f4b57600080fd5b610f5489610d83565b9750602089015180600f0b8114610f6a57600080fd5b80975050604089015195506060890151945060808901518060060b8114610f9057600080fd5b60a08a0151909450610fa181610cc5565b60c08a015190935063ffffffff81168114610fbb57600080fd5b9150610fc960e08a01610f1e565b90509295985092959890939650565b808202811582820484141761096457610964610e54565b600082610ffe57610ffe610e25565b500490565b60007fffffffffffffffffffffffffffffffffffffffffffffffffffffffffffffffff820361103457611034610e54565b5060010190565b8082018082111561096457610964610e5456fea26469706673582212200db061726a76eb968476e2ce161f45223d158d636031eda29de178a39b54780f64736f6c63430008130033"
}