{
  "address": "0xCC54299Fc291B261B2bF5552E7F0E5d2F8613E8C",
  "abi": [
    {
      "inputs": [
        {
          "internalType": "contract IERC20",
          "name": "base",
          "type": "address"
        },
        {
          "internalType": "contract IERC20",
          "name": "wBase",
          "type": "address"
        }
      ],
      "stateMutability": "nonpayable",
      "type": "constructor"
    },
    {
      "inputs": [],
      "name": "NotAddedMarket",
      "type": "error"
    },
    {
      "inputs": [],
      "name": "NotRemovedMarket",
      "type": "error"
    },
    {
      "inputs": [],
      "name": "NotSupportedToken",
      "type": "error"
    },
    {
      "inputs": [],
      "name": "BASE",
      "outputs": [
        {
          "internalType": "contract IERC20",
          "name": "",
          "type": "address"
        }
      ],
      "stateMutability": "view",
      "type": "function"
    },
    {
      "inputs": [],
      "name": "WBASE",
      "outputs": [
        {
          "internalType": "contract IERC20",
          "name": "",
          "type": "address"
        }
      ],
      "stateMutability": "view",
      "type": "function"
    },
    {
      "inputs": [
        {
          "internalType": "contract IERC20",
          "name": "token",
          "type": "address"
        }
      ],
      "name": "wrap",
      "outputs": [
        {
          "internalType": "contract IERC20",
          "name": "wrappedToken",
          "type": "address"
        },
        {
          "internalType": "uint256",
          "name": "rate",
          "type": "uint256"
        }
      ],
      "stateMutability": "view",
      "type": "function"
    }
  ],
  "transactionHash": "0x12e2e8ac5f92703a139d777861345eb3a77a8c58226343b53c3fedf58d403ce9",
  "args": [
    "0x0000000000000000000000000000000000000000",
    "0xe5D7C2a44FfDDf6b295A15c148167daaAf5Cf34f"
  ],
  "numDeployments": 1,
  "solcInputHash": "253d7d12c3173e72e91ece3cb92e0838",
  "bytecode": "0x60c03461008d57601f61035238819003918201601f19168301916001600160401b0383118484101761009257808492604094855283398101031261008d57610052602061004b836100a8565b92016100a8565b9060805260a05260405161029590816100bd82396080518181816088015261018e015260a05181818160fa015281816101d501526102030152f35b600080fd5b634e487b7160e01b600052604160045260246000fd5b51906001600160a01b038216820361008d5756fe6080604052600436101561001257600080fd5b6000803560e01c8063023276f01461011e5780638e0b3bf2146100af5763ec342ad01461003e57600080fd5b346100ac57807ffffffffffffffffffffffffffffffffffffffffffffffffffffffffffffffffc3601126100ac57602060405173ffffffffffffffffffffffffffffffffffffffff7f0000000000000000000000000000000000000000000000000000000000000000168152f35b80fd5b50346100ac57807ffffffffffffffffffffffffffffffffffffffffffffffffffffffffffffffffc3601126100ac57602060405173ffffffffffffffffffffffffffffffffffffffff7f0000000000000000000000000000000000000000000000000000000000000000168152f35b50346100ac5760207ffffffffffffffffffffffffffffffffffffffffffffffffffffffffffffffffc3601126100ac576004359073ffffffffffffffffffffffffffffffffffffffff9081831683036100ac575061017d60409261018c565b90918351921682526020820152f35b7f00000000000000000000000000000000000000000000000000000000000000009073ffffffffffffffffffffffffffffffffffffffff908116908083168203610201575050507f000000000000000000000000000000000000000000000000000000000000000090670de0b6b3a764000090565b7f000000000000000000000000000000000000000000000000000000000000000016036102355790670de0b6b3a764000090565b60046040517fc8a08d6f000000000000000000000000000000000000000000000000000000008152fdfea2646970667358221220d2a52daa7cac464289c3810d457ca8fd49cecfeba3f64706347b4a53780e2d7964736f6c63430008170033",
  "devdoc": {
    "kind": "dev",
    "methods": {},
    "version": 1
  },
  "userdoc": {
    "kind": "user",
    "methods": {},
    "version": 1
  },
  "storageLayout": {
    "storage": [],
    "types": null
  }
}