{
  "address": "0xD9Cc0A957cAC93135596f98c20Fbaca8Bf515909",
  "abi": [
    {
      "inputs": [
        {
          "internalType": "contract IERC20",
          "name": "wBase",
          "type": "address"
        }
      ],
      "stateMutability": "nonpayable",
      "type": "constructor"
    },
    {
      "inputs": [
        {
          "internalType": "contract IERC20",
          "name": "token",
          "type": "address"
        }
      ],
      "name": "wrap",
      "outputs": [
        {
          "internalType": "contract IERC20",
          "name": "wrappedToken",
          "type": "address"
        },
        {
          "internalType": "uint256",
          "name": "rate",
          "type": "uint256"
        }
      ],
      "stateMutability": "view",
      "type": "function"
    }
  ],
  "transactionHash": "0x182667e56d0f8eded3a01872ceef29d431b6e860120547dd6b2d0b05ea08cc52",
  "args": [
    "0xe4f05a66ec68b54a58b17c22107b02e0232cc817"
  ],
  "numDeployments": 1,
  "solcInputHash": "50af0a6194e9756cc0fbcd1f18f7c0ce",
  "bytecode": "0x60a060405234801561001057600080fd5b506040516102473803806102478339818101604052602081101561003357600080fd5b50516001600160a01b03166080526080516101e66100616000396000818160b4015260e501526101e66000f3fe608060405234801561001057600080fd5b506004361061002b5760003560e01c8063023276f014610030575b600080fd5b6100636004803603602081101561004657600080fd5b503573ffffffffffffffffffffffffffffffffffffffff16610093565b6040805173ffffffffffffffffffffffffffffffffffffffff909316835260208301919091528051918290030190f35b60008073ffffffffffffffffffffffffffffffffffffffff83166100e357507f000000000000000000000000000000000000000000000000000000000000000092670de0b6b3a764000092509050565b7f000000000000000000000000000000000000000000000000000000000000000073ffffffffffffffffffffffffffffffffffffffff168373ffffffffffffffffffffffffffffffffffffffff16036101495750600092670de0b6b3a764000092509050565b604080517f08c379a000000000000000000000000000000000000000000000000000000000815260206004820152601160248201527f556e737570706f7274656420746f6b656e000000000000000000000000000000604482015290519081900360640190fdfea2646970667358221220fed240439a4c3bf9734d43b205a0c62e0318eab4dfb6fdb9743500e08108946a64736f6c634300080f0033",
  "devdoc": {
    "kind": "dev",
    "methods": {},
    "version": 1
  },
  "userdoc": {
    "kind": "user",
    "methods": {},
    "version": 1
  },
  "storageLayout": {
    "storage": [],
    "types": null
  }
}