{
  "address": "0x26271DFdDBD250014F87F0F302C099d5a798BaB1",
  "abi": [
    {
      "inputs": [
        {
          "internalType": "contract IKlaySwapFactory",
          "name": "factory_",
          "type": "address"
        },
        {
          "internalType": "contract IKlaySwapStorage",
          "name": "storage_",
          "type": "address"
        }
      ],
      "stateMutability": "nonpayable",
      "type": "constructor"
    },
    {
      "inputs": [
        {
          "internalType": "contract IERC20",
          "name": "srcToken",
          "type": "address"
        },
        {
          "internalType": "contract IERC20",
          "name": "dstToken",
          "type": "address"
        },
        {
          "internalType": "contract IERC20",
          "name": "connector",
          "type": "address"
        }
      ],
      "name": "getRate",
      "outputs": [
        {
          "internalType": "uint256",
          "name": "rate",
          "type": "uint256"
        },
        {
          "internalType": "uint256",
          "name": "weight",
          "type": "uint256"
        }
      ],
      "stateMutability": "view",
      "type": "function"
    }
  ],
  "transactionHash": "0x9a21eafd7b4242ec43c58904d78414d4efeb7710fcb879b715885a01b7693caa",
  "args": [
    "0xc6a2ad8cc6e4a7e08fc37cc5954be07d499e7654",
    "0x1289550d988177575154c2CA45c95CCfb32F837d"
  ],
  "numDeployments": 1,
  "solcInputHash": "99ed531030de0715e6d65ac48f740dd0",
  "bytecode": "0x60c060405234801561001057600080fd5b506040516105693803806105698339818101604052604081101561003357600080fd5b5080516020909101516001600160a01b039182166080521660a05260805160a0516104f661007360003960006101cc0152600061020801526104f66000f3fe608060405234801561001057600080fd5b506004361061002b5760003560e01c806314999e7914610030575b600080fd5b6100756004803603606081101561004657600080fd5b5073ffffffffffffffffffffffffffffffffffffffff813581169160208101358216916040909101351661008e565b6040805192835260208301919091528051918290030190f35b60008080807fffffffffffffffffffffffff000000000000000000000000000000000000000173ffffffffffffffffffffffffffffffffffffffff8616016100e4576100da8787610180565b9092509050610143565b6000806100f18988610180565b90945091506101008789610180565b9350905080821115610128578161011782866103f2565b6101219190610485565b9350610140565b8061013383856103f2565b61013d9190610485565b92505b50505b8161015682670de0b6b3a76400006103f2565b6101609190610485565b935061017461016f82846103f2565b610394565b92505050935093915050565b6000806000808473ffffffffffffffffffffffffffffffffffffffff168673ffffffffffffffffffffffffffffffffffffffff16106101c05784866101c3565b85855b915091506000807f000000000000000000000000000000000000000000000000000000000000000073ffffffffffffffffffffffffffffffffffffffff16633e99c1e47f000000000000000000000000000000000000000000000000000000000000000073ffffffffffffffffffffffffffffffffffffffff1663fd435cb987876040518363ffffffff1660e01b8152600401808373ffffffffffffffffffffffffffffffffffffffff1681526020018273ffffffffffffffffffffffffffffffffffffffff16815260200192505050602060405180830381865afa1580156102b0573d6000803e3d6000fd5b505050506040513d60208110156102c657600080fd5b5051604080517fffffffff0000000000000000000000000000000000000000000000000000000060e085901b16815273ffffffffffffffffffffffffffffffffffffffff90921660048301525160248083019260609291908290030181865afa158015610337573d6000803e3d6000fd5b505050506040513d606081101561034d57600080fd5b508051602090910151909250905073ffffffffffffffffffffffffffffffffffffffff88811690851614610382578082610385565b81815b90999098509650505050505050565b600060038211156103e3575080600160028204015b818110156103dd578091506002818285816103c6576103c6610456565b0401816103d5576103d5610456565b0490506103a9565b50919050565b81156103ed575060015b919050565b6000817fffffffffffffffffffffffffffffffffffffffffffffffffffffffffffffffff0483118215151615610451577f4e487b7100000000000000000000000000000000000000000000000000000000600052601160045260246000fd5b500290565b7f4e487b7100000000000000000000000000000000000000000000000000000000600052601260045260246000fd5b6000826104bb577f4e487b7100000000000000000000000000000000000000000000000000000000600052601260045260246000fd5b50049056fea2646970667358221220f3d5a0be1b8728b07b9dc564b42a865490f9ebdb32f715354391718ff08faaec64736f6c634300080f0033",
  "devdoc": {
    "kind": "dev",
    "methods": {},
    "version": 1
  },
  "userdoc": {
    "kind": "user",
    "methods": {},
    "version": 1
  },
  "storageLayout": {
    "storage": [],
    "types": null
  }
}