{
  "address": "0xf023D71EfB08339EA28F0C186AE130c74D44C58c",
  "abi": [
    {
      "inputs": [
        {
          "internalType": "contract IKlaySwapFactory",
          "name": "_factory",
          "type": "address"
        },
        {
          "internalType": "contract IKlaySwapStorage",
          "name": "_storage",
          "type": "address"
        }
      ],
      "stateMutability": "nonpayable",
      "type": "constructor"
    },
    {
      "inputs": [],
      "name": "ConnectorShouldBeNone",
      "type": "error"
    },
    {
      "inputs": [],
      "name": "PoolNotFound",
      "type": "error"
    },
    {
      "inputs": [],
      "name": "PoolWithConnectorNotFound",
      "type": "error"
    },
    {
      "inputs": [],
      "name": "FACTORY",
      "outputs": [
        {
          "internalType": "contract IKlaySwapFactory",
          "name": "",
          "type": "address"
        }
      ],
      "stateMutability": "view",
      "type": "function"
    },
    {
      "inputs": [],
      "name": "RESERVE_STORAGE",
      "outputs": [
        {
          "internalType": "contract IKlaySwapStorage",
          "name": "",
          "type": "address"
        }
      ],
      "stateMutability": "view",
      "type": "function"
    },
    {
      "inputs": [
        {
          "internalType": "contract IERC20",
          "name": "srcToken",
          "type": "address"
        },
        {
          "internalType": "contract IERC20",
          "name": "dstToken",
          "type": "address"
        },
        {
          "internalType": "contract IERC20",
          "name": "connector",
          "type": "address"
        },
        {
          "internalType": "uint256",
          "name": "",
          "type": "uint256"
        }
      ],
      "name": "getRate",
      "outputs": [
        {
          "internalType": "uint256",
          "name": "rate",
          "type": "uint256"
        },
        {
          "internalType": "uint256",
          "name": "weight",
          "type": "uint256"
        }
      ],
      "stateMutability": "view",
      "type": "function"
    }
  ],
  "transactionHash": "0xbe20bf4b0686b9ede04dfeceda95365b7b52f3b288c98e17183196a46aa2ca4c",
  "args": [
    "0xc6a2ad8cc6e4a7e08fc37cc5954be07d499e7654",
    "0x1289550d988177575154c2CA45c95CCfb32F837d"
  ],
  "numDeployments": 1,
  "solcInputHash": "fd1dd62bbe05f2095434872ea0a42332",
  "bytecode": "0x60c03461009357601f6108b138819003918201601f19168301916001600160401b038311848410176100985780849260409485528339810103126100935780516001600160a01b03918282168203610093576020015191821682036100935760805260a05260405161080290816100af82396080518181816102370152610691015260a0518181816101c901526106fd0152f35b600080fd5b634e487b7160e01b600052604160045260246000fdfe608080604052600436101561001357600080fd5b600090813560e01c9081632dd31000146101ed57508063373cd9821461017e57633d549b321461004257600080fd5b3461017b5760807ffffffffffffffffffffffffffffffffffffffffffffffffffffffffffffffffc36011261017b5773ffffffffffffffffffffffffffffffffffffffff9060043582811681036101775760243591838316830361017b57604435908482169485830361017757604095036100ed5750506100e0916100c691610629565b91906100da6100d5848361025b565b610476565b926102d6565b9082519182526020820152f35b6100fa8261010494610629565b9390948593610629565b9490928584861115610152575050916100da9161013b61013461012c87856100e099986103e2565b955b8661025b565b928761025b565b90508082101561014b5750610476565b9050610476565b8596508492506101346101716100da9593966100e09861013b946103e2565b9761012e565b5080fd5b80fd5b503461017b57807ffffffffffffffffffffffffffffffffffffffffffffffffffffffffffffffffc36011261017b57602060405173ffffffffffffffffffffffffffffffffffffffff7f0000000000000000000000000000000000000000000000000000000000000000168152f35b90503461017757817ffffffffffffffffffffffffffffffffffffffffffffffffffffffffffffffffc3601126101775760209073ffffffffffffffffffffffffffffffffffffffff7f0000000000000000000000000000000000000000000000000000000000000000168152f35b8181029291811591840414171561026e57565b7f4e487b7100000000000000000000000000000000000000000000000000000000600052601160045260246000fd5b81156102a7570490565b7f4e487b7100000000000000000000000000000000000000000000000000000000600052601260045260246000fd5b90670de0b6b3a7640000907fffffffffffffffffffffffffffffffffffffffffffffffffffffffffffffffff82840992828102928380861095039480860395146103d25784831115610374578291096001821901821680920460028082600302188083028203028083028203028083028203028083028203028083028203028092029003029360018380600003040190848311900302920304170290565b60646040517f08c379a000000000000000000000000000000000000000000000000000000000815260206004820152601560248201527f4d6174683a206d756c446976206f766572666c6f7700000000000000000000006044820152fd5b5050906103df925061029d565b90565b917fffffffffffffffffffffffffffffffffffffffffffffffffffffffffffffffff82840992828102928380861095039480860395146103d25784831115610374578291096001821901821680920460028082600302188083028203028083028203028083028203028083028203028083028203028092029003029360018380600003040190848311900302920304170290565b80156105b357610541816000908360801c806105a7575b508060401c8061059a575b508060201c8061058d575b508060101c80610580575b508060081c80610573575b508060041c80610566575b508060021c80610559575b50600191828092811c610552575b1c1b6104e9818561029d565b01811c6104f6818561029d565b01811c610503818561029d565b01811c610510818561029d565b01811c61051d818561029d565b01811c61052a818561029d565b01811c610537818561029d565b01901c809261029d565b8082101561054d575090565b905090565b01816104dd565b60029150910190386104cf565b60049150910190386104c4565b60089150910190386104b9565b60109150910190386104ae565b60209150910190386104a3565b6040915091019038610498565b9150506080903861048d565b50600090565b90601f7fffffffffffffffffffffffffffffffffffffffffffffffffffffffffffffffe0910116810190811067ffffffffffffffff8211176105fa57604052565b7f4e487b7100000000000000000000000000000000000000000000000000000000600052604160045260246000fd5b73ffffffffffffffffffffffffffffffffffffffff808216929091828216808510156107c257505b8280604051927ffd435cb90000000000000000000000000000000000000000000000000000000084521692836004840152166024820152602081604481867f0000000000000000000000000000000000000000000000000000000000000000165afa908115610778578390600092610784575b50602460609260405195869384927f3e99c1e40000000000000000000000000000000000000000000000000000000084521660048301527f0000000000000000000000000000000000000000000000000000000000000000165afa92831561077857600092839461073d575b50036107395791565b9091565b929093506060833d8211610770575b81610759606093836105b9565b8101031261017b5750602082519201519238610730565b3d915061074c565b6040513d6000823e3d90fd5b90506020813d82116107ba575b8161079e602093836105b9565b81010312610177575190838216820361017b57508260246106c4565b3d9150610791565b915050829061065156fea26469706673582212207dee06cad7df89b3dd4a0ec2817f43807eb43ab39e5733178bc9d834636af65f64736f6c63430008130033",
  "devdoc": {
    "kind": "dev",
    "methods": {},
    "version": 1
  },
  "userdoc": {
    "kind": "user",
    "methods": {},
    "version": 1
  },
  "storageLayout": {
    "storage": [],
    "types": null
  }
}