{
  "address": "0x750c1b699552cAf908D67F5cCFd20A261305328c",
  "abi": [
    {
      "inputs": [
        {
          "internalType": "contract IKlaySwapFactory",
          "name": "_factory",
          "type": "address"
        },
        {
          "internalType": "contract IKlaySwapStorage",
          "name": "_storage",
          "type": "address"
        }
      ],
      "stateMutability": "nonpayable",
      "type": "constructor"
    },
    {
      "inputs": [],
      "name": "ConnectorShouldBeNone",
      "type": "error"
    },
    {
      "inputs": [],
      "name": "PoolNotFound",
      "type": "error"
    },
    {
      "inputs": [],
      "name": "PoolWithConnectorNotFound",
      "type": "error"
    },
    {
      "inputs": [],
      "name": "factory",
      "outputs": [
        {
          "internalType": "contract IKlaySwapFactory",
          "name": "",
          "type": "address"
        }
      ],
      "stateMutability": "view",
      "type": "function"
    },
    {
      "inputs": [
        {
          "internalType": "contract IERC20",
          "name": "srcToken",
          "type": "address"
        },
        {
          "internalType": "contract IERC20",
          "name": "dstToken",
          "type": "address"
        },
        {
          "internalType": "contract IERC20",
          "name": "connector",
          "type": "address"
        }
      ],
      "name": "getRate",
      "outputs": [
        {
          "internalType": "uint256",
          "name": "rate",
          "type": "uint256"
        },
        {
          "internalType": "uint256",
          "name": "weight",
          "type": "uint256"
        }
      ],
      "stateMutability": "view",
      "type": "function"
    },
    {
      "inputs": [],
      "name": "reserveStorage",
      "outputs": [
        {
          "internalType": "contract IKlaySwapStorage",
          "name": "",
          "type": "address"
        }
      ],
      "stateMutability": "view",
      "type": "function"
    }
  ],
  "transactionHash": "0xfbee58d66ba72d3585ae623c1292a9918a9cca8a7a1bcac31c564ab8649e28c2",
  "args": [
    "0xc6a2ad8cc6e4a7e08fc37cc5954be07d499e7654",
    "0x1289550d988177575154c2CA45c95CCfb32F837d"
  ],
  "numDeployments": 2,
  "solcInputHash": "edb6444afada1f09d5e3ae7cac8824fd",
  "bytecode": "0x60c03461009157601f61066938819003918201601f19168301916001600160401b038311848410176100965780849260409485528339810103126100915780516001600160a01b03918282168203610091576020015191821682036100915760805260a0526040516105bc90816100ad823960805181818160fa015261044b015260a051818181608801526104b70152f35b600080fd5b634e487b7160e01b600052604160045260246000fdfe6080604052600436101561001257600080fd5b6000803560e01c806314999e791461011e578063c45a0155146100af5763e3ab02961461003e57600080fd5b346100ac57807ffffffffffffffffffffffffffffffffffffffffffffffffffffffffffffffffc3601126100ac57602060405173ffffffffffffffffffffffffffffffffffffffff7f0000000000000000000000000000000000000000000000000000000000000000168152f35b80fd5b50346100ac57807ffffffffffffffffffffffffffffffffffffffffffffffffffffffffffffffffc3601126100ac57602060405173ffffffffffffffffffffffffffffffffffffffff7f0000000000000000000000000000000000000000000000000000000000000000168152f35b50346100ac5760607ffffffffffffffffffffffffffffffffffffffffffffffffffffffffffffffffc3601126100ac576004359073ffffffffffffffffffffffffffffffffffffffff80831683036102ab576024359080821682036102a757604435908082168083036102a35703610213575061019b91926103e3565b9091906101b06101ab82856102af565b61032a565b915b670de0b6b3a7640000918281029281840414901517156101e657506040926101d9916102f1565b9082519182526020820152f35b807f4e487b7100000000000000000000000000000000000000000000000000000000602492526011600452fd5b6102208161022a956103e3565b94909283926103e3565b929091838387111561027f5750509061026461025d6102558761025085610272976102af565b6102f1565b965b876102af565b91846102af565b80821015610278575061032a565b916101b2565b905061032a565b86945083925061029d61027294610250610264949961025d946102af565b94610257565b8480fd5b8280fd5b5080fd5b818102929181159184041417156102c257565b7f4e487b7100000000000000000000000000000000000000000000000000000000600052601160045260246000fd5b81156102fb570490565b7f4e487b7100000000000000000000000000000000000000000000000000000000600052601260045260246000fd5b906000600383111561036657508160018082811c01915b84831061034d57505050565b919350908361035c81836102f1565b01821c9190610341565b9161036d57565b60019150565b90601f7fffffffffffffffffffffffffffffffffffffffffffffffffffffffffffffffe0910116810190811067ffffffffffffffff8211176103b457604052565b7f4e487b7100000000000000000000000000000000000000000000000000000000600052604160045260246000fd5b73ffffffffffffffffffffffffffffffffffffffff8082169290918282168085101561057c57505b8280604051927ffd435cb90000000000000000000000000000000000000000000000000000000084521692836004840152166024820152602081604481867f0000000000000000000000000000000000000000000000000000000000000000165afa90811561053257839060009261053e575b50602460609260405195869384927f3e99c1e40000000000000000000000000000000000000000000000000000000084521660048301527f0000000000000000000000000000000000000000000000000000000000000000165afa9283156105325760009283946104f7575b50036104f35791565b9091565b929093506060833d821161052a575b8161051360609383610373565b810103126100ac57506020825192015192386104ea565b3d9150610506565b6040513d6000823e3d90fd5b90506020813d8211610574575b8161055860209383610373565b810103126102ab57519083821682036100ac575082602461047e565b3d915061054b565b915050829061040b56fea26469706673582212209f848fddb362ca7776db56bebef909dee5628ea12f7ad9449dcd7408f8fc52c064736f6c63430008130033",
  "devdoc": {
    "kind": "dev",
    "methods": {},
    "version": 1
  },
  "userdoc": {
    "kind": "user",
    "methods": {},
    "version": 1
  },
  "storageLayout": {
    "storage": [],
    "types": null
  }
}