{
  "address": "0x138CE40d675F9a23E4D6127A8600308Cf7A93381",
  "abi": [
    {
      "inputs": [
        {
          "internalType": "contract MultiWrapper",
          "name": "_multiWrapper",
          "type": "address"
        },
        {
          "internalType": "contract IOracle[]",
          "name": "existingOracles",
          "type": "address[]"
        },
        {
          "internalType": "enum OffchainOracle.OracleType[]",
          "name": "oracleTypes",
          "type": "uint8[]"
        },
        {
          "internalType": "contract IERC20[]",
          "name": "existingConnectors",
          "type": "address[]"
        },
        {
          "internalType": "contract IERC20",
          "name": "wBase",
          "type": "address"
        }
      ],
      "stateMutability": "nonpayable",
      "type": "constructor"
    },
    {
      "anonymous": false,
      "inputs": [
        {
          "indexed": false,
          "internalType": "contract IERC20",
          "name": "connector",
          "type": "address"
        }
      ],
      "name": "ConnectorAdded",
      "type": "event"
    },
    {
      "anonymous": false,
      "inputs": [
        {
          "indexed": false,
          "internalType": "contract IERC20",
          "name": "connector",
          "type": "address"
        }
      ],
      "name": "ConnectorRemoved",
      "type": "event"
    },
    {
      "anonymous": false,
      "inputs": [
        {
          "indexed": false,
          "internalType": "contract MultiWrapper",
          "name": "multiWrapper",
          "type": "address"
        }
      ],
      "name": "MultiWrapperUpdated",
      "type": "event"
    },
    {
      "anonymous": false,
      "inputs": [
        {
          "indexed": false,
          "internalType": "contract IOracle",
          "name": "oracle",
          "type": "address"
        },
        {
          "indexed": false,
          "internalType": "enum OffchainOracle.OracleType",
          "name": "oracleType",
          "type": "uint8"
        }
      ],
      "name": "OracleAdded",
      "type": "event"
    },
    {
      "anonymous": false,
      "inputs": [
        {
          "indexed": false,
          "internalType": "contract IOracle",
          "name": "oracle",
          "type": "address"
        },
        {
          "indexed": false,
          "internalType": "enum OffchainOracle.OracleType",
          "name": "oracleType",
          "type": "uint8"
        }
      ],
      "name": "OracleRemoved",
      "type": "event"
    },
    {
      "anonymous": false,
      "inputs": [
        {
          "indexed": true,
          "internalType": "address",
          "name": "previousOwner",
          "type": "address"
        },
        {
          "indexed": true,
          "internalType": "address",
          "name": "newOwner",
          "type": "address"
        }
      ],
      "name": "OwnershipTransferred",
      "type": "event"
    },
    {
      "inputs": [
        {
          "internalType": "contract IERC20",
          "name": "connector",
          "type": "address"
        }
      ],
      "name": "addConnector",
      "outputs": [],
      "stateMutability": "nonpayable",
      "type": "function"
    },
    {
      "inputs": [
        {
          "internalType": "contract IOracle",
          "name": "oracle",
          "type": "address"
        },
        {
          "internalType": "enum OffchainOracle.OracleType",
          "name": "oracleKind",
          "type": "uint8"
        }
      ],
      "name": "addOracle",
      "outputs": [],
      "stateMutability": "nonpayable",
      "type": "function"
    },
    {
      "inputs": [],
      "name": "connectors",
      "outputs": [
        {
          "internalType": "contract IERC20[]",
          "name": "allConnectors",
          "type": "address[]"
        }
      ],
      "stateMutability": "view",
      "type": "function"
    },
    {
      "inputs": [
        {
          "internalType": "contract IERC20",
          "name": "srcToken",
          "type": "address"
        },
        {
          "internalType": "contract IERC20",
          "name": "dstToken",
          "type": "address"
        },
        {
          "internalType": "bool",
          "name": "useWrappers",
          "type": "bool"
        }
      ],
      "name": "getRate",
      "outputs": [
        {
          "internalType": "uint256",
          "name": "weightedRate",
          "type": "uint256"
        }
      ],
      "stateMutability": "view",
      "type": "function"
    },
    {
      "inputs": [
        {
          "internalType": "contract IERC20",
          "name": "srcToken",
          "type": "address"
        },
        {
          "internalType": "bool",
          "name": "useSrcWrappers",
          "type": "bool"
        }
      ],
      "name": "getRateToEth",
      "outputs": [
        {
          "internalType": "uint256",
          "name": "weightedRate",
          "type": "uint256"
        }
      ],
      "stateMutability": "view",
      "type": "function"
    },
    {
      "inputs": [],
      "name": "multiWrapper",
      "outputs": [
        {
          "internalType": "contract MultiWrapper",
          "name": "",
          "type": "address"
        }
      ],
      "stateMutability": "view",
      "type": "function"
    },
    {
      "inputs": [],
      "name": "oracles",
      "outputs": [
        {
          "internalType": "contract IOracle[]",
          "name": "allOracles",
          "type": "address[]"
        },
        {
          "internalType": "enum OffchainOracle.OracleType[]",
          "name": "oracleTypes",
          "type": "uint8[]"
        }
      ],
      "stateMutability": "view",
      "type": "function"
    },
    {
      "inputs": [],
      "name": "owner",
      "outputs": [
        {
          "internalType": "address",
          "name": "",
          "type": "address"
        }
      ],
      "stateMutability": "view",
      "type": "function"
    },
    {
      "inputs": [
        {
          "internalType": "contract IERC20",
          "name": "connector",
          "type": "address"
        }
      ],
      "name": "removeConnector",
      "outputs": [],
      "stateMutability": "nonpayable",
      "type": "function"
    },
    {
      "inputs": [
        {
          "internalType": "contract IOracle",
          "name": "oracle",
          "type": "address"
        },
        {
          "internalType": "enum OffchainOracle.OracleType",
          "name": "oracleKind",
          "type": "uint8"
        }
      ],
      "name": "removeOracle",
      "outputs": [],
      "stateMutability": "nonpayable",
      "type": "function"
    },
    {
      "inputs": [],
      "name": "renounceOwnership",
      "outputs": [],
      "stateMutability": "nonpayable",
      "type": "function"
    },
    {
      "inputs": [
        {
          "internalType": "contract MultiWrapper",
          "name": "_multiWrapper",
          "type": "address"
        }
      ],
      "name": "setMultiWrapper",
      "outputs": [],
      "stateMutability": "nonpayable",
      "type": "function"
    },
    {
      "inputs": [
        {
          "internalType": "address",
          "name": "newOwner",
          "type": "address"
        }
      ],
      "name": "transferOwnership",
      "outputs": [],
      "stateMutability": "nonpayable",
      "type": "function"
    }
  ],
  "transactionHash": "0x3584dc0909de4333eaa3b4ef73aacf6779ccfaf6a2a898fcc6b3324cfb3e59cf",
  "args": [
    "0xCCf6b19bc2419E776b6ee030044811dA846686fb",
    [
      "0x735247fb0a604c0adC6cab38ACE16D0DbA31295F"
    ],
    [
      "0"
    ],
    [
      "0x0000000000000000000000000000000000000000",
      "0xFFfFfFffFFfffFFfFFfFFFFFffFFFffffFfFFFfF",
      "0xe4f05a66ec68b54a58b17c22107b02e0232cc817"
    ],
    "0xe4f05a66ec68b54a58b17c22107b02e0232cc817"
  ],
  "numDeployments": 1,
  "solcInputHash": "50af0a6194e9756cc0fbcd1f18f7c0ce",
  "bytecode": "0x60a06040523480156200001157600080fd5b506040516200283338038062002833833981810160405260a08110156200003757600080fd5b8151602083018051604051929492938301929190846401000000008211156200005f57600080fd5b9083019060208201858111156200007557600080fd5b82518660208202830111640100000000821117156200009357600080fd5b82525081516020918201928201910280838360005b83811015620000c2578181015183820152602001620000a8565b5050505090500160405260200180516040519392919084640100000000821115620000ec57600080fd5b9083019060208201858111156200010257600080fd5b82518660208202830111640100000000821117156200012057600080fd5b82525081516020918201928201910280838360005b838110156200014f57818101518382015260200162000135565b50505050905001604052602001805160405193929190846401000000008211156200017957600080fd5b9083019060208201858111156200018f57600080fd5b8251866020820283011164010000000082111715620001ad57600080fd5b82525081516020918201928201910280838360005b83811015620001dc578181015183820152602001620001c2565b505050509190910160405250602001519150620001fb905033620006a3565b825184511462000252576040805162461bcd60e51b815260206004820152601660248201527f417272617973206c656e677468206d69736d6174636800000000000000000000604482015290519081900360640190fd5b600780546001600160a01b0387166001600160a01b0319909116811790915560408051918252517f1030152fe2062b574a830e6b9f13c65995990df31e4dc708d142533bb3ad0f529181900360200190a160005b84518110156200058f576000848281518110620002c757620002c76200077b565b60200260200101516002811115620002e357620002e362000765565b036200037857620003208582815181106200030257620003026200077b565b60200260200101516001620006f360201b620019881790919060201c565b62000372576040805162461bcd60e51b815260206004820152601460248201527f4f7261636c6520616c7265616479206164646564000000000000000000000000604482015290519081900360640190fd5b620004f2565b60018482815181106200038f576200038f6200077b565b60200260200101516002811115620003ab57620003ab62000765565b03620003e85762000320858281518110620003ca57620003ca6200077b565b60200260200101516003620006f360201b620019881790919060201c565b6002848281518110620003ff57620003ff6200077b565b602002602001015160028111156200041b576200041b62000765565b03620004a5576200043a8582815181106200030257620003026200077b565b6200048c576040805162461bcd60e51b815260206004820152601460248201527f4f7261636c6520616c7265616479206164646564000000000000000000000000604482015290519081900360640190fd5b62000320858281518110620003ca57620003ca6200077b565b6040805162461bcd60e51b815260206004820152601760248201527f496e76616c6964204f7261636c65546f6b656e4b696e64000000000000000000604482015290519081900360640190fd5b7f5874b2072ff37562df54063dd700c59d45f311bdf6f9cabb5a15f0ffb2e9f6228582815181106200052857620005286200077b565b60200260200101518583815181106200054557620005456200077b565b602002602001015160405180836001600160a01b0316815260200182600281111562000575576200057562000765565b81526020019250505060405180910390a1600101620002a6565b5060005b82518110156200068b57620005d4838281518110620005b657620005b66200077b565b60200260200101516005620006f360201b620019881790919060201c565b62000626576040805162461bcd60e51b815260206004820152601760248201527f436f6e6e6563746f7220616c7265616479206164646564000000000000000000604482015290519081900360640190fd5b7fff88af5d962d47fd25d87755e8267a029fad5a91740c67d0dade2bdbe5268a1d8382815181106200065c576200065c6200077b565b602002602001015160405180826001600160a01b0316815260200191505060405180910390a160010162000593565b506001600160a01b0316608052506200079192505050565b600080546001600160a01b038381166001600160a01b0319831681178455604051919092169283917f8be0079c531659141344cd1fd0a4f28419497f9722a3daafe3b4186f6b6457e09190a35050565b60006200070a836001600160a01b03841662000713565b90505b92915050565b60008181526001830160205260408120546200075c575081546001818101845560008481526020808220909301849055845484825282860190935260409020919091556200070d565b5060006200070d565b634e487b7160e01b600052602160045260246000fd5b634e487b7160e01b600052603260045260246000fd5b608051612086620007ad6000396000610a0b01526120866000f3fe608060405234801561001057600080fd5b50600436106100df5760003560e01c80638da5cb5b1161008c578063b77910dc11610066578063b77910dc1461035e578063d06265181461037e578063f0b92e40146103b1578063f2fde38b146103ed57600080fd5b80638da5cb5b146102ac5780639d4d7b1c146102ef578063aa16d4c01461032b57600080fd5b8063715018a6116100bd578063715018a6146102125780637de4fd101461021a578063802431fb1461026757600080fd5b80631a6c6a98146100e45780632857373a1461011957806365050a68146101ba575b600080fd5b610117600480360360208110156100fa57600080fd5b503573ffffffffffffffffffffffffffffffffffffffff16610420565b005b6101216104ea565b604051808060200180602001838103835285818151815260200191508051906020019060200280838360005b8381101561016557818101518382015260200161014d565b50505050905001838103825284818151815260200191508051906020019060200280838360005b838110156101a457818101518382015260200161018c565b5050505090500194505050505060405180910390f35b6101c2610916565b60408051602080825283518183015283519192839290830191858101910280838360005b838110156101fe5781810151838201526020016101e6565b505050509050019250505060405180910390f35b6101176109d7565b6102556004803603604081101561023057600080fd5b5073ffffffffffffffffffffffffffffffffffffffff813516906020013515156109eb565b60408051918252519081900360200190f35b6102556004803603606081101561027d57600080fd5b5073ffffffffffffffffffffffffffffffffffffffff8135811691602081013590911690604001351515610ebf565b60005473ffffffffffffffffffffffffffffffffffffffff165b6040805173ffffffffffffffffffffffffffffffffffffffff9092168252519081900360200190f35b6101176004803603604081101561030557600080fd5b50803573ffffffffffffffffffffffffffffffffffffffff16906020013560ff166113a7565b6101176004803603602081101561034157600080fd5b503573ffffffffffffffffffffffffffffffffffffffff166115d2565b6007546102c69073ffffffffffffffffffffffffffffffffffffffff1681565b6101176004803603602081101561039457600080fd5b503573ffffffffffffffffffffffffffffffffffffffff1661169c565b610117600480360360408110156103c757600080fd5b50803573ffffffffffffffffffffffffffffffffffffffff16906020013560ff1661171d565b6101176004803603602081101561040357600080fd5b503573ffffffffffffffffffffffffffffffffffffffff166118cc565b6104286119aa565b610433600582611a2b565b61049e57604080517f08c379a000000000000000000000000000000000000000000000000000000000815260206004820152601160248201527f556e6b6e6f776e20636f6e6e6563746f72000000000000000000000000000000604482015290519081900360640190fd5b6040805173ffffffffffffffffffffffffffffffffffffffff8316815290517f6825b26a0827e9c2ceca01d6289ce4a40e629dc074ec48ea4727d1afbff359f59181900360200190a150565b60035460015460609182916000910167ffffffffffffffff81111561051157610511611ebe565b60405190808252806020026020018201604052801561053a578160200160208202803683370190505b5090506000815167ffffffffffffffff81111561055957610559611ebe565b604051908082528060200260200182016040528015610582578160200160208202803683370190505b50905060005b60015481101561064b5760018054829081106105a6576105a6611eed565b906000526020600020015460001c8382815181106105c6576105c6611eed565b602002602001019073ffffffffffffffffffffffffffffffffffffffff16908173ffffffffffffffffffffffffffffffffffffffff1681525050600082828151811061061457610614611eed565b6020026020010190600281111561062d5761062d611f1c565b9081600281111561064057610640611f1c565b905250600101610588565b5060015460005b6003548110156107af57600380546001918491600091908590811061067957610679611eed565b600091825260208220015491505b87518110156106f0578173ffffffffffffffffffffffffffffffffffffffff168882815181106106b9576106b9611eed565b602002602001015173ffffffffffffffffffffffffffffffffffffffff16036106e857809250600293506106f0565b600101610687565b50600183600281111561070557610705611f1c565b03610711576001909401935b8087838151811061072457610724611eed565b602002602001019073ffffffffffffffffffffffffffffffffffffffff16908173ffffffffffffffffffffffffffffffffffffffff16815250508286838151811061077157610771611eed565b6020026020010190600281111561078a5761078a611f1c565b9081600281111561079d5761079d611f1c565b90525050600190920191506106529050565b508067ffffffffffffffff8111156107c9576107c9611ebe565b6040519080825280602002602001820160405280156107f2578160200160208202803683370190505b5094508067ffffffffffffffff81111561080e5761080e611ebe565b604051908082528060200260200182016040528015610837578160200160208202803683370190505b50935060005b8181101561090e5783818151811061085757610857611eed565b602002602001015186828151811061087157610871611eed565b602002602001019073ffffffffffffffffffffffffffffffffffffffff16908173ffffffffffffffffffffffffffffffffffffffff16815250508281815181106108bd576108bd611eed565b60200260200101518582815181106108d7576108d7611eed565b602002602001019060028111156108f0576108f0611f1c565b9081600281111561090357610903611f1c565b90525060010161083d565b505050509091565b60606109226005611a4d565b67ffffffffffffffff81111561093a5761093a611ebe565b604051908082528060200260200182016040528015610963578160200160208202803683370190505b50905060005b81518110156109d357600580548290811061098657610986611eed565b906000526020600020015460001c8282815181106109a6576109a6611eed565b73ffffffffffffffffffffffffffffffffffffffff90921660209283029190910190910152600101610969565b5090565b6109df6119aa565b6109e96000611a57565b565b6000806000806109fb8686611acc565b60408051808201825260008082527f000000000000000000000000000000000000000000000000000000000000000073ffffffffffffffffffffffffffffffffffffffff166020808401919091528351600380546060938102830184018752958201868152979950959750929591949293849391840182828015610a9e57602002820191906000526020600020905b815481526020019060010190808311610a8a575b5050509183525050600180546040805160208381028201810190925282815293810193929190830182828015610af357602002820191906000526020600020905b815481526020019060010190808311610adf575b5050509190925250506005805460408051602080840282018101909252828152939450600093929190830182828015610b4b57602002820191906000526020600020905b815481526020019060010190808311610b37575b5050505050905060005b8551811015610e9e5760005b6002811015610e9557848160028110610b7c57610b7c611eed565b602002015173ffffffffffffffffffffffffffffffffffffffff16878381518110610ba957610ba9611eed565b602002602001015173ffffffffffffffffffffffffffffffffffffffff1603610bf557858281518110610bde57610bde611eed565b602002602001015198505050505050505050610eb9565b60005b8351811015610e8c576000848281518110610c1557610c15611eed565b602002602001015160001c9050888481518110610c3457610c34611eed565b602002602001015173ffffffffffffffffffffffffffffffffffffffff168173ffffffffffffffffffffffffffffffffffffffff161480610cb65750868360028110610c8257610c82611eed565b602002015173ffffffffffffffffffffffffffffffffffffffff168173ffffffffffffffffffffffffffffffffffffffff16145b15610cc15750610e84565b60005b868460028110610cd657610cd6611eed565b602002015151811015610e8157868460028110610cf557610cf5611eed565b60200201518181518110610d0b57610d0b611eed565b602002602001015160001c73ffffffffffffffffffffffffffffffffffffffff166314999e798b8781518110610d4357610d43611eed565b60200260200101518a8760028110610d5d57610d5d611eed565b6020020151856040518463ffffffff1660e01b8152600401808473ffffffffffffffffffffffffffffffffffffffff1681526020018373ffffffffffffffffffffffffffffffffffffffff1681526020018273ffffffffffffffffffffffffffffffffffffffff16815260200193505050506040805180830381865afa925050508015610e0357506040513d6040811015610df757600080fd5b50805160209091015160015b15610e7957610e46670de0b6b3a7640000610e408d8a81518110610e2957610e29611eed565b602002602001015185611d5890919063ffffffff16565b90611d64565b9150610e528180611d58565b9050610e68610e618383611d58565b8f90611d70565b9d50610e748d82611d70565b9c5050505b600101610cc4565b50505b600101610bf8565b50600101610b61565b50600101610b55565b508515610eb257610eaf8688611f7a565b96505b5050505050505b92915050565b60008273ffffffffffffffffffffffffffffffffffffffff168473ffffffffffffffffffffffffffffffffffffffff1603610f5b57604080517f08c379a000000000000000000000000000000000000000000000000000000000815260206004820152601d60248201527f546f6b656e732073686f756c64206e6f74206265207468652073616d65000000604482015290519081900360640190fd5b600080610f666104ea565b509050600080610f768887611acc565b91509150600080610f878989611acc565b600580546040805160208084028201810190925282815294965092945060009392830182828015610fd757602002820191906000526020600020905b815481526020019060010190808311610fc3575b5050505050905060005b85518110156113845760005b845181101561137b5784818151811061100857611008611eed565b602002602001015173ffffffffffffffffffffffffffffffffffffffff1687838151811061103857611038611eed565b602002602001015173ffffffffffffffffffffffffffffffffffffffff16036110bc576110ac670de0b6b3a7640000610e4086848151811061107c5761107c611eed565b602002602001015189868151811061109657611096611eed565b6020026020010151611d5890919063ffffffff16565b99505050505050505050506113a0565b60005b8351811015611372578783815181106110da576110da611eed565b602002602001015173ffffffffffffffffffffffffffffffffffffffff1684828151811061110a5761110a611eed565b602002602001015160001c73ffffffffffffffffffffffffffffffffffffffff161480611197575085828151811061114457611144611eed565b602002602001015173ffffffffffffffffffffffffffffffffffffffff1684828151811061117457611174611eed565b602002602001015160001c73ffffffffffffffffffffffffffffffffffffffff16145b61136a5760005b8951811015611368578981815181106111b9576111b9611eed565b602002602001015173ffffffffffffffffffffffffffffffffffffffff166314999e798a86815181106111ee576111ee611eed565b602002602001015189868151811061120857611208611eed565b602002602001015188868151811061122257611222611eed565b602002602001015160001c6040518463ffffffff1660e01b8152600401808473ffffffffffffffffffffffffffffffffffffffff1681526020018373ffffffffffffffffffffffffffffffffffffffff1681526020018273ffffffffffffffffffffffffffffffffffffffff16815260200193505050506040805180830381865afa9250505080156112cd57506040513d60408110156112c157600080fd5b50805160209091015160015b15611360576113346ec097ce7bc90715b34b9f1000000000610e408a88815181106112fa576112fa611eed565b602002602001015161132e8e8b8151811061131757611317611eed565b602002602001015187611d5890919063ffffffff16565b90611d58565b91506113408180611d58565b905061134f610e618383611d58565b9d5061135b8d82611d70565b9c5050505b60010161119e565b505b6001016110bf565b50600101610fed565b50600101610fe1565b508615611398576113958789611f7a565b97505b505050505050505b9392505050565b6113af6119aa565b60008160028111156113c3576113c3611f1c565b03611443576113d3600183611988565b61143e57604080517f08c379a000000000000000000000000000000000000000000000000000000000815260206004820152601460248201527f4f7261636c6520616c7265616479206164646564000000000000000000000000604482015290519081900360640190fd5b611568565b600181600281111561145757611457611f1c565b03611467576113d3600383611988565b600281600281111561147b5761147b611f1c565b036115015761148b600183611988565b6114f657604080517f08c379a000000000000000000000000000000000000000000000000000000000815260206004820152601460248201527f4f7261636c6520616c7265616479206164646564000000000000000000000000604482015290519081900360640190fd5b6113d3600383611988565b604080517f08c379a000000000000000000000000000000000000000000000000000000000815260206004820152601760248201527f496e76616c6964204f7261636c65546f6b656e4b696e64000000000000000000604482015290519081900360640190fd5b7f5874b2072ff37562df54063dd700c59d45f311bdf6f9cabb5a15f0ffb2e9f6228282604051808373ffffffffffffffffffffffffffffffffffffffff1681526020018260028111156115bd576115bd611f1c565b81526020019250505060405180910390a15050565b6115da6119aa565b6115e5600582611988565b61165057604080517f08c379a000000000000000000000000000000000000000000000000000000000815260206004820152601760248201527f436f6e6e6563746f7220616c7265616479206164646564000000000000000000604482015290519081900360640190fd5b6040805173ffffffffffffffffffffffffffffffffffffffff8316815290517fff88af5d962d47fd25d87755e8267a029fad5a91740c67d0dade2bdbe5268a1d9181900360200190a150565b6116a46119aa565b6007805473ffffffffffffffffffffffffffffffffffffffff83167fffffffffffffffffffffffff0000000000000000000000000000000000000000909116811790915560408051918252517f1030152fe2062b574a830e6b9f13c65995990df31e4dc708d142533bb3ad0f529181900360200190a150565b6117256119aa565b600081600281111561173957611739611f1c565b036117b957611749600183611a2b565b6117b457604080517f08c379a000000000000000000000000000000000000000000000000000000000815260206004820152600e60248201527f556e6b6e6f776e206f7261636c65000000000000000000000000000000000000604482015290519081900360640190fd5b611877565b60018160028111156117cd576117cd611f1c565b036117dd57611749600383611a2b565b60028160028111156117f1576117f1611f1c565b0361150157611801600183611a2b565b61186c57604080517f08c379a000000000000000000000000000000000000000000000000000000000815260206004820152600e60248201527f556e6b6e6f776e206f7261636c65000000000000000000000000000000000000604482015290519081900360640190fd5b611749600383611a2b565b7f7a7f56716fe703fb190529c336e57df71ab88188ba47e8d786bac684b61ab9a68282604051808373ffffffffffffffffffffffffffffffffffffffff1681526020018260028111156115bd576115bd611f1c565b6118d46119aa565b73ffffffffffffffffffffffffffffffffffffffff811661197c576040517f08c379a000000000000000000000000000000000000000000000000000000000815260206004820152602660248201527f4f776e61626c653a206e6577206f776e657220697320746865207a65726f206160448201527f646472657373000000000000000000000000000000000000000000000000000060648201526084015b60405180910390fd5b61198581611a57565b50565b60006113a08373ffffffffffffffffffffffffffffffffffffffff8416611d7c565b60005473ffffffffffffffffffffffffffffffffffffffff1633146109e9576040517f08c379a000000000000000000000000000000000000000000000000000000000815260206004820181905260248201527f4f776e61626c653a2063616c6c6572206973206e6f7420746865206f776e65726044820152606401611973565b60006113a08373ffffffffffffffffffffffffffffffffffffffff8416611dcb565b6000610eb9825490565b6000805473ffffffffffffffffffffffffffffffffffffffff8381167fffffffffffffffffffffffff0000000000000000000000000000000000000000831681178455604051919092169283917f8be0079c531659141344cd1fd0a4f28419497f9722a3daafe3b4186f6b6457e09190a35050565b6060808215611cb157600754604080517fcb991d9400000000000000000000000000000000000000000000000000000000815273ffffffffffffffffffffffffffffffffffffffff87811660048301529151919092169163cb991d949160248083019260009291908290030181865afa158015611b4d573d6000803e3d6000fd5b505050506040513d6000823e601f3d9081017fffffffffffffffffffffffffffffffffffffffffffffffffffffffffffffffe01682016040908152811015611b9457600080fd5b8101908080516040519392919084640100000000821115611bb457600080fd5b908301906020820185811115611bc957600080fd5b8251866020820283011164010000000082111715611be657600080fd5b82525081516020918201928201910280838360005b83811015611c13578181015183820152602001611bfb565b5050505090500160405260200180516040519392919084640100000000821115611c3c57600080fd5b908301906020820185811115611c5157600080fd5b8251866020820283011164010000000082111715611c6e57600080fd5b82525081516020918201928201910280838360005b83811015611c9b578181015183820152602001611c83565b5050505090500160405250505091509150611d51565b60408051600180825281830190925290602080830190803683370190505091508382600081518110611ce557611ce5611eed565b73ffffffffffffffffffffffffffffffffffffffff92909216602092830291909101820152604080516001808252818301909252918281019080368337019050509050670de0b6b3a764000081600081518110611d4457611d44611eed565b6020026020010181815250505b9250929050565b60006113a08284611fb5565b60006113a08284611f7a565b60006113a08284611ff2565b6000818152600183016020526040812054611dc357508154600181810184556000848152602080822090930184905584548482528286019093526040902091909155610eb9565b506000610eb9565b60008181526001830160205260408120548015611eb4576000611def60018361200a565b8554909150600090611e039060019061200a565b9050818114611e68576000866000018281548110611e2357611e23611eed565b9060005260206000200154905080876000018481548110611e4657611e46611eed565b6000918252602080832090910192909255918252600188019052604090208390555b8554869080611e7957611e79612021565b600190038181906000526020600020016000905590558560010160008681526020019081526020016000206000905560019350505050610eb9565b6000915050610eb9565b7f4e487b7100000000000000000000000000000000000000000000000000000000600052604160045260246000fd5b7f4e487b7100000000000000000000000000000000000000000000000000000000600052603260045260246000fd5b7f4e487b7100000000000000000000000000000000000000000000000000000000600052602160045260246000fd5b7f4e487b7100000000000000000000000000000000000000000000000000000000600052601160045260246000fd5b600082611fb0577f4e487b7100000000000000000000000000000000000000000000000000000000600052601260045260246000fd5b500490565b6000817fffffffffffffffffffffffffffffffffffffffffffffffffffffffffffffffff0483118215151615611fed57611fed611f4b565b500290565b6000821982111561200557612005611f4b565b500190565b60008282101561201c5761201c611f4b565b500390565b7f4e487b7100000000000000000000000000000000000000000000000000000000600052603160045260246000fdfea264697066735822122072f340578a2323f9303535b2fd460a1dc0216b4080dd13bfd183eb8e6fd33c2864736f6c634300080f0033",
  "devdoc": {
    "kind": "dev",
    "methods": {
      "getRateToEth(address,bool)": {
        "details": "Same as `getRate` but checks against `ETH` and `WETH` only"
      },
      "owner()": {
        "details": "Returns the address of the current owner."
      },
      "renounceOwnership()": {
        "details": "Leaves the contract without owner. It will not be possible to call `onlyOwner` functions anymore. Can only be called by the current owner. NOTE: Renouncing ownership will leave the contract without an owner, thereby removing any functionality that is only available to the owner."
      },
      "transferOwnership(address)": {
        "details": "Transfers ownership of the contract to a new account (`newOwner`). Can only be called by the current owner."
      }
    },
    "version": 1
  },
  "userdoc": {
    "kind": "user",
    "methods": {},
    "version": 1
  },
  "storageLayout": {
    "storage": [
      {
        "astId": 7,
        "contract": "contracts/OffchainOracle.sol:OffchainOracle",
        "label": "_owner",
        "offset": 0,
        "slot": "0",
        "type": "t_address"
      },
      {
        "astId": 4379,
        "contract": "contracts/OffchainOracle.sol:OffchainOracle",
        "label": "_wethOracles",
        "offset": 0,
        "slot": "1",
        "type": "t_struct(AddressSet)3593_storage"
      },
      {
        "astId": 4382,
        "contract": "contracts/OffchainOracle.sol:OffchainOracle",
        "label": "_ethOracles",
        "offset": 0,
        "slot": "3",
        "type": "t_struct(AddressSet)3593_storage"
      },
      {
        "astId": 4385,
        "contract": "contracts/OffchainOracle.sol:OffchainOracle",
        "label": "_connectors",
        "offset": 0,
        "slot": "5",
        "type": "t_struct(AddressSet)3593_storage"
      },
      {
        "astId": 4388,
        "contract": "contracts/OffchainOracle.sol:OffchainOracle",
        "label": "multiWrapper",
        "offset": 0,
        "slot": "7",
        "type": "t_contract(MultiWrapper)4323"
      }
    ],
    "types": {
      "t_address": {
        "encoding": "inplace",
        "label": "address",
        "numberOfBytes": "20"
      },
      "t_array(t_bytes32)dyn_storage": {
        "base": "t_bytes32",
        "encoding": "dynamic_array",
        "label": "bytes32[]",
        "numberOfBytes": "32"
      },
      "t_bytes32": {
        "encoding": "inplace",
        "label": "bytes32",
        "numberOfBytes": "32"
      },
      "t_contract(MultiWrapper)4323": {
        "encoding": "inplace",
        "label": "contract MultiWrapper",
        "numberOfBytes": "20"
      },
      "t_mapping(t_bytes32,t_uint256)": {
        "encoding": "mapping",
        "key": "t_bytes32",
        "label": "mapping(bytes32 => uint256)",
        "numberOfBytes": "32",
        "value": "t_uint256"
      },
      "t_struct(AddressSet)3593_storage": {
        "encoding": "inplace",
        "label": "struct EnumerableSet.AddressSet",
        "members": [
          {
            "astId": 3592,
            "contract": "contracts/OffchainOracle.sol:OffchainOracle",
            "label": "_inner",
            "offset": 0,
            "slot": "0",
            "type": "t_struct(Set)3292_storage"
          }
        ],
        "numberOfBytes": "64"
      },
      "t_struct(Set)3292_storage": {
        "encoding": "inplace",
        "label": "struct EnumerableSet.Set",
        "members": [
          {
            "astId": 3287,
            "contract": "contracts/OffchainOracle.sol:OffchainOracle",
            "label": "_values",
            "offset": 0,
            "slot": "0",
            "type": "t_array(t_bytes32)dyn_storage"
          },
          {
            "astId": 3291,
            "contract": "contracts/OffchainOracle.sol:OffchainOracle",
            "label": "_indexes",
            "offset": 0,
            "slot": "1",
            "type": "t_mapping(t_bytes32,t_uint256)"
          }
        ],
        "numberOfBytes": "64"
      },
      "t_uint256": {
        "encoding": "inplace",
        "label": "uint256",
        "numberOfBytes": "32"
      }
    }
  }
}