{
  "address": "0x750c1b699552cAf908D67F5cCFd20A261305328c",
  "abi": [
    {
      "inputs": [
        {
          "internalType": "address",
          "name": "_factory",
          "type": "address"
        },
        {
          "internalType": "bytes32",
          "name": "_initcodeHash",
          "type": "bytes32"
        }
      ],
      "stateMutability": "nonpayable",
      "type": "constructor"
    },
    {
      "inputs": [],
      "name": "ConnectorShouldBeNone",
      "type": "error"
    },
    {
      "inputs": [],
      "name": "PoolNotFound",
      "type": "error"
    },
    {
      "inputs": [],
      "name": "PoolWithConnectorNotFound",
      "type": "error"
    },
    {
      "inputs": [],
      "name": "factory",
      "outputs": [
        {
          "internalType": "address",
          "name": "",
          "type": "address"
        }
      ],
      "stateMutability": "view",
      "type": "function"
    },
    {
      "inputs": [
        {
          "internalType": "contract IERC20",
          "name": "srcToken",
          "type": "address"
        },
        {
          "internalType": "contract IERC20",
          "name": "dstToken",
          "type": "address"
        },
        {
          "internalType": "contract IERC20",
          "name": "connector",
          "type": "address"
        }
      ],
      "name": "getRate",
      "outputs": [
        {
          "internalType": "uint256",
          "name": "rate",
          "type": "uint256"
        },
        {
          "internalType": "uint256",
          "name": "weight",
          "type": "uint256"
        }
      ],
      "stateMutability": "view",
      "type": "function"
    },
    {
      "inputs": [],
      "name": "initcodeHash",
      "outputs": [
        {
          "internalType": "bytes32",
          "name": "",
          "type": "bytes32"
        }
      ],
      "stateMutability": "view",
      "type": "function"
    }
  ],
  "transactionHash": "0x6feb2b9f9db2350de6979187f5e42961c7a9f257361f3541df56d70b2ba42093",
  "args": [
    "0x25cbddb98b35ab1ff77413456b31ec81a6b6b746",
    "0xc1ac28b1c4ebe53c0cff67bab5878c4eb68759bb1e9f73977cd266b247d149f0"
  ],
  "numDeployments": 2,
  "solcInputHash": "edb6444afada1f09d5e3ae7cac8824fd",
  "bytecode": "0x60c03461008857601f6107ed38819003918201601f19168301916001600160401b0383118484101761008d578084926040948552833981010312610088578051906001600160a01b038216820361008857602001519060805260a05260405161074990816100a48239608051818181608b01526102f8015260a05181818160ea01526103270152f35b600080fd5b634e487b7160e01b600052604160045260246000fdfe608080604052600436101561001357600080fd5b60003560e01c90816314999e791461010d575080635a4fb9a8146100b45763c45a01551461004057600080fd5b346100af5760007ffffffffffffffffffffffffffffffffffffffffffffffffffffffffffffffffc3601126100af57602060405173ffffffffffffffffffffffffffffffffffffffff7f0000000000000000000000000000000000000000000000000000000000000000168152f35b600080fd5b346100af5760007ffffffffffffffffffffffffffffffffffffffffffffffffffffffffffffffffc3601126100af5760206040517f00000000000000000000000000000000000000000000000000000000000000008152f35b346100af5760607ffffffffffffffffffffffffffffffffffffffffffffffffffffffffffffffffc3601126100af5773ffffffffffffffffffffffffffffffffffffffff60043516600435036100af5773ffffffffffffffffffffffffffffffffffffffff60243516602435036100af576044359073ffffffffffffffffffffffffffffffffffffffff82168092036100af5760009073ffffffffffffffffffffffffffffffffffffffff6000930361067757506001915b600283106101f45760409250806101e3575b82519182526020820152f35b90816101ee916106b2565b906101d7565b908261066f576001905b73ffffffffffffffffffffffffffffffffffffffff6024351673ffffffffffffffffffffffffffffffffffffffff60043516106000146106365760043591602435905b7fffffffffffffffffffffffffffffffffffffffff00000000000000000000000060405192818660601b16602085015260601b166034830152151560f81b60488201526029815280606081011067ffffffffffffffff6060830111176105f45760608101604052805160208201207fff0000000000000000000000000000000000000000000000000000000000000060808301527fffffffffffffffffffffffffffffffffffffffff0000000000000000000000007f000000000000000000000000000000000000000000000000000000000000000060601b16608183015260958201527f000000000000000000000000000000000000000000000000000000000000000060b5820152605560608201526060810160e082011067ffffffffffffffff60e0830111176105f45760e08101604081905260608083015160808401207f0902f1ac000000000000000000000000000000000000000000000000000000008352909190600490829073ffffffffffffffffffffffffffffffffffffffff165afa90811561062a57600090600092610523575b5073ffffffffffffffffffffffffffffffffffffffff906dffffffffffffffffffffffffffff8091169216931673ffffffffffffffffffffffffffffffffffffffff600435161460001461051e57915b610431818461069f565b916000600384111561050f5750600183811c01835b8482106104f05750505b670de0b6b3a76400009382858102048514831517156104c1578361047f610484926104909761048a96026106b2565b61069f565b906106eb565b926106eb565b917fffffffffffffffffffffffffffffffffffffffffffffffffffffffffffffffff81146104c157600101916101c5565b7f4e487b7100000000000000000000000000000000000000000000000000000000600052601160045260246000fd5b9080959694509461050181836106b2565b0160011c9095949395610446565b92156104505760019250610450565b610427565b91505060603d606011610623575b67ffffffffffffffff601f82017fffffffffffffffffffffffffffffffffffffffffffffffffffffffffffffffe016830160e0908101918211908401909110176105f457818160e07fffffffffffffffffffffffffffffffffffffffffffffffffffffffffffffffe0601f6060950116830101604052810103126100af576105bb60e082016106f8565b6101206105cb61010084016106f8565b92015163ffffffff8116036100af5773ffffffffffffffffffffffffffffffffffffffff6103d7565b7f4e487b7100000000000000000000000000000000000000000000000000000000600052604160045260246000fd5b503d610531565b6040513d6000823e3d90fd5b73ffffffffffffffffffffffffffffffffffffffff602435169173ffffffffffffffffffffffffffffffffffffffff6004351690610241565b6000906101fe565b807fccf7e6f70000000000000000000000000000000000000000000000000000000060049252fd5b818102929181159184041417156104c157565b81156106bc570490565b7f4e487b7100000000000000000000000000000000000000000000000000000000600052601260045260246000fd5b919082018092116104c157565b51906dffffffffffffffffffffffffffff821682036100af5756fea2646970667358221220c2b5347907536d4bf69fc9f2d304774785eca0228844c93794abba765347533464736f6c63430008130033",
  "devdoc": {
    "kind": "dev",
    "methods": {},
    "version": 1
  },
  "userdoc": {
    "kind": "user",
    "methods": {},
    "version": 1
  },
  "storageLayout": {
    "storage": [],
    "types": null
  }
}