{
  "address": "0x8606321723D9cA7db708A8b12DAd0A8a83f2F3bD",
  "abi": [
    {
      "inputs": [
        {
          "internalType": "address",
          "name": "_factory",
          "type": "address"
        },
        {
          "internalType": "bytes32",
          "name": "_initcodeHash",
          "type": "bytes32"
        }
      ],
      "stateMutability": "nonpayable",
      "type": "constructor"
    },
    {
      "inputs": [],
      "name": "ConnectorShouldBeNone",
      "type": "error"
    },
    {
      "inputs": [],
      "name": "MathOverflowedMulDiv",
      "type": "error"
    },
    {
      "inputs": [],
      "name": "PoolNotFound",
      "type": "error"
    },
    {
      "inputs": [],
      "name": "PoolWithConnectorNotFound",
      "type": "error"
    },
    {
      "inputs": [],
      "name": "FACTORY",
      "outputs": [
        {
          "internalType": "address",
          "name": "",
          "type": "address"
        }
      ],
      "stateMutability": "view",
      "type": "function"
    },
    {
      "inputs": [],
      "name": "INITCODE_HASH",
      "outputs": [
        {
          "internalType": "bytes32",
          "name": "",
          "type": "bytes32"
        }
      ],
      "stateMutability": "view",
      "type": "function"
    },
    {
      "inputs": [
        {
          "internalType": "contract IERC20",
          "name": "srcToken",
          "type": "address"
        },
        {
          "internalType": "contract IERC20",
          "name": "dstToken",
          "type": "address"
        },
        {
          "internalType": "contract IERC20",
          "name": "connector",
          "type": "address"
        },
        {
          "internalType": "uint256",
          "name": "thresholdFilter",
          "type": "uint256"
        }
      ],
      "name": "getRate",
      "outputs": [
        {
          "internalType": "uint256",
          "name": "rate",
          "type": "uint256"
        },
        {
          "internalType": "uint256",
          "name": "weight",
          "type": "uint256"
        }
      ],
      "stateMutability": "view",
      "type": "function"
    }
  ],
  "transactionHash": "0xb753612fb77346d685fbc855c2ad70ef74c47a006248540520381ddef5468f8d",
  "args": [
    "0xF1046053aa5682b4F9a81b5481394DA16BE5FF5a",
    "0xc0629f1c7daa09624e54d4f711ba99922a844907cce02997176399e4cc7e8fcf"
  ],
  "numDeployments": 1,
  "solcInputHash": "12d62abac890db1499ed51319d5efa79",
  "bytecode": "0x60c03461009757601f6110e438819003918201601f19168301916001600160401b0383118484101761009b578084926040948552833981010312610097578051906001600160a01b038216820361009757602001519060805260a05260405161103490816100b082396080518181816102c9015281816105cb01526107d3015260a0518181816073015281816105fa01526108020152f35b5f80fd5b634e487b7160e01b5f52604160045260245ffdfe60806040908082526004361015610014575f80fd5b5f3560e01c9081632dd3100014610281575080633d549b321461009a5763f84618841461003f575f80fd5b34610096575f7ffffffffffffffffffffffffffffffffffffffffffffffffffffffffffffffffc36011261009657602090517f00000000000000000000000000000000000000000000000000000000000000008152f35b5f80fd5b50346100965760807ffffffffffffffffffffffffffffffffffffffffffffffffffffffffffffffffc3601126100965773ffffffffffffffffffffffffffffffffffffffff6004358181169081810361009657602435928084168085036100965760443594828616938487036100965760643594885196877f313ce567000000000000000000000000000000000000000000000000000000009182825281600460209b8c935afa801561025a5760ff8a916004935f91610264575b5016968c51928380928682525afa801561025a5760ff915f9161023d575b5016958203610196575050610189959650610467565b90915b8351928352820152f35b879060048b98949598979397518098819382525afa938415610233576101df836101e7958b9360ff6101ed99670de0b6b3a76400009b8e5f92610206575b505016948592610467565b979099610467565b956103c8565b0492808210156101ff57505b9061018c565b90506101f9565b6102259250803d1061022c575b61021d818361036e565b8101906103af565b5f8e6101d4565b503d610213565b89513d5f823e3d90fd5b61025491508a3d8c1161022c5761021d818361036e565b5f610173565b8b513d5f823e3d90fd5b61027b9150833d851161022c5761021d818361036e565b5f610155565b34610096575f7ffffffffffffffffffffffffffffffffffffffffffffffffffffffffffffffffc3601126100965760209073ffffffffffffffffffffffffffffffffffffffff7f0000000000000000000000000000000000000000000000000000000000000000168152f35b6040810190811067ffffffffffffffff82111761030957604052565b7f4e487b71000000000000000000000000000000000000000000000000000000005f52604160045260245ffd5b6060810190811067ffffffffffffffff82111761030957604052565b6080810190811067ffffffffffffffff82111761030957604052565b90601f7fffffffffffffffffffffffffffffffffffffffffffffffffffffffffffffffe0910116810190811067ffffffffffffffff82111761030957604052565b90816020910312610096575160ff811681036100965790565b818102929181159184041417156103db57565b7f4e487b71000000000000000000000000000000000000000000000000000000005f52601160045260245ffd5b8115610412570490565b7f4e487b71000000000000000000000000000000000000000000000000000000005f52601260045260245ffd5b604d81116103db57600a0a90565b919082018092116103db57565b919082039182116103db57565b916040516060810181811067ffffffffffffffff8211176103095760609160409182525f81525f602082015201526040519361010085016040525f85525f6020860152600260608601806040880152525f905f9273ffffffffffffffffffffffffffffffffffffffff851673ffffffffffffffffffffffffffffffffffffffff8716105f14610bd357855f8073ffffffffffffffffffffffffffffffffffffffff885b7fffffffffffffffffffffffffffffffffffffffff00000000000000000000000060405191818760601b16602084015260601b1660348201527f010000000000000000000000000000000000000000000000000000000000000060488201526029815261057681610336565b6020815191012060405160208101917fff0000000000000000000000000000000000000000000000000000000000000083527fffffffffffffffffffffffffffffffffffffffff0000000000000000000000007f000000000000000000000000000000000000000000000000000000000000000060601b16602183015260358201527f000000000000000000000000000000000000000000000000000000000000000060558201526055815261062b81610352565b51902016604051907f0902f1ac00000000000000000000000000000000000000000000000000000000602083015260048252610666826102ed565b602082519201905afa3d15610bcb573d9067ffffffffffffffff821161030957604051916106bc60207fffffffffffffffffffffffffffffffffffffffffffffffffffffffffffffffe0601f840116018461036e565b82523d5f602084013e5b80610bc0575b610b5e575b50508215908115610a69575b50505050505f905f9273ffffffffffffffffffffffffffffffffffffffff821673ffffffffffffffffffffffffffffffffffffffff8216105f14610a32575f8073ffffffffffffffffffffffffffffffffffffffff83945b6040517fffffffffffffffffffffffffffffffffffffffff0000000000000000000000006020820192818960601b16845260601b1660348201528360488201526029815261078281610336565b51902060405160208101917fff0000000000000000000000000000000000000000000000000000000000000083527fffffffffffffffffffffffffffffffffffffffff0000000000000000000000007f000000000000000000000000000000000000000000000000000000000000000060601b16602183015260358201527f000000000000000000000000000000000000000000000000000000000000000060558201526055815261083381610352565b5190201660405160208101907f0902f1ac0000000000000000000000000000000000000000000000000000000082526004815261086f816102ed565b51915afa903d15610a2a573d9167ffffffffffffffff831161030957604051926108c160207fffffffffffffffffffffffffffffffffffffffffffffffffffffffffffffffe0601f840116018561036e565b83523d5f602085013e5b80610a1f575b6109d2575b50505080610991575b5050905f915f916020820151806040840151525f925b818410610917575050505080610909579091565b908161091491610408565b91565b90919293610929856040840151610e22565b5195602087019687516064908181029181830414901517156103db576109508786516103c8565b11610985579161097261097a9261096c600195518b51906103c8565b9061044d565b97519061044d565b945b019291906108f5565b5095509360019061097c565b6109b06109ab836109a5846109ca96610ee0565b936103c8565b610ce1565b604051916109bd836102ed565b8252602082015282610e63565b505f806108df565b91935091506040828051810103126100965773ffffffffffffffffffffffffffffffffffffffff806040602085015194015194169116145f14610a1a57905b905f80806108d6565b610a11565b5060608251146108d1565b6060916108cb565b9073ffffffffffffffffffffffffffffffffffffffff16905f8073ffffffffffffffffffffffffffffffffffffffff808416610735565b670de0b6b3a76400009182850290858204841417156103db57610a8e610a949261043f565b90610408565b8185028581048314861517156103db57610ab190610a8e8561043f565b9082610ae981610ac185856103c8565b04610ae383610ad086806103c8565b0484610adc88806103c8565b049061044d565b906103c8565b049080840184116103db57610afe9301610c09565b91909115610b0d575b806106dd565b6012818103116103db57610b54936109a5610b34610b3a94610a8e6109ab9560120361043f565b8261045a565b60405191610b47836102ed565b8252602082015284610e63565b505f808080610b07565b6040919550808093955051810103126100965773ffffffffffffffffffffffffffffffffffffffff60406020830151920151941673ffffffffffffffffffffffffffffffffffffffff8716145f14610bbb57925b92915f806106d1565b610bb2565b5060608151146106cc565b6060906106c6565b73ffffffffffffffffffffffffffffffffffffffff85165f8073ffffffffffffffffffffffffffffffffffffffff808a1661050a565b9091905f915b60ff8310610c2257505050505f90600190565b670de0b6b3a764000080610c4981610c3a85876103c8565b04610ae383610ad088806103c8565b048580821015610ca15790610c5d9161045a565b8181029181830414901517156103db57610c7b90610a8e8385610fb4565b908115610c9757600191610c8e9161044d565b925b0191610c0f565b9350505050905f90565b610caa9161045a565b8181029181830414901517156103db57610cc890610a8e8385610fb4565b908115610c9757600191610cdb9161045a565b92610c90565b8015610e1d57610dab815f908360801c80610e11575b508060401c80610e04575b508060201c80610df7575b508060101c80610dea575b508060081c80610ddd575b508060041c80610dd0575b508060021c80610dc3575b50600191828092811c610dbc575b1c1b610d538185610408565b01811c610d608185610408565b01811c610d6d8185610408565b01811c610d7a8185610408565b01811c610d878185610408565b01811c610d948185610408565b01811c610da18185610408565b01901c8092610408565b80821015610db7575090565b905090565b0181610d47565b600291509101905f610d39565b600491509101905f610d2e565b600891509101905f610d23565b601091509101905f610d18565b602091509101905f610d0d565b604091509101905f610d02565b9150506080905f610cf7565b505f90565b8051821015610e365760209160051b010190565b7f4e487b71000000000000000000000000000000000000000000000000000000005f52603260045260245ffd5b9060208101908151610e76575050505f90565b610e976040840151916020850192835191610e918383610e22565b52610e22565b5080517fffffffffffffffffffffffffffffffffffffffffffffffffffffffffffffffff81146103db576001019052519080518211610ed8575b5050600190565b525f80610ed1565b670de0b6b3a764000091828202917fffffffffffffffffffffffffffffffffffffffffffffffffffffffffffffffff84820993838086109503948086039514610fa45784831115610f7a57829109815f038216809204600280826003021880830282030280830282030280830282030280830282030280830282030280920290030293600183805f03040190848311900302920304170290565b60046040517f227bc153000000000000000000000000000000000000000000000000000000008152fd5b505090610fb19250610408565b90565b80600302916003830482036103db57610adc610fe491610feb610fb195670de0b6b3a764000080958482956103c8565b04906103c8565b049282610ff882806103c8565b046103c856fea2646970667358221220e7ae43a8952682639f0109439da04bab8d1ae8c1147225d34489acf1102909a564736f6c63430008170033",
  "devdoc": {
    "errors": {
      "MathOverflowedMulDiv()": [
        {
          "details": "Muldiv operation overflow."
        }
      ]
    },
    "kind": "dev",
    "methods": {},
    "version": 1
  },
  "userdoc": {
    "kind": "user",
    "methods": {},
    "version": 1
  },
  "storageLayout": {
    "storage": [],
    "types": null
  }
}