{
  "address": "0xD4eFb5998DFBDFB791182fb610D0061136E9DB50",
  "abi": [
    {
      "inputs": [
        {
          "internalType": "address",
          "name": "_factory",
          "type": "address"
        },
        {
          "internalType": "bytes32",
          "name": "_initcodeHash",
          "type": "bytes32"
        }
      ],
      "stateMutability": "nonpayable",
      "type": "constructor"
    },
    {
      "inputs": [],
      "name": "ConnectorShouldBeNone",
      "type": "error"
    },
    {
      "inputs": [],
      "name": "MathOverflowedMulDiv",
      "type": "error"
    },
    {
      "inputs": [],
      "name": "PoolNotFound",
      "type": "error"
    },
    {
      "inputs": [],
      "name": "PoolWithConnectorNotFound",
      "type": "error"
    },
    {
      "inputs": [],
      "name": "FACTORY",
      "outputs": [
        {
          "internalType": "address",
          "name": "",
          "type": "address"
        }
      ],
      "stateMutability": "view",
      "type": "function"
    },
    {
      "inputs": [],
      "name": "INITCODE_HASH",
      "outputs": [
        {
          "internalType": "bytes32",
          "name": "",
          "type": "bytes32"
        }
      ],
      "stateMutability": "view",
      "type": "function"
    },
    {
      "inputs": [
        {
          "internalType": "contract IERC20",
          "name": "srcToken",
          "type": "address"
        },
        {
          "internalType": "contract IERC20",
          "name": "dstToken",
          "type": "address"
        },
        {
          "internalType": "contract IERC20",
          "name": "connector",
          "type": "address"
        },
        {
          "internalType": "uint256",
          "name": "thresholdFilter",
          "type": "uint256"
        }
      ],
      "name": "getRate",
      "outputs": [
        {
          "internalType": "uint256",
          "name": "rate",
          "type": "uint256"
        },
        {
          "internalType": "uint256",
          "name": "weight",
          "type": "uint256"
        }
      ],
      "stateMutability": "view",
      "type": "function"
    }
  ],
  "transactionHash": "0x419ec36b8a954ee6297d1b6024ef863766f6bcc43185229dd2e52385053111b6",
  "args": [
    "0xF1046053aa5682b4F9a81b5481394DA16BE5FF5a",
    "0xc0629f1c7daa09624e54d4f711ba99922a844907cce02997176399e4cc7e8fcf"
  ],
  "numDeployments": 1,
  "solcInputHash": "378a8a041bbdec1231a853dbb60c670a",
  "bytecode": "0x60c03461009757601f610d9a38819003918201601f19168301916001600160401b0383118484101761009b578084926040948552833981010312610097578051906001600160a01b038216820361009757602001519060805260a052604051610cea90816100b082396080518181816101b00152818161046d01526106b4015260a05181818160720152818161049c01526106e30152f35b5f80fd5b634e487b7160e01b5f52604160045260245ffdfe6080806040526004361015610012575f80fd5b5f3560e01c9081632dd3100014610168575080633d549b32146100995763f84618841461003d575f80fd5b34610095575f7ffffffffffffffffffffffffffffffffffffffffffffffffffffffffffffffffc3601126100955760206040517f00000000000000000000000000000000000000000000000000000000000000008152f35b5f80fd5b346100955760807ffffffffffffffffffffffffffffffffffffffffffffffffffffffffffffffffc3601126100955773ffffffffffffffffffffffffffffffffffffffff6004358181168103610095576024359082821682036100955760443591838316918284036100955760409460643593036101275761011b935061030d565b82519182526020820152f35b61014b83610143670de0b6b3a76400009495876101519561030d565b95909661030d565b946101d4565b049180821015610161575061011b565b905061011b565b34610095575f7ffffffffffffffffffffffffffffffffffffffffffffffffffffffffffffffffc3601126100955760209073ffffffffffffffffffffffffffffffffffffffff7f0000000000000000000000000000000000000000000000000000000000000000168152f35b818102929181159184041417156101e757565b7f4e487b71000000000000000000000000000000000000000000000000000000005f52601160045260245ffd5b811561021e570490565b7f4e487b71000000000000000000000000000000000000000000000000000000005f52601260045260245ffd5b6040810190811067ffffffffffffffff82111761026757604052565b7f4e487b71000000000000000000000000000000000000000000000000000000005f52604160045260245ffd5b6060810190811067ffffffffffffffff82111761026757604052565b6080810190811067ffffffffffffffff82111761026757604052565b90601f7fffffffffffffffffffffffffffffffffffffffffffffffffffffffffffffffe0910116810190811067ffffffffffffffff82111761026757604052565b906040516060810181811067ffffffffffffffff8211176102675760609160409182525f81525f602082015201526040519161010083016040525f83525f60208401526002606084018060408601525273ffffffffffffffffffffffffffffffffffffffff821673ffffffffffffffffffffffffffffffffffffffff8216105f1461099e57805f8073ffffffffffffffffffffffffffffffffffffffff855b7fffffffffffffffffffffffffffffffffffffffff00000000000000000000000060405191818760601b16602084015260601b1660348201527f010000000000000000000000000000000000000000000000000000000000000060488201526029815261041881610294565b6020815191012060405160208101917fff0000000000000000000000000000000000000000000000000000000000000083527fffffffffffffffffffffffffffffffffffffffff0000000000000000000000007f000000000000000000000000000000000000000000000000000000000000000060601b16602183015260358201527f00000000000000000000000000000000000000000000000000000000000000006055820152605581526104cd816102b0565b5190201660405160208101907f0902f1ac000000000000000000000000000000000000000000000000000000008252600481526105098161024b565b51915afa3d15610996573d9067ffffffffffffffff8211610267576040519161055a60207fffffffffffffffffffffffffffffffffffffffffffffffffffffffffffffffe0601f84011601846102cc565b82523d5f602084013e5b8061098b575b15610981576040818051810103126100955773ffffffffffffffffffffffffffffffffffffffff60406020830151920151921673ffffffffffffffffffffffffffffffffffffffff8416145f1461097c57905b905b80610946575b505073ffffffffffffffffffffffffffffffffffffffff821673ffffffffffffffffffffffffffffffffffffffff8216105f1461090f575f8073ffffffffffffffffffffffffffffffffffffffff83945b6040517fffffffffffffffffffffffffffffffffffffffff0000000000000000000000006020820192818960601b16845260601b1660348201528360488201526029815261066381610294565b51902060405160208101917fff0000000000000000000000000000000000000000000000000000000000000083527fffffffffffffffffffffffffffffffffffffffff0000000000000000000000007f000000000000000000000000000000000000000000000000000000000000000060601b16602183015260358201527f0000000000000000000000000000000000000000000000000000000000000000605582015260558152610714816102b0565b5190201660405160208101907f0902f1ac000000000000000000000000000000000000000000000000000000008252600481526107508161024b565b51915afa903d15610907573d9167ffffffffffffffff831161026757604051926107a260207fffffffffffffffffffffffffffffffffffffffffffffffffffffffffffffffe0601f84011601856102cc565b83523d5f602085013e5b806108fc575b156108f1576040828051810103126100955773ffffffffffffffffffffffffffffffffffffffff806040602085015194015194169116145f146108ec57905b905b806108ab575b5050905f915f916020820151806040840151525f925b818410610831575050505080610823579091565b908161082e91610214565b91565b90919293610843856040840151610be9565b5195602087019687516064908181029181830414901517156101e75761086a8786516101d4565b1161089f579161088c61089492610886600195518b51906101d4565b90610ca7565b975190610ca7565b945b0192919061080f565b50955093600190610896565b6108ca6108c5836108bf846108e4966109d4565b936101d4565b610aa8565b604051916108d78361024b565b8252602082015282610c2a565b505f806107f9565b6107f1565b5050505f60016107f3565b5060608251146107b2565b6060916107ac565b9073ffffffffffffffffffffffffffffffffffffffff16905f8073ffffffffffffffffffffffffffffffffffffffff808416610616565b61095a6108c5836108bf84610974966109d4565b604051916109678361024b565b8252602082015284610c2a565b505f806105c5565b6105bd565b50505f60016105bf565b50606081511461056a565b606090610564565b73ffffffffffffffffffffffffffffffffffffffff82165f8073ffffffffffffffffffffffffffffffffffffffff8085166103ac565b670de0b6b3a764000091828202917fffffffffffffffffffffffffffffffffffffffffffffffffffffffffffffffff84820993838086109503948086039514610a985784831115610a6e57829109815f038216809204600280826003021880830282030280830282030280830282030280830282030280830282030280920290030293600183805f03040190848311900302920304170290565b60046040517f227bc153000000000000000000000000000000000000000000000000000000008152fd5b505090610aa59250610214565b90565b8015610be457610b72815f908360801c80610bd8575b508060401c80610bcb575b508060201c80610bbe575b508060101c80610bb1575b508060081c80610ba4575b508060041c80610b97575b508060021c80610b8a575b50600191828092811c610b83575b1c1b610b1a8185610214565b01811c610b278185610214565b01811c610b348185610214565b01811c610b418185610214565b01811c610b4e8185610214565b01811c610b5b8185610214565b01811c610b688185610214565b01901c8092610214565b80821015610b7e575090565b905090565b0181610b0e565b600291509101905f610b00565b600491509101905f610af5565b600891509101905f610aea565b601091509101905f610adf565b602091509101905f610ad4565b604091509101905f610ac9565b9150506080905f610abe565b505f90565b8051821015610bfd5760209160051b010190565b7f4e487b71000000000000000000000000000000000000000000000000000000005f52603260045260245ffd5b9060208101908151610c3d575050505f90565b610c5e6040840151916020850192835191610c588383610be9565b52610be9565b5080517fffffffffffffffffffffffffffffffffffffffffffffffffffffffffffffffff81146101e7576001019052519080518211610c9f575b5050600190565b525f80610c98565b919082018092116101e75756fea2646970667358221220a571f71dfd6ae80922c44cd75455659835ec9a80ce7a065973c58de41b6fbc6164736f6c63430008170033",
  "devdoc": {
    "errors": {
      "MathOverflowedMulDiv()": [
        {
          "details": "Muldiv operation overflow."
        }
      ]
    },
    "kind": "dev",
    "methods": {},
    "version": 1
  },
  "userdoc": {
    "kind": "user",
    "methods": {},
    "version": 1
  },
  "storageLayout": {
    "storage": [],
    "types": null
  }
}