{
  "address": "0x0F85A912448279111694F4Ba4F85dC641c54b594",
  "abi": [
    {
      "inputs": [
        {
          "internalType": "contract ISynthetixProxy",
          "name": "_proxy",
          "type": "address"
        }
      ],
      "stateMutability": "nonpayable",
      "type": "constructor"
    },
    {
      "inputs": [
        {
          "internalType": "contract IERC20",
          "name": "srcToken",
          "type": "address"
        },
        {
          "internalType": "contract IERC20",
          "name": "dstToken",
          "type": "address"
        },
        {
          "internalType": "contract IERC20",
          "name": "connector",
          "type": "address"
        }
      ],
      "name": "getRate",
      "outputs": [
        {
          "internalType": "uint256",
          "name": "rate",
          "type": "uint256"
        },
        {
          "internalType": "uint256",
          "name": "weight",
          "type": "uint256"
        }
      ],
      "stateMutability": "view",
      "type": "function"
    },
    {
      "inputs": [],
      "name": "proxy",
      "outputs": [
        {
          "internalType": "contract ISynthetixProxy",
          "name": "",
          "type": "address"
        }
      ],
      "stateMutability": "view",
      "type": "function"
    }
  ],
  "transactionHash": "0xefb14955b775079734a53f11ae7d0948e74293a8c1d253b722cf6961f70f16fe",
  "args": [
    "0x1Cb059b7e74fD21665968C908806143E744D5F30"
  ],
  "solcInputHash": "68cc73e66051b371a3af7da5ff8c2b7d",
  "bytecode": "0x60a06040525a61000d61006c565b80156100215760008061001e6100c6565b50505b506040516110053803806110058339818101604052602081101561004d5760008061004a6100c6565b50505b81019080805160601b6001600160601b03191660805250610131915050565b63a8c4c5ec598160e01b8152602081600483336000905af158600e01573d6000803e3d6000fd5b3d6001141558600a015760016000f35b8051935060005b60408110156100c1576000828201526020016100aa565b505050565b632a2a7adb598160e01b8152600481016020815285602082015260005b868110156100fe5780860151828201604001526020016100e3565b506020828760640184336000905af158600e01573d6000803e3d6000fd5b3d6001141558600a015760016000f35b505050565b60805160601c610eb26101536000398061017f52806105c35250610eb26000f3fe60806040525a61000d610c94565b80156100215760008061001e610cee565b50505b50600436106100475760003560e01c806314999e7914610055578063ec556889146100bb575b600080610052610cee565b50505b6100a36004803603606081101561007457600080610071610cee565b50505b5073ffffffffffffffffffffffffffffffffffffffff81358116916020810135821691604090910135166100ec565b60405191825260208201526040908101905180910390f35b6100c36105c1565b60405173ffffffffffffffffffffffffffffffffffffffff909116815260200160405180910390f35b60008073ffffffffffffffffffffffffffffffffffffffff8381161461017b576040517f08c379a000000000000000000000000000000000000000000000000000000000815260206004820152601c60248201527f534f3a20636f6e6e6563746f722073686f756c64206265204e6f6e6500000000604482015260640160405180910390610178610cee565b50505b60007f000000000000000000000000000000000000000000000000000000000000000073ffffffffffffffffffffffffffffffffffffffff1663d4b839926040518163ffffffff1660e01b815260040160206040518083038186806101de610d59565b1580156101f3576000806101f0610cee565b50505b505a6101fd610da5565b505050505015801561021c573d6000803e3d6000610219610cee565b50505b505050506040513d602081101561023b57600080610238610cee565b50505b8101908080519350600092505073ffffffffffffffffffffffffffffffffffffffff831690506321f8a7217f45786368616e67655261746573000000000000000000000000000000000000006040517fffffffff0000000000000000000000000000000000000000000000000000000060e084901b168152600481019190915260240160206040518083038186806102d1610d59565b1580156102e6576000806102e3610cee565b50505b505a6102f0610da5565b505050505015801561030f573d6000803e3d600061030c610cee565b50505b505050506040513d602081101561032e5760008061032b610cee565b50505b810190808051935060009250505073ffffffffffffffffffffffffffffffffffffffff88166104565761045173ffffffffffffffffffffffffffffffffffffffff84166321f8a7217f50726f78797345544800000000000000000000000000000000000000000000006040517fffffffff0000000000000000000000000000000000000000000000000000000060e084901b168152600481019190915260240160206040518083038186806103e1610d59565b1580156103f6576000806103f3610cee565b50505b505a610400610da5565b505050505015801561041f573d6000803e3d600061041c610cee565b50505b505050506040513d602081101561043e5760008061043b610cee565b50505b81019080805192508691508590506105e5565b610461565b6104618884846105e5565b9050600073ffffffffffffffffffffffffffffffffffffffff881661057f5761057a73ffffffffffffffffffffffffffffffffffffffff85166321f8a7217f50726f78797345544800000000000000000000000000000000000000000000006040517fffffffff0000000000000000000000000000000000000000000000000000000060e084901b1681526004810191909152602401602060405180830381868061050a610d59565b15801561051f5760008061051c610cee565b50505b505a610529610da5565b5050505050158015610548573d6000803e3d6000610545610cee565b50505b505050506040513d602081101561056757600080610564610cee565b50505b81019080805192508791508690506105e5565b61058a565b61058a8885856105e5565b90506105a8816105a284670de0b6b3a7640000610b60565b90610be5565b9969d3c21bcecceda10000009950975050505050505050565b7f000000000000000000000000000000000000000000000000000000000000000081565b6000808473ffffffffffffffffffffffffffffffffffffffff166395d89b416040518163ffffffff1660e01b81526004016000604051808303818680610629610d59565b15801561063e5760008061063b610cee565b50505b505a610648610da5565b5050505050158015610667573d6000803e3d6000610664610cee565b50505b505050506040513d6000823e601f3d9081017fffffffffffffffffffffffffffffffffffffffffffffffffffffffffffffffe016820160405260208110156106b7576000806106b4610cee565b50505b81019080805160405193929190846401000000008211156106e0576000806106dd610cee565b50505b9083019060208201858111156106fe576000806106fb610cee565b50505b82516401000000008111828201881017156107215760008061071e610cee565b50505b825250602001908051906020019080838360005b8381101561074d578082015183820152602001610735565b50505050905090810190601f16801561077a5780820380516001836020036101000a031916815260200191505b50604052505050905060006107c28260405160408082019052600381527f534e5800000000000000000000000000000000000000000000000000000000006020820152610c6e565b156107ee57507f50726f7879455243323000000000000000000000000000000000000000000000610884565b61082b8260405160408082019052600481527f73555344000000000000000000000000000000000000000000000000000000006020820152610c6e565b1561085757507f50726f7879455243323073555344000000000000000000000000000000000000610884565b602082015160281c7f50726f78790000000000000000000000000000000000000000000000000000001790505b8573ffffffffffffffffffffffffffffffffffffffff168573ffffffffffffffffffffffffffffffffffffffff166321f8a721836040517fffffffff0000000000000000000000000000000000000000000000000000000060e084901b16815260048101919091526024016020604051808303818680610902610d59565b15801561091757600080610914610cee565b50505b505a610921610da5565b5050505050158015610940573d6000803e3d600061093d610cee565b50505b505050506040513d602081101561095f5760008061095c610cee565b50505b81019080805173ffffffffffffffffffffffffffffffffffffffff169390931492506109f7915050576040517f08c379a000000000000000000000000000000000000000000000000000000000815260206004820152601660248201527f534f3a20756e7265676973746572656420746f6b656e000000000000000000006044820152606401604051809103906109f4610cee565b50505b6000602083015190506000808673ffffffffffffffffffffffffffffffffffffffff16630c71cd23846040517fffffffff0000000000000000000000000000000000000000000000000000000060e084901b168152600481019190915260240160408051808303818680610a69610d59565b158015610a7e57600080610a7b610cee565b50505b505a610a88610da5565b5050505050158015610aa7573d6000803e3d6000610aa4610cee565b50505b505050506040513d6040811015610ac657600080610ac3610cee565b50505b81019080805192919060200180519395509293505082159150610b549050576040517f08c379a000000000000000000000000000000000000000000000000000000000815260206004820152601360248201527f534f3a207261746520697320696e76616c696400000000000000000000000000604482015260640160405180910390610b51610cee565b50505b50979650505050505050565b600082610b6f57506000610bdf565b82820282848281610b7c57fe5b0414610bdc576040517f08c379a0000000000000000000000000000000000000000000000000000000008152600401808060200182810382526021815260200180610e916021913960400191505060405180910390610bd9610cee565b50505b90505b92915050565b6000808211610c5d576040517f08c379a000000000000000000000000000000000000000000000000000000000815260206004820152601a60248201527f536166654d6174683a206469766973696f6e206279207a65726f000000000000604482015260640160405180910390610c5a610cee565b50505b818381610c6657fe5b049392505050565b600081518351148015610bdc575081805190602001208380519060200120149392505050565b63a8c4c5ec598160e01b8152602081600483336000905af158600e01573d6000803e3d6000fd5b3d6001141558600a015760016000f35b8051935060005b6040811015610ce957600082820152602001610cd2565b505050565b632a2a7adb598160e01b8152600481016020815285602082015260005b86811015610d26578086015182820160400152602001610d0b565b506020828760640184336000905af158600e01573d6000803e3d6000fd5b3d6001141558600a015760016000f35b505050565b638435035b598160e01b8152836004820152602081602483336000905af158600e01573d6000803e3d6000fd5b3d6001141558600a015760016000f35b80516000825293506020610cd2565b638540661f598160e01b8152610dd6565b8080831115610bdf575090919050565b8080831015610bdf575090919050565b836004820152846024820152606060448201528660648201526084810160005b88811015610e0e578088015182820152602001610df6565b506060828960a40184336000905af158600e01573d6000803e3d6000fd5b3d6001141558600a015760016000f35b815160408301513d6000853e8b8b82606087013350600060045af15059610e638d3d610dc6565b8c01610e6f8187610db6565b5b82811015610e845760008152602001610e70565b50929c5050505050505056fe536166654d6174683a206d756c7469706c69636174696f6e206f766572666c6f77",
  "devdoc": {
    "kind": "dev",
    "methods": {},
    "version": 1
  },
  "userdoc": {
    "kind": "user",
    "methods": {},
    "version": 1
  },
  "storageLayout": {
    "storage": [],
    "types": null
  }
}