{
  "address": "0x89314d57A8A4E636A00922ac289BC3a9a69C4361",
  "abi": [
    {
      "inputs": [
        {
          "internalType": "contract ISynthetixProxy",
          "name": "_proxy",
          "type": "address"
        }
      ],
      "stateMutability": "nonpayable",
      "type": "constructor"
    },
    {
      "inputs": [],
      "name": "ConnectorShouldBeNone",
      "type": "error"
    },
    {
      "inputs": [],
      "name": "InvalidRate",
      "type": "error"
    },
    {
      "inputs": [],
      "name": "PoolNotFound",
      "type": "error"
    },
    {
      "inputs": [],
      "name": "PoolWithConnectorNotFound",
      "type": "error"
    },
    {
      "inputs": [],
      "name": "UnregisteredToken",
      "type": "error"
    },
    {
      "inputs": [
        {
          "internalType": "contract IERC20",
          "name": "srcToken",
          "type": "address"
        },
        {
          "internalType": "contract IERC20",
          "name": "dstToken",
          "type": "address"
        },
        {
          "internalType": "contract IERC20",
          "name": "connector",
          "type": "address"
        }
      ],
      "name": "getRate",
      "outputs": [
        {
          "internalType": "uint256",
          "name": "rate",
          "type": "uint256"
        },
        {
          "internalType": "uint256",
          "name": "weight",
          "type": "uint256"
        }
      ],
      "stateMutability": "view",
      "type": "function"
    },
    {
      "inputs": [],
      "name": "proxy",
      "outputs": [
        {
          "internalType": "contract ISynthetixProxy",
          "name": "",
          "type": "address"
        }
      ],
      "stateMutability": "view",
      "type": "function"
    }
  ],
  "transactionHash": "0xde4acd4ea3a26cd83df592c58e75225c000bf0b8ec365b28c452baa2eb5201d7",
  "args": [
    "0x1Cb059b7e74fD21665968C908806143E744D5F30"
  ],
  "numDeployments": 1,
  "solcInputHash": "edb6444afada1f09d5e3ae7cac8824fd",
  "bytecode": "0x60a03461007057601f61098e38819003918201601f19168301916001600160401b038311848410176100755780849260209460405283398101031261007057516001600160a01b038116810361007057608052604051610902908161008c8239608051818181608301526101550152f35b600080fd5b634e487b7160e01b600052604160045260246000fdfe6080604081815260048036101561001557600080fd5b600092833560e01c91826314999e79146100ab57505063ec5568891461003a57600080fd5b346100a757817ffffffffffffffffffffffffffffffffffffffffffffffffffffffffffffffffc3601126100a7576020905173ffffffffffffffffffffffffffffffffffffffff7f0000000000000000000000000000000000000000000000000000000000000000168152f35b5080fd5b84919250346100a75760607ffffffffffffffffffffffffffffffffffffffffffffffffffffffffffffffffc3601126100a75780359173ffffffffffffffffffffffffffffffffffffffff9081841680940361041b57602491823595818716809703610417576044358281168091036104135782036103ec57508651947fd4b8399200000000000000000000000000000000000000000000000000000000865260209586818781867f0000000000000000000000000000000000000000000000000000000000000000165afa9081156103235790839185916103cf575b50168851927f21f8a72100000000000000000000000000000000000000000000000000000000938481527f45786368616e67655261746573000000000000000000000000000000000000008882015288818881865afa9081156103c55786916103a8575b5016918282821561032d57610200926104db565b975b80156102a15761021293506104db565b925b670de0b6b3a76400009586810296818804149015171561027857831561024f575050509069d3c21bcecceda100000091845193048352820152f35b6012907f4e487b7100000000000000000000000000000000000000000000000000000000835252fd5b6011907f4e487b7100000000000000000000000000000000000000000000000000000000835252fd5b50909188519081527f50726f78797345544800000000000000000000000000000000000000000000008682015286818681855afa90811561032357906102f093929185916102f6575b506104db565b92610214565b6103169150883d8a1161031c575b61030e8183610469565b8101906104aa565b8a6102ea565b503d610304565b89513d86823e3d90fd5b50505088518381527f50726f78797345544800000000000000000000000000000000000000000000008782015287818781855afa90811561039e578261037b928592889161038157506104db565b97610202565b61039891508b3d8d1161031c5761030e8183610469565b8d6102ea565b8a513d87823e3d90fd5b6103bf9150893d8b1161031c5761030e8183610469565b8b6101ec565b8b513d88823e3d90fd5b6103e69150883d8a1161031c5761030e8183610469565b8a610188565b807fccf7e6f700000000000000000000000000000000000000000000000000000000869252fd5b8380fd5b8280fd5b80fd5b6040810190811067ffffffffffffffff82111761043a57604052565b7f4e487b7100000000000000000000000000000000000000000000000000000000600052604160045260246000fd5b90601f7fffffffffffffffffffffffffffffffffffffffffffffffffffffffffffffffe0910116810190811067ffffffffffffffff82111761043a57604052565b908160209103126104d6575173ffffffffffffffffffffffffffffffffffffffff811681036104d65790565b600080fd5b909173ffffffffffffffffffffffffffffffffffffffff809216916040918251907f95d89b4100000000000000000000000000000000000000000000000000000000825260009160049583828881845afa9182156108955784926107a3575b508551976105478961041e565b6003895261057c6020997f534e5800000000000000000000000000000000000000000000000000000000008b8201528461089f565b1561070c57887f50726f78794552433230000000000000000000000000000000000000000000005b60248a898b5195869485937f21f8a721000000000000000000000000000000000000000000000000000000008552840152165afa9081156107025790869186916106e5575b5016036106bd579060248786930151835195869384927f0c71cd230000000000000000000000000000000000000000000000000000000084528a840152165afa9182156106b1578195829361066b575b50505061064557505090565b517f6a43f8d1000000000000000000000000000000000000000000000000000000008152fd5b91955091508282813d83116106aa575b6106858183610469565b810103126106a657815191015193841515850361041b575092388080610639565b8480fd5b503d61067b565b508251903d90823e3d90fd5b8585517ff0471c88000000000000000000000000000000000000000000000000000000008152fd5b6106fc91508a3d8c1161031c5761030e8183610469565b386105e9565b87513d87823e3d90fd5b610748875161071a8161041e565b8981527f73555344000000000000000000000000000000000000000000000000000000008b8201528461089f565b1561077457887f50726f78794552433230735553440000000000000000000000000000000000006105a4565b888084015160281c7f50726f7879000000000000000000000000000000000000000000000000000000176105a4565b9091503d8085833e6107b58183610469565b810190602090818184031261089157805167ffffffffffffffff9182821161088d570183601f8201121561085d57805191821161086157885193610820847fffffffffffffffffffffffffffffffffffffffffffffffffffffffffffffffe0601f8601160186610469565b82855283838301011161085d5790869291835b82811061084757505083010152903861053a565b8181018401518682018501528894508301610833565b8680fd5b60248760418c7f4e487b7100000000000000000000000000000000000000000000000000000000835252fd5b8780fd5b8580fd5b86513d86823e3d90fd5b90815181519081811493846108b6575b5050505090565b60209293945082012092012014388080806108af56fea26469706673582212204887c2ccaac41850c999efa7cd1abbf00d87ac49b12e2716f6577e75913fdb9664736f6c63430008130033",
  "devdoc": {
    "kind": "dev",
    "methods": {},
    "version": 1
  },
  "userdoc": {
    "kind": "user",
    "methods": {},
    "version": 1
  },
  "storageLayout": {
    "storage": [],
    "types": null
  }
}