{
  "address": "0x54431918cEC22932fCF97E54769F4E00f646690F",
  "abi": [
    {
      "inputs": [],
      "name": "FACTORY",
      "outputs": [
        {
          "internalType": "address",
          "name": "",
          "type": "address"
        }
      ],
      "stateMutability": "view",
      "type": "function"
    },
    {
      "inputs": [],
      "name": "POOL_INIT_CODE_HASH",
      "outputs": [
        {
          "internalType": "bytes32",
          "name": "",
          "type": "bytes32"
        }
      ],
      "stateMutability": "view",
      "type": "function"
    },
    {
      "inputs": [
        {
          "internalType": "contract IERC20",
          "name": "srcToken",
          "type": "address"
        },
        {
          "internalType": "contract IERC20",
          "name": "dstToken",
          "type": "address"
        },
        {
          "internalType": "contract IERC20",
          "name": "connector",
          "type": "address"
        }
      ],
      "name": "getRate",
      "outputs": [
        {
          "internalType": "uint256",
          "name": "rate",
          "type": "uint256"
        },
        {
          "internalType": "uint256",
          "name": "weight",
          "type": "uint256"
        }
      ],
      "stateMutability": "view",
      "type": "function"
    },
    {
      "inputs": [
        {
          "internalType": "contract IERC20",
          "name": "srcToken",
          "type": "address"
        },
        {
          "internalType": "contract IERC20",
          "name": "dstToken",
          "type": "address"
        },
        {
          "internalType": "contract IERC20",
          "name": "connector",
          "type": "address"
        },
        {
          "internalType": "uint24",
          "name": "fee",
          "type": "uint24"
        }
      ],
      "name": "getRateForFee",
      "outputs": [
        {
          "internalType": "uint256",
          "name": "rate",
          "type": "uint256"
        },
        {
          "internalType": "uint256",
          "name": "weight",
          "type": "uint256"
        }
      ],
      "stateMutability": "view",
      "type": "function"
    }
  ],
  "transactionHash": "0xece82c5c8c43062b5b942a94c1e99b643bde798ad626b86f5a663f73a6841dad",
  "args": [],
  "solcInputHash": "958ec0ad7ac6ea52f588a94084fc4cce",
  "bytecode": "0x60806040525a61000d610027565b80156100215760008061001e610081565b50505b506100ec565b63a8c4c5ec598160e01b8152602081600483336000905af158600e01573d6000803e3d6000fd5b3d6001141558600a015760016000f35b8051935060005b604081101561007c57600082820152602001610065565b505050565b632a2a7adb598160e01b8152600481016020815285602082015260005b868110156100b957808601518282016040015260200161009e565b506020828760640184336000905af158600e01573d6000803e3d6000fd5b3d6001141558600a015760016000f35b505050565b610c8e806100fb6000396000f3fe60806040525a61000d610a70565b80156100215760008061001e610aca565b50505b506004361061005d5760003560e01c806314999e791461006b5780632dd31000146100d15780636c9e524914610102578063dc6fd8ab1461015a575b600080610068610aca565b50505b6100b96004803603606081101561008a57600080610087610aca565b50505b5073ffffffffffffffffffffffffffffffffffffffff8135811691602081013582169160409091013516610174565b60405191825260208201526040908101905180910390f35b6100d961021f565b60405173ffffffffffffffffffffffffffffffffffffffff909116815260200160405180910390f35b6100b9600480360360808110156101215760008061011e610aca565b50505b50803573ffffffffffffffffffffffffffffffffffffffff908116916020810135821691604082013516906060013562ffffff16610237565b610162610347565b60405190815260200160405180910390f35b60008060006040516060810160409081526101f48252610bb8602083015261271090820152905060005b60038110156101f7576000806101c68989898787600381106101bc57fe5b6020020151610237565b90925090506101df6101d8838361036b565b87906103f0565b95506101eb85826103f0565b9450505060010161019e565b508115610216576102088383610469565b9250610213826104f2565b91505b50935093915050565b731f98431c8ad98523631ae4a59f267346ea31f98481565b600080808073ffffffffffffffffffffffffffffffffffffffff868116141561027157610265888887610544565b9195509250905061032f565b6000806000806102828c8b8b610544565b90975094509150851580610294575083155b156102ab576000809750975050505050505061033e565b6102b68a8c8b610544565b9650935090508215806102c7575084155b156102de576000809750975050505050505061033e565b82841115610301576102fa846102f4888661036b565b90610469565b9550610312565b61030f836102f4878761036b565b94505b610328670de0b6b3a76400006102f4848461036b565b9750505050505b610339828261036b565b925050505b94509492505050565b7f0c231002d0970d2126e7e00ce88c3b0e5ec8e48dac71478d56245c34ea2f944781565b60008261037a575060006103ea565b8282028284828161038757fe5b04146103e7576040517f08c379a0000000000000000000000000000000000000000000000000000000008152600401808060200182810382526021815260200180610c6d60219139604001915050604051809103906103e4610aca565b50505b90505b92915050565b6000828201838110156103e7576040517f08c379a000000000000000000000000000000000000000000000000000000000815260206004820152601b60248201527f536166654d6174683a206164646974696f6e206f766572666c6f7700000000006044820152606401604051809103906103e4610aca565b60008082116104e1576040517f08c379a000000000000000000000000000000000000000000000000000000000815260206004820152601a60248201527f536166654d6174683a206469766973696f6e206279207a65726f0000000000006044820152606401604051809103906104de610aca565b50505b8183816104ea57fe5b049392505050565b60006003821115610535575080600160028204015b8181101561052f5780915060028182858161051e57fe5b04018161052757fe5b049050610507565b5061053f565b811561053f575060015b919050565b60008060008060008673ffffffffffffffffffffffffffffffffffffffff168873ffffffffffffffffffffffffffffffffffffffff1610610586578688610589565b87875b91509150600061059a838389610937565b90506105bb8173ffffffffffffffffffffffffffffffffffffffff16610a5b565b6105d257600080600095509550955050505061092e565b60008173ffffffffffffffffffffffffffffffffffffffff16633850c7bd6040518163ffffffff1660e01b815260040160e0604051808303818680610615610b35565b15801561062a57600080610627610aca565b50505b505a610634610b81565b5050505050158015610653573d6000803e3d6000610650610aca565b50505b505050506040513d60e08110156106725760008061066f610aca565b50505b810190808051929190602001805192919060200180519291906020018051929190602001805192919060200180519291906020018051906020019092919050505050505050505073ffffffffffffffffffffffffffffffffffffffff1690508373ffffffffffffffffffffffffffffffffffffffff168a73ffffffffffffffffffffffffffffffffffffffff16141561072f576060610726828261071e670de0b6b3a76400008361036b565b901c9061036b565b901c9650610760565b61075d816102f47f0de0b6b3a764000000000000000000000000000000000000000000000000000082610469565b96505b8973ffffffffffffffffffffffffffffffffffffffff166370a08231836040517fffffffff0000000000000000000000000000000000000000000000000000000060e084901b16815273ffffffffffffffffffffffffffffffffffffffff909116600482015260240160206040518083038186806107dc610b35565b1580156107f1576000806107ee610aca565b50505b505a6107fb610b81565b505050505015801561081a573d6000803e3d6000610817610aca565b50505b505050506040513d602081101561083957600080610836610aca565b50505b8101908080519850505073ffffffffffffffffffffffffffffffffffffffff8a1690506370a08231836040517fffffffff0000000000000000000000000000000000000000000000000000000060e084901b16815273ffffffffffffffffffffffffffffffffffffffff909116600482015260240160206040518083038186806108c1610b35565b1580156108d6576000806108d3610aca565b50505b505a6108e0610b81565b50505050501580156108ff573d6000803e3d60006108fc610aca565b50505b505050506040513d602081101561091e5760008061091b610aca565b50505b8101908080519750505050505050505b93509350939050565b6000731f98431c8ad98523631ae4a59f267346ea31f984848484604051602001808473ffffffffffffffffffffffffffffffffffffffff1681526020018373ffffffffffffffffffffffffffffffffffffffff1681526020018262ffffff1681526020019350505050604051602081830303815290604052805190602001207f0c231002d0970d2126e7e00ce88c3b0e5ec8e48dac71478d56245c34ea2f94476040517fff00000000000000000000000000000000000000000000000000000000000000602082015260609390931b7fffffffffffffffffffffffffffffffffffffffff0000000000000000000000001660218401526035830191909152605582015260750160405160208183030381529060405280519060200120949350505050565b60008082610a67610b35565b15159392505050565b63a8c4c5ec598160e01b8152602081600483336000905af158600e01573d6000803e3d6000fd5b3d6001141558600a015760016000f35b8051935060005b6040811015610ac557600082820152602001610aae565b505050565b632a2a7adb598160e01b8152600481016020815285602082015260005b86811015610b02578086015182820160400152602001610ae7565b506020828760640184336000905af158600e01573d6000803e3d6000fd5b3d6001141558600a015760016000f35b505050565b638435035b598160e01b8152836004820152602081602483336000905af158600e01573d6000803e3d6000fd5b3d6001141558600a015760016000f35b80516000825293506020610aae565b638540661f598160e01b8152610bb2565b80808311156103ea575090919050565b80808310156103ea575090919050565b836004820152846024820152606060448201528660648201526084810160005b88811015610bea578088015182820152602001610bd2565b506060828960a40184336000905af158600e01573d6000803e3d6000fd5b3d6001141558600a015760016000f35b815160408301513d6000853e8b8b82606087013350600060045af15059610c3f8d3d610ba2565b8c01610c4b8187610b92565b5b82811015610c605760008152602001610c4c565b50929c5050505050505056fe536166654d6174683a206d756c7469706c69636174696f6e206f766572666c6f77",
  "devdoc": {
    "kind": "dev",
    "methods": {},
    "version": 1
  },
  "userdoc": {
    "kind": "user",
    "methods": {},
    "version": 1
  },
  "storageLayout": {
    "storage": [],
    "types": null
  }
}