{
  "address": "0xf71502f807C37A5aD9bB50aA983423907647bF96",
  "abi": [
    {
      "inputs": [
        {
          "internalType": "address",
          "name": "_factory",
          "type": "address"
        },
        {
          "internalType": "bytes32",
          "name": "_initcodeHash",
          "type": "bytes32"
        },
        {
          "internalType": "uint24[]",
          "name": "_fees",
          "type": "uint24[]"
        }
      ],
      "stateMutability": "nonpayable",
      "type": "constructor"
    },
    {
      "inputs": [],
      "name": "ConnectorShouldBeNone",
      "type": "error"
    },
    {
      "inputs": [],
      "name": "PoolNotFound",
      "type": "error"
    },
    {
      "inputs": [],
      "name": "PoolWithConnectorNotFound",
      "type": "error"
    },
    {
      "inputs": [],
      "name": "FACTORY",
      "outputs": [
        {
          "internalType": "address",
          "name": "",
          "type": "address"
        }
      ],
      "stateMutability": "view",
      "type": "function"
    },
    {
      "inputs": [],
      "name": "INITCODE_HASH",
      "outputs": [
        {
          "internalType": "bytes32",
          "name": "",
          "type": "bytes32"
        }
      ],
      "stateMutability": "view",
      "type": "function"
    },
    {
      "inputs": [],
      "name": "SUPPORTED_FEES_COUNT",
      "outputs": [
        {
          "internalType": "uint256",
          "name": "",
          "type": "uint256"
        }
      ],
      "stateMutability": "view",
      "type": "function"
    },
    {
      "inputs": [
        {
          "internalType": "uint256",
          "name": "",
          "type": "uint256"
        }
      ],
      "name": "fees",
      "outputs": [
        {
          "internalType": "uint24",
          "name": "",
          "type": "uint24"
        }
      ],
      "stateMutability": "view",
      "type": "function"
    },
    {
      "inputs": [
        {
          "internalType": "contract IERC20",
          "name": "srcToken",
          "type": "address"
        },
        {
          "internalType": "contract IERC20",
          "name": "dstToken",
          "type": "address"
        },
        {
          "internalType": "contract IERC20",
          "name": "connector",
          "type": "address"
        },
        {
          "internalType": "uint256",
          "name": "thresholdFilter",
          "type": "uint256"
        }
      ],
      "name": "getRate",
      "outputs": [
        {
          "internalType": "uint256",
          "name": "rate",
          "type": "uint256"
        },
        {
          "internalType": "uint256",
          "name": "weight",
          "type": "uint256"
        }
      ],
      "stateMutability": "view",
      "type": "function"
    }
  ],
  "transactionHash": "0xd6fa2ffd1b718a0dd50aefc23e59f8e1febfe7dc3d2d9c2c09c85804a06ef1f9",
  "args": [
    "0x1F98431c8aD98523631AE4a59f267346ea31F984",
    "0xe34f199b19b2b4f47f68442619d555527d244f78a3297ea89325f843f87b8b54",
    [
      100,
      500,
      3000,
      10000
    ]
  ],
  "numDeployments": 1,
  "bytecode": "0x60e0604052346200018a5762001141803803806200001d81620001a5565b9283398101906060818303126200018a578051916001600160a01b03831683036200018a576020928383015190604084015160018060401b03948582116200018a57019280601f850112156200018a5783519485116200018f5760059385851b9087806200008d818501620001a5565b8099815201928201019283116200018a578701905b8282106200016d5750505060a05260c052815192608093845260005b845181101562000128578351811015620001125762ffffff90818382861b870101511691600a928383101562000112578360019484049283549160038091870602901b92831b921b191617905501620000be565b634e487b7160e01b600052603260045260246000fd5b84604051610f759182620001cc8339518181816101a10152818161031c01526104ba015260a05181818161046101526109b1015260c051818181609001526109e00152f35b815162ffffff811681036200018a578152908701908701620000a2565b600080fd5b634e487b7160e01b600052604160045260246000fd5b6040519190601f01601f191682016001600160401b038111838210176200018f5760405256fe608060408181526004918236101561001657600080fd5b600092833560e01c918263152b8c6914610485575081632dd31000146104165781633d549b32146101195781634acc79ed146100b7575063f84618841461005c57600080fd5b346100b357817ffffffffffffffffffffffffffffffffffffffffffffffffffffffffffffffffc3601126100b357602090517f00000000000000000000000000000000000000000000000000000000000000008152f35b5080fd5b9050346101155760207ffffffffffffffffffffffffffffffffffffffffffffffffffffffffffffffffc360112610115573591600a831015610112575062ffffff6101036020936104dd565b92905490519260031b1c168152f35b80fd5b8280fd5b839150346100b35760807ffffffffffffffffffffffffffffffffffffffffffffffffffffffffffffffffc3601126100b35773ffffffffffffffffffffffffffffffffffffffff91813583811681036100b35760249182359385851685036100b3576044359286841693848103610412576064978835956101986105cb565b500361031957507f0000000000000000000000000000000000000000000000000000000000000000906101ca82610726565b96845b8381106102d257505050509493929190915b8295839560209586810151938a8201968588515280975b868910610222578c8c8c8c81610211575b8351928352820152f35b918161021c916105fd565b91610207565b9091929394959697996102368b8351610758565b519b8a8d019c8d51888102908082048a14901517156102a75761025a8c8951610824565b1161029a579161027f610287928f6102799061028d9651905190610824565b90610837565b9d5190610837565b9a61076c565b97969594939291906101f6565b509b509961028d9061076c565b868660118c7f4e487b7100000000000000000000000000000000000000000000000000000000835252fd5b806103128c6102f862ffffff6102e96001966104dd565b90549060031b1c168688610909565b9091519161030583610523565b825260208201528b6107c8565b50016101cd565b907f0000000000000000000000000000000000000000000000000000000000000000906103486002830a610726565b97855b8381106103625750505050509493929190916101df565b865b848110610374575060010161034b565b6001908d610381846104dd565b909161039b62ffffff809454600394851b1c168b8a610909565b9290938315610408576103be916103b1876104dd565b9054911b1c16888c610909565b9290938315610408576103f8946103d491610636565b92808210156104005750905b51916103eb83610523565b825260208201528d6107c8565b505b01610364565b9050906103e0565b50505050506103fa565b8380fd5b5050346100b357817ffffffffffffffffffffffffffffffffffffffffffffffffffffffffffffffffc3601126100b3576020905173ffffffffffffffffffffffffffffffffffffffff7f0000000000000000000000000000000000000000000000000000000000000000168152f35b8490346100b357817ffffffffffffffffffffffffffffffffffffffffffffffffffffffffffffffffc3601126100b3576020907f00000000000000000000000000000000000000000000000000000000000000008152f35b90600a8210156104f4576003600a80840493060290565b7f4e487b7100000000000000000000000000000000000000000000000000000000600052603260045260246000fd5b6040810190811067ffffffffffffffff82111761053f57604052565b7f4e487b7100000000000000000000000000000000000000000000000000000000600052604160045260246000fd5b6080810190811067ffffffffffffffff82111761053f57604052565b90601f7fffffffffffffffffffffffffffffffffffffffffffffffffffffffffffffffe0910116810190811067ffffffffffffffff82111761053f57604052565b604051906060820182811067ffffffffffffffff82111761053f57604052606060408360008152600060208201520152565b8115610607570490565b7f4e487b7100000000000000000000000000000000000000000000000000000000600052601260045260246000fd5b907fffffffffffffffffffffffffffffffffffffffffffffffffffffffffffffffff8183098183029182808310920391808303921461071557670de0b6b3a764000090828211156106b7577faccb18165bd6fe31ae1cf318dc5b51eee0e1ba569b88cd74c1773b91fac10669940990828211900360ee1b910360121c170290565b60646040517f08c379a000000000000000000000000000000000000000000000000000000000815260206004820152601560248201527f4d6174683a206d756c446976206f766572666c6f7700000000000000000000006044820152fd5b5050670de0b6b3a764000091500490565b9061072f6105cb565b506040519160808160061b84010160405260008352600060208401526060830180604085015252565b80518210156104f45760209160051b010190565b7fffffffffffffffffffffffffffffffffffffffffffffffffffffffffffffffff81146107995760010190565b7f4e487b7100000000000000000000000000000000000000000000000000000000600052601160045260246000fd5b90602081019081516107dc57505050600090565b6107fd60408401519160208501928351916107f78383610758565b52610758565b50610808815161076c565b905251908051821161081c575b5050600190565b523880610815565b8181029291811591840414171561079957565b9190820180921161079957565b51906fffffffffffffffffffffffffffffffff8216820361086157565b600080fd5b519073ffffffffffffffffffffffffffffffffffffffff8216820361086157565b51908160020b820361086157565b919082610100910312610861576108ab82610844565b91602081015180600f0b8103610861579160408201519160608101519160808201518060060b810361086157916108e460a08201610866565b9160c082015163ffffffff811681036108615760e09092015180151581036108615790565b73ffffffffffffffffffffffffffffffffffffffff929083811690849084821680841015610f3157505b169084604094855162ffffff60209684888401948886521689840152166060820152606081526109628161056e565b5190208551858101917fff0000000000000000000000000000000000000000000000000000000000000083527fffffffffffffffffffffffffffffffffffffffff0000000000000000000000007f000000000000000000000000000000000000000000000000000000000000000060601b16602183015260358201527f0000000000000000000000000000000000000000000000000000000000000000605582015260558152610a118161056e565b5190201694853b15610f23578451937f1a686502000000000000000000000000000000000000000000000000000000008552600494818187818b5afa8015610f1857600090610ed4575b6fffffffffffffffffffffffffffffffff915016968715610ec4578651927f3850c7bd00000000000000000000000000000000000000000000000000000000845287848881855afa938415610d56576000908195610e82575b50169680517fd0c93a7c00000000000000000000000000000000000000000000000000000000815283818981865afa938415610e7757600094610e3e575b5050600293840b83850b908115610e10577fffffffffffffffffffffffffffffffffffffffffffffffffffffffffffffffff82147fffffffffffffffffffffffffffffffffffffffffffffffffffffffffff800000821416610de257819005850b029182850b928303610db45760009493928a929190835b8688810b1315610c4057505050505050505014600014610bdc57670de0b6b3a7640000908282029182048303610bae575090610ba89160601c610824565b60601c91565b6011907f4e487b71000000000000000000000000000000000000000000000000000000006000525260246000fd5b8115610c12575080610c0f917f0de0b6b3a7640000000000000000000000000000000000000000000000000000046105fd565b91565b6012907f4e487b71000000000000000000000000000000000000000000000000000000006000525260246000fd5b85889d93949596979802880b9585517ff30dba9300000000000000000000000000000000000000000000000000000000978882528d8186018c0b9083015261010092602490848483818c5afa938415610da957600094610d82575b50600f93840b01998a9788811015610d7b575b9a15610d61578f9185928e8c5195869485528a03900b90830152818a5afa928315610d5657600093610d1f575b50500b90039b8c9586811015610d18575b9c15610d0357600101870b96959493929193610b6a565b50505050505050505050505050600090600090565b508c610cec565b610d3f929350803d10610d4f575b610d37818361058a565b810190610895565b5050505050509050903880610cdb565b503d610d2d565b88513d6000823e3d90fd5b505050505050505050505050505050505050600090600090565b508a610cae565b610d9a919450853d8711610d4f57610d37818361058a565b50505050505090509238610c9b565b8a513d6000823e3d90fd5b6011887f4e487b71000000000000000000000000000000000000000000000000000000006000525260246000fd5b6011897f4e487b71000000000000000000000000000000000000000000000000000000006000525260246000fd5b6012897f4e487b71000000000000000000000000000000000000000000000000000000006000525260246000fd5b8181959293953d8311610e70575b610e56818361058a565b810103126101125750610e6890610887565b913880610af2565b503d610e4c565b82513d6000823e3d90fd5b94508885813d8311610ebd575b610e99818361058a565b810103126101125750610eb683610eaf86610866565b9501610887565b9338610ab4565b503d610e8f565b5050505050505050600090600090565b8282813d8311610f11575b610ee9818361058a565b810103126101125750610f0c6fffffffffffffffffffffffffffffffff91610844565b610a5b565b503d610edf565b87513d6000823e3d90fd5b505050505050600090600090565b92945050509183819361093356fea264697066735822122005cdb5c69bbe33732699dcd59ce9102be18b2c8dc02408362922dd92315c604264736f6c63430008130033"
}