{
  "address": "0x41674e58F339fE1caB03CA8DF095D46B998E6125",
  "abi": [
    {
      "inputs": [
        {
          "internalType": "contract IVelodramoV2Router",
          "name": "_router",
          "type": "address"
        },
        {
          "internalType": "contract IVelodramoV2Registry",
          "name": "_registry",
          "type": "address"
        }
      ],
      "stateMutability": "nonpayable",
      "type": "constructor"
    },
    {
      "inputs": [],
      "name": "ConnectorShouldBeNone",
      "type": "error"
    },
    {
      "inputs": [],
      "name": "MathOverflowedMulDiv",
      "type": "error"
    },
    {
      "inputs": [],
      "name": "PoolNotFound",
      "type": "error"
    },
    {
      "inputs": [],
      "name": "PoolWithConnectorNotFound",
      "type": "error"
    },
    {
      "inputs": [],
      "name": "REGISTRY",
      "outputs": [
        {
          "internalType": "contract IVelodramoV2Registry",
          "name": "",
          "type": "address"
        }
      ],
      "stateMutability": "view",
      "type": "function"
    },
    {
      "inputs": [],
      "name": "ROUTER",
      "outputs": [
        {
          "internalType": "contract IVelodramoV2Router",
          "name": "",
          "type": "address"
        }
      ],
      "stateMutability": "view",
      "type": "function"
    },
    {
      "inputs": [
        {
          "internalType": "contract IERC20",
          "name": "srcToken",
          "type": "address"
        },
        {
          "internalType": "contract IERC20",
          "name": "dstToken",
          "type": "address"
        },
        {
          "internalType": "contract IERC20",
          "name": "connector",
          "type": "address"
        },
        {
          "internalType": "uint256",
          "name": "thresholdFilter",
          "type": "uint256"
        }
      ],
      "name": "getRate",
      "outputs": [
        {
          "internalType": "uint256",
          "name": "rate",
          "type": "uint256"
        },
        {
          "internalType": "uint256",
          "name": "weight",
          "type": "uint256"
        }
      ],
      "stateMutability": "view",
      "type": "function"
    }
  ],
  "transactionHash": "0xfe3299bbc0e4afe49b570be240d38dc87e28b41df24b4b0c11df6837b58e0a59",
  "args": [
    "0xa062aE8A9c5e11aaA026fc2670B0D65cCc8B2858",
    "0xF4c67CdEAaB8360370F41514d06e32CcD8aA1d7B"
  ],
  "numDeployments": 1,
  "solcInputHash": "c4476d73cc8f996cf78a38e654e98ad9",
  "bytecode": "0x60c03461009957601f610c5038819003918201601f19168301916001600160401b0383118484101761009e5780849260409485528339810103126100995780516001600160a01b03918282168203610099576020015191821682036100995760805260a052604051610b9b90816100b582396080518181816102af015281816106890152610774015260a05181818160e101526103210152f35b600080fd5b634e487b7160e01b600052604160045260246000fdfe6080604090808252600436101561001557600080fd5b600090813560e01c90816306433b1b146102d75750806332fe7b261461026457633d549b321461004457600080fd5b346102615760807ffffffffffffffffffffffffffffffffffffffffffffffffffffffffffffffffc3601126102615773ffffffffffffffffffffffffffffffffffffffff600435818116810361025d57602435828116810361025957604435918383169283810361025557606435948751947f06121cd50000000000000000000000000000000000000000000000000000000086528786600481857f0000000000000000000000000000000000000000000000000000000000000000165afa95861561024b578896610173575b500361012e5750610122945061048f565b82519182526020820152f35b92848161014d670de0b6b3a76400009597610155948861015b9761048f565b97909661048f565b936103d1565b0492508082101561016c5750610122565b9050610122565b9095503d8089833e6101858183610390565b8101602090818382031261024757825167ffffffffffffffff93848211610212570181601f82011215610243578051938411610216578360051b908c51946101cf85840187610390565b85528380860192820101928311610212578301905b8282106101f657505050509438610111565b8151868116810361020e5781529083019083016101e4565b8c80fd5b8b80fd5b60248b7f4e487b710000000000000000000000000000000000000000000000000000000081526041600452fd5b8a80fd5b8980fd5b89513d8a823e3d90fd5b8580fd5b8380fd5b8280fd5b80fd5b5090346102d357817ffffffffffffffffffffffffffffffffffffffffffffffffffffffffffffffffc3601126102d3576020905173ffffffffffffffffffffffffffffffffffffffff7f0000000000000000000000000000000000000000000000000000000000000000168152f35b5080fd5b9050346102d357817ffffffffffffffffffffffffffffffffffffffffffffffffffffffffffffffffc3601126102d35760209073ffffffffffffffffffffffffffffffffffffffff7f0000000000000000000000000000000000000000000000000000000000000000168152f35b6040810190811067ffffffffffffffff82111761036157604052565b7f4e487b7100000000000000000000000000000000000000000000000000000000600052604160045260246000fd5b90601f7fffffffffffffffffffffffffffffffffffffffffffffffffffffffffffffffe0910116810190811067ffffffffffffffff82111761036157604052565b818102929181159184041417156103e457565b7f4e487b7100000000000000000000000000000000000000000000000000000000600052601160045260246000fd5b811561041d570490565b7f4e487b7100000000000000000000000000000000000000000000000000000000600052601260045260246000fd5b80518210156104605760209160051b010190565b7f4e487b7100000000000000000000000000000000000000000000000000000000600052603260045260246000fd5b92909282517f7fffffffffffffffffffffffffffffffffffffffffffffffffffffffffffffff811681036103e4576040516060810181811067ffffffffffffffff821117610361576060916040918298969852600081526000602082015201526040519260808260071b85010160405260008452602084019460008652606085018060408701528360011b905260005b8381106105d957505050505060009260009251806040840151526000925b81841061055f575050505080610551579091565b908161055c91610413565b91565b9091929361057185604084015161044c565b5195602087019687516064908181029181830414901517156103e4576105988786516103d1565b116105cd57916105ba6105c2926105b4600195518b51906103d1565b90610b58565b975190610b58565b945b0192919061053d565b509550936001906105c4565b73ffffffffffffffffffffffffffffffffffffffff6105fb82849a989a61044c565b511660008091604051907f8c0037dc00000000000000000000000000000000000000000000000000000000825273ffffffffffffffffffffffffffffffffffffffff8916600483015273ffffffffffffffffffffffffffffffffffffffff8716602483015260016044830152606482015260408160848173ffffffffffffffffffffffffffffffffffffffff7f0000000000000000000000000000000000000000000000000000000000000000165afa80600092600092610886575b5061087b575b505080610845575b505073ffffffffffffffffffffffffffffffffffffffff6106e6828461044c565b511690600080604051937f8c0037dc00000000000000000000000000000000000000000000000000000000855273ffffffffffffffffffffffffffffffffffffffff8916600486015273ffffffffffffffffffffffffffffffffffffffff8716602486015260006044860152606485015260408460848173ffffffffffffffffffffffffffffffffffffffff7f0000000000000000000000000000000000000000000000000000000000000000165afa9384600091600091610805575b506001956107fa575b5050806107bf575b50500196949661051f565b6107d86107d383610155846107f2966108c1565b610997565b604051916107e583610345565b825260208201528a610ada565b5038806107b4565b9250905038806107ac565b9150506040813d60401161083d575b8161082160409383610390565b8101031261083857805160209091015160016107a3565b600080fd5b3d9150610814565b6108596107d38361015584610873966108c1565b6040519161086683610345565b8252602082015289610ada565b5038806106c5565b9250905038806106bd565b925090506040823d6040116108b9575b816108a360409383610390565b81010312610838576020825192015190386106b7565b3d9150610896565b670de0b6b3a764000091828202917fffffffffffffffffffffffffffffffffffffffffffffffffffffffffffffffff84820993838086109503948086039514610987578483111561095d5782910981600003821680920460028082600302188083028203028083028203028083028203028083028203028083028203028092029003029360018380600003040190848311900302920304170290565b60046040517f227bc153000000000000000000000000000000000000000000000000000000008152fd5b5050906109949250610413565b90565b8015610ad457610a62816000908360801c80610ac8575b508060401c80610abb575b508060201c80610aae575b508060101c80610aa1575b508060081c80610a94575b508060041c80610a87575b508060021c80610a7a575b50600191828092811c610a73575b1c1b610a0a8185610413565b01811c610a178185610413565b01811c610a248185610413565b01811c610a318185610413565b01811c610a3e8185610413565b01811c610a4b8185610413565b01811c610a588185610413565b01901c8092610413565b80821015610a6e575090565b905090565b01816109fe565b60029150910190386109f0565b60049150910190386109e5565b60089150910190386109da565b60109150910190386109cf565b60209150910190386109c4565b60409150910190386109b9565b915050608090386109ae565b50600090565b9060208101908151610aee57505050600090565b610b0f6040840151916020850192835191610b09838361044c565b5261044c565b5080517fffffffffffffffffffffffffffffffffffffffffffffffffffffffffffffffff81146103e4576001019052519080518211610b50575b5050600190565b523880610b49565b919082018092116103e45756fea2646970667358221220425e646ff08ee941adabd5830d5072bd349b3c87738159590f98ef3a5cca9ec164736f6c63430008170033",
  "devdoc": {
    "errors": {
      "MathOverflowedMulDiv()": [
        {
          "details": "Muldiv operation overflow."
        }
      ]
    },
    "kind": "dev",
    "methods": {},
    "version": 1
  },
  "userdoc": {
    "kind": "user",
    "methods": {},
    "version": 1
  },
  "storageLayout": {
    "storage": [],
    "types": null
  }
}