{
  "address": "0x41674e58F339fE1caB03CA8DF095D46B998E6125",
  "abi": [
    {
      "inputs": [
        {
          "internalType": "contract IDVMFactory",
          "name": "_DVMFactory",
          "type": "address"
        }
      ],
      "stateMutability": "nonpayable",
      "type": "constructor"
    },
    {
      "inputs": [],
      "name": "DVMFactory",
      "outputs": [
        {
          "internalType": "contract IDVMFactory",
          "name": "",
          "type": "address"
        }
      ],
      "stateMutability": "view",
      "type": "function"
    },
    {
      "inputs": [
        {
          "internalType": "contract IERC20",
          "name": "srcToken",
          "type": "address"
        },
        {
          "internalType": "contract IERC20",
          "name": "dstToken",
          "type": "address"
        },
        {
          "internalType": "contract IERC20",
          "name": "connector",
          "type": "address"
        }
      ],
      "name": "getRate",
      "outputs": [
        {
          "internalType": "uint256",
          "name": "rate",
          "type": "uint256"
        },
        {
          "internalType": "uint256",
          "name": "weight",
          "type": "uint256"
        }
      ],
      "stateMutability": "view",
      "type": "function"
    }
  ],
  "transactionHash": "0xd6bd0655169764ddbd67222efb52879b446e3443f734d136ea4fb0834e61a2b5",
  "args": [
    "0x5515363c0412AdD5c72d3E302fE1bD7dCBCF93Fe"
  ],
  "numDeployments": 1,
  "solcInputHash": "953e00ee9631c36088e0d36ed8e133df",
  "bytecode": "0x60a060405234801561001057600080fd5b50604051610b16380380610b168339818101604052602081101561003357600080fd5b50516001600160a01b0316608052608051610aad61006960003960008181609e0152818161038501526105110152610aad6000f3fe608060405234801561001057600080fd5b50600436106100365760003560e01c806314999e791461003b57806378d2909414610099575b600080fd5b6100806004803603606081101561005157600080fd5b5073ffffffffffffffffffffffffffffffffffffffff81358116916020810135821691604090910135166100e9565b6040805192835260208301919091528051918290030190f35b6100c07f000000000000000000000000000000000000000000000000000000000000000081565b6040805173ffffffffffffffffffffffffffffffffffffffff9092168252519081900360200190f35b6000807fffffffffffffffffffffffff000000000000000000000000000000000000000173ffffffffffffffffffffffffffffffffffffffff8416016101ca57600080610136878761037f565b9150915060005b82518110156101c257600083828151811061015a5761015a610922565b6020026020010151905060008060006101738487610706565b9194509250905060006101868284610980565b90506101928185610980565b61019c908b6109bd565b99506101a8818a6109bd565b9850505050505080806101ba906109d5565b91505061013d565b505050610353565b6000806101d7878661037f565b915091506000806101e8878961037f565b9150915060005b845181101561034d57600080600061022088858151811061021257610212610922565b602002602001015188610706565b9250925092508160001480610233575080155b156102405750505061033b565b60005b86518110156103365760008060006102748a858151811061026657610266610922565b60200260200101518a610706565b9250925092508060001480610287575081155b1561029457505050610324565b818511156102b857846102a78388610980565b6102b19190610a3c565b95506102d0565b816102c38683610980565b6102cd9190610a3c565b90505b60006102dc8288610980565b9050670de0b6b3a7640000816102f2868b610980565b6102fc9190610980565b6103069190610a3c565b8f61031191906109bd565b9e5061031d818f6109bd565b9d50505050505b8061032e816109d5565b915050610243565b505050505b80610345816109d5565b9150506101ef565b50505050505b80156103775780828161036857610368610a0d565b049150610374816108c4565b90505b935093915050565b606060007f000000000000000000000000000000000000000000000000000000000000000073ffffffffffffffffffffffffffffffffffffffff166357a281dc85856040518363ffffffff1660e01b8152600401808373ffffffffffffffffffffffffffffffffffffffff1681526020018273ffffffffffffffffffffffffffffffffffffffff16815260200192505050600060405180830381865afa15801561042d573d6000803e3d6000fd5b505050506040513d6000823e601f3d9081017fffffffffffffffffffffffffffffffffffffffffffffffffffffffffffffffe0168201604052602081101561047457600080fd5b810190808051604051939291908464010000000082111561049457600080fd5b9083019060208201858111156104a957600080fd5b82518660208202830111640100000000821117156104c657600080fd5b82525081516020918201928201910280838360005b838110156104f35781810151838201526020016104db565b50505050905001604052505050915081516000141590508061068f577f000000000000000000000000000000000000000000000000000000000000000073ffffffffffffffffffffffffffffffffffffffff166357a281dc84866040518363ffffffff1660e01b8152600401808373ffffffffffffffffffffffffffffffffffffffff1681526020018273ffffffffffffffffffffffffffffffffffffffff16815260200192505050600060405180830381865afa1580156105b9573d6000803e3d6000fd5b505050506040513d6000823e601f3d9081017fffffffffffffffffffffffffffffffffffffffffffffffffffffffffffffffe0168201604052602081101561060057600080fd5b810190808051604051939291908464010000000082111561062057600080fd5b90830190602082018581111561063557600080fd5b825186602082028301116401000000008211171561065257600080fd5b82525081516020918201928201910280838360005b8381101561067f578181015183820152602001610667565b5050505090500160405250505091505b81516000036106ff57604080517f08c379a000000000000000000000000000000000000000000000000000000000815260206004820152601860248201527f444f56323a206d616368696e6573206e6f7420666f756e640000000000000000604482015290519081900360640190fd5b9250929050565b6000806000808573ffffffffffffffffffffffffffffffffffffffff16637d7215046040518163ffffffff1660e01b8152600401602060405180830381865afa158015610757573d6000803e3d6000fd5b505050506040513d602081101561076d57600080fd5b5051604080517fbbf5ce78000000000000000000000000000000000000000000000000000000008152905191925060009173ffffffffffffffffffffffffffffffffffffffff89169163bbf5ce789160048083019260209291908290030181865afa1580156107e0573d6000803e3d6000fd5b505050506040513d60208110156107f657600080fd5b50519050811580159061080857508015155b156108bb5760008773ffffffffffffffffffffffffffffffffffffffff1663ee27c6896040518163ffffffff1660e01b8152600401602060405180830381865afa15801561085a573d6000803e3d6000fd5b505050506040513d602081101561087057600080fd5b505190508661089757610892816ec097ce7bc90715b34b9f1000000000610a3c565b610899565b805b6108a390876109bd565b9550866108b15781836108b4565b82825b9095509350505b50509250925092565b60006003821115610913575080600160028204015b8181101561090d578091506002818285816108f6576108f6610a0d565b04018161090557610905610a0d565b0490506108d9565b50919050565b811561091d575060015b919050565b7f4e487b7100000000000000000000000000000000000000000000000000000000600052603260045260246000fd5b7f4e487b7100000000000000000000000000000000000000000000000000000000600052601160045260246000fd5b6000817fffffffffffffffffffffffffffffffffffffffffffffffffffffffffffffffff04831182151516156109b8576109b8610951565b500290565b600082198211156109d0576109d0610951565b500190565b60007fffffffffffffffffffffffffffffffffffffffffffffffffffffffffffffffff8203610a0657610a06610951565b5060010190565b7f4e487b7100000000000000000000000000000000000000000000000000000000600052601260045260246000fd5b600082610a72577f4e487b7100000000000000000000000000000000000000000000000000000000600052601260045260246000fd5b50049056fea26469706673582212209e8352536664eb06b88e961c1d306387af0b7fb51b80049a7b40a37f071ddc1664736f6c634300080f0033",
  "devdoc": {
    "kind": "dev",
    "methods": {},
    "version": 1
  },
  "userdoc": {
    "kind": "user",
    "methods": {},
    "version": 1
  },
  "storageLayout": {
    "storage": [],
    "types": null
  }
}