{
  "address": "0x04098C93b15E5Cbb5A49651f20218C85F202Cd27",
  "abi": [
    {
      "inputs": [
        {
          "internalType": "contract IDodoZoo",
          "name": "_dodoZoo",
          "type": "address"
        }
      ],
      "stateMutability": "nonpayable",
      "type": "constructor"
    },
    {
      "inputs": [],
      "name": "dodoZoo",
      "outputs": [
        {
          "internalType": "contract IDodoZoo",
          "name": "",
          "type": "address"
        }
      ],
      "stateMutability": "view",
      "type": "function"
    },
    {
      "inputs": [
        {
          "internalType": "contract IERC20",
          "name": "srcToken",
          "type": "address"
        },
        {
          "internalType": "contract IERC20",
          "name": "dstToken",
          "type": "address"
        },
        {
          "internalType": "contract IERC20",
          "name": "connector",
          "type": "address"
        }
      ],
      "name": "getRate",
      "outputs": [
        {
          "internalType": "uint256",
          "name": "rate",
          "type": "uint256"
        },
        {
          "internalType": "uint256",
          "name": "weight",
          "type": "uint256"
        }
      ],
      "stateMutability": "view",
      "type": "function"
    }
  ],
  "transactionHash": "0xbe9c793fe21585af44d231420de4644040dc2dcb3dae23dc51b27d0b1582500a",
  "args": [
    "0xf50BDc9E90B7a1c138cb7935071b85c417C4cb8e"
  ],
  "numDeployments": 1,
  "solcInputHash": "953e00ee9631c36088e0d36ed8e133df",
  "bytecode": "0x60a060405234801561001057600080fd5b5060405161077e38038061077e8339818101604052602081101561003357600080fd5b50516001600160a01b031660805260805161071561006960003960008181609e015281816101ee01526102d001526107156000f3fe608060405234801561001057600080fd5b50600436106100365760003560e01c806314999e791461003b57806323584f5a14610099575b600080fd5b6100806004803603606081101561005157600080fd5b5073ffffffffffffffffffffffffffffffffffffffff81358116916020810135821691604090910135166100e9565b6040805192835260208301919091528051918290030190f35b6100c07f000000000000000000000000000000000000000000000000000000000000000081565b6040805173ffffffffffffffffffffffffffffffffffffffff9092168252519081900360200190f35b60008080807fffffffffffffffffffffffff000000000000000000000000000000000000000173ffffffffffffffffffffffffffffffffffffffff8616016101415761013587876101e6565b919550925090506101c8565b6000806000806101518b8a6101e6565b90975094509150610162898b6101e6565b9650935090508284111561018c578361017b8488610611565b61018591906106a4565b95506101a4565b826101978587610611565b6101a191906106a4565b94505b670de0b6b3a76400006101b78284610611565b6101c191906106a4565b9750505050505b6101da6101d58284610611565b6105b3565b92505050935093915050565b6000806000807f000000000000000000000000000000000000000000000000000000000000000073ffffffffffffffffffffffffffffffffffffffff16631273b0c687876040518363ffffffff1660e01b8152600401808373ffffffffffffffffffffffffffffffffffffffff1681526020018273ffffffffffffffffffffffffffffffffffffffff16815260200192505050602060405180830381865afa158015610296573d6000803e3d6000fd5b505050506040513d60208110156102ac57600080fd5b5051905073ffffffffffffffffffffffffffffffffffffffff8116151580610393577f000000000000000000000000000000000000000000000000000000000000000073ffffffffffffffffffffffffffffffffffffffff16631273b0c687896040518363ffffffff1660e01b8152600401808373ffffffffffffffffffffffffffffffffffffffff1681526020018273ffffffffffffffffffffffffffffffffffffffff16815260200192505050602060405180830381865afa158015610378573d6000803e3d6000fd5b505050506040513d602081101561038e57600080fd5b505191505b73ffffffffffffffffffffffffffffffffffffffff821661041557604080517f08c379a000000000000000000000000000000000000000000000000000000000815260206004820152601260248201527f444f3a20446f646f206e6f7420666f756e640000000000000000000000000000604482015290519081900360640190fd5b60008273ffffffffffffffffffffffffffffffffffffffff1663ee27c6896040518163ffffffff1660e01b8152600401602060405180830381865afa158015610462573d6000803e3d6000fd5b505050506040513d602081101561047857600080fd5b505190508161049f5761049a816ec097ce7bc90715b34b9f10000000006106a4565b6104a1565b805b955060008373ffffffffffffffffffffffffffffffffffffffff1663eab5d20e6040518163ffffffff1660e01b8152600401602060405180830381865afa1580156104f0573d6000803e3d6000fd5b505050506040513d602081101561050657600080fd5b5051604080517f7c9b8e89000000000000000000000000000000000000000000000000000000008152905191925060009173ffffffffffffffffffffffffffffffffffffffff871691637c9b8e899160048083019260209291908290030181865afa158015610579573d6000803e3d6000fd5b505050506040513d602081101561058f57600080fd5b505190508361059f5780826105a2565b81815b989b909a5097985050505050505050565b60006003821115610602575080600160028204015b818110156105fc578091506002818285816105e5576105e5610675565b0401816105f4576105f4610675565b0490506105c8565b50919050565b811561060c575060015b919050565b6000817fffffffffffffffffffffffffffffffffffffffffffffffffffffffffffffffff0483118215151615610670577f4e487b7100000000000000000000000000000000000000000000000000000000600052601160045260246000fd5b500290565b7f4e487b7100000000000000000000000000000000000000000000000000000000600052601260045260246000fd5b6000826106da577f4e487b7100000000000000000000000000000000000000000000000000000000600052601260045260246000fd5b50049056fea264697066735822122032cf316e7828b2b77a0a967950f7d97f408683029e896a50f1633a27e53342d964736f6c634300080f0033",
  "devdoc": {
    "kind": "dev",
    "methods": {},
    "version": 1
  },
  "userdoc": {
    "kind": "user",
    "methods": {},
    "version": 1
  },
  "storageLayout": {
    "storage": [],
    "types": null
  }
}