{
  "address": "0x52a8193C7f42b75F27e4ce96f8ddBA7e854453Ef",
  "abi": [
    {
      "inputs": [
        {
          "internalType": "contract IWrapper[]",
          "name": "existingWrappers",
          "type": "address[]"
        }
      ],
      "stateMutability": "nonpayable",
      "type": "constructor"
    },
    {
      "anonymous": false,
      "inputs": [
        {
          "indexed": true,
          "internalType": "address",
          "name": "previousOwner",
          "type": "address"
        },
        {
          "indexed": true,
          "internalType": "address",
          "name": "newOwner",
          "type": "address"
        }
      ],
      "name": "OwnershipTransferred",
      "type": "event"
    },
    {
      "anonymous": false,
      "inputs": [
        {
          "indexed": false,
          "internalType": "contract IWrapper",
          "name": "connector",
          "type": "address"
        }
      ],
      "name": "WrapperAdded",
      "type": "event"
    },
    {
      "anonymous": false,
      "inputs": [
        {
          "indexed": false,
          "internalType": "contract IWrapper",
          "name": "connector",
          "type": "address"
        }
      ],
      "name": "WrapperRemoved",
      "type": "event"
    },
    {
      "inputs": [
        {
          "internalType": "contract IWrapper",
          "name": "wrapper",
          "type": "address"
        }
      ],
      "name": "addWrapper",
      "outputs": [],
      "stateMutability": "nonpayable",
      "type": "function"
    },
    {
      "inputs": [
        {
          "internalType": "contract IERC20",
          "name": "token",
          "type": "address"
        }
      ],
      "name": "getWrappedTokens",
      "outputs": [
        {
          "internalType": "contract IERC20[]",
          "name": "wrappedTokens",
          "type": "address[]"
        },
        {
          "internalType": "uint256[]",
          "name": "rates",
          "type": "uint256[]"
        }
      ],
      "stateMutability": "view",
      "type": "function"
    },
    {
      "inputs": [],
      "name": "owner",
      "outputs": [
        {
          "internalType": "address",
          "name": "",
          "type": "address"
        }
      ],
      "stateMutability": "view",
      "type": "function"
    },
    {
      "inputs": [
        {
          "internalType": "contract IWrapper",
          "name": "wrapper",
          "type": "address"
        }
      ],
      "name": "removeWrapper",
      "outputs": [],
      "stateMutability": "nonpayable",
      "type": "function"
    },
    {
      "inputs": [],
      "name": "renounceOwnership",
      "outputs": [],
      "stateMutability": "nonpayable",
      "type": "function"
    },
    {
      "inputs": [
        {
          "internalType": "address",
          "name": "newOwner",
          "type": "address"
        }
      ],
      "name": "transferOwnership",
      "outputs": [],
      "stateMutability": "nonpayable",
      "type": "function"
    },
    {
      "inputs": [],
      "name": "wrappers",
      "outputs": [
        {
          "internalType": "contract IWrapper[]",
          "name": "allWrappers",
          "type": "address[]"
        }
      ],
      "stateMutability": "view",
      "type": "function"
    }
  ],
  "transactionHash": "0x786e6cd8700f1947ae48be4fbd9089d1b3fe1d37660d06587a6bfc94f206b3b0",
  "args": [
    [
      "0x750c1b699552cAf908D67F5cCFd20A261305328c",
      "0xCC54299Fc291B261B2bF5552E7F0E5d2F8613E8C",
      "0xc197Ab9d47206dAf739a47AC75D0833fD2b0f87F"
    ]
  ],
  "numDeployments": 1,
  "solcInputHash": "3ca65e2da015ff2e199cb469c6ed6ee8",
  "bytecode": "0x60806040523480156200001157600080fd5b506040516200130038038062001300833981810160405260208110156200003757600080fd5b81019080805160405193929190846401000000008211156200005857600080fd5b9083019060208201858111156200006e57600080fd5b82518660208202830111640100000000821117156200008c57600080fd5b82525081516020918201928201910280838360005b83811015620000bb578181015183820152602001620000a1565b50505050905001604052505050620000e2620000dc620001e560201b60201c565b620001e9565b60005b8151811015620001dd5762000126828281518110620001085762000108620002ab565b602002602001015160016200023960201b62000c881790919060201c565b62000178576040805162461bcd60e51b815260206004820152601560248201527f5772617070657220616c72656164792061646465640000000000000000000000604482015290519081900360640190fd5b7f9471982c02bc8a0888c85288dcf07501f924fd3b336a516ff0747d9d28b516fd828281518110620001ae57620001ae620002ab565b602002602001015160405180826001600160a01b0316815260200191505060405180910390a1600101620000e5565b5050620002c1565b3390565b600080546001600160a01b038381166001600160a01b0319831681178455604051919092169283917f8be0079c531659141344cd1fd0a4f28419497f9722a3daafe3b4186f6b6457e09190a35050565b600062000250836001600160a01b03841662000259565b90505b92915050565b6000818152600183016020526040812054620002a25750815460018181018455600084815260208082209093018490558454848252828601909352604090209190915562000253565b50600062000253565b634e487b7160e01b600052603260045260246000fd5b61102f80620002d16000396000f3fe608060405234801561001057600080fd5b506004361061007d5760003560e01c8063cb991d941161005b578063cb991d9414610101578063e914d494146101cd578063f2fde38b14610200578063f56d770a1461023357600080fd5b806326b09c2914610082578063715018a6146100b75780638da5cb5b146100bf575b600080fd5b6100b56004803603602081101561009857600080fd5b503573ffffffffffffffffffffffffffffffffffffffff1661028b565b005b6100b56103d3565b60005473ffffffffffffffffffffffffffffffffffffffff166040805173ffffffffffffffffffffffffffffffffffffffff9092168252519081900360200190f35b6101346004803603602081101561011757600080fd5b503573ffffffffffffffffffffffffffffffffffffffff16610460565b604051808060200180602001838103835285818151815260200191508051906020019060200280838360005b83811015610178578181015183820152602001610160565b50505050905001838103825284818151815260200191508051906020019060200280838360005b838110156101b757818101518382015260200161019f565b5050505090500194505050505060405180910390f35b6100b5600480360360208110156101e357600080fd5b503573ffffffffffffffffffffffffffffffffffffffff16610954565b6100b56004803603602081101561021657600080fd5b503573ffffffffffffffffffffffffffffffffffffffff16610a97565b61023b610bc7565b60408051602080825283518183015283519192839290830191858101910280838360005b8381101561027757818101518382015260200161025f565b505050509050019250505060405180910390f35b60005473ffffffffffffffffffffffffffffffffffffffff163314610311576040517f08c379a000000000000000000000000000000000000000000000000000000000815260206004820181905260248201527f4f776e61626c653a2063616c6c6572206973206e6f7420746865206f776e657260448201526064015b60405180910390fd5b61031c600182610c88565b61038757604080517f08c379a000000000000000000000000000000000000000000000000000000000815260206004820152601560248201527f5772617070657220616c72656164792061646465640000000000000000000000604482015290519081900360640190fd5b6040805173ffffffffffffffffffffffffffffffffffffffff8316815290517f9471982c02bc8a0888c85288dcf07501f924fd3b336a516ff0747d9d28b516fd9181900360200190a150565b60005473ffffffffffffffffffffffffffffffffffffffff163314610454576040517f08c379a000000000000000000000000000000000000000000000000000000000815260206004820181905260248201527f4f776e61626c653a2063616c6c6572206973206e6f7420746865206f776e65726044820152606401610308565b61045e6000610cb3565b565b6040805160148082526102a082019092526060918291600091602082016102808036833750506040805160148082526102a08201909252929350600092915060208201610280803683370190505090506000805b6001548110156107965760018054829081106104d2576104d2610edd565b906000526020600020015460001c73ffffffffffffffffffffffffffffffffffffffff1663023276f0886040518263ffffffff1660e01b8152600401808273ffffffffffffffffffffffffffffffffffffffff1681526020019150506040805180830381865afa92505050801561056257506040513d604081101561055657600080fd5b50805160209091015160015b1561078e578186858151811061057a5761057a610edd565b602002602001019073ffffffffffffffffffffffffffffffffffffffff16908173ffffffffffffffffffffffffffffffffffffffff1681525050808585815181106105c7576105c7610edd565b60200260200101818152505060018401935060005b60015481101561078a5780841461078257600180548290811061060157610601610edd565b906000526020600020015460001c73ffffffffffffffffffffffffffffffffffffffff1663023276f0846040518263ffffffff1660e01b8152600401808273ffffffffffffffffffffffffffffffffffffffff1681526020019150506040805180830381865afa92505050801561069157506040513d604081101561068557600080fd5b50805160209091015160015b15610782576000805b888110156106ff578a81815181106106b4576106b4610edd565b602002602001015173ffffffffffffffffffffffffffffffffffffffff168473ffffffffffffffffffffffffffffffffffffffff16036106f757600191506106ff565b60010161069a565b508061077e57828a898151811061071857610718610edd565b73ffffffffffffffffffffffffffffffffffffffff90921660209283029190910190910152610759670de0b6b3a76400006107538785610d28565b90610d34565b89898151811061076b5761076b610edd565b6020026020010181815250506001880197505b5050505b6001016105dc565b5050505b6001016104b4565b508060010167ffffffffffffffff8111156107b3576107b3610eae565b6040519080825280602002602001820160405280156107dc578160200160208202803683370190505b5094508060010167ffffffffffffffff8111156107fb576107fb610eae565b604051908082528060200260200182016040528015610824578160200160208202803683370190505b50935060005b818110156108d75783818151811061084457610844610edd565b602002602001015186828151811061085e5761085e610edd565b602002602001019073ffffffffffffffffffffffffffffffffffffffff16908173ffffffffffffffffffffffffffffffffffffffff16815250508281815181106108aa576108aa610edd565b60200260200101518582815181106108c4576108c4610edd565b602090810291909101015260010161082a565b50858582815181106108eb576108eb610edd565b602002602001019073ffffffffffffffffffffffffffffffffffffffff16908173ffffffffffffffffffffffffffffffffffffffff1681525050670de0b6b3a764000084828151811061094057610940610edd565b602002602001018181525050505050915091565b60005473ffffffffffffffffffffffffffffffffffffffff1633146109d5576040517f08c379a000000000000000000000000000000000000000000000000000000000815260206004820181905260248201527f4f776e61626c653a2063616c6c6572206973206e6f7420746865206f776e65726044820152606401610308565b6109e0600182610d40565b610a4b57604080517f08c379a000000000000000000000000000000000000000000000000000000000815260206004820152600f60248201527f556e6b6e6f776e20777261707065720000000000000000000000000000000000604482015290519081900360640190fd5b6040805173ffffffffffffffffffffffffffffffffffffffff8316815290517f6728138e7d63827e0674bb75cd86127580945caff9813b228967dadf0e5cb5749181900360200190a150565b60005473ffffffffffffffffffffffffffffffffffffffff163314610b18576040517f08c379a000000000000000000000000000000000000000000000000000000000815260206004820181905260248201527f4f776e61626c653a2063616c6c6572206973206e6f7420746865206f776e65726044820152606401610308565b73ffffffffffffffffffffffffffffffffffffffff8116610bbb576040517f08c379a000000000000000000000000000000000000000000000000000000000815260206004820152602660248201527f4f776e61626c653a206e6577206f776e657220697320746865207a65726f206160448201527f64647265737300000000000000000000000000000000000000000000000000006064820152608401610308565b610bc481610cb3565b50565b6060610bd36001610d62565b67ffffffffffffffff811115610beb57610beb610eae565b604051908082528060200260200182016040528015610c14578160200160208202803683370190505b50905060005b8151811015610c84576001805482908110610c3757610c37610edd565b906000526020600020015460001c828281518110610c5757610c57610edd565b73ffffffffffffffffffffffffffffffffffffffff90921660209283029190910190910152600101610c1a565b5090565b6000610caa8373ffffffffffffffffffffffffffffffffffffffff8416610d6c565b90505b92915050565b6000805473ffffffffffffffffffffffffffffffffffffffff8381167fffffffffffffffffffffffff0000000000000000000000000000000000000000831681178455604051919092169283917f8be0079c531659141344cd1fd0a4f28419497f9722a3daafe3b4186f6b6457e09190a35050565b6000610caa8284610f3b565b6000610caa8284610f78565b6000610caa8373ffffffffffffffffffffffffffffffffffffffff8416610dbb565b6000610cad825490565b6000818152600183016020526040812054610db357508154600181810184556000848152602080822090930184905584548482528286019093526040902091909155610cad565b506000610cad565b60008181526001830160205260408120548015610ea4576000610ddf600183610fb3565b8554909150600090610df390600190610fb3565b9050818114610e58576000866000018281548110610e1357610e13610edd565b9060005260206000200154905080876000018481548110610e3657610e36610edd565b6000918252602080832090910192909255918252600188019052604090208390555b8554869080610e6957610e69610fca565b600190038181906000526020600020016000905590558560010160008681526020019081526020016000206000905560019350505050610cad565b6000915050610cad565b7f4e487b7100000000000000000000000000000000000000000000000000000000600052604160045260246000fd5b7f4e487b7100000000000000000000000000000000000000000000000000000000600052603260045260246000fd5b7f4e487b7100000000000000000000000000000000000000000000000000000000600052601160045260246000fd5b6000817fffffffffffffffffffffffffffffffffffffffffffffffffffffffffffffffff0483118215151615610f7357610f73610f0c565b500290565b600082610fae577f4e487b7100000000000000000000000000000000000000000000000000000000600052601260045260246000fd5b500490565b600082821015610fc557610fc5610f0c565b500390565b7f4e487b7100000000000000000000000000000000000000000000000000000000600052603160045260246000fdfea26469706673582212201de1cf3119350dbfd3fb5eada0a493eb572b3e8bd8ce1f27b7009762705d2e1664736f6c634300080e0033",
  "devdoc": {
    "kind": "dev",
    "methods": {
      "owner()": {
        "details": "Returns the address of the current owner."
      },
      "renounceOwnership()": {
        "details": "Leaves the contract without owner. It will not be possible to call `onlyOwner` functions anymore. Can only be called by the current owner. NOTE: Renouncing ownership will leave the contract without an owner, thereby removing any functionality that is only available to the owner."
      },
      "transferOwnership(address)": {
        "details": "Transfers ownership of the contract to a new account (`newOwner`). Can only be called by the current owner."
      }
    },
    "version": 1
  },
  "userdoc": {
    "kind": "user",
    "methods": {},
    "version": 1
  },
  "storageLayout": {
    "storage": [
      {
        "astId": 7,
        "contract": "contracts/MultiWrapper.sol:MultiWrapper",
        "label": "_owner",
        "offset": 0,
        "slot": "0",
        "type": "t_address"
      },
      {
        "astId": 2443,
        "contract": "contracts/MultiWrapper.sol:MultiWrapper",
        "label": "_wrappers",
        "offset": 0,
        "slot": "1",
        "type": "t_struct(AddressSet)2127_storage"
      }
    ],
    "types": {
      "t_address": {
        "encoding": "inplace",
        "label": "address",
        "numberOfBytes": "20"
      },
      "t_array(t_bytes32)dyn_storage": {
        "base": "t_bytes32",
        "encoding": "dynamic_array",
        "label": "bytes32[]",
        "numberOfBytes": "32"
      },
      "t_bytes32": {
        "encoding": "inplace",
        "label": "bytes32",
        "numberOfBytes": "32"
      },
      "t_mapping(t_bytes32,t_uint256)": {
        "encoding": "mapping",
        "key": "t_bytes32",
        "label": "mapping(bytes32 => uint256)",
        "numberOfBytes": "32",
        "value": "t_uint256"
      },
      "t_struct(AddressSet)2127_storage": {
        "encoding": "inplace",
        "label": "struct EnumerableSet.AddressSet",
        "members": [
          {
            "astId": 2126,
            "contract": "contracts/MultiWrapper.sol:MultiWrapper",
            "label": "_inner",
            "offset": 0,
            "slot": "0",
            "type": "t_struct(Set)1826_storage"
          }
        ],
        "numberOfBytes": "64"
      },
      "t_struct(Set)1826_storage": {
        "encoding": "inplace",
        "label": "struct EnumerableSet.Set",
        "members": [
          {
            "astId": 1821,
            "contract": "contracts/MultiWrapper.sol:MultiWrapper",
            "label": "_values",
            "offset": 0,
            "slot": "0",
            "type": "t_array(t_bytes32)dyn_storage"
          },
          {
            "astId": 1825,
            "contract": "contracts/MultiWrapper.sol:MultiWrapper",
            "label": "_indexes",
            "offset": 0,
            "slot": "1",
            "type": "t_mapping(t_bytes32,t_uint256)"
          }
        ],
        "numberOfBytes": "64"
      },
      "t_uint256": {
        "encoding": "inplace",
        "label": "uint256",
        "numberOfBytes": "32"
      }
    }
  }
}