{
  "address": "0x8e38ec1f7D3D40ebf3987DaB0fb2aD688D96c3D1",
  "abi": [
    {
      "inputs": [
        {
          "internalType": "contract ICurveProvider",
          "name": "_addressProvider",
          "type": "address"
        },
        {
          "internalType": "uint256",
          "name": "_maxPools",
          "type": "uint256"
        },
        {
          "internalType": "uint256[]",
          "name": "_registryIds",
          "type": "uint256[]"
        },
        {
          "internalType": "enum CurveOracle.CurveRegistryType[]",
          "name": "_registryTypes",
          "type": "uint8[]"
        },
        {
          "internalType": "address[]",
          "name": "initialBlacklist",
          "type": "address[]"
        },
        {
          "internalType": "address",
          "name": "owner",
          "type": "address"
        }
      ],
      "stateMutability": "nonpayable",
      "type": "constructor"
    },
    {
      "inputs": [],
      "name": "ConnectorShouldBeNone",
      "type": "error"
    },
    {
      "inputs": [],
      "name": "MathOverflowedMulDiv",
      "type": "error"
    },
    {
      "inputs": [
        {
          "internalType": "address",
          "name": "owner",
          "type": "address"
        }
      ],
      "name": "OwnableInvalidOwner",
      "type": "error"
    },
    {
      "inputs": [
        {
          "internalType": "address",
          "name": "account",
          "type": "address"
        }
      ],
      "name": "OwnableUnauthorizedAccount",
      "type": "error"
    },
    {
      "inputs": [],
      "name": "PoolNotFound",
      "type": "error"
    },
    {
      "inputs": [],
      "name": "PoolWithConnectorNotFound",
      "type": "error"
    },
    {
      "anonymous": false,
      "inputs": [
        {
          "indexed": false,
          "internalType": "address",
          "name": "pool",
          "type": "address"
        },
        {
          "indexed": false,
          "internalType": "bool",
          "name": "isBlacklisted",
          "type": "bool"
        }
      ],
      "name": "BlacklistUpdated",
      "type": "event"
    },
    {
      "anonymous": false,
      "inputs": [
        {
          "indexed": true,
          "internalType": "address",
          "name": "previousOwner",
          "type": "address"
        },
        {
          "indexed": true,
          "internalType": "address",
          "name": "newOwner",
          "type": "address"
        }
      ],
      "name": "OwnershipTransferred",
      "type": "event"
    },
    {
      "inputs": [],
      "name": "MAX_POOLS",
      "outputs": [
        {
          "internalType": "uint256",
          "name": "",
          "type": "uint256"
        }
      ],
      "stateMutability": "view",
      "type": "function"
    },
    {
      "inputs": [],
      "name": "REGISTRIES_COUNT",
      "outputs": [
        {
          "internalType": "uint256",
          "name": "",
          "type": "uint256"
        }
      ],
      "stateMutability": "view",
      "type": "function"
    },
    {
      "inputs": [
        {
          "internalType": "address",
          "name": "",
          "type": "address"
        }
      ],
      "name": "blacklisted",
      "outputs": [
        {
          "internalType": "bool",
          "name": "",
          "type": "bool"
        }
      ],
      "stateMutability": "view",
      "type": "function"
    },
    {
      "inputs": [
        {
          "internalType": "contract IERC20",
          "name": "srcToken",
          "type": "address"
        },
        {
          "internalType": "contract IERC20",
          "name": "dstToken",
          "type": "address"
        },
        {
          "internalType": "contract IERC20",
          "name": "connector",
          "type": "address"
        },
        {
          "internalType": "uint256",
          "name": "thresholdFilter",
          "type": "uint256"
        }
      ],
      "name": "getRate",
      "outputs": [
        {
          "internalType": "uint256",
          "name": "rate",
          "type": "uint256"
        },
        {
          "internalType": "uint256",
          "name": "weight",
          "type": "uint256"
        }
      ],
      "stateMutability": "view",
      "type": "function"
    },
    {
      "inputs": [],
      "name": "owner",
      "outputs": [
        {
          "internalType": "address",
          "name": "",
          "type": "address"
        }
      ],
      "stateMutability": "view",
      "type": "function"
    },
    {
      "inputs": [
        {
          "internalType": "uint256",
          "name": "",
          "type": "uint256"
        }
      ],
      "name": "registries",
      "outputs": [
        {
          "internalType": "contract ICurveRegistry",
          "name": "",
          "type": "address"
        }
      ],
      "stateMutability": "view",
      "type": "function"
    },
    {
      "inputs": [
        {
          "internalType": "uint256",
          "name": "",
          "type": "uint256"
        }
      ],
      "name": "registryTypes",
      "outputs": [
        {
          "internalType": "enum CurveOracle.CurveRegistryType",
          "name": "",
          "type": "uint8"
        }
      ],
      "stateMutability": "view",
      "type": "function"
    },
    {
      "inputs": [],
      "name": "renounceOwnership",
      "outputs": [],
      "stateMutability": "nonpayable",
      "type": "function"
    },
    {
      "inputs": [
        {
          "internalType": "address",
          "name": "pool",
          "type": "address"
        }
      ],
      "name": "toggleBlacklistAddress",
      "outputs": [],
      "stateMutability": "nonpayable",
      "type": "function"
    },
    {
      "inputs": [
        {
          "internalType": "address",
          "name": "newOwner",
          "type": "address"
        }
      ],
      "name": "transferOwnership",
      "outputs": [],
      "stateMutability": "nonpayable",
      "type": "function"
    }
  ],
  "args": [
    "0x0000000022d53366457f9d5e68ec105046fc4383",
    100,
    [
      0,
      3,
      5
    ],
    [
      0,
      7,
      2
    ],
    [
      "0xd2acae14ae2ee0f6557ac6c6d0e407a92c36214b"
    ],
    "0x56E44874F624EbDE6efCc783eFD685f0FBDC6dcF"
  ],
  "numDeployments": 1,
  "bytecode": "0x60c060409080825234620003ac5762001af58038038091620000228285620003dc565b833981019160c082840312620003ac5781516001600160a01b03919082811690819003620003ac576020848101518386015190959194916001600160401b0391828111620003ac5781019388601f86011215620003ac57845192620000878462000416565b956200009688519788620003dc565b8487528887018960059660051b830101918c8311620003ac578a809101915b838310620003cb57505050506060830151818111620003ac578301908a601f83011215620003ac57815191620000eb8362000416565b92620000fa8a519485620003dc565b8084528a8085019160051b830101918d8311620003ac578b01905b828210620003b1575050506080840151908111620003ac5783019980601f8c011215620003ac578a51620001498162000416565b9b8a808b519e8f906200015d9082620003dc565b848152019260051b820101928311620003ac578a809101915b838310620003915750505050846200019260a08095016200042e565b1680156200037957600080546001600160a01b031980821684178355919891929088167f8be0079c531659141344cd1fd0a4f28419497f9722a3daafe3b4186f6b6457e08a80a3875b8c5181101562000211578088620001f68f9360019462000443565b51168a52818c528a8a20805460ff19168317905501620001db565b5091888892888c958e608052805160a052855b895181101562000335576200023a818362000443565b51855163124fd3dd60e21b81526004808201929092526024908a8183818f5afa9081156200032b578a91620002ea575b50600b841015620002d85785846002019116878254161790556200028f838962000443565b5191600a831015620002c757505090600191818d1c600d0190815460f88460031b169160ff809116831b921b19161790550162000224565b634e487b7160e01b8a526021905288fd5b50634e487b7160e01b89526032825288fd5b90508a81813d831162000323575b620003048183620003dc565b810103126200031f5762000318906200042e565b8e6200026a565b8980fd5b503d620002f8565b88513d8c823e3d90fd5b845161168690816200046f82396080518181816102fa0152818161060c0152818161064b015281816110480152611179015260a051818181610518015261068f0152f35b8751631e4fbdf760e01b815260006004820152602490fd5b81906200039e846200042e565b8152019101908a9062000176565b600080fd5b8151600a811015620003ac578152908b01908b0162000115565b82518152918101918b9101620000b5565b601f909101601f19168101906001600160401b038211908210176200040057604052565b634e487b7160e01b600052604160045260246000fd5b6001600160401b038111620004005760051b60200190565b51906001600160a01b0382168203620003ac57565b8051821015620004585760209160051b010190565b634e487b7160e01b600052603260045260246000fdfe608080604052600436101561001357600080fd5b60003560e01c9081633d549b321461053b5750806347400449146104e257806361436d6a146104195780636347c900146103b9578063715018a61461031d57806381358498146102c45780638da5cb5b14610272578063b72529f2146101e2578063dbac26e9146101755763f2fde38b1461008d57600080fd5b346101705760207ffffffffffffffffffffffffffffffffffffffffffffffffffffffffffffffffc3601126101705760043573ffffffffffffffffffffffffffffffffffffffff808216809203610170576100e66115ff565b811561013f57600054827fffffffffffffffffffffffff0000000000000000000000000000000000000000821617600055167f8be0079c531659141344cd1fd0a4f28419497f9722a3daafe3b4186f6b6457e0600080a3005b60246040517f1e4fbdf700000000000000000000000000000000000000000000000000000000815260006004820152fd5b600080fd5b346101705760207ffffffffffffffffffffffffffffffffffffffffffffffffffffffffffffffffc3601126101705760043573ffffffffffffffffffffffffffffffffffffffff8116809103610170576000526001602052602060ff604060002054166040519015158152f35b346101705760207ffffffffffffffffffffffffffffffffffffffffffffffffffffffffffffffffc36011261017057600435600b8110156101705761022860ff916111c7565b90549060031b1c16604051600a821015610243576020918152f35b7f4e487b7100000000000000000000000000000000000000000000000000000000600052602160045260246000fd5b346101705760007ffffffffffffffffffffffffffffffffffffffffffffffffffffffffffffffffc36011261017057602073ffffffffffffffffffffffffffffffffffffffff60005416604051908152f35b346101705760007ffffffffffffffffffffffffffffffffffffffffffffffffffffffffffffffffc3601126101705760206040517f00000000000000000000000000000000000000000000000000000000000000008152f35b346101705760007ffffffffffffffffffffffffffffffffffffffffffffffffffffffffffffffffc360112610170576103546115ff565b600073ffffffffffffffffffffffffffffffffffffffff81547fffffffffffffffffffffffff000000000000000000000000000000000000000081168355167f8be0079c531659141344cd1fd0a4f28419497f9722a3daafe3b4186f6b6457e08280a3005b346101705760207ffffffffffffffffffffffffffffffffffffffffffffffffffffffffffffffffc36011261017057600435600b8110156101705773ffffffffffffffffffffffffffffffffffffffff6020916002015416604051908152f35b346101705760207ffffffffffffffffffffffffffffffffffffffffffffffffffffffffffffffffc3601126101705760043573ffffffffffffffffffffffffffffffffffffffff81168091036101705760407f6a12b3df6cba4203bd7fd06b816789f87de8c594299aed5717ae070fac781bac916104956115ff565b8060005260016020527fffffffffffffffffffffffffffffffffffffffffffffffffffffffffffffff0082600020805460ff808216151692839116179055825191825215156020820152a1005b346101705760007ffffffffffffffffffffffffffffffffffffffffffffffffffffffffffffffffc3601126101705760206040517f00000000000000000000000000000000000000000000000000000000000000008152f35b346101705760807ffffffffffffffffffffffffffffffffffffffffffffffffffffffffffffffffc360112610170576004359073ffffffffffffffffffffffffffffffffffffffff82168203610170576024359073ffffffffffffffffffffffffffffffffffffffff821682036101705760443573ffffffffffffffffffffffffffffffffffffffff81168091036101705773ffffffffffffffffffffffffffffffffffffffff0361119f57506060604080516105f7816111df565b600081526000602082015201526040519060807f000000000000000000000000000000000000000000000000000000000000000060061b8301016040526000825260006020830152606082018060408401527f0000000000000000000000000000000000000000000000000000000000000000905260006040805161067b816111df565b82815282602082015201526000916000925b7f0000000000000000000000000000000000000000000000000000000000000000841080611176575b1561108d57600091600b8510159182610aff5773ffffffffffffffffffffffffffffffffffffffff866002015416936040517f6982eb0b00000000000000000000000000000000000000000000000000000000815273ffffffffffffffffffffffffffffffffffffffff8916600482015273ffffffffffffffffffffffffffffffffffffffff8716602482015260006044820152602081606481895afa908115610af35760009161106e575b50915b73ffffffffffffffffffffffffffffffffffffffff8316151580611045575b1561102f5773ffffffffffffffffffffffffffffffffffffffff831660005260016020528460ff6040600020541661101f57506107c090611258565b9160009085610aff576000808b60405173ffffffffffffffffffffffffffffffffffffffff60208201927feb85226d000000000000000000000000000000000000000000000000000000008452818716602484015216604482015273ffffffffffffffffffffffffffffffffffffffff8c16606482015260648152610844816111fb565b51908a5afa916108526112b1565b9280611013575b15611003576108678a6111c7565b905490600a60ff838360031b1c1610156102435760031b1c60ff166002148015610fde575b8015610fb9575b15610f7e57604083805181010312610170576108bd60406108b66020860161130f565b940161130f565b81610efd576040516108ce816111df565b7f92e3cc2d0000000000000000000000000000000000000000000000000000000081527f5e0d443f0000000000000000000000000000000000000000000000000000000060208201527f556d6e9f000000000000000000000000000000000000000000000000000000006040820152925b88610aff576000807fffffffff000000000000000000000000000000000000000000000000000000008651166040516020810191825273ffffffffffffffffffffffffffffffffffffffff851660248201526024815261099e816111df565b51908d5afa926109ac6112b1565b9380610ef1575b15610e4c579089959493929160089015610cdd575b83526fffffffffffffffffffffffffffffffff91610a07610a026109ee8589168761131d565b516109fb8685168861131d565b5190611331565b61137d565b95612710610a2781610a1b8785168961131d565b5104968685169061131d565b51048515159081610cd3575b50610b2e575b50505050505050610aff57610a4d90611258565b6040517f6982eb0b00000000000000000000000000000000000000000000000000000000815273ffffffffffffffffffffffffffffffffffffffff89811660048301528716602482015260448101829052909690602081606481895afa908115610af357600091610ac4575b50915b969096610765565b610ae6915060203d602011610aec575b610ade8183611217565b810190611285565b89610ab9565b503d610ad4565b6040513d6000823e3d90fd5b7f4e487b7100000000000000000000000000000000000000000000000000000000600052603260045260246000fd5b6000807fffffffff000000000000000000000000000000000000000000000000000000006020890151166040516020810191825284600f0b602482015285600f0b604482015288606482015260648152610b87816111fb565b5190865afa93610b956112b1565b9685158015610cc8575b610c55575b505050505080610c49575b610bbd575b80808080610a39565b90919250602082805181010312610170576020610bdb9201516114c0565b60405180604081011067ffffffffffffffff604083011117610c1a578692610c1192604083016040528252602082015285611596565b50898080610bb4565b7f4e487b7100000000000000000000000000000000000000000000000000000000600052604160045260246000fd5b50602082511015610baf565b600096975086955060407fffffffff00000000000000000000000000000000000000000000000000000000910151169281604051936020850195865216602484015216604482015285606482015260648152610cb0816111fb565b51915afa90610cbd6112b1565b918d80808080610ba4565b506020885110610b9f565b9050151538610a33565b9550610ce88d6111c7565b96905496600a60ff898360031b1c161015610243578b978f9160031b1c60ff166001148015610e20575b8015610df4575b8015610dc9575b8015610d9d575b15610d3657505060045b6109c8565b60ff919750610d44906111c7565b90549060031b1c1695600a871015610243578d60068c9814600014610d6c57505060036109c8565b60ff919750610d7a906111c7565b90549060031b1c1695600a8710156102435760038b9703610d31575060026109c8565b5060ff919750610dac906111c7565b90549060031b1c1695600a871015610243578d60098c9814610d27565b5060ff919750610dd8906111c7565b90549060031b1c1695600a871015610243578d818c9814610d20565b5060ff919750610e03906111c7565b90549060031b1c1695600a871015610243578d60078c9814610d19565b5060ff919750610e2f906111c7565b90549060031b1c1695600a871015610243578d60058c9814610d12565b5050505050509250610e5f600093611258565b6040517f6982eb0b00000000000000000000000000000000000000000000000000000000815273ffffffffffffffffffffffffffffffffffffffff89811660048301528716602482015260448101829052909690602081606481895afa908115610af357600091610ed2575b5091610abc565b610eeb915060203d602011610aec57610ade8183611217565b89610ecb565b506040845110156109b3565b604051610f09816111df565b7f59f4f3510000000000000000000000000000000000000000000000000000000081527f07211ef70000000000000000000000000000000000000000000000000000000060208201527f85f11d1e0000000000000000000000000000000000000000000000000000000060408201529261093f565b5060608280518101031261017057610f986020830161130f565b916060610fa76040830161130f565b910151801515810361017057906108bd565b5060ff610fc58b6111c7565b90549060031b1c16600a81101561024357600614610893565b5060ff610fea8b6111c7565b90549060031b1c16600a8110156102435760031461088c565b5050509250610e5f600093611258565b50604083511015610859565b909250610aff57610e5f90611258565b945050509361103e9150611258565b929061068d565b507f00000000000000000000000000000000000000000000000000000000000000008110610784565b611087915060203d602011610aec57610ade8183611217565b89610762565b506000806020830151806040850151526000905b8082106110cf5760408484806110be575b82519182526020820152f35b90816110c991611344565b906110b2565b90916110df83604087015161131d565b519360208501948551606481029080820460641490151715611147576111086064358951611331565b1161113b579161112a6111329261112460019551895190611331565b906115f2565b9551906115f2565b925b01906110a1565b50935091600190611134565b7f4e487b7100000000000000000000000000000000000000000000000000000000600052601160045260246000fd5b507f000000000000000000000000000000000000000000000000000000000000000081106106b6565b807fccf7e6f70000000000000000000000000000000000000000000000000000000060049252fd5b90600b821015610aff57601f8260051c600d01921690565b6060810190811067ffffffffffffffff821117610c1a57604052565b60a0810190811067ffffffffffffffff821117610c1a57604052565b90601f7fffffffffffffffffffffffffffffffffffffffffffffffffffffffffffffffe0910116810190811067ffffffffffffffff821117610c1a57604052565b7fffffffffffffffffffffffffffffffffffffffffffffffffffffffffffffffff81146111475760010190565b90816020910312610170575173ffffffffffffffffffffffffffffffffffffffff811681036101705790565b3d1561130a573d9067ffffffffffffffff8211610c1a57604051916112fe60207fffffffffffffffffffffffffffffffffffffffffffffffffffffffffffffffe0601f8401160184611217565b82523d6000602084013e565b606090565b519081600f0b820361017057565b8051821015610aff5760209160051b010190565b8181029291811591840414171561114757565b811561134e570490565b7f4e487b7100000000000000000000000000000000000000000000000000000000600052601260045260246000fd5b80156114ba57611448816000908360801c806114ae575b508060401c806114a1575b508060201c80611494575b508060101c80611487575b508060081c8061147a575b508060041c8061146d575b508060021c80611460575b50600191828092811c611459575b1c1b6113f08185611344565b01811c6113fd8185611344565b01811c61140a8185611344565b01811c6114178185611344565b01811c6114248185611344565b01811c6114318185611344565b01811c61143e8185611344565b01901c8092611344565b80821015611454575090565b905090565b01816113e4565b60029150910190386113d6565b60049150910190386113cb565b60089150910190386113c0565b60109150910190386113b5565b60209150910190386113aa565b604091509101903861139f565b91505060809038611394565b50600090565b670de0b6b3a764000091828202917fffffffffffffffffffffffffffffffffffffffffffffffffffffffffffffffff84820993838086109503948086039514611586578483111561155c5782910981600003821680920460028082600302188083028203028083028203028083028203028083028203028083028203028092029003029360018380600003040190848311900302920304170290565b60046040517f227bc153000000000000000000000000000000000000000000000000000000008152fd5b5050906115939250611344565b90565b90602081019081516115aa57505050600090565b6115cb60408401519160208501928351916115c5838361131d565b5261131d565b506115d68151611258565b90525190805182116115ea575b5050600190565b5238806115e3565b9190820180921161114757565b73ffffffffffffffffffffffffffffffffffffffff60005416330361162057565b60246040517f118cdaa7000000000000000000000000000000000000000000000000000000008152336004820152fdfea26469706673582212206b228b06a4ccfb1173e0ddd7aa621ac41ab36fcba9ee33c1b4c338e361264c2264736f6c63430008170033"
}