{
  "address": "0x1A75DF59f464a70Cc8f7383983852FF72e5F5167",
  "abi": [
    {
      "inputs": [
        {
          "internalType": "contract IStaticATokenFactory",
          "name": "staticATokenFactory",
          "type": "address"
        }
      ],
      "stateMutability": "nonpayable",
      "type": "constructor"
    },
    {
      "inputs": [],
      "name": "NotAddedMarket",
      "type": "error"
    },
    {
      "inputs": [],
      "name": "NotRemovedMarket",
      "type": "error"
    },
    {
      "inputs": [],
      "name": "NotSupportedToken",
      "type": "error"
    },
    {
      "inputs": [],
      "name": "FACTORY",
      "outputs": [
        {
          "internalType": "contract IStaticATokenFactory",
          "name": "",
          "type": "address"
        }
      ],
      "stateMutability": "view",
      "type": "function"
    },
    {
      "inputs": [
        {
          "internalType": "contract IERC20[]",
          "name": "tokens",
          "type": "address[]"
        }
      ],
      "name": "addMarkets",
      "outputs": [],
      "stateMutability": "nonpayable",
      "type": "function"
    },
    {
      "inputs": [
        {
          "internalType": "contract IERC20[]",
          "name": "tokens",
          "type": "address[]"
        }
      ],
      "name": "removeMarkets",
      "outputs": [],
      "stateMutability": "nonpayable",
      "type": "function"
    },
    {
      "inputs": [
        {
          "internalType": "contract IERC20",
          "name": "",
          "type": "address"
        }
      ],
      "name": "stataTokenToToken",
      "outputs": [
        {
          "internalType": "contract IERC20",
          "name": "",
          "type": "address"
        }
      ],
      "stateMutability": "view",
      "type": "function"
    },
    {
      "inputs": [
        {
          "internalType": "contract IERC20",
          "name": "",
          "type": "address"
        }
      ],
      "name": "tokenToStataToken",
      "outputs": [
        {
          "internalType": "contract IERC20",
          "name": "",
          "type": "address"
        }
      ],
      "stateMutability": "view",
      "type": "function"
    },
    {
      "inputs": [
        {
          "internalType": "contract IERC20",
          "name": "token",
          "type": "address"
        }
      ],
      "name": "wrap",
      "outputs": [
        {
          "internalType": "contract IERC20",
          "name": "wrappedToken",
          "type": "address"
        },
        {
          "internalType": "uint256",
          "name": "rate",
          "type": "uint256"
        }
      ],
      "stateMutability": "view",
      "type": "function"
    }
  ],
  "args": [
    "0x691C316b2Eec7e64d17e7E3E01f3dB44c9CcEf19"
  ],
  "numDeployments": 1,
  "bytecode": "0x60a03461007757601f61093c38819003918201601f19168301916001600160401b0383118484101761007c5780849260209460405283398101031261007757516001600160a01b0381168103610077576080526040516108a99081610093823960805181818160900152818161021101526103f30152f35b600080fd5b634e487b7160e01b600052604160045260246000fdfe604060808152600490600436101561001657600080fd5b600091823560e01c8063023276f01461047c5780630b4fe5b1146104175780632dd31000146103a857806337edb48614610344578063bfef7bdf146101e35763da40385d1461006457600080fd5b346101df5782906100743661057b565b90829373ffffffffffffffffffffffffffffffffffffffff93847f000000000000000000000000000000000000000000000000000000000000000016955b84518110156101db57856100c68287610804565b51168351907fed5d0f580000000000000000000000000000000000000000000000000000000082528582015260209081816024818c5afa9081156101d15790889185916101a4575b5016801561017c5790829160018961012782968b610804565b5116928287528681528787207fffffffffffffffffffffffff000000000000000000000000000000000000000094858254161790558a610167868c610804565b511687525285852091825416179055016100b2565b8585517f54279e74000000000000000000000000000000000000000000000000000000008152fd5b6101c49150833d85116101ca575b6101bc818361050b565b810190610847565b8a61010e565b503d6101b2565b85513d86823e3d90fd5b5080f35b8280fd5b509190346103405782906101f63661057b565b908373ffffffffffffffffffffffffffffffffffffffff94857f000000000000000000000000000000000000000000000000000000000000000016905b845181101561033c57866102478287610804565b51168451907fed5d0f58000000000000000000000000000000000000000000000000000000008252878201526020908181602481875afa908115610332579089918691610315575b501680156102ed579060019291855284815282868620917fffffffffffffffffffffffff0000000000000000000000000000000000000000928381541690558a6102d9858b610804565b511687525285852090815416905501610233565b8786517f7b609a5b000000000000000000000000000000000000000000000000000000008152fd5b61032c9150833d85116101ca576101bc818361050b565b8a61028f565b86513d87823e3d90fd5b8280f35b5080fd5b5050346103405760207ffffffffffffffffffffffffffffffffffffffffffffffffffffffffffffffffc360112610340576020918173ffffffffffffffffffffffffffffffffffffffff91826103986104e3565b1681528085522054169051908152f35b50503461034057817ffffffffffffffffffffffffffffffffffffffffffffffffffffffffffffffffc360112610340576020905173ffffffffffffffffffffffffffffffffffffffff7f0000000000000000000000000000000000000000000000000000000000000000168152f35b5050346103405760207ffffffffffffffffffffffffffffffffffffffffffffffffffffffffffffffffc360112610340576020918173ffffffffffffffffffffffffffffffffffffffff918261046b6104e3565b168152600185522054169051908152f35b8284346104e05760207ffffffffffffffffffffffffffffffffffffffffffffffffffffffffffffffffc3601126104e057506104be6104b96104e3565b610639565b73ffffffffffffffffffffffffffffffffffffffff8351921682526020820152f35b80fd5b6004359073ffffffffffffffffffffffffffffffffffffffff8216820361050657565b600080fd5b90601f7fffffffffffffffffffffffffffffffffffffffffffffffffffffffffffffffe0910116810190811067ffffffffffffffff82111761054c57604052565b7f4e487b7100000000000000000000000000000000000000000000000000000000600052604160045260246000fd5b6020807ffffffffffffffffffffffffffffffffffffffffffffffffffffffffffffffffc8301126105065767ffffffffffffffff91600435838111610506578160238201121561050657806004013593841161054c578360051b90604051946105e7602084018761050b565b85526024602086019282010192831161050657602401905b82821061060d575050505090565b813573ffffffffffffffffffffffffffffffffffffffff811681036105065781529083019083016105ff565b73ffffffffffffffffffffffffffffffffffffffff908116600081815260208181526040808320546001835281842054919695908116949116841561070957509080600493928751948580927f2c4e722e0000000000000000000000000000000000000000000000000000000082525afa9586156106fe575081956106c7575b505050633b9aca0090920490565b909180939550813d83116106f7575b6106e0818361050b565b810103126104e057505191633b9aca0038806106b9565b503d6106d6565b51913d9150823e3d90fd5b93505082156107db578451907f2c4e722e0000000000000000000000000000000000000000000000000000000082528082600481875afa9586156107d25750829561079e575b50508315610771575091722cd76fe086b93ce2f768a00b22a000000000000490565b807f4e487b7100000000000000000000000000000000000000000000000000000000602492526012600452fd5b9080929550813d83116107cb575b6107b6818361050b565b810103126107c7575192388061074f565b8380fd5b503d6107ac565b513d84823e3d90fd5b600485517fc8a08d6f000000000000000000000000000000000000000000000000000000008152fd5b80518210156108185760209160051b010190565b7f4e487b7100000000000000000000000000000000000000000000000000000000600052603260045260246000fd5b90816020910312610506575173ffffffffffffffffffffffffffffffffffffffff81168103610506579056fea2646970667358221220eca043572bc29b42bc7dd4d4b4adc09ecb925401dc9d4e52612d166b830a387664736f6c63430008170033"
}