{
  "address": "0xFbF54317e4820B461E7fA1B2819B6755e1cc0F62",
  "abi": [
    {
      "inputs": [
        {
          "internalType": "contract IUniswapV4StateView",
          "name": "_stateView",
          "type": "address"
        },
        {
          "internalType": "uint24[]",
          "name": "_fees",
          "type": "uint24[]"
        },
        {
          "internalType": "int24[]",
          "name": "_spacings",
          "type": "int24[]"
        }
      ],
      "stateMutability": "nonpayable",
      "type": "constructor"
    },
    {
      "inputs": [],
      "name": "ConnectorShouldBeNone",
      "type": "error"
    },
    {
      "inputs": [],
      "name": "PoolNotFound",
      "type": "error"
    },
    {
      "inputs": [],
      "name": "PoolWithConnectorNotFound",
      "type": "error"
    },
    {
      "inputs": [],
      "name": "STATE_VIEW",
      "outputs": [
        {
          "internalType": "contract IUniswapV4StateView",
          "name": "",
          "type": "address"
        }
      ],
      "stateMutability": "view",
      "type": "function"
    },
    {
      "inputs": [
        {
          "internalType": "uint256",
          "name": "",
          "type": "uint256"
        }
      ],
      "name": "fees",
      "outputs": [
        {
          "internalType": "uint24",
          "name": "",
          "type": "uint24"
        }
      ],
      "stateMutability": "view",
      "type": "function"
    },
    {
      "inputs": [
        {
          "internalType": "contract IERC20",
          "name": "srcToken",
          "type": "address"
        },
        {
          "internalType": "contract IERC20",
          "name": "dstToken",
          "type": "address"
        },
        {
          "internalType": "contract IERC20",
          "name": "connector",
          "type": "address"
        },
        {
          "internalType": "uint256",
          "name": "thresholdFilter",
          "type": "uint256"
        }
      ],
      "name": "getRate",
      "outputs": [
        {
          "internalType": "uint256",
          "name": "rate",
          "type": "uint256"
        },
        {
          "internalType": "uint256",
          "name": "weight",
          "type": "uint256"
        }
      ],
      "stateMutability": "view",
      "type": "function"
    },
    {
      "inputs": [
        {
          "internalType": "uint256",
          "name": "",
          "type": "uint256"
        }
      ],
      "name": "spacings",
      "outputs": [
        {
          "internalType": "int24",
          "name": "",
          "type": "int24"
        }
      ],
      "stateMutability": "view",
      "type": "function"
    }
  ],
  "transactionHash": "0x201531e9d49479e889d83c5d20fca1be6b2c4f5accf0decdc0a25821c1459c31",
  "args": [
    "0xc3c9e198c735a4b97e3e683f391ccbdd60b69286",
    [
      100,
      500,
      3000,
      10000
    ],
    [
      1,
      10,
      60,
      200
    ]
  ],
  "numDeployments": 1,
  "bytecode": "0x60a0604052346200040c5762001173803803806200001d816200042e565b92833981016060828203126200040c578151906001600160a01b03821682036200040c576020838101519091906001600160401b03908181116200040c57850182601f820112156200040c57805195620000816200007b8862000454565b6200042e565b9185838981520186819960051b830101918683116200040c578701905b82821062000411575050506040810151908382116200040c57019483601f870112156200040c57855193620000d76200007b8662000454565b968688878152019087829760051b8201019283116200040c578701905b828210620003f1575050506080525193818511620003db576801000000000000000090818611620003db57600096875487895587818110620003a5575b505087805285882096600a97888204918a5b838110620003565750828a0290038062000302575b5050505051918211620002ee578111620002da57600191825482845580831062000280575b50928286528086209385830495875b8781106200022e575086028084039303620001d6575b604051610ced908162000486823960805181818160f3015281816106a90152818161073e0152818161084701526108d60152f35b929190865b828110620001f7575050505050015538808080808080620001a2565b9091928262000221869983975160020b908560030260031b9162ffffff809116831b921b19161790565b98019493929101620001db565b8590898a5b868582106200024957505081890155016200018c565b90959293916200027290845160020b908860030260031b9162ffffff809116831b921b19161790565b920194019087929162000233565b620002ae90848852858820876009818188010483019360038389060280620002b5575b50010401906200046c565b386200017d565b620002d3906000198701908154906000199060200360031b1c169055565b38620002a3565b634e487b7160e01b85526041600452602485fd5b634e487b7160e01b86526041600452602486fd5b928a938b5b8a82821062000320575050505001553880808062000158565b6200034b849762ffffff60019495965116908560030260031b9162ffffff809116831b921b19161790565b960192910162000307565b8b8c5b8b8d8210620003715750508382015560010162000143565b6200039b889362ffffff6001949a5116908a60030260031b9162ffffff809116831b921b19161790565b9201960162000359565b620003d3918a8052600a60098a8d20926003838084880104860196060280620002b55750010401906200046c565b388762000131565b634e487b7160e01b600052604160045260246000fd5b81518060020b81036200040c578152908701908701620000f4565b600080fd5b815162ffffff811681036200040c5781529087019087016200009e565b6040519190601f01601f191682016001600160401b03811183821017620003db57604052565b6001600160401b038111620003db5760051b60200190565b81811062000478575050565b600081556001016200046c56fe608080604052600436101561001357600080fd5b60003560e01c9081633d549b3214610172575080634acc79ed14610117578063aa4cfccd146100a85763e47daf6c1461004b57600080fd5b346100a35760207ffffffffffffffffffffffffffffffffffffffffffffffffffffffffffffffffc3601126100a3576004356001548110156100a35761009260209161048a565b90546040519160031b1c60020b8152f35b600080fd5b346100a35760007ffffffffffffffffffffffffffffffffffffffffffffffffffffffffffffffffc3601126100a357602060405173ffffffffffffffffffffffffffffffffffffffff7f0000000000000000000000000000000000000000000000000000000000000000168152f35b346100a35760207ffffffffffffffffffffffffffffffffffffffffffffffffffffffffffffffffc3601126100a3576004356000548110156100a35762ffffff61016260209261041d565b9190546040519260031b1c168152f35b346100a35760807ffffffffffffffffffffffffffffffffffffffffffffffffffffffffffffffffc3601126100a35773ffffffffffffffffffffffffffffffffffffffff8060043516600435036100a3578060243516602435036100a3576044358181168091036100a357036103f557600054600154906101f382826104c9565b916040516060810181811067ffffffffffffffff8211176103c6576060916040918252600081526000602082015201526040519260808160061b8501016040526000845260006020850152606084018060408601525260005b82811061033c57836000806020830151806040850151526000905b808210610295576040848480610284575b82519182526020820152f35b908161028f91610571565b90610278565b90916102a5836040870151610b2c565b51936020850194855160648102908082046064149015171561030d576102ce60643589516104c9565b1161030157916102f06102f8926102ea600195518951906104c9565b90610bbe565b955190610bbe565b925b0190610267565b509350916001906102fa565b7f4e487b7100000000000000000000000000000000000000000000000000000000600052601160045260246000fd5b60005b82811061034f575060010161024c565b61038662ffffff61035f8461041d565b91905460039261036e8661048a565b905490851b1c60020b931b1c166024356004356105aa565b919060405180604081011067ffffffffffffffff6040830111176103c6576001936103bf92604083016040528252602082015287610b40565b500161033f565b7f4e487b7100000000000000000000000000000000000000000000000000000000600052604160045260246000fd5b807fccf7e6f70000000000000000000000000000000000000000000000000000000060049252fd5b9060005482101561045b57600080526003600a8084047f290decd9548b62a8d60345a988386fc84ba6bc95484008f6362f93160ef3e5630193060290565b7f4e487b7100000000000000000000000000000000000000000000000000000000600052603260045260246000fd5b9060015482101561045b5760016000526003600a8084047fb10e2d527612073b26eecdfd717e6a320cf44b4afac2b0732d9fcbe2b7fa0cf60193060290565b8181029291811591840414171561030d57565b90601f7fffffffffffffffffffffffffffffffffffffffffffffffffffffffffffffffe0910116810190811067ffffffffffffffff8211176103c657604052565b51906fffffffffffffffffffffffffffffffff821682036100a357565b519062ffffff821682036100a357565b91908260409103126100a35760206105618361051d565b92015180600f0b81036100a35790565b811561057b570490565b7f4e487b7100000000000000000000000000000000000000000000000000000000600052601260045260246000fd5b92919273ffffffffffffffffffffffffffffffffffffffff811673ffffffffffffffffffffffffffffffffffffffff8316808210600014610b1f57505090926001915b6040519160a0830183811067ffffffffffffffff8211176103c65762ffffff9273ffffffffffffffffffffffffffffffffffffffff9160405216835273ffffffffffffffffffffffffffffffffffffffff602096168684015216604082015260a08360020b9182606082015260006080820152206040517ffa6793d5000000000000000000000000000000000000000000000000000000008152816004820152858160248173ffffffffffffffffffffffffffffffffffffffff7f0000000000000000000000000000000000000000000000000000000000000000165afa801561098357600090610adb575b6fffffffffffffffffffffffffffffffff915016918215610acd57604051957fc815641c00000000000000000000000000000000000000000000000000000000875282600488015260808760248173ffffffffffffffffffffffffffffffffffffffff7f0000000000000000000000000000000000000000000000000000000000000000165afa908115610983576000978892610a45575b505060020b811561057b577fffffffffffffffffffffffffffffffffffffffffffffffffffffffffffffffff82147fffffffffffffffffffffffffffffffffffffffffffffffffffffffffff80000082141661030d5781900560020b0293848060020b0361030d5782948560005b8795600282810b136109c257604080517fcaedab5400000000000000000000000000000000000000000000000000000000815260048101889052600286810b858902820b01900b6024820152908160448173ffffffffffffffffffffffffffffffffffffffff7f0000000000000000000000000000000000000000000000000000000000000000165afa908115610983576000916109a1575b50600f0b019182808210911802821897821561098f57604080517fcaedab5400000000000000000000000000000000000000000000000000000000815260048101889052868402600290810b87820b03900b602482015290816044817f000000000000000000000000000000000000000000000000000000000000000073ffffffffffffffffffffffffffffffffffffffff165afa90811561098357600091610952575b50600f0b8091039889808210911802891896146109415760010160020b9490946107df565b505050505050505050600090600090565b610974915060403d60401161097c575b61096c81836104dc565b81019061054a565b90503861091c565b503d610962565b6040513d6000823e3d90fd5b50505050505050505050600090600090565b6109ba915060403d60401161097c5761096c81836104dc565b905038610878565b5050969550505050506000146109fd576109f573ffffffffffffffffffffffffffffffffffffffff6109fa921680610bcb565b610c4a565b91565b73ffffffffffffffffffffffffffffffffffffffff16801561057b57806109fa917f0de0b6b3a764000000000000000000000000000000000000000000000000000004610571565b9091506080813d608011610ac5575b81610a61608093836104dc565b81010312610ac15780519173ffffffffffffffffffffffffffffffffffffffff83168303610abd57810151978860020b8903610aba5750606081610aaa6040610ab1940161053a565b500161053a565b50953880610771565b80fd5b8880fd5b8780fd5b3d9150610a54565b505050505050600090600090565b508581813d8311610b18575b610af181836104dc565b810103126100a357610b136fffffffffffffffffffffffffffffffff9161051d565b6106d9565b503d610ae7565b90946000935091506105ed565b805182101561045b5760209160051b010190565b9060208101908151610b5457505050600090565b610b756040840151916020850192835191610b6f8383610b2c565b52610b2c565b5080517fffffffffffffffffffffffffffffffffffffffffffffffffffffffffffffffff811461030d576001019052519080518211610bb6575b5050600190565b523880610baf565b9190820180921161030d57565b7fffffffffffffffffffffffffffffffffffffffffffffffffffffffffffffffff8282099082810292838084109303928084039314610c41576c010000000000000000000000009183831115610c2e570990828211900360a01b910360601c1790565b634e487b7160005260116020526024601cfd5b50505060601c90565b670de0b6b3a7640000907fffffffffffffffffffffffffffffffffffffffffffffffffffffffffffffffff8282099082810292838084109303928084039314610c41576c010000000000000000000000009183831115610c2e570990828211900360a01b910360601c179056fea264697066735822122098576f4173c48fdcc54a6b437d20f1e288cc4778d3cb26282ed34ecc6a78ca8664736f6c63430008170033"
}