{
  "address": "0x98484d4259A70B73af58180521f2eB71a3F00Ae6",
  "abi": [
    {
      "inputs": [
        {
          "internalType": "contract MultiWrapper",
          "name": "_multiWrapper",
          "type": "address"
        },
        {
          "internalType": "contract IOracle[]",
          "name": "existingOracles",
          "type": "address[]"
        },
        {
          "internalType": "contract IERC20[]",
          "name": "existingConnectors",
          "type": "address[]"
        }
      ],
      "stateMutability": "nonpayable",
      "type": "constructor"
    },
    {
      "anonymous": false,
      "inputs": [
        {
          "indexed": false,
          "internalType": "contract IERC20",
          "name": "connector",
          "type": "address"
        }
      ],
      "name": "ConnectorAdded",
      "type": "event"
    },
    {
      "anonymous": false,
      "inputs": [
        {
          "indexed": false,
          "internalType": "contract IERC20",
          "name": "connector",
          "type": "address"
        }
      ],
      "name": "ConnectorRemoved",
      "type": "event"
    },
    {
      "anonymous": false,
      "inputs": [
        {
          "indexed": false,
          "internalType": "contract MultiWrapper",
          "name": "multiWrapper",
          "type": "address"
        }
      ],
      "name": "MultiWrapperUpdated",
      "type": "event"
    },
    {
      "anonymous": false,
      "inputs": [
        {
          "indexed": false,
          "internalType": "contract IOracle",
          "name": "oracle",
          "type": "address"
        }
      ],
      "name": "OracleAdded",
      "type": "event"
    },
    {
      "anonymous": false,
      "inputs": [
        {
          "indexed": false,
          "internalType": "contract IOracle",
          "name": "oracle",
          "type": "address"
        }
      ],
      "name": "OracleRemoved",
      "type": "event"
    },
    {
      "anonymous": false,
      "inputs": [
        {
          "indexed": true,
          "internalType": "address",
          "name": "previousOwner",
          "type": "address"
        },
        {
          "indexed": true,
          "internalType": "address",
          "name": "newOwner",
          "type": "address"
        }
      ],
      "name": "OwnershipTransferred",
      "type": "event"
    },
    {
      "inputs": [
        {
          "internalType": "contract IERC20",
          "name": "connector",
          "type": "address"
        }
      ],
      "name": "addConnector",
      "outputs": [],
      "stateMutability": "nonpayable",
      "type": "function"
    },
    {
      "inputs": [
        {
          "internalType": "contract IOracle",
          "name": "oracle",
          "type": "address"
        }
      ],
      "name": "addOracle",
      "outputs": [],
      "stateMutability": "nonpayable",
      "type": "function"
    },
    {
      "inputs": [],
      "name": "connectors",
      "outputs": [
        {
          "internalType": "contract IERC20[]",
          "name": "allConnectors",
          "type": "address[]"
        }
      ],
      "stateMutability": "view",
      "type": "function"
    },
    {
      "inputs": [
        {
          "internalType": "contract IERC20",
          "name": "srcToken",
          "type": "address"
        },
        {
          "internalType": "contract IERC20",
          "name": "dstToken",
          "type": "address"
        }
      ],
      "name": "getRate",
      "outputs": [
        {
          "internalType": "uint256",
          "name": "weightedRate",
          "type": "uint256"
        }
      ],
      "stateMutability": "view",
      "type": "function"
    },
    {
      "inputs": [],
      "name": "multiWrapper",
      "outputs": [
        {
          "internalType": "contract MultiWrapper",
          "name": "",
          "type": "address"
        }
      ],
      "stateMutability": "view",
      "type": "function"
    },
    {
      "inputs": [],
      "name": "oracles",
      "outputs": [
        {
          "internalType": "contract IOracle[]",
          "name": "allOracles",
          "type": "address[]"
        }
      ],
      "stateMutability": "view",
      "type": "function"
    },
    {
      "inputs": [],
      "name": "owner",
      "outputs": [
        {
          "internalType": "address",
          "name": "",
          "type": "address"
        }
      ],
      "stateMutability": "view",
      "type": "function"
    },
    {
      "inputs": [
        {
          "internalType": "contract IERC20",
          "name": "connector",
          "type": "address"
        }
      ],
      "name": "removeConnector",
      "outputs": [],
      "stateMutability": "nonpayable",
      "type": "function"
    },
    {
      "inputs": [
        {
          "internalType": "contract IOracle",
          "name": "oracle",
          "type": "address"
        }
      ],
      "name": "removeOracle",
      "outputs": [],
      "stateMutability": "nonpayable",
      "type": "function"
    },
    {
      "inputs": [],
      "name": "renounceOwnership",
      "outputs": [],
      "stateMutability": "nonpayable",
      "type": "function"
    },
    {
      "inputs": [
        {
          "internalType": "contract MultiWrapper",
          "name": "_multiWrapper",
          "type": "address"
        }
      ],
      "name": "setMultiWrapper",
      "outputs": [],
      "stateMutability": "nonpayable",
      "type": "function"
    },
    {
      "inputs": [
        {
          "internalType": "address",
          "name": "newOwner",
          "type": "address"
        }
      ],
      "name": "transferOwnership",
      "outputs": [],
      "stateMutability": "nonpayable",
      "type": "function"
    }
  ],
  "transactionHash": "0x4ad5c602a10d562205b758508f81729e3cbd51f12c9bb8ce0e9b174cd7451e54",
  "args": [
    "0x6DF58bcf86039c78792629D5765966230B52fB9E",
    [
      "0xA83fCeA9229C7f1e02Acb46ABe8D6889259339e8"
    ],
    []
  ],
  "solcInputHash": "df628ebd5fbee88a5f24005a25f81131",
  "bytecode": "0x60806040523480156200001c576000806200001962000584565b50505b506040516200265e3803806200265e833981810160405260608110156200004d576000806200004a62000584565b50505b8101908080519291906020018051604051939291908464010000000082111562000081576000806200007e62000584565b50505b908301906020820185811115620000a2576000806200009f62000584565b50505b8251866020820283011164010000000082111715620000cb57600080620000c862000584565b50505b825250602001908051906020019060200280838360005b83811015620000fc578082015183820152602001620000e2565b505050509050016040526020018051604051939291908464010000000082111562000131576000806200012e62000584565b50505b90830190602082018581111562000152576000806200014f62000584565b50505b82518660208202830111640100000000821117156200017b576000806200017862000584565b50505b825250602001908051906020019060200280838360005b83811015620001ac57808201518382015260200162000192565b505050509050016040525050506000620001cb6200049f60201b60201c565b9050806000600181620001dd620005f1565b816001600160a01b0302191690836001600160a01b03160217906200020162000653565b5050506001600160a01b03811660007f8be0079c531659141344cd1fd0a4f28419497f9722a3daafe3b4186f6b6457e060405160405180910390a3508260056001816200024d620005f1565b816001600160a01b0302191690836001600160a01b03160217906200027162000653565b5050507f1030152fe2062b574a830e6b9f13c65995990df31e4dc708d142533bb3ad0f52836040516001600160a01b03909116815260200160405180910390a160005b8251811015620003a257620002ed838281518110620002cf57fe5b60200260200101516001620004b160201b620018971790919060201c565b620003495760405162461bcd60e51b815260206004820152601460248201527f4f7261636c6520616c72656164792061646465640000000000000000000000006044820152606401604051809103906200034662000584565b50505b7e47706786c922d17b39285dc59d696bafea72c0b003d3841ae1202076f4c2e48382815181106200037657fe5b60200260200101516040516001600160a01b03909116815260200160405180910390a1600101620002b4565b5060005b81518110156200049557620003df828281518110620003c157fe5b60200260200101516003620004b160201b620018971790919060201c565b6200043b5760405162461bcd60e51b815260206004820152601760248201527f436f6e6e6563746f7220616c72656164792061646465640000000000000000006044820152606401604051809103906200043862000584565b50505b7fff88af5d962d47fd25d87755e8267a029fad5a91740c67d0dade2bdbe5268a1d8282815181106200046957fe5b60200260200101516040516001600160a01b03909116815260200160405180910390a1600101620003a6565b50505050620006e9565b60005a620004ac620006a2565b905090565b6000620004c8836001600160a01b038416620004d1565b90505b92915050565b6000620004df838362000561565b6200055857818380600181620004f4620005f1565b0180826200050162000653565b5050600092835260001901916020915020016200051d62000653565b50839050806200052c620005f1565b6000848152600186016020529091506040902081906200054b62000653565b50505060019050620004cb565b506000620004cb565b600081815260018301602052604081206200057b620005f1565b15159392505050565b632a2a7adb598160e01b8152600481016020815285602082015260005b86811015620005be578086015182820160400152602001620005a1565b506020828760640184336000905af158600e01573d6000803e3d6000fd5b3d6001141558600a015760016000f35b505050565b6303daa959598160e01b8152836004820152602081602483336000905af158600e01573d6000803e3d6000fd5b3d6001141558600a015760016000f35b8051935060005b60408110156200064e5760008282015260200162000635565b505050565b6322bd64c0598160e01b8152836004820152846024820152600081604483336000905af158600e01573d6000803e3d6000fd5b3d6001141558600a015760016000f35b60008152602062000635565b6373509064598160e01b8152602081600483336000905af158600e01573d6000803e3d6000fd5b3d6001141558600a015760016000f35b8051600082529350602062000635565b611f6580620006f96000396000f3fe608060405234801561001957600080610016611c8c565b50505b50600436106100dd5760003560e01c8063aa16d4c01161008a578063df5dd1a511610064578063df5dd1a51461029b578063f2fde38b146102d7578063fdc85fc414610313576100dd565b8063aa16d4c01461021b578063b77910dc14610257578063d06265181461025f576100dd565b806365050a68116100bb57806365050a68146101da578063715018a6146101e25780638da5cb5b146101ea576100dd565b80631a6c6a98146100eb5780632857373a14610129578063379b87ea14610184575b6000806100e8611c8c565b50505b6101276004803603602081101561010a57600080610107611c8c565b50505b503573ffffffffffffffffffffffffffffffffffffffff1661034f565b005b6101316104ca565b60405160208082528190810183818151815260200191508051906020019060200280838360005b83811015610170578082015183820152602001610158565b505050509050019250505060405180910390f35b6101c8600480360360408110156101a3576000806101a0611c8c565b50505b5073ffffffffffffffffffffffffffffffffffffffff81358116916020013516610591565b60405190815260200160405180910390f35b610131610e60565b610127610f23565b6101f261108d565b60405173ffffffffffffffffffffffffffffffffffffffff909116815260200160405180910390f35b6101276004803603602081101561023a57600080610237611c8c565b50505b503573ffffffffffffffffffffffffffffffffffffffff166110bb565b6101f2611236565b6101276004803603602081101561027e5760008061027b611c8c565b50505b503573ffffffffffffffffffffffffffffffffffffffff16611262565b610127600480360360208110156102ba576000806102b7611c8c565b50505b503573ffffffffffffffffffffffffffffffffffffffff166113ac565b610127600480360360208110156102f6576000806102f3611c8c565b50505b503573ffffffffffffffffffffffffffffffffffffffff16611526565b610127600480360360208110156103325760008061032f611c8c565b50505b503573ffffffffffffffffffffffffffffffffffffffff1661171c565b6103576118c0565b73ffffffffffffffffffffffffffffffffffffffff1661037561108d565b73ffffffffffffffffffffffffffffffffffffffff16146103ff576040517f08c379a000000000000000000000000000000000000000000000000000000000815260206004820181905260248201527f4f776e61626c653a2063616c6c6572206973206e6f7420746865206f776e65726044820152606401604051809103906103fc611c8c565b50505b61040a6003826118d0565b61047d576040517f08c379a000000000000000000000000000000000000000000000000000000000815260206004820152601160248201527f556e6b6e6f776e20636f6e6e6563746f7200000000000000000000000000000060448201526064016040518091039061047a611c8c565b50505b7f6825b26a0827e9c2ceca01d6289ce4a40e629dc074ec48ea4727d1afbff359f58160405173ffffffffffffffffffffffffffffffffffffffff909116815260200160405180910390a150565b60606104d660016118f2565b67ffffffffffffffff811180156104f5576000806104f2611c8c565b50505b5060405190808252806020026020018201604052801561051f578160200160208202803683370190505b50905060005b815181101561058d576001818161053a611cf7565b811061054257fe5b90600052602060002001610554611cf7565b82828151811061056057fe5b73ffffffffffffffffffffffffffffffffffffffff90921660209283029190910190910152600101610525565b5090565b60008173ffffffffffffffffffffffffffffffffffffffff168373ffffffffffffffffffffffffffffffffffffffff161415610636576040517f08c379a000000000000000000000000000000000000000000000000000000000815260206004820152601d60248201527f546f6b656e732073686f756c64206e6f74206265207468652073616d65000000604482015260640160405180910390610633611c8c565b50505b60008080806005610645611cf7565b906101000a900473ffffffffffffffffffffffffffffffffffffffff1673ffffffffffffffffffffffffffffffffffffffff1663cb991d94876040517fffffffff0000000000000000000000000000000000000000000000000000000060e084901b16815273ffffffffffffffffffffffffffffffffffffffff909116600482015260240160006040518083038186806106dd611d52565b1580156106f2576000806106ef611c8c565b50505b505a6106fc611d9e565b505050505015801561071b573d6000803e3d6000610718611c8c565b50505b505050506040513d6000823e601f3d9081017fffffffffffffffffffffffffffffffffffffffffffffffffffffffffffffffe0168201604090815281101561076b57600080610768611c8c565b50505b810190808051604051939291908464010000000082111561079457600080610791611c8c565b50505b9083019060208201858111156107b2576000806107af611c8c565b50505b82518660208202830111640100000000821117156107d8576000806107d5611c8c565b50505b825250602001908051906020019060200280838360005b838110156108075780820151838201526020016107ef565b505050509050016040526020018051604051939291908464010000000082111561083957600080610836611c8c565b50505b90830190602082018581111561085757600080610854611c8c565b50505b825186602082028301116401000000008211171561087d5760008061087a611c8c565b50505b825250602001908051906020019060200280838360005b838110156108ac578082015183820152602001610894565b505050509050016040525050509150915060008060056000906108cd611cf7565b906101000a900473ffffffffffffffffffffffffffffffffffffffff1673ffffffffffffffffffffffffffffffffffffffff1663cb991d94886040517fffffffff0000000000000000000000000000000000000000000000000000000060e084901b16815273ffffffffffffffffffffffffffffffffffffffff90911660048201526024016000604051808303818680610965611d52565b15801561097a57600080610977611c8c565b50505b505a610984611d9e565b50505050501580156109a3573d6000803e3d60006109a0611c8c565b50505b505050506040513d6000823e601f3d9081017fffffffffffffffffffffffffffffffffffffffffffffffffffffffffffffffe016820160409081528110156109f3576000806109f0611c8c565b50505b8101908080516040519392919084640100000000821115610a1c57600080610a19611c8c565b50505b908301906020820185811115610a3a57600080610a37611c8c565b50505b8251866020820283011164010000000082111715610a6057600080610a5d611c8c565b50505b825250602001908051906020019060200280838360005b83811015610a8f578082015183820152602001610a77565b5050505090500160405260200180516040519392919084640100000000821115610ac157600080610abe611c8c565b50505b908301906020820185811115610adf57600080610adc611c8c565b50505b8251866020820283011164010000000082111715610b0557600080610b02611c8c565b50505b825250602001908051906020019060200280838360005b83811015610b34578082015183820152602001610b1c565b505050509050016040525050509150915060005b600180610b53611cf7565b9050811015610e475760005b600380610b6a611cf7565b9050811015610e3e5760005b8651811015610e355760005b8551811015610e2c57858181518110610b9757fe5b602002602001015173ffffffffffffffffffffffffffffffffffffffff16888381518110610bc157fe5b602002602001015173ffffffffffffffffffffffffffffffffffffffff161415610c3857610c28670de0b6b3a7640000610c22878481518110610c0057fe5b60200260200101518a8681518110610c1457fe5b6020026020010151906118fd565b9061197f565b9950505050505050505050610e5a565b60018481610c44611cf7565b8110610c4c57fe5b90600052602060002001610c5e611cf7565b73ffffffffffffffffffffffffffffffffffffffff166314999e79898481518110610c8557fe5b6020026020010151888481518110610c9957fe5b602002602001015160038781610cad611cf7565b8110610cb557fe5b90600052602060002001610cc7611cf7565b6040517fffffffff0000000000000000000000000000000000000000000000000000000060e086901b16815273ffffffffffffffffffffffffffffffffffffffff93841660048201529183166024830152909116604482015260640160408051808303818680610d35611d52565b158015610d4a57600080610d47611c8c565b50505b505a610d54611d9e565b5050505050925050508015610d9557506040513d6040811015610d7f57600080610d7c611c8c565b50505b8101908080519291906020018051925060019150505b610d9e57610e24565b610df1670de0b6b3a7640000610c22670de0b6b3a7640000610c228b8881518110610dc557fe5b6020026020010151610deb8f8b81518110610ddc57fe5b602002602001015189906118fd565b906118fd565b9150610dfd81806118fd565b9050610e13610e0c83836118fd565b8d90611a08565b9b50610e1f8b82611a08565b9a5050505b600101610b82565b50600101610b76565b50600101610b5f565b50600101610b48565b50610e52868661197f565b955050505050505b92915050565b6060610e6c60036118f2565b67ffffffffffffffff81118015610e8b57600080610e88611c8c565b50505b50604051908082528060200260200182016040528015610eb5578160200160208202803683370190505b50905060005b815181101561058d5760038181610ed0611cf7565b8110610ed857fe5b90600052602060002001610eea611cf7565b828281518110610ef657fe5b73ffffffffffffffffffffffffffffffffffffffff90921660209283029190910190910152600101610ebb565b610f2b6118c0565b73ffffffffffffffffffffffffffffffffffffffff16610f4961108d565b73ffffffffffffffffffffffffffffffffffffffff1614610fd3576040517f08c379a000000000000000000000000000000000000000000000000000000000815260206004820181905260248201527f4f776e61626c653a2063616c6c6572206973206e6f7420746865206f776e6572604482015260640160405180910390610fd0611c8c565b50505b60008080610fdf611cf7565b906101000a900473ffffffffffffffffffffffffffffffffffffffff1673ffffffffffffffffffffffffffffffffffffffff167f8be0079c531659141344cd1fd0a4f28419497f9722a3daafe3b4186f6b6457e060405160405180910390a360008060018161104c611cf7565b8173ffffffffffffffffffffffffffffffffffffffff021916908373ffffffffffffffffffffffffffffffffffffffff16021790611088611e89565b505050565b60008080611099611cf7565b906101000a900473ffffffffffffffffffffffffffffffffffffffff16905090565b6110c36118c0565b73ffffffffffffffffffffffffffffffffffffffff166110e161108d565b73ffffffffffffffffffffffffffffffffffffffff161461116b576040517f08c379a000000000000000000000000000000000000000000000000000000000815260206004820181905260248201527f4f776e61626c653a2063616c6c6572206973206e6f7420746865206f776e6572604482015260640160405180910390611168611c8c565b50505b611176600382611897565b6111e9576040517f08c379a000000000000000000000000000000000000000000000000000000000815260206004820152601760248201527f436f6e6e6563746f7220616c72656164792061646465640000000000000000006044820152606401604051809103906111e6611c8c565b50505b7fff88af5d962d47fd25d87755e8267a029fad5a91740c67d0dade2bdbe5268a1d8160405173ffffffffffffffffffffffffffffffffffffffff909116815260200160405180910390a150565b60006005611242611cf7565b906101000a900473ffffffffffffffffffffffffffffffffffffffff1681565b61126a6118c0565b73ffffffffffffffffffffffffffffffffffffffff1661128861108d565b73ffffffffffffffffffffffffffffffffffffffff1614611312576040517f08c379a000000000000000000000000000000000000000000000000000000000815260206004820181905260248201527f4f776e61626c653a2063616c6c6572206973206e6f7420746865206f776e657260448201526064016040518091039061130f611c8c565b50505b806005600181611320611cf7565b8173ffffffffffffffffffffffffffffffffffffffff021916908373ffffffffffffffffffffffffffffffffffffffff1602179061135c611e89565b5050507f1030152fe2062b574a830e6b9f13c65995990df31e4dc708d142533bb3ad0f528160405173ffffffffffffffffffffffffffffffffffffffff909116815260200160405180910390a150565b6113b46118c0565b73ffffffffffffffffffffffffffffffffffffffff166113d261108d565b73ffffffffffffffffffffffffffffffffffffffff161461145c576040517f08c379a000000000000000000000000000000000000000000000000000000000815260206004820181905260248201527f4f776e61626c653a2063616c6c6572206973206e6f7420746865206f776e6572604482015260640160405180910390611459611c8c565b50505b611467600182611897565b6114da576040517f08c379a000000000000000000000000000000000000000000000000000000000815260206004820152601460248201527f4f7261636c6520616c72656164792061646465640000000000000000000000006044820152606401604051809103906114d7611c8c565b50505b7e47706786c922d17b39285dc59d696bafea72c0b003d3841ae1202076f4c2e48160405173ffffffffffffffffffffffffffffffffffffffff909116815260200160405180910390a150565b61152e6118c0565b73ffffffffffffffffffffffffffffffffffffffff1661154c61108d565b73ffffffffffffffffffffffffffffffffffffffff16146115d6576040517f08c379a000000000000000000000000000000000000000000000000000000000815260206004820181905260248201527f4f776e61626c653a2063616c6c6572206973206e6f7420746865206f776e65726044820152606401604051809103906115d3611c8c565b50505b73ffffffffffffffffffffffffffffffffffffffff811661164b576040517f08c379a0000000000000000000000000000000000000000000000000000000008152600401808060200182810382526026815260200180611f1e6026913960400191505060405180910390611648611c8c565b50505b8073ffffffffffffffffffffffffffffffffffffffff1660008061166d611cf7565b906101000a900473ffffffffffffffffffffffffffffffffffffffff1673ffffffffffffffffffffffffffffffffffffffff167f8be0079c531659141344cd1fd0a4f28419497f9722a3daafe3b4186f6b6457e060405160405180910390a38060006001816116da611cf7565b8173ffffffffffffffffffffffffffffffffffffffff021916908373ffffffffffffffffffffffffffffffffffffffff16021790611716611e89565b50505050565b6117246118c0565b73ffffffffffffffffffffffffffffffffffffffff1661174261108d565b73ffffffffffffffffffffffffffffffffffffffff16146117cc576040517f08c379a000000000000000000000000000000000000000000000000000000000815260206004820181905260248201527f4f776e61626c653a2063616c6c6572206973206e6f7420746865206f776e65726044820152606401604051809103906117c9611c8c565b50505b6117d76001826118d0565b61184a576040517f08c379a000000000000000000000000000000000000000000000000000000000815260206004820152600e60248201527f556e6b6e6f776e206f7261636c65000000000000000000000000000000000000604482015260640160405180910390611847611c8c565b50505b7f9c8e7d83025bef8a04c664b2f753f64b8814bdb7e27291d7e50935f18cc3c7128160405173ffffffffffffffffffffffffffffffffffffffff909116815260200160405180910390a150565b60006118b98373ffffffffffffffffffffffffffffffffffffffff8416611a81565b9392505050565b60005a6118cb611ed7565b905090565b60006118b98373ffffffffffffffffffffffffffffffffffffffff8416611b20565b6000610e5a82611c5f565b60008261190c57506000610e5a565b8282028284828161191957fe5b04146118b9576040517f08c379a0000000000000000000000000000000000000000000000000000000008152600401808060200182810382526021815260200180611f446021913960400191505060405180910390611976611c8c565b50509392505050565b60008082116119f7576040517f08c379a000000000000000000000000000000000000000000000000000000000815260206004820152601a60248201527f536166654d6174683a206469766973696f6e206279207a65726f0000000000006044820152606401604051809103906119f4611c8c565b50505b818381611a0057fe5b049392505050565b6000828201838110156118b9576040517f08c379a000000000000000000000000000000000000000000000000000000000815260206004820152601b60248201527f536166654d6174683a206164646974696f6e206f766572666c6f770000000000604482015260640160405180910390611976611c8c565b6000611a8d8383611c6b565b611b1857818380600181611a9f611cf7565b018082611aaa611e89565b505060009283527fffffffffffffffffffffffffffffffffffffffffffffffffffffffffffffffff0191602091502001611ae2611e89565b5083905080611aef611cf7565b600084815260018601602052909150604090208190611b0c611e89565b50505060019050610e5a565b506000610e5a565b6000818152600183016020528060408120611b39611cf7565b90508015611c55577fffffffffffffffffffffffffffffffffffffffffffffffffffffffffffffffff8101600060018680611b72611cf7565b90500390506000866000018281611b87611cf7565b8110611b8f57fe5b90600052602060002001611ba1611cf7565b905080878481611baf611cf7565b8110611bb757fe5b906000526020600020018190611bcb611e89565b50505060008181526001888101602052840190604090208190611bec611e89565b5050508660000180611bfc611cf7565b80611c0357fe5b60019003818190600052602060002001600090611c1e611e89565b505090611c29611e89565b505060008681526001880160205260409020600090611c46611e89565b50506001945050505050610e5a565b6000915050610e5a565b600081806118b9611cf7565b60008181526001830160205260408120611c83611cf7565b15159392505050565b632a2a7adb598160e01b8152600481016020815285602082015260005b86811015611cc4578086015182820160400152602001611ca9565b506020828760640184336000905af158600e01573d6000803e3d6000fd5b3d6001141558600a015760016000f35b505050565b6303daa959598160e01b8152836004820152602081602483336000905af158600e01573d6000803e3d6000fd5b3d6001141558600a015760016000f35b8051935060005b604081101561108857600082820152602001611d3b565b638435035b598160e01b8152836004820152602081602483336000905af158600e01573d6000803e3d6000fd5b3d6001141558600a015760016000f35b80516000825293506020611d3b565b638540661f598160e01b8152611dcf565b8080831115610e5a575090919050565b8080831015610e5a575090919050565b836004820152846024820152606060448201528660648201526084810160005b88811015611e07578088015182820152602001611def565b506060828960a40184336000905af158600e01573d6000803e3d6000fd5b3d6001141558600a015760016000f35b815160408301513d6000853e8b8b82606087013350600060045af15059611e5c8d3d611dbf565b8c01611e688187611daf565b5b82811015611e7d5760008152602001611e69565b50929c50505050505050565b6322bd64c0598160e01b8152836004820152846024820152600081604483336000905af158600e01573d6000803e3d6000fd5b3d6001141558600a015760016000f35b600081526020611d3b565b6373509064598160e01b8152602081600483336000905af158600e01573d6000803e3d6000fd5b3d6001141558600a015760016000f35b80516000825293506020611d3b56fe4f776e61626c653a206e6577206f776e657220697320746865207a65726f2061646472657373536166654d6174683a206d756c7469706c69636174696f6e206f766572666c6f77",
  "devdoc": {
    "kind": "dev",
    "methods": {
      "owner()": {
        "details": "Returns the address of the current owner."
      },
      "renounceOwnership()": {
        "details": "Leaves the contract without owner. It will not be possible to call `onlyOwner` functions anymore. Can only be called by the current owner. NOTE: Renouncing ownership will leave the contract without an owner, thereby removing any functionality that is only available to the owner."
      },
      "transferOwnership(address)": {
        "details": "Transfers ownership of the contract to a new account (`newOwner`). Can only be called by the current owner."
      }
    },
    "version": 1
  },
  "userdoc": {
    "kind": "user",
    "methods": {},
    "version": 1
  },
  "storageLayout": {
    "storage": [
      {
        "astId": 7,
        "contract": "contracts/OffchainOracle.sol:OffchainOracle",
        "label": "_owner",
        "offset": 0,
        "slot": "0",
        "type": "t_address"
      },
      {
        "astId": 1500,
        "contract": "contracts/OffchainOracle.sol:OffchainOracle",
        "label": "_oracles",
        "offset": 0,
        "slot": "1",
        "type": "t_struct(AddressSet)841_storage"
      },
      {
        "astId": 1502,
        "contract": "contracts/OffchainOracle.sol:OffchainOracle",
        "label": "_connectors",
        "offset": 0,
        "slot": "3",
        "type": "t_struct(AddressSet)841_storage"
      },
      {
        "astId": 1504,
        "contract": "contracts/OffchainOracle.sol:OffchainOracle",
        "label": "multiWrapper",
        "offset": 0,
        "slot": "5",
        "type": "t_contract(MultiWrapper)1462"
      }
    ],
    "types": {
      "t_address": {
        "encoding": "inplace",
        "label": "address",
        "numberOfBytes": "20"
      },
      "t_array(t_bytes32)dyn_storage": {
        "base": "t_bytes32",
        "encoding": "dynamic_array",
        "label": "bytes32[]",
        "numberOfBytes": "32"
      },
      "t_bytes32": {
        "encoding": "inplace",
        "label": "bytes32",
        "numberOfBytes": "32"
      },
      "t_contract(MultiWrapper)1462": {
        "encoding": "inplace",
        "label": "contract MultiWrapper",
        "numberOfBytes": "20"
      },
      "t_mapping(t_bytes32,t_uint256)": {
        "encoding": "mapping",
        "key": "t_bytes32",
        "label": "mapping(bytes32 => uint256)",
        "numberOfBytes": "32",
        "value": "t_uint256"
      },
      "t_struct(AddressSet)841_storage": {
        "encoding": "inplace",
        "label": "struct EnumerableSet.AddressSet",
        "members": [
          {
            "astId": 840,
            "contract": "contracts/OffchainOracle.sol:OffchainOracle",
            "label": "_inner",
            "offset": 0,
            "slot": "0",
            "type": "t_struct(Set)576_storage"
          }
        ],
        "numberOfBytes": "64"
      },
      "t_struct(Set)576_storage": {
        "encoding": "inplace",
        "label": "struct EnumerableSet.Set",
        "members": [
          {
            "astId": 571,
            "contract": "contracts/OffchainOracle.sol:OffchainOracle",
            "label": "_values",
            "offset": 0,
            "slot": "0",
            "type": "t_array(t_bytes32)dyn_storage"
          },
          {
            "astId": 575,
            "contract": "contracts/OffchainOracle.sol:OffchainOracle",
            "label": "_indexes",
            "offset": 0,
            "slot": "1",
            "type": "t_mapping(t_bytes32,t_uint256)"
          }
        ],
        "numberOfBytes": "64"
      },
      "t_uint256": {
        "encoding": "inplace",
        "label": "uint256",
        "numberOfBytes": "32"
      }
    }
  }
}