{
  "address": "0x31B81f9D03EEe1c11Ff6c44D481e3e0451409Efe",
  "abi": [
    {
      "inputs": [
        {
          "internalType": "contract IChainlink",
          "name": "_chainlink",
          "type": "address"
        }
      ],
      "stateMutability": "nonpayable",
      "type": "constructor"
    },
    {
      "inputs": [],
      "name": "chainlink",
      "outputs": [
        {
          "internalType": "contract IChainlink",
          "name": "",
          "type": "address"
        }
      ],
      "stateMutability": "view",
      "type": "function"
    },
    {
      "inputs": [
        {
          "internalType": "contract IERC20",
          "name": "srcToken",
          "type": "address"
        },
        {
          "internalType": "contract IERC20",
          "name": "dstToken",
          "type": "address"
        },
        {
          "internalType": "contract IERC20",
          "name": "connector",
          "type": "address"
        }
      ],
      "name": "getRate",
      "outputs": [
        {
          "internalType": "uint256",
          "name": "rate",
          "type": "uint256"
        },
        {
          "internalType": "uint256",
          "name": "weight",
          "type": "uint256"
        }
      ],
      "stateMutability": "view",
      "type": "function"
    }
  ],
  "transactionHash": "0x1927a06ab81e09fd656d11a087139fc99e0dbb773f7bcc3294eacb1e80f94308",
  "args": [
    "0x47Fb2585D2C56Fe188D0E6ec628a38b74fCeeeDf"
  ],
  "solcInputHash": "7afbb34c6df99662b8f5b9ad7c2b244c",
  "bytecode": "0x60a060405234801561001057600080fd5b506040516106e13803806106e18339818101604052602081101561003357600080fd5b5051606081901b6001600160601b0319166080526001600160a01b031661067561006c60003980610214528061023e52506106756000f3fe608060405234801561001057600080fd5b50600436106100365760003560e01c806314999e791461003b5780639c3feeb714610099575b600080fd5b6100806004803603606081101561005157600080fd5b5073ffffffffffffffffffffffffffffffffffffffff81358116916020810135821691604090910135166100ca565b6040805192835260208301919091528051918290030190f35b6100a1610212565b6040805173ffffffffffffffffffffffffffffffffffffffff9092168252519081900360200190f35b60008073ffffffffffffffffffffffffffffffffffffffff8381161461015157604080517f08c379a000000000000000000000000000000000000000000000000000000000815260206004820152601c60248201527f434f3a20636f6e6e6563746f722073686f756c64206265204e6f6e6500000000604482015290519081900360640190fd5b60008073ffffffffffffffffffffffffffffffffffffffff871661017f57670de0b6b3a76400006012610188565b61018887610236565b909250905060008073ffffffffffffffffffffffffffffffffffffffff88166101bb57670de0b6b3a764000060126101c4565b6101c488610236565b90925090506101e5826101df86670de0b6b3a7640000610436565b906104b2565b95506101fc60026101df60ff868116908516610533565b600a0a620f424002945050505050935093915050565b7f000000000000000000000000000000000000000000000000000000000000000081565b6000806000807f000000000000000000000000000000000000000000000000000000000000000073ffffffffffffffffffffffffffffffffffffffff1663bcfd032d8673eeeeeeeeeeeeeeeeeeeeeeeeeeeeeeeeeeeeeeee6040518363ffffffff1660e01b8152600401808373ffffffffffffffffffffffffffffffffffffffff1681526020018273ffffffffffffffffffffffffffffffffffffffff1681526020019250505060a06040518083038186803b1580156102f557600080fd5b505afa158015610309573d6000803e3d6000fd5b505050506040513d60a081101561031f57600080fd5b506020810151606090910151909250905062015180810142106103a357604080517f08c379a000000000000000000000000000000000000000000000000000000000815260206004820152601060248201527f434f3a207261746520746f6f206f6c6400000000000000000000000000000000604482015290519081900360640190fd5b8193508473ffffffffffffffffffffffffffffffffffffffff1663313ce5676040518163ffffffff1660e01b815260040160206040518083038186803b1580156103ec57600080fd5b505afa158015610400573d6000803e3d6000fd5b505050506040513d602081101561041657600080fd5b50519250610428601260ff85166105a7565b600a0a840293505050915091565b600082610445575060006104ac565b8282028284828161045257fe5b04146104a9576040517f08c379a000000000000000000000000000000000000000000000000000000000815260040180806020018281038252602181526020018061061f6021913960400191505060405180910390fd5b90505b92915050565b600080821161052257604080517f08c379a000000000000000000000000000000000000000000000000000000000815260206004820152601a60248201527f536166654d6174683a206469766973696f6e206279207a65726f000000000000604482015290519081900360640190fd5b81838161052b57fe5b049392505050565b6000828201838110156104a957604080517f08c379a000000000000000000000000000000000000000000000000000000000815260206004820152601b60248201527f536166654d6174683a206164646974696f6e206f766572666c6f770000000000604482015290519081900360640190fd5b60008282111561061857604080517f08c379a000000000000000000000000000000000000000000000000000000000815260206004820152601e60248201527f536166654d6174683a207375627472616374696f6e206f766572666c6f770000604482015290519081900360640190fd5b5090039056fe536166654d6174683a206d756c7469706c69636174696f6e206f766572666c6f77a2646970667358221220dfe57bc732045945437137a23ac8cf1e0552212b74642799dab0d7c93bb320e264736f6c63430007060033",
  "devdoc": {
    "kind": "dev",
    "methods": {},
    "version": 1
  },
  "userdoc": {
    "kind": "user",
    "methods": {},
    "version": 1
  },
  "storageLayout": {
    "storage": [],
    "types": null
  }
}