{
  "address": "0xE245a79Ce6B3968c6C59F3F1610F9FaB28196143",
  "abi": [
    {
      "inputs": [
        {
          "internalType": "contract IChainlink",
          "name": "_chainlink",
          "type": "address"
        }
      ],
      "stateMutability": "nonpayable",
      "type": "constructor"
    },
    {
      "inputs": [],
      "name": "chainlink",
      "outputs": [
        {
          "internalType": "contract IChainlink",
          "name": "",
          "type": "address"
        }
      ],
      "stateMutability": "view",
      "type": "function"
    },
    {
      "inputs": [
        {
          "internalType": "contract IERC20",
          "name": "srcToken",
          "type": "address"
        },
        {
          "internalType": "contract IERC20",
          "name": "dstToken",
          "type": "address"
        },
        {
          "internalType": "contract IERC20",
          "name": "connector",
          "type": "address"
        }
      ],
      "name": "getRate",
      "outputs": [
        {
          "internalType": "uint256",
          "name": "rate",
          "type": "uint256"
        },
        {
          "internalType": "uint256",
          "name": "weight",
          "type": "uint256"
        }
      ],
      "stateMutability": "view",
      "type": "function"
    }
  ],
  "transactionHash": "0xb04c6958b3d5e75b2e7350af134f1bbadec186d01508cb2c08c298e1c04772f3",
  "args": [
    "0x47Fb2585D2C56Fe188D0E6ec628a38b74fCeeeDf"
  ],
  "solcInputHash": "3f5df607c6a77829e0ff177d03cde09f",
  "bytecode": "0x60a060405234801561001057600080fd5b5060405161064d38038061064d8339818101604052602081101561003357600080fd5b5051606081901b6001600160601b0319166080526001600160a01b03166105e161006c600039806101f2528061021b52506105e16000f3fe608060405234801561001057600080fd5b50600436106100365760003560e01c806314999e791461003b5780639c3feeb714610099575b600080fd5b6100806004803603606081101561005157600080fd5b5073ffffffffffffffffffffffffffffffffffffffff81358116916020810135821691604090910135166100ca565b6040805192835260208301919091528051918290030190f35b6100a16101f0565b6040805173ffffffffffffffffffffffffffffffffffffffff9092168252519081900360200190f35b60008073ffffffffffffffffffffffffffffffffffffffff8381161461015157604080517f08c379a000000000000000000000000000000000000000000000000000000000815260206004820152601c60248201527f434f3a20636f6e6e6563746f722073686f756c64206265204e6f6e6500000000604482015290519081900360640190fd5b600073ffffffffffffffffffffffffffffffffffffffff861661017c57670de0b6b3a7640000610185565b61018586610214565b9050600073ffffffffffffffffffffffffffffffffffffffff86166101b257670de0b6b3a76400006101bb565b6101bb86610214565b90506101d9816101d384670de0b6b3a7640000610416565b90610492565b9769d3c21bcecceda1000000975095505050505050565b7f000000000000000000000000000000000000000000000000000000000000000081565b60008060007f000000000000000000000000000000000000000000000000000000000000000073ffffffffffffffffffffffffffffffffffffffff1663bcfd032d8573eeeeeeeeeeeeeeeeeeeeeeeeeeeeeeeeeeeeeeee6040518363ffffffff1660e01b8152600401808373ffffffffffffffffffffffffffffffffffffffff1681526020018273ffffffffffffffffffffffffffffffffffffffff1681526020019250505060a06040518083038186803b1580156102d257600080fd5b505afa1580156102e6573d6000803e3d6000fd5b505050506040513d60a08110156102fc57600080fd5b5060208101516060909101519092509050620151808101421061038057604080517f08c379a000000000000000000000000000000000000000000000000000000000815260206004820152601060248201527f434f3a207261746520746f6f206f6c6400000000000000000000000000000000604482015290519081900360640190fd5b81925060008473ffffffffffffffffffffffffffffffffffffffff1663313ce5676040518163ffffffff1660e01b815260040160206040518083038186803b1580156103cb57600080fd5b505afa1580156103df573d6000803e3d6000fd5b505050506040513d60208110156103f557600080fd5b50519050610407601260ff8316610513565b600a0a84029350505050919050565b6000826104255750600061048c565b8282028284828161043257fe5b0414610489576040517f08c379a000000000000000000000000000000000000000000000000000000000815260040180806020018281038252602181526020018061058b6021913960400191505060405180910390fd5b90505b92915050565b600080821161050257604080517f08c379a000000000000000000000000000000000000000000000000000000000815260206004820152601a60248201527f536166654d6174683a206469766973696f6e206279207a65726f000000000000604482015290519081900360640190fd5b81838161050b57fe5b049392505050565b60008282111561058457604080517f08c379a000000000000000000000000000000000000000000000000000000000815260206004820152601e60248201527f536166654d6174683a207375627472616374696f6e206f766572666c6f770000604482015290519081900360640190fd5b5090039056fe536166654d6174683a206d756c7469706c69636174696f6e206f766572666c6f77a26469706673582212208c2ed03ba88922d8e08061f5667b14346be3e2125876edf94c679d2857492eef64736f6c63430007060033",
  "devdoc": {
    "kind": "dev",
    "methods": {},
    "version": 1
  },
  "userdoc": {
    "kind": "user",
    "methods": {},
    "version": 1
  },
  "storageLayout": {
    "storage": [],
    "types": null
  }
}