{
  "address": "0x8606321723D9cA7db708A8b12DAd0A8a83f2F3bD",
  "abi": [
    {
      "inputs": [
        {
          "internalType": "contract IChainlink",
          "name": "_chainlink",
          "type": "address"
        }
      ],
      "stateMutability": "nonpayable",
      "type": "constructor"
    },
    {
      "inputs": [],
      "name": "ConnectorShouldBeNone",
      "type": "error"
    },
    {
      "inputs": [],
      "name": "PoolNotFound",
      "type": "error"
    },
    {
      "inputs": [],
      "name": "PoolWithConnectorNotFound",
      "type": "error"
    },
    {
      "inputs": [],
      "name": "RateTooOld",
      "type": "error"
    },
    {
      "inputs": [],
      "name": "CHAINLINK",
      "outputs": [
        {
          "internalType": "contract IChainlink",
          "name": "",
          "type": "address"
        }
      ],
      "stateMutability": "view",
      "type": "function"
    },
    {
      "inputs": [
        {
          "internalType": "contract IERC20",
          "name": "srcToken",
          "type": "address"
        },
        {
          "internalType": "contract IERC20",
          "name": "dstToken",
          "type": "address"
        },
        {
          "internalType": "contract IERC20",
          "name": "connector",
          "type": "address"
        },
        {
          "internalType": "uint256",
          "name": "",
          "type": "uint256"
        }
      ],
      "name": "getRate",
      "outputs": [
        {
          "internalType": "uint256",
          "name": "rate",
          "type": "uint256"
        },
        {
          "internalType": "uint256",
          "name": "weight",
          "type": "uint256"
        }
      ],
      "stateMutability": "view",
      "type": "function"
    }
  ],
  "transactionHash": "0x92d0ba91a65375a31c8b03168ced50565d3c42fb23e63c170a293d037d747f59",
  "args": [
    "0x47Fb2585D2C56Fe188D0E6ec628a38b74fCeeeDf"
  ],
  "numDeployments": 2,
  "solcInputHash": "fd1dd62bbe05f2095434872ea0a42332",
  "bytecode": "0x60a03461007057601f61068138819003918201601f19168301916001600160401b038311848410176100755780849260209460405283398101031261007057516001600160a01b0381168103610070576080526040516105f5908161008c8239608051818181608101526103f60152f35b600080fd5b634e487b7160e01b600052604160045260246000fdfe608080604052600436101561001357600080fd5b600090813560e01c9081633d549b32146100a8575063c5c809561461003757600080fd5b346100a557807ffffffffffffffffffffffffffffffffffffffffffffffffffffffffffffffffc3601126100a557602060405173ffffffffffffffffffffffffffffffffffffffff7f0000000000000000000000000000000000000000000000000000000000000000168152f35b80fd5b82346100a55760807ffffffffffffffffffffffffffffffffffffffffffffffffffffffffffffffffc3601126100a55773ffffffffffffffffffffffffffffffffffffffff916004358381168082036101c45760243592858416958685036101c0576044358181168091036101bc57036101945750604094607f939092909115610181576101359061038d565b929092945b501561016c5761014c6101529161038d565b926101c8565b9284519384520160011c16600a0a620f4240026020820152f35b50610152670de0b6b3a76400006012926101c8565b50670de0b6b3a76400009160129461013a565b807fccf7e6f70000000000000000000000000000000000000000000000000000000060049252fd5b8680fd5b8580fd5b8380fd5b90670de0b6b3a7640000907fffffffffffffffffffffffffffffffffffffffffffffffffffffffffffffffff82840992828102928380861095039480860395146102c45784831115610266578291096001821901821680920460028082600302188083028203028083028203028083028203028083028203028083028203028092029003029360018380600003040190848311900302920304170290565b60646040517f08c379a000000000000000000000000000000000000000000000000000000000815260206004820152601560248201527f4d6174683a206d756c446976206f766572666c6f7700000000000000000000006044820152fd5b5050809250156102d2570490565b7f4e487b7100000000000000000000000000000000000000000000000000000000600052601260045260246000fd5b90601f7fffffffffffffffffffffffffffffffffffffffffffffffffffffffffffffffe0910116810190811067ffffffffffffffff82111761034257604052565b7f4e487b7100000000000000000000000000000000000000000000000000000000600052604160045260246000fd5b519069ffffffffffffffffffff8216820361038857565b600080fd5b60408051917fbcfd032d00000000000000000000000000000000000000000000000000000000835260a08360448173ffffffffffffffffffffffffffffffffffffffff8095169485600483015273eeeeeeeeeeeeeeeeeeeeeeeeeeeeeeeeeeeeeeee60248301527f0000000000000000000000000000000000000000000000000000000000000000165afa80156105b457600093849161055c575b50620151800142101561053357600083126104d65760206004918351928380927f313ce5670000000000000000000000000000000000000000000000000000000082525afa9182156104cc575060009161048d575b509060ff8260120316600a0a0291565b6020813d82116104c4575b816104a560209383610301565b810103126104c057519060ff821682036100a557503861047d565b5080fd5b3d9150610498565b513d6000823e3d90fd5b606482517f08c379a000000000000000000000000000000000000000000000000000000000815260206004820152602060248201527f53616665436173743a2076616c7565206d75737420626520706f7369746976656044820152fd5b600482517f0892411e000000000000000000000000000000000000000000000000000000008152fd5b93905060a0843d82116105ac575b8161057760a09383610301565b810103126100a5575061058983610371565b506201518060208401516105a4608060608701519601610371565b509390610428565b3d915061056a565b82513d6000823e3d90fdfea264697066735822122035fa5febd3287188aab3bdbffb3ab1482254471d540b1bd16260a961d1428ffe64736f6c63430008130033",
  "devdoc": {
    "kind": "dev",
    "methods": {},
    "version": 1
  },
  "userdoc": {
    "kind": "user",
    "methods": {},
    "version": 1
  },
  "storageLayout": {
    "storage": [],
    "types": null
  }
}