{
  "address": "0x6fE4926a0fCc78ab764b39f2738e1Dea145d7AC0",
  "abi": [
    {
      "inputs": [
        {
          "internalType": "contract IERC20",
          "name": "base",
          "type": "address"
        },
        {
          "internalType": "contract IERC20",
          "name": "wBase",
          "type": "address"
        },
        {
          "internalType": "contract IChaiPot",
          "name": "pot",
          "type": "address"
        }
      ],
      "stateMutability": "nonpayable",
      "type": "constructor"
    },
    {
      "inputs": [],
      "name": "NotAddedMarket",
      "type": "error"
    },
    {
      "inputs": [],
      "name": "NotRemovedMarket",
      "type": "error"
    },
    {
      "inputs": [],
      "name": "NotSupportedToken",
      "type": "error"
    },
    {
      "inputs": [],
      "name": "BASE",
      "outputs": [
        {
          "internalType": "contract IERC20",
          "name": "",
          "type": "address"
        }
      ],
      "stateMutability": "view",
      "type": "function"
    },
    {
      "inputs": [],
      "name": "POT",
      "outputs": [
        {
          "internalType": "contract IChaiPot",
          "name": "",
          "type": "address"
        }
      ],
      "stateMutability": "view",
      "type": "function"
    },
    {
      "inputs": [],
      "name": "WBASE",
      "outputs": [
        {
          "internalType": "contract IERC20",
          "name": "",
          "type": "address"
        }
      ],
      "stateMutability": "view",
      "type": "function"
    },
    {
      "inputs": [
        {
          "internalType": "contract IERC20",
          "name": "token",
          "type": "address"
        }
      ],
      "name": "wrap",
      "outputs": [
        {
          "internalType": "contract IERC20",
          "name": "wrappedToken",
          "type": "address"
        },
        {
          "internalType": "uint256",
          "name": "rate",
          "type": "uint256"
        }
      ],
      "stateMutability": "view",
      "type": "function"
    }
  ],
  "transactionHash": "0xf1d85eae435a7d5df33d4375cde889985696d34bb42eef6f9ee935f36042cdae",
  "args": [
    "0x6B175474E89094C44Da98b954EedeAC495271d0F",
    "0x06AF07097C9Eeb7fD685c692751D5C66dB49c215",
    "0x197E90f9FAD81970bA7976f33CbD77088E5D7cf7"
  ],
  "numDeployments": 1,
  "solcInputHash": "671e1fe85a8879eb40e6f766670e2d1a",
  "bytecode": "0x60e0346100bf57601f61067838819003918201601f19168301916001600160401b038311848410176100c4578084926060946040528339810103126100bf57610047816100da565b906040610056602083016100da565b910151916001600160a01b03831683036100bf5760805260a05260c05260405161058990816100ef82396080518181816094015261020d015260a051818181610106015281816102f901526103bd015260c0518181816101740152818161028301526104160152f35b600080fd5b634e487b7160e01b600052604160045260246000fd5b51906001600160a01b03821682036100bf5756fe604060808152600436101561001357600080fd5b600090813560e01c8063023276f01461019857806348bb90691461012a5780638e0b3bf2146100bc5763ec342ad01461004b57600080fd5b346100b857817ffffffffffffffffffffffffffffffffffffffffffffffffffffffffffffffffc3601126100b8576020905173ffffffffffffffffffffffffffffffffffffffff7f0000000000000000000000000000000000000000000000000000000000000000168152f35b5080fd5b50346100b857817ffffffffffffffffffffffffffffffffffffffffffffffffffffffffffffffffc3601126100b8576020905173ffffffffffffffffffffffffffffffffffffffff7f0000000000000000000000000000000000000000000000000000000000000000168152f35b50346100b857817ffffffffffffffffffffffffffffffffffffffffffffffffffffffffffffffffc3601126100b8576020905173ffffffffffffffffffffffffffffffffffffffff7f0000000000000000000000000000000000000000000000000000000000000000168152f35b5090346102045760207ffffffffffffffffffffffffffffffffffffffffffffffffffffffffffffffffc3601126102045760043573ffffffffffffffffffffffffffffffffffffffff91828216820361020457506101f590610207565b90918351921682526020820152f35b80fd5b906000917f000000000000000000000000000000000000000000000000000000000000000073ffffffffffffffffffffffffffffffffffffffff80921682821681146000146103b75750506020600491604051928380927fc92aecc40000000000000000000000000000000000000000000000000000000082527f0000000000000000000000000000000000000000000000000000000000000000165afa9081156103ac578391610377575b50722cd76fe086b93ce2f768a00b22a000000000009281840180941161034a57722cd76fe086b93ce2f768a00b229fffffffffff820193841161034a57811561031d57507f0000000000000000000000000000000000000000000000000000000000000000920490565b807f4e487b7100000000000000000000000000000000000000000000000000000000602492526012600452fd5b807f4e487b7100000000000000000000000000000000000000000000000000000000602492526011600452fd5b90506020813d82116103a4575b81610391602093836104e3565b810103126103a05751386102b3565b8280fd5b3d9150610384565b6040513d85823e3d90fd5b829491927f000000000000000000000000000000000000000000000000000000000000000016146000146104b9576020600494604051958680927fc92aecc40000000000000000000000000000000000000000000000000000000082527f0000000000000000000000000000000000000000000000000000000000000000165afa9384156104ac578194610475575b50670de0b6b3a76400009384810294818604149015171561034a57506b033b2e3c9fd0803ce800000090920490565b9093506020813d82116104a4575b81610490602093836104e3565b810103126104a057519238610446565b8380fd5b3d9150610483565b50604051903d90823e3d90fd5b60046040517fc8a08d6f000000000000000000000000000000000000000000000000000000008152fd5b90601f7fffffffffffffffffffffffffffffffffffffffffffffffffffffffffffffffe0910116810190811067ffffffffffffffff82111761052457604052565b7f4e487b7100000000000000000000000000000000000000000000000000000000600052604160045260246000fdfea26469706673582212205078c3d58d23e18b9404fbd696cb2bab21d2cc3840636c67a7fbeba3e6fc02f464736f6c63430008130033",
  "devdoc": {
    "kind": "dev",
    "methods": {},
    "version": 1
  },
  "userdoc": {
    "kind": "user",
    "methods": {},
    "version": 1
  },
  "storageLayout": {
    "storage": [],
    "types": null
  }
}