{
  "address": "0x8e38ec1f7D3D40ebf3987DaB0fb2aD688D96c3D1",
  "abi": [
    {
      "inputs": [
        {
          "internalType": "contract ICurveProvider",
          "name": "_addressProvider",
          "type": "address"
        },
        {
          "internalType": "uint256",
          "name": "_maxPools",
          "type": "uint256"
        },
        {
          "internalType": "uint256[]",
          "name": "_registryIds",
          "type": "uint256[]"
        },
        {
          "internalType": "enum CurveOracle.CurveRegistryType[]",
          "name": "_registryTypes",
          "type": "uint8[]"
        },
        {
          "internalType": "address[]",
          "name": "initialBlacklist",
          "type": "address[]"
        },
        {
          "internalType": "address",
          "name": "owner",
          "type": "address"
        }
      ],
      "stateMutability": "nonpayable",
      "type": "constructor"
    },
    {
      "inputs": [],
      "name": "ConnectorShouldBeNone",
      "type": "error"
    },
    {
      "inputs": [],
      "name": "MathOverflowedMulDiv",
      "type": "error"
    },
    {
      "inputs": [
        {
          "internalType": "address",
          "name": "owner",
          "type": "address"
        }
      ],
      "name": "OwnableInvalidOwner",
      "type": "error"
    },
    {
      "inputs": [
        {
          "internalType": "address",
          "name": "account",
          "type": "address"
        }
      ],
      "name": "OwnableUnauthorizedAccount",
      "type": "error"
    },
    {
      "inputs": [],
      "name": "PoolNotFound",
      "type": "error"
    },
    {
      "inputs": [],
      "name": "PoolWithConnectorNotFound",
      "type": "error"
    },
    {
      "anonymous": false,
      "inputs": [
        {
          "indexed": false,
          "internalType": "address",
          "name": "pool",
          "type": "address"
        },
        {
          "indexed": false,
          "internalType": "bool",
          "name": "isBlacklisted",
          "type": "bool"
        }
      ],
      "name": "BlacklistUpdated",
      "type": "event"
    },
    {
      "anonymous": false,
      "inputs": [
        {
          "indexed": true,
          "internalType": "address",
          "name": "previousOwner",
          "type": "address"
        },
        {
          "indexed": true,
          "internalType": "address",
          "name": "newOwner",
          "type": "address"
        }
      ],
      "name": "OwnershipTransferred",
      "type": "event"
    },
    {
      "inputs": [],
      "name": "MAX_POOLS",
      "outputs": [
        {
          "internalType": "uint256",
          "name": "",
          "type": "uint256"
        }
      ],
      "stateMutability": "view",
      "type": "function"
    },
    {
      "inputs": [],
      "name": "REGISTRIES_COUNT",
      "outputs": [
        {
          "internalType": "uint256",
          "name": "",
          "type": "uint256"
        }
      ],
      "stateMutability": "view",
      "type": "function"
    },
    {
      "inputs": [
        {
          "internalType": "address",
          "name": "",
          "type": "address"
        }
      ],
      "name": "blacklisted",
      "outputs": [
        {
          "internalType": "bool",
          "name": "",
          "type": "bool"
        }
      ],
      "stateMutability": "view",
      "type": "function"
    },
    {
      "inputs": [
        {
          "internalType": "contract IERC20",
          "name": "srcToken",
          "type": "address"
        },
        {
          "internalType": "contract IERC20",
          "name": "dstToken",
          "type": "address"
        },
        {
          "internalType": "contract IERC20",
          "name": "connector",
          "type": "address"
        },
        {
          "internalType": "uint256",
          "name": "thresholdFilter",
          "type": "uint256"
        }
      ],
      "name": "getRate",
      "outputs": [
        {
          "internalType": "uint256",
          "name": "rate",
          "type": "uint256"
        },
        {
          "internalType": "uint256",
          "name": "weight",
          "type": "uint256"
        }
      ],
      "stateMutability": "view",
      "type": "function"
    },
    {
      "inputs": [],
      "name": "owner",
      "outputs": [
        {
          "internalType": "address",
          "name": "",
          "type": "address"
        }
      ],
      "stateMutability": "view",
      "type": "function"
    },
    {
      "inputs": [
        {
          "internalType": "uint256",
          "name": "",
          "type": "uint256"
        }
      ],
      "name": "registries",
      "outputs": [
        {
          "internalType": "contract ICurveRegistry",
          "name": "",
          "type": "address"
        }
      ],
      "stateMutability": "view",
      "type": "function"
    },
    {
      "inputs": [
        {
          "internalType": "uint256",
          "name": "",
          "type": "uint256"
        }
      ],
      "name": "registryTypes",
      "outputs": [
        {
          "internalType": "enum CurveOracle.CurveRegistryType",
          "name": "",
          "type": "uint8"
        }
      ],
      "stateMutability": "view",
      "type": "function"
    },
    {
      "inputs": [],
      "name": "renounceOwnership",
      "outputs": [],
      "stateMutability": "nonpayable",
      "type": "function"
    },
    {
      "inputs": [
        {
          "internalType": "address",
          "name": "pool",
          "type": "address"
        }
      ],
      "name": "toggleBlacklistAddress",
      "outputs": [],
      "stateMutability": "nonpayable",
      "type": "function"
    },
    {
      "inputs": [
        {
          "internalType": "address",
          "name": "newOwner",
          "type": "address"
        }
      ],
      "name": "transferOwnership",
      "outputs": [],
      "stateMutability": "nonpayable",
      "type": "function"
    }
  ],
  "args": [
    "0x0000000022D53366457F9d5E68Ec105046FC4383",
    100,
    [
      0,
      3,
      5,
      6,
      7,
      8,
      11
    ],
    [
      0,
      1,
      2,
      3,
      4,
      5,
      6
    ],
    [
      "0xdebf20617708857ebe4f679508e7b7863a8a8eee",
      "0x79a8c46dea5ada233abaffd40f3a0a2b1e5a4f27",
      "0x2dded6da1bf5dbdf597c45fcfaa3194e53ecfeaf",
      "0x06364f10b501e868329afbc005b3492902d6c763",
      "0x45f783cce6b7ff23b2ab2d70e416cdb7d6055f51"
    ],
    "0x56E44874F624EbDE6efCc783eFD685f0FBDC6dcF"
  ],
  "numDeployments": 1,
  "bytecode": "0x60c0604090808252346200031d5762001aad8038038091620000228285620003d4565b833981019160c0828403126200031d5781516001600160a01b0380821692918390036200031d5760208481015183860151909591946001600160401b0392918381116200031d5782019288601f850112156200031d5783519362000086856200040c565b906200009588519283620003d4565b8582528882018960059760051b830101918c83116200031d578a809101915b838310620003c3575050505060608401518281116200031d578401918a601f840112156200031d57825192620000ea846200040c565b93620000f98a519586620003d4565b8085528a8086019160051b830101918d83116200031d578b01905b828210620003a95750505060808501519081116200031d5784019980601f8c0112156200031d578a5162000148816200040c565b9b8a808b519e8f906200015c9082620003d4565b848152019260051b8201019283116200031d578a809101915b8383106200038e5750505050856200019160a080960162000424565b1690811562000377575f80546001600160a01b0319808216851783559391908916907f8be0079c531659141344cd1fd0a4f28419497f9722a3daafe3b4186f6b6457e09080a35f5b8b518110156200020f578088620001f36001938f62000439565b51165f5281808c528a5f209060ff1982541617905501620001d9565b508892918789928c608052805160a0525f5b8851811015620003335762000237818362000439565b51855163124fd3dd60e21b8152600480820192909252602490898183818e5afa90811562000329575f91620002e8575b50600b841015620002d55785846002019116878254161790556200028c838962000439565b5191600a831015620002c457505090600191818c1c600d0190815460f88460031b169160ff809116831b921b19161790550162000221565b602190634e487b7160e01b5f52525ffd5b50634e487b7160e01b5f90815260328352fd5b90508981813d831162000321575b620003028183620003d4565b810103126200031d57620003169062000424565b8d62000267565b5f80fd5b503d620002f6565b88513d5f823e3d90fd5b845161164a90816200046382396080518181816102eb015281816105f601528181610633015281816110190152611146015260a05181818161050401526106740152f35b8751631e4fbdf760e01b81525f6004820152602490fd5b81906200039b8462000424565b8152019101908a9062000175565b8151600a8110156200031d578152908b01908b0162000114565b82518152918101918b9101620000b4565b601f909101601f19168101906001600160401b03821190821017620003f857604052565b634e487b7160e01b5f52604160045260245ffd5b6001600160401b038111620003f85760051b60200190565b51906001600160a01b03821682036200031d57565b80518210156200044e5760209160051b010190565b634e487b7160e01b5f52603260045260245ffdfe6080806040526004361015610012575f80fd5b5f3560e01c9081633d549b32146105275750806347400449146104cf57806361436d6a146104085780636347c900146103a8578063715018a61461030e57806381358498146102b65780638da5cb5b14610266578063b72529f2146101d8578063dbac26e91461016d5763f2fde38b1461008a575f80fd5b346101695760207ffffffffffffffffffffffffffffffffffffffffffffffffffffffffffffffffc3601126101695760043573ffffffffffffffffffffffffffffffffffffffff808216809203610169576100e36115c4565b8115610139575f54827fffffffffffffffffffffffff00000000000000000000000000000000000000008216175f55167f8be0079c531659141344cd1fd0a4f28419497f9722a3daafe3b4186f6b6457e05f80a3005b60246040517f1e4fbdf70000000000000000000000000000000000000000000000000000000081525f6004820152fd5b5f80fd5b346101695760207ffffffffffffffffffffffffffffffffffffffffffffffffffffffffffffffffc3601126101695760043573ffffffffffffffffffffffffffffffffffffffff8116809103610169575f526001602052602060ff60405f2054166040519015158152f35b346101695760207ffffffffffffffffffffffffffffffffffffffffffffffffffffffffffffffffc36011261016957600435600b8110156101695761021e60ff91611194565b90549060031b1c16604051600a821015610239576020918152f35b7f4e487b71000000000000000000000000000000000000000000000000000000005f52602160045260245ffd5b34610169575f7ffffffffffffffffffffffffffffffffffffffffffffffffffffffffffffffffc36011261016957602073ffffffffffffffffffffffffffffffffffffffff5f5416604051908152f35b34610169575f7ffffffffffffffffffffffffffffffffffffffffffffffffffffffffffffffffc3601126101695760206040517f00000000000000000000000000000000000000000000000000000000000000008152f35b34610169575f7ffffffffffffffffffffffffffffffffffffffffffffffffffffffffffffffffc360112610169576103446115c4565b5f73ffffffffffffffffffffffffffffffffffffffff81547fffffffffffffffffffffffff000000000000000000000000000000000000000081168355167f8be0079c531659141344cd1fd0a4f28419497f9722a3daafe3b4186f6b6457e08280a3005b346101695760207ffffffffffffffffffffffffffffffffffffffffffffffffffffffffffffffffc36011261016957600435600b8110156101695773ffffffffffffffffffffffffffffffffffffffff6020916002015416604051908152f35b346101695760207ffffffffffffffffffffffffffffffffffffffffffffffffffffffffffffffffc3601126101695760043573ffffffffffffffffffffffffffffffffffffffff81168091036101695760407f6a12b3df6cba4203bd7fd06b816789f87de8c594299aed5717ae070fac781bac916104846115c4565b805f5260016020527fffffffffffffffffffffffffffffffffffffffffffffffffffffffffffffff00825f20805460ff808216151692839116179055825191825215156020820152a1005b34610169575f7ffffffffffffffffffffffffffffffffffffffffffffffffffffffffffffffffc3601126101695760206040517f00000000000000000000000000000000000000000000000000000000000000008152f35b346101695760807ffffffffffffffffffffffffffffffffffffffffffffffffffffffffffffffffc360112610169576004359073ffffffffffffffffffffffffffffffffffffffff82168203610169576024359073ffffffffffffffffffffffffffffffffffffffff821682036101695760443573ffffffffffffffffffffffffffffffffffffffff81168091036101695773ffffffffffffffffffffffffffffffffffffffff0361116c57506060604080516105e3816111ac565b5f81525f602082015201526040519060807f000000000000000000000000000000000000000000000000000000000000000060061b8301016040525f82525f6020830152606082018060408401527f000000000000000000000000000000000000000000000000000000000000000090525f60408051610662816111ac565b82815282602082015201525f915f925b7f0000000000000000000000000000000000000000000000000000000000000000841080611143575b1561105e575f91600b8510159182610ade5773ffffffffffffffffffffffffffffffffffffffff866002015416936040517f6982eb0b00000000000000000000000000000000000000000000000000000000815273ffffffffffffffffffffffffffffffffffffffff8916600482015273ffffffffffffffffffffffffffffffffffffffff871660248201525f6044820152602081606481895afa908115610ad3575f9161103f575b50915b73ffffffffffffffffffffffffffffffffffffffff8316151580611016575b156110005773ffffffffffffffffffffffffffffffffffffffff83165f5260016020528460ff60405f205416610ff057506107a090611225565b915f9085610ade575f808b60405173ffffffffffffffffffffffffffffffffffffffff60208201927feb85226d000000000000000000000000000000000000000000000000000000008452818716602484015216604482015273ffffffffffffffffffffffffffffffffffffffff8c16606482015260648152610822816111c8565b51908a5afa9161083061127e565b9280610fe4575b15610fd5576108458a611194565b905490600a60ff838360031b1c1610156102395760031b1c60ff166002148015610fb0575b8015610f8b575b15610f50576040838051810103126101695761089b6040610894602086016112db565b94016112db565b81610ecf576040516108ac816111ac565b7f92e3cc2d0000000000000000000000000000000000000000000000000000000081527f5e0d443f0000000000000000000000000000000000000000000000000000000060208201527f556d6e9f000000000000000000000000000000000000000000000000000000006040820152925b88610ade575f807fffffffff000000000000000000000000000000000000000000000000000000008651166040516020810191825273ffffffffffffffffffffffffffffffffffffffff851660248201526024815261097b816111ac565b51908d5afa9261098961127e565b9380610ec3575b15610e20579089959493929160089015610cb2575b8352600f946fffffffffffffffffffffffffffffffff90818116936109eb6109e66109d087896112e9565b51948316946109df868a6112e9565b51906112fd565b611347565b97612710610a0685826109fe8a8c6112e9565b5104996112e9565b51048715159081610ca8575b50610b0b575b505050505050505050610ade57610a2e90611225565b6040517f6982eb0b00000000000000000000000000000000000000000000000000000000815273ffffffffffffffffffffffffffffffffffffffff89811660048301528716602482015260448101829052909690602081606481895afa908115610ad3575f91610aa4575b50915b969096610747565b610ac6915060203d602011610acc575b610abe81836111e4565b810190611252565b89610a99565b503d610ab4565b6040513d5f823e3d90fd5b7f4e487b71000000000000000000000000000000000000000000000000000000005f52603260045260245ffd5b5f9283927fffffffff0000000000000000000000000000000000000000000000000000000060208b015116926040519260208401948552810b60248401520b604482015287606482015260648152610b62816111c8565b5190855afa92610b7061127e565b9584158015610c9d575b610c2f575b5050505080610c23575b610b99575b808080808080610a18565b90919250602082805181010312610169576020610bb7920151611488565b60405180604081011067ffffffffffffffff604083011117610bf6578692610bed9260408301604052825260208201528561155c565b50898080610b8e565b7f4e487b71000000000000000000000000000000000000000000000000000000005f52604160045260245ffd5b50602082511015610b89565b5f95965085945060407fffffffff00000000000000000000000000000000000000000000000000000000910151169160405191602083019384526024830152604482015285606482015260648152610c86816111c8565b51915afa90610c9361127e565b918d808080610b7f565b506020875110610b7a565b905015155f610a12565b9550610cbd8d611194565b96905496600a60ff898360031b1c161015610239578b978f9160031b1c60ff166001148015610df4575b8015610dc8575b8015610d9d575b8015610d71575b15610d0b57505060045b6109a5565b60ff919750610d1990611194565b90549060031b1c1695600a871015610239578d60068c98145f14610d4057505060036109a5565b60ff919750610d4e90611194565b90549060031b1c1695600a8710156102395760038b9703610d06575060026109a5565b5060ff919750610d8090611194565b90549060031b1c1695600a871015610239578d60098c9814610cfc565b5060ff919750610dac90611194565b90549060031b1c1695600a871015610239578d818c9814610cf5565b5060ff919750610dd790611194565b90549060031b1c1695600a871015610239578d60078c9814610cee565b5060ff919750610e0390611194565b90549060031b1c1695600a871015610239578d60058c9814610ce7565b5050505050509250610e325f93611225565b6040517f6982eb0b00000000000000000000000000000000000000000000000000000000815273ffffffffffffffffffffffffffffffffffffffff89811660048301528716602482015260448101829052909690602081606481895afa908115610ad3575f91610ea4575b5091610a9c565b610ebd915060203d602011610acc57610abe81836111e4565b89610e9d565b50604084511015610990565b604051610edb816111ac565b7f59f4f3510000000000000000000000000000000000000000000000000000000081527f07211ef70000000000000000000000000000000000000000000000000000000060208201527f85f11d1e0000000000000000000000000000000000000000000000000000000060408201529261091d565b5060608280518101031261016957610f6a602083016112db565b916060610f79604083016112db565b9101518015158103610169579061089b565b5060ff610f978b611194565b90549060031b1c16600a81101561023957600614610871565b5060ff610fbc8b611194565b90549060031b1c16600a8110156102395760031461086a565b5050509250610e325f93611225565b50604083511015610837565b909250610ade57610e3290611225565b945050509361100f9150611225565b9290610672565b507f00000000000000000000000000000000000000000000000000000000000000008110610766565b611058915060203d602011610acc57610abe81836111e4565b89610744565b505f806020830151806040850151525f905b80821061109e57604084848061108d575b82519182526020820152f35b908161109891611310565b90611081565b90916110ae8360408701516112e9565b519360208501948551606481029080820460641490151715611116576110d760643589516112fd565b1161110a57916110f9611101926110f3600195518951906112fd565b906115b7565b9551906115b7565b925b0190611070565b50935091600190611103565b7f4e487b71000000000000000000000000000000000000000000000000000000005f52601160045260245ffd5b507f0000000000000000000000000000000000000000000000000000000000000000811061069b565b807fccf7e6f70000000000000000000000000000000000000000000000000000000060049252fd5b90600b821015610ade57601f8260051c600d01921690565b6060810190811067ffffffffffffffff821117610bf657604052565b60a0810190811067ffffffffffffffff821117610bf657604052565b90601f7fffffffffffffffffffffffffffffffffffffffffffffffffffffffffffffffe0910116810190811067ffffffffffffffff821117610bf657604052565b7fffffffffffffffffffffffffffffffffffffffffffffffffffffffffffffffff81146111165760010190565b90816020910312610169575173ffffffffffffffffffffffffffffffffffffffff811681036101695790565b3d156112d6573d9067ffffffffffffffff8211610bf657604051916112cb60207fffffffffffffffffffffffffffffffffffffffffffffffffffffffffffffffe0601f84011601846111e4565b82523d5f602084013e565b606090565b519081600f0b820361016957565b8051821015610ade5760209160051b010190565b8181029291811591840414171561111657565b811561131a570490565b7f4e487b71000000000000000000000000000000000000000000000000000000005f52601260045260245ffd5b801561148357611411815f908360801c80611477575b508060401c8061146a575b508060201c8061145d575b508060101c80611450575b508060081c80611443575b508060041c80611436575b508060021c80611429575b50600191828092811c611422575b1c1b6113b98185611310565b01811c6113c68185611310565b01811c6113d38185611310565b01811c6113e08185611310565b01811c6113ed8185611310565b01811c6113fa8185611310565b01811c6114078185611310565b01901c8092611310565b8082101561141d575090565b905090565b01816113ad565b600291509101905f61139f565b600491509101905f611394565b600891509101905f611389565b601091509101905f61137e565b602091509101905f611373565b604091509101905f611368565b9150506080905f61135d565b505f90565b670de0b6b3a764000091828202917fffffffffffffffffffffffffffffffffffffffffffffffffffffffffffffffff8482099383808610950394808603951461154c578483111561152257829109815f038216809204600280826003021880830282030280830282030280830282030280830282030280830282030280920290030293600183805f03040190848311900302920304170290565b60046040517f227bc153000000000000000000000000000000000000000000000000000000008152fd5b5050906115599250611310565b90565b906020810190815161156f575050505f90565b611590604084015191602085019283519161158a83836112e9565b526112e9565b5061159b8151611225565b90525190805182116115af575b5050600190565b525f806115a8565b9190820180921161111657565b73ffffffffffffffffffffffffffffffffffffffff5f541633036115e457565b60246040517f118cdaa7000000000000000000000000000000000000000000000000000000008152336004820152fdfea2646970667358221220d0d949213def817cc3b5510adef9a1d128ae28d9c1d1b78463b09fe776cfefd764736f6c63430008170033"
}