{
  "address": "0xAD9393D581f1F4F91EED5B1C165eac8740A41f6E",
  "abi": [
    {
      "inputs": [
        {
          "internalType": "contract ICurveProvider",
          "name": "_addressProvider",
          "type": "address"
        },
        {
          "internalType": "uint256",
          "name": "_maxPools",
          "type": "uint256"
        },
        {
          "internalType": "uint256[]",
          "name": "_registryIds",
          "type": "uint256[]"
        }
      ],
      "stateMutability": "nonpayable",
      "type": "constructor"
    },
    {
      "inputs": [],
      "name": "ConnectorShouldBeNone",
      "type": "error"
    },
    {
      "inputs": [],
      "name": "PoolNotFound",
      "type": "error"
    },
    {
      "inputs": [],
      "name": "PoolWithConnectorNotFound",
      "type": "error"
    },
    {
      "inputs": [],
      "name": "MAX_POOLS",
      "outputs": [
        {
          "internalType": "uint256",
          "name": "",
          "type": "uint256"
        }
      ],
      "stateMutability": "view",
      "type": "function"
    },
    {
      "inputs": [],
      "name": "REGISTRIES_COUNT",
      "outputs": [
        {
          "internalType": "uint256",
          "name": "",
          "type": "uint256"
        }
      ],
      "stateMutability": "view",
      "type": "function"
    },
    {
      "inputs": [
        {
          "internalType": "contract IERC20",
          "name": "srcToken",
          "type": "address"
        },
        {
          "internalType": "contract IERC20",
          "name": "dstToken",
          "type": "address"
        },
        {
          "internalType": "contract IERC20",
          "name": "connector",
          "type": "address"
        },
        {
          "internalType": "uint256",
          "name": "thresholdFilter",
          "type": "uint256"
        }
      ],
      "name": "getRate",
      "outputs": [
        {
          "internalType": "uint256",
          "name": "rate",
          "type": "uint256"
        },
        {
          "internalType": "uint256",
          "name": "weight",
          "type": "uint256"
        }
      ],
      "stateMutability": "view",
      "type": "function"
    },
    {
      "inputs": [
        {
          "internalType": "uint256",
          "name": "",
          "type": "uint256"
        }
      ],
      "name": "registries",
      "outputs": [
        {
          "internalType": "contract ICurveRegistry",
          "name": "",
          "type": "address"
        }
      ],
      "stateMutability": "view",
      "type": "function"
    }
  ],
  "transactionHash": "0xa2b53c3d106483f5c7c8ea09adb17cca44abffbc6d184206a645e381498dd14c",
  "args": [
    "0x0000000022D53366457F9d5E68Ec105046FC4383",
    100,
    [
      0,
      3,
      5,
      6,
      7,
      8,
      11
    ]
  ],
  "numDeployments": 1,
  "solcInputHash": "598ca5045c584d564a27157779c5ebab",
  "bytecode": "0x60c060409080825234620002065762001245803803809162000022828562000221565b8339810191606082840312620002065781516001600160a01b0391828216918290036200020657602094858501518286015160018060401b03968782116200020657019180601f84011215620002065782519687116200020b5760059287841b855198620000938b83018b62000221565b895289808a0191830101928311620002065789809201905b838210620001f6575050505060805284519460a095865260005b8651811015620001b45781518110156200019e578781841b8301015184519063124fd3dd60e21b8252600490818301526024908a8383818b5afa92831562000193576000936200014b575b50600b8410156200013857505081546001600160a01b031916908716178155600101620000c5565b603290634e487b7160e01b600052526000fd5b8b81819593953d83116200018b575b62000166818362000221565b81010312620001875751908982168203620001845750913862000110565b80fd5b5080fd5b503d6200015a565b87513d6000823e3d90fd5b634e487b7160e01b600052603260045260246000fd5b868451610fff918262000246833960805182818160810152818161022f0152818161026e01528181610a530152610b8e01525181818161013c01526102b00152f35b81518152908201908201620000ab565b600080fd5b634e487b7160e01b600052604160045260246000fd5b601f909101601f19168101906001600160401b038211908210176200020b5760405256fe608080604052600436101561001357600080fd5b60003560e01c9081633d549b321461015f5750806347400449146101065780636347c900146100a95763813584981461004b57600080fd5b346100a45760007ffffffffffffffffffffffffffffffffffffffffffffffffffffffffffffffffc3601126100a45760206040517f00000000000000000000000000000000000000000000000000000000000000008152f35b600080fd5b346100a45760207ffffffffffffffffffffffffffffffffffffffffffffffffffffffffffffffffc3601126100a457600435600b8110156100a45773ffffffffffffffffffffffffffffffffffffffff6020915416604051908152f35b346100a45760007ffffffffffffffffffffffffffffffffffffffffffffffffffffffffffffffffc3601126100a45760206040517f00000000000000000000000000000000000000000000000000000000000000008152f35b346100a45760807ffffffffffffffffffffffffffffffffffffffffffffffffffffffffffffffffc3601126100a4576004359073ffffffffffffffffffffffffffffffffffffffff821682036100a4576024359073ffffffffffffffffffffffffffffffffffffffff821682036100a45760443573ffffffffffffffffffffffffffffffffffffffff81168091036100a45773ffffffffffffffffffffffffffffffffffffffff03610bb4575060606040805161021b81610bdc565b6000815260006020820152015260405160807f000000000000000000000000000000000000000000000000000000000000000060061b8201016040526000815260006020820152606081018060408301527f0000000000000000000000000000000000000000000000000000000000000000905260006040805161029e81610bdc565b8281528260208201520152600080915b7f0000000000000000000000000000000000000000000000000000000000000000831080610b8b575b15610a9857600b83101590816106615783546040517f6982eb0b00000000000000000000000000000000000000000000000000000000815273ffffffffffffffffffffffffffffffffffffffff888116600483015287166024820152604481018590529093906020818060648101038173ffffffffffffffffffffffffffffffffffffffff89165afa90811561065557600091610a79575b505b73ffffffffffffffffffffffffffffffffffffffff8116151580610a50575b15610a3a5783610661576040517feb85226d00000000000000000000000000000000000000000000000000000000815273ffffffffffffffffffffffffffffffffffffffff8216600482015273ffffffffffffffffffffffffffffffffffffffff8916602482015273ffffffffffffffffffffffffffffffffffffffff8816604482015260608160648173ffffffffffffffffffffffffffffffffffffffff8a165afa908115610655576000916000916000916109e1575b5061096457856106615760249260405161046181610bdc565b63556d6e9f77ffffffffffffffffffffffffffffffffffffffff000000006392e3cc2d818c60201b161760401b83527f5e0d443f0000000000000000000000000000000000000000000000000000000060208401528360201b161760401b6040820152915b61010083516040519687827fffffffff00000000000000000000000000000000000000000000000000000000829460a01b16825273ffffffffffffffffffffffffffffffffffffffff8716600483015260601c5afa9384156106555788956000956108bb575b506fffffffffffffffffffffffffffffffff9061271061057a61057061056b6105578686168b610ca0565b516105648789168c610ca0565b5190610cb1565b610e09565b9784841690610ca0565b51049384610690575b505050505050506106615761059790610c39565b6040517f6982eb0b00000000000000000000000000000000000000000000000000000000815273ffffffffffffffffffffffffffffffffffffffff888116600483015287166024820152604481018290529094906020818060648101038173ffffffffffffffffffffffffffffffffffffffff89165afa90811561065557600091610626575b50909490610371565b610648915060203d60201161064e575b6106408183610bf8565b810190610c66565b8861061d565b503d610636565b6040513d6000823e3d90fd5b7f4e487b7100000000000000000000000000000000000000000000000000000000600052603260045260246000fd5b90919293949596507fffffffff000000000000000000000000000000000000000000000000000000006020870151169060405191602083015284600f84810b60248501520b6044830152856064830152606482528160a081011067ffffffffffffffff60a0840111176107d857816000929160a0849301604052602082519201905afa943d156108b3573d9567ffffffffffffffff87116107d8576040519661076160207fffffffffffffffffffffffffffffffffffffffffffffffffffffffffffffffe0601f8401160189610bf8565b87523d6000602089013e5b806108a8575b1561080757505050506020828051810103126100a4576020610795920151610cfd565b60405180604081011067ffffffffffffffff6040830111176107d85785926107cb92604083016040528252602082015284610f60565b5088808080808080610583565b7f4e487b7100000000000000000000000000000000000000000000000000000000600052604160045260246000fd5b602093955090604060649201518360405197889586947fffffffff000000000000000000000000000000000000000000000000000000008560a01b16865216600485015216602483015285604483015260601c5afa801561065557600090610874575b6107959250610cfd565b506020823d6020116108a0575b8161088e60209383610bf8565b810103126100a457610795915161086a565b3d9150610881565b506020865114610772565b60609561076c565b91929394509450610100903d6101001161095c575b6108da8282610bf8565b6101008183810103126100a457818101601f820112156100a457604051918261010081011067ffffffffffffffff610100850111176107d8576101008301604052829082016101008301116100a457908996959493929181905b6101008301821061094957505050938d61052c565b815181528b985060209182019101610934565b3d91506108d0565b602492955060009560405161097881610bdc565b6385f11d1e77ffffffffffffffffffffffffffffffffffffffff000000006359f4f351818c60201b161760401b83527f07211ef70000000000000000000000000000000000000000000000000000000060208401528360201b161760401b6040820152916104c6565b925050506060813d606011610a32575b816109fe60609383610bf8565b810103126100a457610a0f81610c92565b6040610a1d60208401610c92565b9201519081151582036100a45791908b610448565b3d91506109f1565b5093909250610a499150610c39565b91906102ae565b507f00000000000000000000000000000000000000000000000000000000000000008210610390565b610a92915060203d60201161064e576106408183610bf8565b8861036f565b6000806020830151806040850151526000906064948535955b828410610adf576040868680610ace575b82519182526020820152f35b9081610ad991610cc4565b90610ac2565b90919293610af1856040850151610f4c565b51956020870196875184810290808204861490151715610b5c57610b168a8751610cb1565b11610b4f5791610b39610b4192610b33610b4795518b5190610cb1565b90610fbc565b975190610fbc565b94610c39565b929190610ab1565b50955093610b4790610c39565b7f4e487b7100000000000000000000000000000000000000000000000000000000600052601160045260246000fd5b507f000000000000000000000000000000000000000000000000000000000000000082106102d7565b807fccf7e6f70000000000000000000000000000000000000000000000000000000060049252fd5b6060810190811067ffffffffffffffff8211176107d857604052565b90601f7fffffffffffffffffffffffffffffffffffffffffffffffffffffffffffffffe0910116810190811067ffffffffffffffff8211176107d857604052565b7fffffffffffffffffffffffffffffffffffffffffffffffffffffffffffffffff8114610b5c5760010190565b908160209103126100a4575173ffffffffffffffffffffffffffffffffffffffff811681036100a45790565b519081600f0b82036100a457565b9060088110156106615760051b0190565b81810292918115918404141715610b5c57565b8115610cce570490565b7f4e487b7100000000000000000000000000000000000000000000000000000000600052601260045260246000fd5b90670de0b6b3a7640000907fffffffffffffffffffffffffffffffffffffffffffffffffffffffffffffffff8284099282810292838086109503948086039514610df95784831115610d9b578291096001821901821680920460028082600302188083028203028083028203028083028203028083028203028083028203028092029003029360018380600003040190848311900302920304170290565b60646040517f08c379a000000000000000000000000000000000000000000000000000000000815260206004820152601560248201527f4d6174683a206d756c446976206f766572666c6f7700000000000000000000006044820152fd5b505090610e069250610cc4565b90565b8015610f4657610ed4816000908360801c80610f3a575b508060401c80610f2d575b508060201c80610f20575b508060101c80610f13575b508060081c80610f06575b508060041c80610ef9575b508060021c80610eec575b50600191828092811c610ee5575b1c1b610e7c8185610cc4565b01811c610e898185610cc4565b01811c610e968185610cc4565b01811c610ea38185610cc4565b01811c610eb08185610cc4565b01811c610ebd8185610cc4565b01811c610eca8185610cc4565b01901c8092610cc4565b80821015610ee0575090565b905090565b0181610e70565b6002915091019038610e62565b6004915091019038610e57565b6008915091019038610e4c565b6010915091019038610e41565b6020915091019038610e36565b6040915091019038610e2b565b91505060809038610e20565b50600090565b80518210156106615760209160051b010190565b9060208101908151610f7457505050600090565b610f956040840151916020850192835191610f8f8383610f4c565b52610f4c565b50610fa08151610c39565b9052519080518211610fb4575b5050600190565b523880610fad565b91908201809211610b5c5756fea264697066735822122073d772ff8ed765e42f483643143320e6a99b5c1d0f59c400cb8f877926b7e80e64736f6c63430008130033",
  "devdoc": {
    "kind": "dev",
    "methods": {},
    "version": 1
  },
  "userdoc": {
    "kind": "user",
    "methods": {},
    "version": 1
  },
  "storageLayout": {
    "storage": [
      {
        "astId": 2740,
        "contract": "contracts/oracles/CurveOracle.sol:CurveOracle",
        "label": "registries",
        "offset": 0,
        "slot": "0",
        "type": "t_array(t_contract(ICurveRegistry)2276)11_storage"
      }
    ],
    "types": {
      "t_array(t_contract(ICurveRegistry)2276)11_storage": {
        "base": "t_contract(ICurveRegistry)2276",
        "encoding": "inplace",
        "label": "contract ICurveRegistry[11]",
        "numberOfBytes": "352"
      },
      "t_contract(ICurveRegistry)2276": {
        "encoding": "inplace",
        "label": "contract ICurveRegistry",
        "numberOfBytes": "20"
      }
    }
  }
}