{
  "address": "0xb57CdEC62Df2AA93AC4C2449Eb50eB4d2f264f3e",
  "abi": [
    {
      "inputs": [
        {
          "internalType": "contract ICurveProvider",
          "name": "_addressProvider",
          "type": "address"
        }
      ],
      "stateMutability": "nonpayable",
      "type": "constructor"
    },
    {
      "inputs": [],
      "name": "ConnectorShouldBeNone",
      "type": "error"
    },
    {
      "inputs": [],
      "name": "PoolNotFound",
      "type": "error"
    },
    {
      "inputs": [],
      "name": "PoolWithConnectorNotFound",
      "type": "error"
    },
    {
      "inputs": [],
      "name": "addressProvider",
      "outputs": [
        {
          "internalType": "contract ICurveProvider",
          "name": "",
          "type": "address"
        }
      ],
      "stateMutability": "view",
      "type": "function"
    },
    {
      "inputs": [
        {
          "internalType": "contract IERC20",
          "name": "_srcToken",
          "type": "address"
        },
        {
          "internalType": "contract IERC20",
          "name": "_dstToken",
          "type": "address"
        },
        {
          "internalType": "contract IERC20",
          "name": "connector",
          "type": "address"
        }
      ],
      "name": "getRate",
      "outputs": [
        {
          "internalType": "uint256",
          "name": "rate",
          "type": "uint256"
        },
        {
          "internalType": "uint256",
          "name": "weight",
          "type": "uint256"
        }
      ],
      "stateMutability": "view",
      "type": "function"
    }
  ],
  "transactionHash": "0x874a84084dcf2fae6e26d843604b63bb33d555881e699074f93db5fc3b30d6dd",
  "args": [
    "0x0000000022D53366457F9d5E68Ec105046FC4383"
  ],
  "numDeployments": 1,
  "solcInputHash": "d4aa12aaa031644ee8778b3df3bd0a69",
  "bytecode": "0x60a03461007057601f610ea038819003918201601f19168301916001600160401b038311848410176100755780849260209460405283398101031261007057516001600160a01b038116810361007057608052604051610e14908161008c8239608051818181608001526101aa0152f35b600080fd5b634e487b7160e01b600052604160045260246000fdfe608080604052600436101561001357600080fd5b60003560e01c90816314999e79146100a95750632954018c1461003557600080fd5b346100a45760007ffffffffffffffffffffffffffffffffffffffffffffffffffffffffffffffffc3601126100a457602060405173ffffffffffffffffffffffffffffffffffffffff7f0000000000000000000000000000000000000000000000000000000000000000168152f35b600080fd5b346100a45760607ffffffffffffffffffffffffffffffffffffffffffffffffffffffffffffffffc3601126100a45760043573ffffffffffffffffffffffffffffffffffffffff811681036100a4576024359173ffffffffffffffffffffffffffffffffffffffff831683036100a4576044359073ffffffffffffffffffffffffffffffffffffffff82168092036100a45760009073ffffffffffffffffffffffffffffffffffffffff60009303610b465750600091604051917f493f4f740000000000000000000000000000000000000000000000000000000083526000600484015260208360248173ffffffffffffffffffffffffffffffffffffffff7f0000000000000000000000000000000000000000000000000000000000000000165afa92831561061457600093610b25575b506040517f6982eb0b00000000000000000000000000000000000000000000000000000000815273ffffffffffffffffffffffffffffffffffffffff8616600482015273ffffffffffffffffffffffffffffffffffffffff871660248201526000604482015260208160648173ffffffffffffffffffffffffffffffffffffffff88165afa90811561061457600091610b06575b50939193905b73ffffffffffffffffffffffffffffffffffffffff821615610adf57604051907feb85226d00000000000000000000000000000000000000000000000000000000825273ffffffffffffffffffffffffffffffffffffffff8316600483015273ffffffffffffffffffffffffffffffffffffffff8716602483015273ffffffffffffffffffffffffffffffffffffffff8816604483015260608260648173ffffffffffffffffffffffffffffffffffffffff89165afa91821561061457600092600091600091610a86575b5061074a57604051927f92e3cc2d00000000000000000000000000000000000000000000000000000000845273ffffffffffffffffffffffffffffffffffffffff851660048501526101008460248173ffffffffffffffffffffffffffffffffffffffff8b165afa93841561061457600094610717575b506127106104236104096104046103e06fffffffffffffffffffffffffffffffff861689610c90565b516103fd6fffffffffffffffffffffffffffffffff88168a610c90565b5190610cd0565b610d95565b956fffffffffffffffffffffffffffffffff841690610c90565b5104809560008060405160208101907f5e0d443f0000000000000000000000000000000000000000000000000000000082526104ab8161047f888b8b602485016040919493926060820195600f0b8252600f0b60208201520152565b037fffffffffffffffffffffffffffffffffffffffffffffffffffffffffffffffe08101835282610b6e565b5190845afa926104b9610d2a565b938061070c575b1561064f5750505090506020818051810103126100a45760200151905b670de0b6b3a7640000938285810204851483151715610620578361050c6105119261051d976105179602610cf1565b610cd0565b90610d88565b94610d88565b907fffffffffffffffffffffffffffffffffffffffffffffffffffffffffffffffff811461062057600101926040517f6982eb0b00000000000000000000000000000000000000000000000000000000815273ffffffffffffffffffffffffffffffffffffffff8616600482015273ffffffffffffffffffffffffffffffffffffffff8716602482015284604482015260208160648173ffffffffffffffffffffffffffffffffffffffff88165afa908115610614576000916105e5575b5091939190610275565b610607915060203d60201161060d575b6105ff8183610b6e565b810190610bde565b876105db565b503d6105f5565b6040513d6000823e3d90fd5b7f4e487b7100000000000000000000000000000000000000000000000000000000600052601160045260246000fd5b6040517f556d6e9f0000000000000000000000000000000000000000000000000000000081526fffffffffffffffffffffffffffffffff91821660048201529416602485015260448401919091526020915082908173ffffffffffffffffffffffffffffffffffffffff81606481015b0392165afa908115610614576000916106da575b50906104dd565b90506020813d602011610704575b816106f560209383610b6e565b810103126100a45751896106d3565b3d91506106e8565b5060208451146104c0565b61073c9194506101003d61010011610743575b6107348183610b6e565b810190610c18565b928a6103b7565b503d61072a565b604051927f59f4f35100000000000000000000000000000000000000000000000000000000845273ffffffffffffffffffffffffffffffffffffffff851660048501526101008460248173ffffffffffffffffffffffffffffffffffffffff8b165afa93841561061457600094610a63575b506040517f313ce56700000000000000000000000000000000000000000000000000000000815260208160048173ffffffffffffffffffffffffffffffffffffffff8e165afa90811561061457600091610a44575b5061084e6108316fffffffffffffffffffffffffffffffff841687610c90565b516103fd6fffffffffffffffffffffffffffffffff861688610c90565b602460ff83168103116106205773ffffffffffffffffffffffffffffffffffffffff60208d6004604051809481937f313ce567000000000000000000000000000000000000000000000000000000008352165afa80156106145760ff91600091610a15575b501660ff8316016024039060ff8316602403821161062057610404610409916108de6108e494610ce3565b90610cf1565b51600e918260ff8216810311610620576109069260ff6108de92169003610ce3565b809560008060405160208101907f07211ef70000000000000000000000000000000000000000000000000000000082526109608161047f888b8b602485016040919493926060820195600f0b8252600f0b60208201520152565b5190845afa9261096e610d2a565b9380610a0a575b156109965750505090506020818051810103126100a45760200151906104dd565b6040517f85f11d1e0000000000000000000000000000000000000000000000000000000081526fffffffffffffffffffffffffffffffff91821660048201529416602485015260448401919091526020915082908173ffffffffffffffffffffffffffffffffffffffff81606481016106bf565b506020845114610975565b610a37915060203d602011610a3d575b610a2f8183610b6e565b810190610c77565b8e6108b3565b503d610a25565b610a5d915060203d602011610a3d57610a2f8183610b6e565b8b610811565b610a7f9194506101003d61010011610743576107348183610b6e565b928a6107bc565b935050506060823d606011610ad7575b81610aa360609383610b6e565b810103126100a457610ab482610c0a565b6040610ac260208501610c0a565b9301519081151582036100a45792908a610340565b3d9150610a96565b6040908580610af5575b82519182526020820152f35b9081610b0091610cf1565b90610ae9565b610b1f915060203d60201161060d576105ff8183610b6e565b8761026f565b610b3f91935060203d60201161060d576105ff8183610b6e565b91866101db565b807fccf7e6f70000000000000000000000000000000000000000000000000000000060049252fd5b90601f7fffffffffffffffffffffffffffffffffffffffffffffffffffffffffffffffe0910116810190811067ffffffffffffffff821117610baf57604052565b7f4e487b7100000000000000000000000000000000000000000000000000000000600052604160045260246000fd5b908160209103126100a4575173ffffffffffffffffffffffffffffffffffffffff811681036100a45790565b519081600f0b82036100a457565b9061010080838303126100a45781601f840112156100a4576040519281840184811067ffffffffffffffff821117610baf57604052839181019283116100a457905b828210610c675750505090565b8151815260209182019101610c5a565b908160209103126100a4575160ff811681036100a45790565b906008811015610ca15760051b0190565b7f4e487b7100000000000000000000000000000000000000000000000000000000600052603260045260246000fd5b8181029291811591840414171561062057565b604d811161062057600a0a90565b8115610cfb570490565b7f4e487b7100000000000000000000000000000000000000000000000000000000600052601260045260246000fd5b3d15610d83573d9067ffffffffffffffff8211610baf5760405191610d7760207fffffffffffffffffffffffffffffffffffffffffffffffffffffffffffffffe0601f8401160184610b6e565b82523d6000602084013e565b606090565b9190820180921161062057565b9060006003831115610dd157508160018082811c01915b848310610db857505050565b9193509083610dc78183610cf1565b01821c9190610dac565b91610dd857565b6001915056fea26469706673582212205308c8961f525101a79103b9815052efb3ee6ccf6e4dd471ac173f4059fd57a564736f6c63430008130033",
  "devdoc": {
    "kind": "dev",
    "methods": {},
    "version": 1
  },
  "userdoc": {
    "kind": "user",
    "methods": {},
    "version": 1
  },
  "storageLayout": {
    "storage": [],
    "types": null
  }
}