{
  "address": "0x03aA019F3B78110e030c34e9fA98047A1f62859A",
  "abi": [
    {
      "inputs": [
        {
          "internalType": "contract IDVMFactory",
          "name": "_DVMFactory",
          "type": "address"
        }
      ],
      "stateMutability": "nonpayable",
      "type": "constructor"
    },
    {
      "inputs": [],
      "name": "ConnectorShouldBeNone",
      "type": "error"
    },
    {
      "inputs": [],
      "name": "PoolNotFound",
      "type": "error"
    },
    {
      "inputs": [],
      "name": "PoolWithConnectorNotFound",
      "type": "error"
    },
    {
      "inputs": [],
      "name": "FACTORY",
      "outputs": [
        {
          "internalType": "contract IDVMFactory",
          "name": "",
          "type": "address"
        }
      ],
      "stateMutability": "view",
      "type": "function"
    },
    {
      "inputs": [
        {
          "internalType": "contract IERC20",
          "name": "srcToken",
          "type": "address"
        },
        {
          "internalType": "contract IERC20",
          "name": "dstToken",
          "type": "address"
        },
        {
          "internalType": "contract IERC20",
          "name": "connector",
          "type": "address"
        },
        {
          "internalType": "uint256",
          "name": "thresholdFilter",
          "type": "uint256"
        }
      ],
      "name": "getRate",
      "outputs": [
        {
          "internalType": "uint256",
          "name": "rate",
          "type": "uint256"
        },
        {
          "internalType": "uint256",
          "name": "weight",
          "type": "uint256"
        }
      ],
      "stateMutability": "view",
      "type": "function"
    }
  ],
  "args": [
    "0x72d220cE168C4f361dD4deE5D826a01AD8598f6C"
  ],
  "numDeployments": 1,
  "bytecode": "0x60a03461007157601f610da938819003918201601f19168301916001600160401b038311848410176100765780849260209460405283398101031261007157516001600160a01b038116810361007157608052604051610d1c908161008d823960805181818161040301526109990152f35b600080fd5b634e487b7160e01b600052604160045260246000fdfe60806040908082526004908136101561001757600080fd5b600090813560e01c9081632dd31000146103b95750633d549b321461003b57600080fd5b346103b65760807ffffffffffffffffffffffffffffffffffffffffffffffffffffffffffffffffc3601126103b657813573ffffffffffffffffffffffffffffffffffffffff8082168092036103b2576024918235908282168092036103ae57604435918383168093036103aa576064918235936100b76104b7565b508086036102395750906100ca91610940565b9490926100d78451610807565b96805b8a865182101561013a579061012f610111610135936101166101088d8d610101888f610558565b5116610ac2565b909491946104e9565b6106c4565b9051916101228361042b565b825260208201528b610839565b5061052b565b6100da565b50939796509450925090505b8295839560209586810151938a8201968588515280975b868910610189578c8c8c8c81610178575b8351928352820152f35b91816101839161059b565b9161016e565b90919293949596979961019d8b8351610558565b519b8a8d019c8d51888102908082048a149015171561020e576101c18c89516104e9565b1161020157916101e66101ee928f6101e0906101f496519051906104e9565b90610895565b9d5190610895565b9a61052b565b979695949392919061015d565b509b50996101f49061052b565b868660118c7f4e487b7100000000000000000000000000000000000000000000000000000000835252fd5b939895969197949061024e8561025692610940565b999095610940565b9961026c61026787518451906104e9565b610807565b96849a5b87518c101561039257908161028c8e93878f610101908d610558565b9d8e829b929c939c15908115610389575b5061037357895b885181101561034c578f908f918f928f938f948f958f968f8e61032a996101018a6102ce94610558565b9093919281158015610344575b610336576102fc610312956102f661012f9b61030c966104e9565b936104e9565b90508082101561032f57506106c4565b926105d4565b92519261031e8461042b565b83526020830152610839565b6102a4565b90506106c4565b50505050505050505061052b565b5084156102db565b50959450959850959850959a509a6103639061052b565b9a90919994969396959295610270565b959450959850959850959a509a6103639061052b565b9050158f61029d565b50949950959796995050509150949392919091610146565b8580fd5b8480fd5b8280fd5b80fd5b90503461042757817ffffffffffffffffffffffffffffffffffffffffffffffffffffffffffffffffc3601126104275760209073ffffffffffffffffffffffffffffffffffffffff7f0000000000000000000000000000000000000000000000000000000000000000168152f35b5080fd5b6040810190811067ffffffffffffffff82111761044757604052565b7f4e487b7100000000000000000000000000000000000000000000000000000000600052604160045260246000fd5b90601f7fffffffffffffffffffffffffffffffffffffffffffffffffffffffffffffffe0910116810190811067ffffffffffffffff82111761044757604052565b604051906060820182811067ffffffffffffffff82111761044757604052606060408360008152600060208201520152565b818102929181159184041417156104fc57565b7f4e487b7100000000000000000000000000000000000000000000000000000000600052601160045260246000fd5b7fffffffffffffffffffffffffffffffffffffffffffffffffffffffffffffffff81146104fc5760010190565b805182101561056c5760209160051b010190565b7f4e487b7100000000000000000000000000000000000000000000000000000000600052603260045260246000fd5b81156105a5570490565b7f4e487b7100000000000000000000000000000000000000000000000000000000600052601260045260246000fd5b907fffffffffffffffffffffffffffffffffffffffffffffffffffffffffffffffff818309818302918280831092039180830392146106b357670de0b6b3a76400009082821115610655577faccb18165bd6fe31ae1cf318dc5b51eee0e1ba569b88cd74c1773b91fac10669940990828211900360ee1b910360121c170290565b60646040517f08c379a000000000000000000000000000000000000000000000000000000000815260206004820152601560248201527f4d6174683a206d756c446976206f766572666c6f7700000000000000000000006044820152fd5b5050670de0b6b3a764000091500490565b80156108015761078f816000908360801c806107f5575b508060401c806107e8575b508060201c806107db575b508060101c806107ce575b508060081c806107c1575b508060041c806107b4575b508060021c806107a7575b50600191828092811c6107a0575b1c1b610737818561059b565b01811c610744818561059b565b01811c610751818561059b565b01811c61075e818561059b565b01811c61076b818561059b565b01811c610778818561059b565b01811c610785818561059b565b01901c809261059b565b8082101561079b575090565b905090565b018161072b565b600291509101903861071d565b6004915091019038610712565b6008915091019038610707565b60109150910190386106fc565b60209150910190386106f1565b60409150910190386106e6565b915050608090386106db565b50600090565b906108106104b7565b506040519160808160061b84010160405260008352600060208401526060830180604085015252565b906020810190815161084d57505050600090565b61086e60408401519160208501928351916108688383610558565b52610558565b50610879815161052b565b905251908051821161088d575b5050600190565b523880610886565b919082018092116104fc57565b90602090818382031261093b57825167ffffffffffffffff9384821161093b570181601f8201121561093b578051938411610447578360051b90604051946108ec85840187610476565b8552838086019282010192831161093b578301905b82821061090f575050505090565b815173ffffffffffffffffffffffffffffffffffffffff8116810361093b578152908301908301610901565b600080fd5b6040517f57a281dc0000000000000000000000000000000000000000000000000000000080825273ffffffffffffffffffffffffffffffffffffffff8381166004840152848116602484015291949093909260009290917f0000000000000000000000000000000000000000000000000000000000000000909116908387604481855afa968715610ab7578497610a9b575b5086511595861596610a17575b50505050508251156109ed57565b60046040517f76ecffc0000000000000000000000000000000000000000000000000000000008152fd5b60405190815273ffffffffffffffffffffffffffffffffffffffff91821660048201529216602483015292945090918290829060449082905afa918215610a8f578092610a6c575b50509138808080806109df565b610a8892503d8091833e610a808183610476565b8101906108a2565b3880610a5f565b604051903d90823e3d90fd5b610ab09197503d8086833e610a808183610476565b95386109d2565b6040513d86823e3d90fd5b6000926000809373ffffffffffffffffffffffffffffffffffffffff829416906040908151917f7d72150400000000000000000000000000000000000000000000000000000000835260208084600481885afa938415610cdc578694610cad575b508151947fbbf5ce780000000000000000000000000000000000000000000000000000000086528186600481845afa958615610ca3578796610c70575b5084151580610c67575b610b78575b50505050505050565b909295995060049396985081839295985051938480927fee27c6890000000000000000000000000000000000000000000000000000000082525afa928315610c5e57508792610c30575b50508115610be7575b945015610be257905b909138808080808080610b6f565b610bd4565b8015610c03576ec097ce7bc90715b34b9f100000000004610bcb565b6024867f4e487b710000000000000000000000000000000000000000000000000000000081526012600452fd5b90809250813d8311610c57575b610c478183610476565b810103126103aa57513880610bc2565b503d610c3d565b513d89823e3d90fd5b50851515610b6a565b9095508181813d8311610c9c575b610c888183610476565b81010312610c9857519438610b60565b8680fd5b503d610c7e565b83513d89823e3d90fd5b9080945081813d8311610cd5575b610cc58183610476565b810103126103aa57519238610b23565b503d610cbb565b82513d88823e3d90fdfea26469706673582212200b538e770906f153cf3b5bb782d51e6433ee8e1b8f6cd316ebe6194f5928e04f64736f6c63430008130033"
}