{
  "address": "0xE2B06CDBB6128347B11DE676DA8b51e1e1f7F76E",
  "abi": [
    {
      "inputs": [
        {
          "internalType": "address",
          "name": "_owner",
          "type": "address"
        }
      ],
      "stateMutability": "nonpayable",
      "type": "constructor"
    },
    {
      "inputs": [],
      "name": "NotAddedMarket",
      "type": "error"
    },
    {
      "inputs": [],
      "name": "NotRemovedMarket",
      "type": "error"
    },
    {
      "inputs": [],
      "name": "NotSupportedToken",
      "type": "error"
    },
    {
      "inputs": [
        {
          "internalType": "address",
          "name": "owner",
          "type": "address"
        }
      ],
      "name": "OwnableInvalidOwner",
      "type": "error"
    },
    {
      "inputs": [
        {
          "internalType": "address",
          "name": "account",
          "type": "address"
        }
      ],
      "name": "OwnableUnauthorizedAccount",
      "type": "error"
    },
    {
      "anonymous": false,
      "inputs": [
        {
          "indexed": true,
          "internalType": "address",
          "name": "previousOwner",
          "type": "address"
        },
        {
          "indexed": true,
          "internalType": "address",
          "name": "newOwner",
          "type": "address"
        }
      ],
      "name": "OwnershipTransferred",
      "type": "event"
    },
    {
      "inputs": [
        {
          "internalType": "address[]",
          "name": "tokens",
          "type": "address[]"
        }
      ],
      "name": "addMarkets",
      "outputs": [],
      "stateMutability": "nonpayable",
      "type": "function"
    },
    {
      "inputs": [
        {
          "internalType": "contract IERC20",
          "name": "",
          "type": "address"
        }
      ],
      "name": "assosiatedToken",
      "outputs": [
        {
          "internalType": "contract IERC20",
          "name": "",
          "type": "address"
        }
      ],
      "stateMutability": "view",
      "type": "function"
    },
    {
      "inputs": [
        {
          "internalType": "contract IERC20",
          "name": "",
          "type": "address"
        }
      ],
      "name": "baseToWbase",
      "outputs": [
        {
          "internalType": "contract IERC20",
          "name": "",
          "type": "address"
        }
      ],
      "stateMutability": "view",
      "type": "function"
    },
    {
      "inputs": [],
      "name": "owner",
      "outputs": [
        {
          "internalType": "address",
          "name": "",
          "type": "address"
        }
      ],
      "stateMutability": "view",
      "type": "function"
    },
    {
      "inputs": [
        {
          "internalType": "address[]",
          "name": "tokens",
          "type": "address[]"
        }
      ],
      "name": "removeMarkets",
      "outputs": [],
      "stateMutability": "nonpayable",
      "type": "function"
    },
    {
      "inputs": [],
      "name": "renounceOwnership",
      "outputs": [],
      "stateMutability": "nonpayable",
      "type": "function"
    },
    {
      "inputs": [
        {
          "internalType": "address",
          "name": "newOwner",
          "type": "address"
        }
      ],
      "name": "transferOwnership",
      "outputs": [],
      "stateMutability": "nonpayable",
      "type": "function"
    },
    {
      "inputs": [
        {
          "internalType": "contract IERC20",
          "name": "",
          "type": "address"
        }
      ],
      "name": "wbaseToBase",
      "outputs": [
        {
          "internalType": "contract IERC20",
          "name": "",
          "type": "address"
        }
      ],
      "stateMutability": "view",
      "type": "function"
    },
    {
      "inputs": [
        {
          "internalType": "contract IERC20",
          "name": "token",
          "type": "address"
        }
      ],
      "name": "wrap",
      "outputs": [
        {
          "internalType": "contract IERC20",
          "name": "wrappedToken",
          "type": "address"
        },
        {
          "internalType": "uint256",
          "name": "rate",
          "type": "uint256"
        }
      ],
      "stateMutability": "view",
      "type": "function"
    }
  ],
  "transactionHash": "0xe9aade571e8efacaba118f85e6cec4b098e28f461c3b63d3c877e65520d70277",
  "args": [
    "0x56E44874F624EbDE6efCc783eFD685f0FBDC6dcF"
  ],
  "numDeployments": 1,
  "bytecode": "0x6080346100b957601f610a6538819003918201601f19168301916001600160401b038311848410176100bd578084926020946040528339810103126100b957516001600160a01b0390818116908190036100b95780156100a1575f80546001600160a01b03198116831782556040519316907f8be0079c531659141344cd1fd0a4f28419497f9722a3daafe3b4186f6b6457e09080a361099390816100d28239f35b604051631e4fbdf760e01b81525f6004820152602490fd5b5f80fd5b634e487b7160e01b5f52604160045260245ffdfe60406080815260049081361015610014575f80fd5b5f3560e01c8063023276f0146105bd5780631471c9221461055657806343654a30146104ef5780634895028514610488578063715018a6146103ee5780638da5cb5b1461039d578063bfef7bdf1461028c578063da40385d146101645763f2fde38b1461007f575f80fd5b346101605760207ffffffffffffffffffffffffffffffffffffffffffffffffffffffffffffffffc3601126101605781359173ffffffffffffffffffffffffffffffffffffffff91828416809403610160576100d961090d565b83156101315750505f54827fffffffffffffffffffffffff00000000000000000000000000000000000000008216175f55167f8be0079c531659141344cd1fd0a4f28419497f9722a3daafe3b4186f6b6457e05f80a3005b905f60249251917f1e4fbdf7000000000000000000000000000000000000000000000000000000008352820152fd5b5f80fd5b5090346101605761017436610694565b61017c61090d565b5f5b815181101561028a5773ffffffffffffffffffffffffffffffffffffffff90816101a882856108a0565b511691855180937f38d52e0f000000000000000000000000000000000000000000000000000000008252818760209384935afa801561028057826002916001965f91610253575b501691836101fd86896108a0565b51165f5260038152885f20937fffffffffffffffffffffffff000000000000000000000000000000000000000094848682541617905561023d86896108a0565b5116925f5252865f20918254161790550161017e565b6102739150843d8611610279575b61026b8183610626565b8101906108e1565b5f6101ef565b503d610261565b87513d5f823e3d90fd5b005b5034610160579061029c36610694565b916102a561090d565b5f925b805184101561028a5773ffffffffffffffffffffffffffffffffffffffff93846102d282846108a0565b511694835180967f38d52e0f000000000000000000000000000000000000000000000000000000008252818760209384935afa908115610393576001949596975f92610373575b50826002929361032986896108a0565b51165f5260038252875f20937fffffffffffffffffffffffff000000000000000000000000000000000000000094858154169055165f5252845f20908154169055019291906102a8565b6002925061038d90823d84116102795761026b8183610626565b91610319565b85513d5f823e3d90fd5b5034610160575f7ffffffffffffffffffffffffffffffffffffffffffffffffffffffffffffffffc3601126101605760209073ffffffffffffffffffffffffffffffffffffffff5f54169051908152f35b34610160575f7ffffffffffffffffffffffffffffffffffffffffffffffffffffffffffffffffc3601126101605761042461090d565b5f73ffffffffffffffffffffffffffffffffffffffff81547fffffffffffffffffffffffff000000000000000000000000000000000000000081168355167f8be0079c531659141344cd1fd0a4f28419497f9722a3daafe3b4186f6b6457e08280a3005b5090346101605760207ffffffffffffffffffffffffffffffffffffffffffffffffffffffffffffffffc36011261016057359073ffffffffffffffffffffffffffffffffffffffff808316809303610160576020925f5260018352815f2054169051908152f35b5090346101605760207ffffffffffffffffffffffffffffffffffffffffffffffffffffffffffffffffc36011261016057359073ffffffffffffffffffffffffffffffffffffffff808316809303610160576020925f5260038352815f2054169051908152f35b5090346101605760207ffffffffffffffffffffffffffffffffffffffffffffffffffffffffffffffffc36011261016057359073ffffffffffffffffffffffffffffffffffffffff808316809303610160576020925f5260028352815f2054169051908152f35b5090346101605760207ffffffffffffffffffffffffffffffffffffffffffffffffffffffffffffffffc360112610160573573ffffffffffffffffffffffffffffffffffffffff9081811681036101605761061790610752565b90918351921682526020820152f35b90601f7fffffffffffffffffffffffffffffffffffffffffffffffffffffffffffffffe0910116810190811067ffffffffffffffff82111761066757604052565b7f4e487b71000000000000000000000000000000000000000000000000000000005f52604160045260245ffd5b6020807ffffffffffffffffffffffffffffffffffffffffffffffffffffffffffffffffc8301126101605767ffffffffffffffff916004358381116101605781602382011215610160578060040135938411610667578360051b90604051946107006020840187610626565b85526024602086019282010192831161016057602401905b828210610726575050505090565b813573ffffffffffffffffffffffffffffffffffffffff81168103610160578152908301908301610718565b9073ffffffffffffffffffffffffffffffffffffffff80921691825f5260206003815260409382855f2054169260028352855f2054168315155f1461081e575090806024928651938480927f07a2d13a000000000000000000000000000000000000000000000000000000008252670de0b6b3a764000060048301525afa94851561081557505f946107e5575b50509190565b9080929450813d831161080e575b6107fd8183610626565b810103126101605751915f806107df565b503d6107f3565b513d5f823e3d90fd5b9250508115610877578351907fc6e6f592000000000000000000000000000000000000000000000000000000008252670de0b6b3a764000060048301528082602481865afa94851561081557505f946107e55750509190565b600484517fc8a08d6f000000000000000000000000000000000000000000000000000000008152fd5b80518210156108b45760209160051b010190565b7f4e487b71000000000000000000000000000000000000000000000000000000005f52603260045260245ffd5b90816020910312610160575173ffffffffffffffffffffffffffffffffffffffff811681036101605790565b73ffffffffffffffffffffffffffffffffffffffff5f5416330361092d57565b60246040517f118cdaa7000000000000000000000000000000000000000000000000000000008152336004820152fdfea26469706673582212202d6af06104b044e3eac63a94c2d7e00f99fb716f8d37e328b2fc1368f26e2e6a64736f6c63430008170033"
}