{
  "address": "0xb194735EdC3Ab0F77Ef1E961f7e14E12dC0CF2AF",
  "abi": [
    {
      "inputs": [
        {
          "internalType": "contract IKyberDmmFactory",
          "name": "_factory",
          "type": "address"
        }
      ],
      "stateMutability": "nonpayable",
      "type": "constructor"
    },
    {
      "inputs": [],
      "name": "ConnectorShouldBeNone",
      "type": "error"
    },
    {
      "inputs": [],
      "name": "MathOverflowedMulDiv",
      "type": "error"
    },
    {
      "inputs": [],
      "name": "PoolNotFound",
      "type": "error"
    },
    {
      "inputs": [],
      "name": "PoolWithConnectorNotFound",
      "type": "error"
    },
    {
      "inputs": [],
      "name": "FACTORY",
      "outputs": [
        {
          "internalType": "contract IKyberDmmFactory",
          "name": "",
          "type": "address"
        }
      ],
      "stateMutability": "view",
      "type": "function"
    },
    {
      "inputs": [
        {
          "internalType": "contract IERC20",
          "name": "srcToken",
          "type": "address"
        },
        {
          "internalType": "contract IERC20",
          "name": "dstToken",
          "type": "address"
        },
        {
          "internalType": "contract IERC20",
          "name": "connector",
          "type": "address"
        },
        {
          "internalType": "uint256",
          "name": "thresholdFilter",
          "type": "uint256"
        }
      ],
      "name": "getRate",
      "outputs": [
        {
          "internalType": "uint256",
          "name": "rate",
          "type": "uint256"
        },
        {
          "internalType": "uint256",
          "name": "weight",
          "type": "uint256"
        }
      ],
      "stateMutability": "view",
      "type": "function"
    }
  ],
  "transactionHash": "0xf80a61be158a3ab1ea83c194d3b64bb746afc807a214d3b60722e847d2c5b3dc",
  "args": [
    "0x833e4083B7ae46CeA85695c4f7ed25CDAd8886dE"
  ],
  "numDeployments": 1,
  "bytecode": "0x60a03461007857601f610ca638819003918201601f19168301916001600160401b0383118484101761007c5780849260209460405283398101031261007857516001600160a01b038116810361007857608052604051610c15908161009182396080518181816101160152818161032201526105d10152f35b5f80fd5b634e487b7160e01b5f52604160045260245ffdfe608060409080825260049081361015610016575f80fd5b5f3560e01c9081632dd31000146105895750633d549b3214610036575f80fd5b346105855760807ffffffffffffffffffffffffffffffffffffffffffffffffffffffffffffffffc3601126105855773ffffffffffffffffffffffffffffffffffffffff813581811681036105855760249160243590808216820361058557604435818116908181036105855760649083606435936100b361067f565b5003610315575087517f5b1dc86f00000000000000000000000000000000000000000000000000000000815273ffffffffffffffffffffffffffffffffffffffff80871689830190815290861660208201529092905f90849081906040010381877f0000000000000000000000000000000000000000000000000000000000000000165afa92831561030b575f936102e7575b508251156102bf5761015883516107c9565b965f5b8a85518210156101c257906101bb61019d6001936101a261018a8d8d8d610182898f610788565b511691610814565b6101978282969396610a81565b94610748565b610940565b9051916101ae836105f5565b825260208201528b610b55565b500161015b565b509297909650909450925050505b5f945f9460209060208401519389810196858851525f975b868910610215578b8b8b80610204575b82519182526020820152f35b908161020f91610909565b906101f8565b9091929394959697986102298a8351610788565b519a868c019b8c51878102908082048914901517156102945761024d8c8851610748565b1161028857916102706102789261026a8f60019651905190610748565b90610bd2565b9c5190610bd2565b995b0197969594939291906101e8565b509a509860019061027a565b8560118b7f4e487b71000000000000000000000000000000000000000000000000000000005f52525ffd5b8789517f76ecffc0000000000000000000000000000000000000000000000000000000008152fd5b6103049193503d805f833e6102fc818361063e565b8101906106af565b915f610146565b89513d5f823e3d90fd5b96979391839186918a98957f000000000000000000000000000000000000000000000000000000000000000016808b8951809b81927f5b1dc86f000000000000000000000000000000000000000000000000000000009e8f84528301916103a29290602090939293604083019473ffffffffffffffffffffffffffffffffffffffff809216845216910152565b03815a935f94fa98891561055357908c8c925f9b61055d575b5089519b8c5273ffffffffffffffffffffffffffffffffffffffff928316908c019081529187166020830152989997989697965f918891908290819060400103915afa958615610553575f96610537575b50885115801561052e575b6105065790959961043361042e8a51885190610748565b6107c9565b965f925b8a518410156104f1575f5b88518110156104e557806104d78c8f8f6001956104b88f8f8f958f918f9761018261047c6104849585846101826104b29e6104be9e610788565b989096610788565b9590936104ac6104948285610748565b61049e878a610748565b808210156104de5750610940565b96610748565b92610748565b90610a81565b9151916104ca836105f5565b825260208201528c610b55565b5001610442565b9050610940565b50600190930192610437565b989b919a509850969594506101d09350505050565b8a88517f2fadbd9d000000000000000000000000000000000000000000000000000000008152fd5b50855115610417565b61054c9196503d805f833e6102fc818361063e565b945f61040c565b88513d5f823e3d90fd5b88999a9b50906105795f9493923d8087833e6102fc818361063e565b9b9a99509091926103bb565b5f80fd5b34610585575f7ffffffffffffffffffffffffffffffffffffffffffffffffffffffffffffffffc3601126105855760209073ffffffffffffffffffffffffffffffffffffffff7f0000000000000000000000000000000000000000000000000000000000000000168152f35b6040810190811067ffffffffffffffff82111761061157604052565b7f4e487b71000000000000000000000000000000000000000000000000000000005f52604160045260245ffd5b90601f7fffffffffffffffffffffffffffffffffffffffffffffffffffffffffffffffe0910116810190811067ffffffffffffffff82111761061157604052565b604051906060820182811067ffffffffffffffff8211176106115760405260606040835f81525f60208201520152565b90602090818382031261058557825167ffffffffffffffff93848211610585570181601f82011215610585578051938411610611578360051b90604051946106f98584018761063e565b85528380860192820101928311610585578301905b82821061071c575050505090565b815173ffffffffffffffffffffffffffffffffffffffff8116810361058557815290830190830161070e565b8181029291811591840414171561075b57565b7f4e487b71000000000000000000000000000000000000000000000000000000005f52601160045260245ffd5b805182101561079c5760209160051b010190565b7f4e487b71000000000000000000000000000000000000000000000000000000005f52603260045260245ffd5b906107d261067f565b506040519160808160061b8401016040525f83525f60208401526060830180604085015252565b51906dffffffffffffffffffffffffffff8216820361058557565b9160a09293919373ffffffffffffffffffffffffffffffffffffffff9384926004604051809581937fd6694027000000000000000000000000000000000000000000000000000000008352165afa9384156108fe575f925f9561089b575b50806dffffffffffffffffffffffffffff8096169586941696169116116108965750565b929150565b9250935060a0823d60a0116108f6575b816108b860a0938361063e565b81010312610585576108c9826107f9565b506108d6602083016107f9565b506108ef60606108e8604085016107f9565b93016107f9565b935f610872565b3d91506108ab565b6040513d5f823e3d90fd5b8115610913570490565b7f4e487b71000000000000000000000000000000000000000000000000000000005f52601260045260245ffd5b8015610a7c57610a0a815f908360801c80610a70575b508060401c80610a63575b508060201c80610a56575b508060101c80610a49575b508060081c80610a3c575b508060041c80610a2f575b508060021c80610a22575b50600191828092811c610a1b575b1c1b6109b28185610909565b01811c6109bf8185610909565b01811c6109cc8185610909565b01811c6109d98185610909565b01811c6109e68185610909565b01811c6109f38185610909565b01811c610a008185610909565b01901c8092610909565b80821015610a16575090565b905090565b01816109a6565b600291509101905f610998565b600491509101905f61098d565b600891509101905f610982565b601091509101905f610977565b602091509101905f61096c565b604091509101905f610961565b9150506080905f610956565b505f90565b670de0b6b3a764000091828202917fffffffffffffffffffffffffffffffffffffffffffffffffffffffffffffffff84820993838086109503948086039514610b455784831115610b1b57829109815f038216809204600280826003021880830282030280830282030280830282030280830282030280830282030280920290030293600183805f03040190848311900302920304170290565b60046040517f227bc153000000000000000000000000000000000000000000000000000000008152fd5b505090610b529250610909565b90565b9060208101908151610b68575050505f90565b610b896040840151916020850192835191610b838383610788565b52610788565b5080517fffffffffffffffffffffffffffffffffffffffffffffffffffffffffffffffff811461075b576001019052519080518211610bca575b5050600190565b525f80610bc3565b9190820180921161075b5756fea2646970667358221220f14f837aed76d933e5eae7d9cf3c247f9ed85816ebc918dda026a623fac165b264736f6c63430008170033"
}