{
  "address": "0x1b947aF8b3dd6aa96F8726cd92c894D0Ba6367a3",
  "abi": [
    {
      "inputs": [
        {
          "internalType": "contract IKyberDmmFactory",
          "name": "_factory",
          "type": "address"
        }
      ],
      "stateMutability": "nonpayable",
      "type": "constructor"
    },
    {
      "inputs": [],
      "name": "ConnectorShouldBeNone",
      "type": "error"
    },
    {
      "inputs": [],
      "name": "PoolNotFound",
      "type": "error"
    },
    {
      "inputs": [],
      "name": "PoolWithConnectorNotFound",
      "type": "error"
    },
    {
      "inputs": [],
      "name": "factory",
      "outputs": [
        {
          "internalType": "contract IKyberDmmFactory",
          "name": "",
          "type": "address"
        }
      ],
      "stateMutability": "view",
      "type": "function"
    },
    {
      "inputs": [
        {
          "internalType": "contract IERC20",
          "name": "srcToken",
          "type": "address"
        },
        {
          "internalType": "contract IERC20",
          "name": "dstToken",
          "type": "address"
        },
        {
          "internalType": "contract IERC20",
          "name": "connector",
          "type": "address"
        }
      ],
      "name": "getRate",
      "outputs": [
        {
          "internalType": "uint256",
          "name": "rate",
          "type": "uint256"
        },
        {
          "internalType": "uint256",
          "name": "weight",
          "type": "uint256"
        }
      ],
      "stateMutability": "view",
      "type": "function"
    }
  ],
  "transactionHash": "0xf1053edfbfdbb3a660c38e1e1e58359b5951bee2ec03f62a16186c7214eaaf1b",
  "args": [
    "0x833e4083B7ae46CeA85695c4f7ed25CDAd8886dE"
  ],
  "numDeployments": 1,
  "solcInputHash": "3c70b77feb8180d36157f2409ed8a7ce",
  "bytecode": "0x60a03461007757601f6109e038819003918201601f19168301916001600160401b0383118484101761007c5780849260209460405283398101031261007757516001600160a01b03811681036100775760805260405161094d9081610093823960805181818160930152818161019d015261031a0152f35b600080fd5b634e487b7160e01b600052604160045260246000fdfe61012060e090604082528060405260048036101561001c57600080fd5b60009060c0928284528235851c92836314999e79146100bf5750505063c45a01551461004757600080fd5b346100bb575190817ffffffffffffffffffffffffffffffffffffffffffffffffffffffffffffffffc3601126100b757602090515173ffffffffffffffffffffffffffffffffffffffff7f0000000000000000000000000000000000000000000000000000000000000000168152f35b5080fd5b5180fd5b85918591346105e45760607ffffffffffffffffffffffffffffffffffffffffffffffffffffffffffffffffc3601126105e457843573ffffffffffffffffffffffffffffffffffffffff80821682036105e0576024359080821682036105dc5760443561010052806101005116948561010051036105d8578185961460001461031157508651517f5b1dc86f000000000000000000000000000000000000000000000000000000008152865173ffffffffffffffffffffffffffffffffffffffff8086168b84019081529085166020820152829081906040010381857f0000000000000000000000000000000000000000000000000000000000000000165afa908115610304578751916102e3575b508051156102ba57865195945b815187101561028a576101fb836101f289856106f5565b51168587610824565b919061020f61020a84836107ad565b6107c0565b92670de0b6b3a76400009081810291818304149015171561025c5761025392610247856102426001979561024d95610738565b6107ad565b90610771565b97610771565b960195946101db565b60248b60118f7f4e487b71000000000000000000000000000000000000000000000000000000008351525251fd5b9850505050509150505b806102a9575b81515192835260208301525190f35b91826102b491610738565b9161029a565b888851517f76ecffc0000000000000000000000000000000000000000000000000000000008152fd5b6102fe913d8091833e6102f681836105e7565b810190610657565b896101ce565b88515188513d90823e3d90fd5b959190809897987f000000000000000000000000000000000000000000000000000000000000000016937f5b1dc86f000000000000000000000000000000000000000000000000000000008089528451898061039b8d866101005191840190602090939293604083019473ffffffffffffffffffffffffffffffffffffffff809216845216910152565b0381895afa9889156105cb57908a9186519060a09b828d526105af575b50508b5151968791825281806103fe888a51966101005190840190602090939293604083019473ffffffffffffffffffffffffffffffffffffffff809216845216910152565b03915afa9485156105a257845195610587575b5087515115801561057e575b610555578351999796955b8751518b10156105455797958451986080998a525b86518a511015610536576104b4908a61047a6104868f610470898f819361046491516106f5565b5116610100518a610824565b939094518d6106f5565b51168961010051610824565b9490916104ae61049682866107ad565b6104a085896107ad565b8082101561052f57506107c0565b956107ad565b670de0b6b3a76400009081810291818304149015171561050057846102426104ed946104e86104f398979561024795610738565b610738565b92610771565b89516001018a529061043d565b60248f60118c917f4e487b71000000000000000000000000000000000000000000000000000000008351525251fd5b90506107c0565b6001909b019a96985095610428565b9950505050505091925050610294565b888a51517f2fadbd9d000000000000000000000000000000000000000000000000000000008152fd5b5084511561041d565b61059b91953d8091833e6102f681836105e7565b938a610411565b8a515185513d90823e3d90fd5b6105c2913d8091833e6102f681836105e7565b8a528c806103b8565b8b515186513d90823e3d90fd5b8480fd5b8380fd5b8280fd5b80fd5b90601f7fffffffffffffffffffffffffffffffffffffffffffffffffffffffffffffffe0910116810190811067ffffffffffffffff82111761062857604052565b7f4e487b7100000000000000000000000000000000000000000000000000000000600052604160045260246000fd5b9060209081838203126106f057825167ffffffffffffffff938482116106f0570181601f820112156106f0578051938411610628578360051b90604051946106a1858401876105e7565b855283808601928201019283116106f0578301905b8282106106c4575050505090565b815173ffffffffffffffffffffffffffffffffffffffff811681036106f05781529083019083016106b6565b600080fd5b80518210156107095760209160051b010190565b7f4e487b7100000000000000000000000000000000000000000000000000000000600052603260045260246000fd5b8115610742570490565b7f4e487b7100000000000000000000000000000000000000000000000000000000600052601260045260246000fd5b9190820180921161077e57565b7f4e487b7100000000000000000000000000000000000000000000000000000000600052601160045260246000fd5b8181029291811591840414171561077e57565b90600060038311156107fc57508160018082811c01915b8483106107e357505050565b91935090836107f28183610738565b01821c91906107d7565b9161080357565b60019150565b51906dffffffffffffffffffffffffffff821682036106f057565b929092604051907fd669402700000000000000000000000000000000000000000000000000000000825260a08260048173ffffffffffffffffffffffffffffffffffffffff8098165afa93841561090b5760009283956108a8575b50806dffffffffffffffffffffffffffff8096169586941696169116116108a35750565b929150565b9290945060a0833d8211610903575b816108c460a093836105e7565b810103126105e457506108d682610809565b506108e360208301610809565b506108fc60606108f560408501610809565b9301610809565b933861087f565b3d91506108b7565b6040513d6000823e3d90fdfea2646970667358221220ef16e66ef1540996169606abb17f4b3b3e62bfddb94a571fc95afff3a254cf1864736f6c63430008130033",
  "devdoc": {
    "kind": "dev",
    "methods": {},
    "version": 1
  },
  "userdoc": {
    "kind": "user",
    "methods": {},
    "version": 1
  },
  "storageLayout": {
    "storage": [],
    "types": null
  }
}