{
  "address": "0x9Fba28a4A604F8116B908B646306E6Fa8BA5286F",
  "abi": [
    {
      "inputs": [],
      "name": "FACTORY",
      "outputs": [
        {
          "internalType": "address",
          "name": "",
          "type": "address"
        }
      ],
      "stateMutability": "view",
      "type": "function"
    },
    {
      "inputs": [],
      "name": "POOL_INIT_CODE_HASH",
      "outputs": [
        {
          "internalType": "bytes32",
          "name": "",
          "type": "bytes32"
        }
      ],
      "stateMutability": "view",
      "type": "function"
    },
    {
      "inputs": [
        {
          "internalType": "contract IERC20",
          "name": "srcToken",
          "type": "address"
        },
        {
          "internalType": "contract IERC20",
          "name": "dstToken",
          "type": "address"
        },
        {
          "internalType": "contract IERC20",
          "name": "connector",
          "type": "address"
        }
      ],
      "name": "getRate",
      "outputs": [
        {
          "internalType": "uint256",
          "name": "rate",
          "type": "uint256"
        },
        {
          "internalType": "uint256",
          "name": "weight",
          "type": "uint256"
        }
      ],
      "stateMutability": "view",
      "type": "function"
    }
  ],
  "transactionHash": "0x952621cef8b903d2cd92e8a34fc82be931fa3126ef2d293e5c18b90917a5ea87",
  "args": [],
  "numDeployments": 2,
  "solcInputHash": "43e935d067f28b624f6f105282067700",
  "bytecode": "0x608060405234801561001057600080fd5b50610cc5806100206000396000f3fe608060405234801561001057600080fd5b50600436106100415760003560e01c806314999e79146100465780632dd31000146100a4578063dc6fd8ab146100e8575b600080fd5b61008b6004803603606081101561005c57600080fd5b5073ffffffffffffffffffffffffffffffffffffffff8135811691602081013582169160409091013516610121565b6040805192835260208301919091528051918290030190f35b6100bf731f98431c8ad98523631ae4a59f267346ea31f98481565b6040805173ffffffffffffffffffffffffffffffffffffffff9092168252519081900360200190f35b61010f7fe34f199b19b2b4f47f68442619d555527d244f78a3297ea89325f843f87b8b5481565b60408051918252519081900360200190f35b60408051608081018252606481526101f46020820152610bb891810191909152612710606082015260009081907fffffffffffffffffffffffff000000000000000000000000000000000000000173ffffffffffffffffffffffffffffffffffffffff8516016101f25760005b60048110156101ec576000806101bb89898686600481106101b1576101b16108ac565b60200201516102f3565b90925090506101d46101cd8383610823565b8790610836565b95506101e08582610836565b9450505060010161018e565b506102cc565b60005b60048110156102ca5760005b60048110156102c1576000806102248a898787600481106101b1576101b16108ac565b91509150806000036102375750506102b9565b6000806102518a8c8988600481106101b1576101b16108ac565b915091508060000361026657505050506102b9565b6000610273828502610842565b90506102a561029e82610298670de0b6b3a76400006102928a89610823565b906108a0565b90610823565b8b90610836565b99506102b18982610836565b985050505050505b600101610201565b506001016101f5565b505b81156102ea576102dc8284610939565b92506102e782610842565b91505b50935093915050565b6000806000808573ffffffffffffffffffffffffffffffffffffffff168773ffffffffffffffffffffffffffffffffffffffff1610610333578587610336565b86865b6040805173ffffffffffffffffffffffffffffffffffffffff8085166020808401919091529084168284015262ffffff8a16606080840191909152835180840390910181526080830184528051908201207fff0000000000000000000000000000000000000000000000000000000000000060a08401527f1f98431c8ad98523631ae4a59f267346ea31f98400000000000000000000000060a184015260b58301527fe34f199b19b2b4f47f68442619d555527d244f78a3297ea89325f843f87b8b5460d5808401919091528351808403909101815260f59092019092528051910120919350915073ffffffffffffffffffffffffffffffffffffffff81163b610449576000809450945050505061081b565b8073ffffffffffffffffffffffffffffffffffffffff16631a6865026040518163ffffffff1660e01b8152600401602060405180830381865afa158015610494573d6000803e3d6000fd5b505050506040513d60208110156104aa57600080fd5b50516fffffffffffffffffffffffffffffffff16935060008490036104d8576000809450945050505061081b565b6000808273ffffffffffffffffffffffffffffffffffffffff16633850c7bd6040518163ffffffff1660e01b815260040160e060405180830381865afa158015610526573d6000803e3d6000fd5b505050506040513d60e081101561053c57600080fd5b508051602091820151604080517fd0c93a7c000000000000000000000000000000000000000000000000000000008152905173ffffffffffffffffffffffffffffffffffffffff93841696509194506000939287169263d0c93a7c926004808401938290030181865afa1580156105b7573d6000803e3d6000fd5b505050506040513d60208110156105cd57600080fd5b50519050806105dc818461094d565b6105e691906109c1565b9150868060015b600281810b1361077c57600073ffffffffffffffffffffffffffffffffffffffff881663f30dba9361061f87856109c1565b6106299089610a6a565b6040518263ffffffff1660e01b8152600401808260020b815260200191505061010060405180830381865afa158015610666573d6000803e3d6000fd5b505050506040513d61010081101561067d57600080fd5b5060200151600f0b90506106918184610acd565b9250826000036106b1576000809b509b505050505050505050505061081b565b73ffffffffffffffffffffffffffffffffffffffff881663f30dba936106d787856109c1565b6106e19089610b41565b6040518263ffffffff1660e01b8152600401808260020b815260200191505061010060405180830381865afa15801561071e573d6000803e3d6000fd5b505050506040513d61010081101561073557600080fd5b5060200151600f0b90506107498185610ba5565b935083600003610769576000809b509b505050505050505050505061081b565b508061077481610c19565b9150506105ed565b508773ffffffffffffffffffffffffffffffffffffffff168d73ffffffffffffffffffffffffffffffffffffffff16036107da57606085816107c682670de0b6b3a7640000610c3a565b6107d192911c610c3a565b901c9950610812565b84610805817f0de0b6b3a7640000000000000000000000000000000000000000000000000000610939565b61080f9190610939565b99505b50505050505050505b935093915050565b600061082f8284610c3a565b9392505050565b600061082f8284610c77565b60006003821115610891575080600160028204015b8181101561088b57809150600281828581610874576108746108db565b040181610883576108836108db565b049050610857565b50919050565b811561089b575060015b919050565b600061082f8284610939565b7f4e487b7100000000000000000000000000000000000000000000000000000000600052603260045260246000fd5b7f4e487b7100000000000000000000000000000000000000000000000000000000600052601260045260246000fd5b7f4e487b7100000000000000000000000000000000000000000000000000000000600052601160045260246000fd5b600082610948576109486108db565b500490565b60008160020b8360020b80610964576109646108db565b7fffffffffffffffffffffffffffffffffffffffffffffffffffffffffffffffff81147fffffffffffffffffffffffffffffffffffffffffffffffffffffffffff800000831416156109b8576109b861090a565b90059392505050565b60008160020b8360020b627fffff6000821360008413838304851182821616156109ed576109ed61090a565b7fffffffffffffffffffffffffffffffffffffffffffffffffffffffffff8000006000851286820586128184161615610a2857610a2861090a565b60008712925085820587128484161615610a4457610a4461090a565b85850587128184161615610a5a57610a5a61090a565b5050509290910295945050505050565b60008160020b8360020b6000821282627fffff03821381151615610a9057610a9061090a565b827fffffffffffffffffffffffffffffffffffffffffffffffffffffffffff800000038212811615610ac457610ac461090a565b50019392505050565b6000808212827f7fffffffffffffffffffffffffffffffffffffffffffffffffffffffffffffff03841381151615610b0757610b0761090a565b827f8000000000000000000000000000000000000000000000000000000000000000038412811615610b3b57610b3b61090a565b50500190565b60008160020b8360020b60008112817fffffffffffffffffffffffffffffffffffffffffffffffffffffffffff80000001831281151615610b8457610b8461090a565b81627fffff018313811615610b9b57610b9b61090a565b5090039392505050565b6000808312837f800000000000000000000000000000000000000000000000000000000000000001831281151615610bdf57610bdf61090a565b837f7fffffffffffffffffffffffffffffffffffffffffffffffffffffffffffffff018313811615610c1357610c1361090a565b50500390565b60008160020b627fffff8103610c3157610c3161090a565b60010192915050565b6000817fffffffffffffffffffffffffffffffffffffffffffffffffffffffffffffffff0483118215151615610c7257610c7261090a565b500290565b60008219821115610c8a57610c8a61090a565b50019056fea2646970667358221220a5b6f61a3fb5c27d0a738b64f3b328fd1ff232ef24a5d04686c21124a877eb0864736f6c634300080f0033",
  "devdoc": {
    "kind": "dev",
    "methods": {},
    "version": 1
  },
  "userdoc": {
    "kind": "user",
    "methods": {},
    "version": 1
  },
  "storageLayout": {
    "storage": [],
    "types": null
  }
}