{
  "address": "0x8A1161d1cf202eA2bdAC375a736D8436d80356a5",
  "abi": [
    {
      "inputs": [
        {
          "internalType": "bytes32",
          "name": "_poolInitCodeHash",
          "type": "bytes32"
        }
      ],
      "stateMutability": "nonpayable",
      "type": "constructor"
    },
    {
      "inputs": [],
      "name": "FACTORY",
      "outputs": [
        {
          "internalType": "address",
          "name": "",
          "type": "address"
        }
      ],
      "stateMutability": "view",
      "type": "function"
    },
    {
      "inputs": [
        {
          "internalType": "contract IERC20",
          "name": "srcToken",
          "type": "address"
        },
        {
          "internalType": "contract IERC20",
          "name": "dstToken",
          "type": "address"
        },
        {
          "internalType": "contract IERC20",
          "name": "connector",
          "type": "address"
        }
      ],
      "name": "getRate",
      "outputs": [
        {
          "internalType": "uint256",
          "name": "rate",
          "type": "uint256"
        },
        {
          "internalType": "uint256",
          "name": "weight",
          "type": "uint256"
        }
      ],
      "stateMutability": "view",
      "type": "function"
    },
    {
      "inputs": [],
      "name": "poolInitCodeHash",
      "outputs": [
        {
          "internalType": "bytes32",
          "name": "",
          "type": "bytes32"
        }
      ],
      "stateMutability": "view",
      "type": "function"
    }
  ],
  "transactionHash": "0xd51e6310ab251bdf0dae6e7a7a926e7ff770a28cbc56334784d0c4dd178666df",
  "args": [
    "0xe34f199b19b2b4f47f68442619d555527d244f78a3297ea89325f843f87b8b54"
  ],
  "solcInputHash": "09f16e030c268822005d0b018d30cb17",
  "bytecode": "0x60a060405234801561001057600080fd5b5060405161098e38038061098e8339818101604052602081101561003357600080fd5b50516080526080516109356100596000396000818160ed015261041a01526109356000f3fe608060405234801561001057600080fd5b50600436106100415760003560e01c806314999e79146100465780632dd31000146100a4578063d64efe91146100e8575b600080fd5b61008b6004803603606081101561005c57600080fd5b5073ffffffffffffffffffffffffffffffffffffffff8135811691602081013582169160409091013516610121565b6040805192835260208301919091528051918290030190f35b6100bf731f98431c8ad98523631ae4a59f267346ea31f98481565b6040805173ffffffffffffffffffffffffffffffffffffffff9092168252519081900360200190f35b61010f7f000000000000000000000000000000000000000000000000000000000000000081565b60408051918252519081900360200190f35b604080516060810182526101f48152610bb8602082015261271091810191909152600090819073ffffffffffffffffffffffffffffffffffffffff84811614156101e45760005b60038110156101de5760008060006101978a8a87876003811061018d5761018d6107e2565b6020020151610331565b9194509250905060006101aa8383610759565b90506101c06101b98583610759565b899061076c565b97506101cc878261076c565b96505060019093019250610168915050565b50610309565b60005b60038110156103075760005b60038110156102fe5760008060006102188b8a88886003811061018d5761018d6107e2565b925092509250816000148061022b575080155b156102425760008097509750505050505050610329565b600080600061025e8c8e8b8a6003811061018d5761018d6107e2565b9250925092508160001480610271575080155b1561028b576000809a509a50505050505050505050610329565b83821015610297579092905b60006102b7836102b1876102ab8a87610759565b90610759565b90610778565b90506102dd6102d6826102ab670de0b6b3a76400006102b18c8a610759565b8d9061076c565b9b506102e98b8261076c565b9a5050600190960195506101f3945050505050565b506001016101e7565b505b811561032757610319828461086f565b925061032482610784565b91505b505b935093915050565b60008060008060008673ffffffffffffffffffffffffffffffffffffffff168873ffffffffffffffffffffffffffffffffffffffff1610610373578688610376565b87875b6040805173ffffffffffffffffffffffffffffffffffffffff8085166020808401919091529084168284015262ffffff8b16606080840191909152835180840390910181526080830184528051908201207fff0000000000000000000000000000000000000000000000000000000000000060a08401527f1f98431c8ad98523631ae4a59f267346ea31f98400000000000000000000000060a184015260b58301527f000000000000000000000000000000000000000000000000000000000000000060d5808401919091528351808403909101815260f59092019092528051910120919350915073ffffffffffffffffffffffffffffffffffffffff81163b158061050357508073ffffffffffffffffffffffffffffffffffffffff16631a6865026040518163ffffffff1660e01b815260040160206040518083038186803b1580156104c357600080fd5b505afa1580156104d7573d6000803e3d6000fd5b505050506040513d60208110156104ed57600080fd5b50516fffffffffffffffffffffffffffffffff16155b1561051b576000806000955095509550505050610750565b60008173ffffffffffffffffffffffffffffffffffffffff16633850c7bd6040518163ffffffff1660e01b815260040160e06040518083038186803b15801561056357600080fd5b505afa158015610577573d6000803e3d6000fd5b505050506040513d60e081101561058d57600080fd5b505173ffffffffffffffffffffffffffffffffffffffff90811691508a811690851614156105df57606081816105cb82670de0b6b3a76400006108aa565b6105d692911c6108aa565b901c9650610617565b8061060a817f0de0b6b3a764000000000000000000000000000000000000000000000000000061086f565b610614919061086f565b96505b8973ffffffffffffffffffffffffffffffffffffffff166370a08231836040518263ffffffff1660e01b8152600401808273ffffffffffffffffffffffffffffffffffffffff16815260200191505060206040518083038186803b15801561067e57600080fd5b505afa158015610692573d6000803e3d6000fd5b505050506040513d60208110156106a857600080fd5b5051604080517f70a0823100000000000000000000000000000000000000000000000000000000815273ffffffffffffffffffffffffffffffffffffffff85811660048301529151929850908b16916370a0823191602480820192602092909190829003018186803b15801561071d57600080fd5b505afa158015610731573d6000803e3d6000fd5b505050506040513d602081101561074757600080fd5b50519450505050505b93509350939050565b600061076582846108aa565b9392505050565b600061076582846108e7565b6000610765828461086f565b600060038211156107d3575080600160028204015b818110156107cd578091506002818285816107b6576107b6610811565b0401816107c5576107c5610811565b049050610799565b50919050565b81156107dd575060015b919050565b7f4e487b7100000000000000000000000000000000000000000000000000000000600052603260045260246000fd5b7f4e487b7100000000000000000000000000000000000000000000000000000000600052601260045260246000fd5b7f4e487b7100000000000000000000000000000000000000000000000000000000600052601160045260246000fd5b6000826108a5577f4e487b7100000000000000000000000000000000000000000000000000000000600052601260045260246000fd5b500490565b6000817fffffffffffffffffffffffffffffffffffffffffffffffffffffffffffffffff04831182151516156108e2576108e2610840565b500290565b600082198211156108fa576108fa610840565b50019056fea2646970667358221220563b2d0e1f4cea54b661649b573ba863091d5c5798e92ca57c97ac9934e79dab64736f6c63430008090033",
  "devdoc": {
    "kind": "dev",
    "methods": {},
    "version": 1
  },
  "userdoc": {
    "kind": "user",
    "methods": {},
    "version": 1
  },
  "storageLayout": {
    "storage": [],
    "types": null
  }
}