{
  "address": "0x37eB78fE793E89353e46AEe73E299985C3B8d334",
  "abi": [
    {
      "inputs": [
        {
          "internalType": "contract IERC20",
          "name": "base",
          "type": "address"
        },
        {
          "internalType": "contract IERC20",
          "name": "wBase",
          "type": "address"
        }
      ],
      "stateMutability": "nonpayable",
      "type": "constructor"
    },
    {
      "inputs": [],
      "name": "NotAddedMarket",
      "type": "error"
    },
    {
      "inputs": [],
      "name": "NotRemovedMarket",
      "type": "error"
    },
    {
      "inputs": [],
      "name": "NotSupportedToken",
      "type": "error"
    },
    {
      "inputs": [],
      "name": "BASE",
      "outputs": [
        {
          "internalType": "contract IERC20",
          "name": "",
          "type": "address"
        }
      ],
      "stateMutability": "view",
      "type": "function"
    },
    {
      "inputs": [],
      "name": "WBASE",
      "outputs": [
        {
          "internalType": "contract IERC20",
          "name": "",
          "type": "address"
        }
      ],
      "stateMutability": "view",
      "type": "function"
    },
    {
      "inputs": [
        {
          "internalType": "contract IERC20",
          "name": "token",
          "type": "address"
        }
      ],
      "name": "wrap",
      "outputs": [
        {
          "internalType": "contract IERC20",
          "name": "wrappedToken",
          "type": "address"
        },
        {
          "internalType": "uint256",
          "name": "rate",
          "type": "uint256"
        }
      ],
      "stateMutability": "view",
      "type": "function"
    }
  ],
  "transactionHash": "0xe1563c7109e79e5e7428d0c90fb4eb5560dcd5c6b8e2a5e339cff353246ebaa3",
  "args": [
    "0x0000000000000000000000000000000000000000",
    "0x7f39C581F595B53c5cb19bD0b3f8dA6c935E2Ca0"
  ],
  "numDeployments": 1,
  "solcInputHash": "fd1dd62bbe05f2095434872ea0a42332",
  "bytecode": "0x60c03461008d57601f61047d38819003918201601f19168301916001600160401b0383118484101761009257808492604094855283398101031261008d57610052602061004b836100a8565b92016100a8565b9060805260a0526040516103c090816100bd823960805181818160880152610192015260a05181818160fa015281816101dd01526102850152f35b600080fd5b634e487b7160e01b600052604160045260246000fd5b51906001600160a01b038216820361008d5756fe6080604052600436101561001257600080fd5b6000803560e01c8063023276f01461011e5780638e0b3bf2146100af5763ec342ad01461003e57600080fd5b346100ac57807ffffffffffffffffffffffffffffffffffffffffffffffffffffffffffffffffc3601126100ac57602060405173ffffffffffffffffffffffffffffffffffffffff7f0000000000000000000000000000000000000000000000000000000000000000168152f35b80fd5b50346100ac57807ffffffffffffffffffffffffffffffffffffffffffffffffffffffffffffffffc3601126100ac57602060405173ffffffffffffffffffffffffffffffffffffffff7f0000000000000000000000000000000000000000000000000000000000000000168152f35b50346100ac5760207ffffffffffffffffffffffffffffffffffffffffffffffffffffffffffffffffc3601126100ac576004359073ffffffffffffffffffffffffffffffffffffffff9081831683036100ac575061017d60409261018c565b90918351921682526020820152f35b906000917f000000000000000000000000000000000000000000000000000000000000000073ffffffffffffffffffffffffffffffffffffffff8092168282168114600014610281575050600460207f000000000000000000000000000000000000000000000000000000000000000092604051928380927f9576a0c800000000000000000000000000000000000000000000000000000000825286165afa93841561027557809461023f575b50509190565b909193506020823d821161026d575b8161025b6020938361031a565b810103126100ac575051913880610239565b3d915061024e565b604051903d90823e3d90fd5b90917f0000000000000000000000000000000000000000000000000000000000000000169081036102f0576020600491604051928380927f035faf820000000000000000000000000000000000000000000000000000000082525afa93841561027557809461023f5750509190565b60046040517fc8a08d6f000000000000000000000000000000000000000000000000000000008152fd5b90601f7fffffffffffffffffffffffffffffffffffffffffffffffffffffffffffffffe0910116810190811067ffffffffffffffff82111761035b57604052565b7f4e487b7100000000000000000000000000000000000000000000000000000000600052604160045260246000fdfea26469706673582212208844a6f16242514428acdad66a327a3e26473a2e624ad60b5be9062f24e6e3d264736f6c63430008130033",
  "devdoc": {
    "kind": "dev",
    "methods": {},
    "version": 1
  },
  "userdoc": {
    "kind": "user",
    "methods": {},
    "version": 1
  },
  "storageLayout": {
    "storage": [],
    "types": null
  }
}