{
  "address": "0x9FF110f132d988bfa9bC6a21851Da1aF3aC6EaF8",
  "abi": [
    {
      "inputs": [
        {
          "internalType": "contract IERC20",
          "name": "token",
          "type": "address"
        }
      ],
      "name": "wrap",
      "outputs": [
        {
          "internalType": "contract IERC20",
          "name": "wrappedToken",
          "type": "address"
        },
        {
          "internalType": "uint256",
          "name": "rate",
          "type": "uint256"
        }
      ],
      "stateMutability": "view",
      "type": "function"
    }
  ],
  "transactionHash": "0xab4c8bf02e1e3dcb1cd2bec390caf0edbd3cf1d36e638d6808549ee1e2876a57",
  "args": [],
  "numDeployments": 1,
  "solcInputHash": "349869773c4f0d877f16fdce3d550d66",
  "bytecode": "0x608060405234801561001057600080fd5b50610546806100206000396000f3fe608060405234801561001057600080fd5b506004361061002b5760003560e01c8063023276f014610030575b600080fd5b6100636004803603602081101561004657600080fd5b503573ffffffffffffffffffffffffffffffffffffffff16610093565b6040805173ffffffffffffffffffffffffffffffffffffffff909316835260208301919091528051918290030190f35b60008060008390508073ffffffffffffffffffffffffffffffffffffffff1663fc0c546a6127106040518263ffffffff1660e01b81526004016020604051808303818786fa935050505080156100fb57506040513d60208110156100f657600080fd5b505160015b61016657604080517f08c379a000000000000000000000000000000000000000000000000000000000815260206004820152601160248201527f556e737570706f7274656420746f6b656e000000000000000000000000000000604482015290519081900360640190fd5b8093508173ffffffffffffffffffffffffffffffffffffffff166377c7b8fc6040518163ffffffff1660e01b8152600401602060405180830381865afa9250505080156101c557506040513d60208110156101c057600080fd5b505160015b610327578173ffffffffffffffffffffffffffffffffffffffff166399530b066040518163ffffffff1660e01b8152600401602060405180830381865afa92505050801561022557506040513d602081101561022057600080fd5b505160015b61029057604080517f08c379a000000000000000000000000000000000000000000000000000000000815260206004820152601160248201527f556e737570706f7274656420746f6b656e000000000000000000000000000000604482015290519081900360640190fd5b60008573ffffffffffffffffffffffffffffffffffffffff1663313ce5676040518163ffffffff1660e01b8152600401602060405180830381865afa1580156102dd573d6000803e3d6000fd5b505050506040513d60208110156102f357600080fd5b5051905061030281600a610482565b61031483670de0b6b3a7640000610498565b61031e91906104d5565b9450505061032a565b92505b5050915091565b7f4e487b7100000000000000000000000000000000000000000000000000000000600052601160045260246000fd5b600181815b808511156103b957817fffffffffffffffffffffffffffffffffffffffffffffffffffffffffffffffff0482111561039f5761039f610331565b808516156103ac57918102915b93841c9390800290610365565b509250929050565b6000826103d05750600161047c565b816103dd5750600061047c565b81600181146103f357600281146103fd57610419565b600191505061047c565b60ff84111561040e5761040e610331565b50506001821b61047c565b5060208310610133831016604e8410600b841016171561043c575081810a61047c565b6104468383610360565b807fffffffffffffffffffffffffffffffffffffffffffffffffffffffffffffffff0482111561047857610478610331565b0290505b92915050565b600061049160ff8416836103c1565b9392505050565b6000817fffffffffffffffffffffffffffffffffffffffffffffffffffffffffffffffff04831182151516156104d0576104d0610331565b500290565b60008261050b577f4e487b7100000000000000000000000000000000000000000000000000000000600052601260045260246000fd5b50049056fea2646970667358221220cea680cf72942e679d54c83af16fbdd29d4bff373b7b4e7c9b3e369af75ac07a64736f6c634300080f0033",
  "devdoc": {
    "kind": "dev",
    "methods": {},
    "version": 1
  },
  "userdoc": {
    "kind": "user",
    "methods": {},
    "version": 1
  },
  "storageLayout": {
    "storage": [],
    "types": null
  }
}