{
  "address": "0x4e5Cee3B8Af0CB46EFAA94Cba5E0f25f8770BB19",
  "abi": [
    {
      "inputs": [
        {
          "internalType": "contract ICurveProvider",
          "name": "curveProvider",
          "type": "address"
        },
        {
          "internalType": "uint256",
          "name": "maxPools",
          "type": "uint256"
        }
      ],
      "stateMutability": "nonpayable",
      "type": "constructor"
    },
    {
      "inputs": [],
      "name": "ConnectorShouldBeNone",
      "type": "error"
    },
    {
      "inputs": [],
      "name": "PoolNotFound",
      "type": "error"
    },
    {
      "inputs": [],
      "name": "PoolWithConnectorNotFound",
      "type": "error"
    },
    {
      "inputs": [],
      "name": "CURVE_METAREGISTRY",
      "outputs": [
        {
          "internalType": "contract ICurveMetaregistry",
          "name": "",
          "type": "address"
        }
      ],
      "stateMutability": "view",
      "type": "function"
    },
    {
      "inputs": [],
      "name": "MAX_POOLS",
      "outputs": [
        {
          "internalType": "uint256",
          "name": "",
          "type": "uint256"
        }
      ],
      "stateMutability": "view",
      "type": "function"
    },
    {
      "inputs": [
        {
          "internalType": "contract IERC20",
          "name": "srcToken",
          "type": "address"
        },
        {
          "internalType": "contract IERC20",
          "name": "dstToken",
          "type": "address"
        },
        {
          "internalType": "contract IERC20",
          "name": "connector",
          "type": "address"
        },
        {
          "internalType": "uint256",
          "name": "thresholdFilter",
          "type": "uint256"
        }
      ],
      "name": "getRate",
      "outputs": [
        {
          "internalType": "uint256",
          "name": "rate",
          "type": "uint256"
        },
        {
          "internalType": "uint256",
          "name": "weight",
          "type": "uint256"
        }
      ],
      "stateMutability": "view",
      "type": "function"
    }
  ],
  "transactionHash": "0x5b63b8d95ce503220e9734c515ea643c293811df4a2d647b9408ec6becefed9c",
  "args": [
    "0x5ffe7FB82894076ECB99A30D6A32e969e6e35E98",
    100
  ],
  "numDeployments": 1,
  "bytecode": "0x60c080604052346100e85760408161101b803803809161001f82856100ff565b8339810103126100e85780516001600160a01b038082169290918390036100e8576020806024920151936040519283809263124fd3dd60e21b8252600760048301525afa9081156100f4575f916100b5575b501660805260a052604051610ee4908161013782396080518181816101660152818161040e0152818161058d015261062d015260a05181818160720152610a8a0152f35b90506020813d6020116100ec575b816100d0602093836100ff565b810103126100e8575181811681036100e8575f610071565b5f80fd5b3d91506100c3565b6040513d5f823e3d90fd5b601f909101601f19168101906001600160401b0382119082101761012257604052565b634e487b7160e01b5f52604160045260245ffdfe6080806040526004361015610012575f80fd5b5f3560e01c9081630caeeb241461011e575080633d549b32146100995763813584981461003d575f80fd5b34610095575f7ffffffffffffffffffffffffffffffffffffffffffffffffffffffffffffffffc3601126100955760206040517f00000000000000000000000000000000000000000000000000000000000000008152f35b5f80fd5b346100955760807ffffffffffffffffffffffffffffffffffffffffffffffffffffffffffffffffc3601126100955773ffffffffffffffffffffffffffffffffffffffff600435818116810361009557602435908282168203610095576044359283168303610095576040926101129260643592610375565b82519182526020820152f35b34610095575f7ffffffffffffffffffffffffffffffffffffffffffffffffffffffffffffffffc3601126100955760209073ffffffffffffffffffffffffffffffffffffffff7f0000000000000000000000000000000000000000000000000000000000000000168152f35b6040810190811067ffffffffffffffff8211176101a657604052565b7f4e487b71000000000000000000000000000000000000000000000000000000005f52604160045260245ffd5b90601f7fffffffffffffffffffffffffffffffffffffffffffffffffffffffffffffffe0910116810190811067ffffffffffffffff8211176101a657604052565b7fffffffffffffffffffffffffffffffffffffffffffffffffffffffffffffffff81146102415760010190565b7f4e487b71000000000000000000000000000000000000000000000000000000005f52601160045260245ffd5b80518210156102825760209160051b010190565b7f4e487b71000000000000000000000000000000000000000000000000000000005f52603260045260245ffd5b519081600f0b820361009557565b9060088110156102825760051b0190565b3d15610326573d9067ffffffffffffffff82116101a6576040519161031b60207fffffffffffffffffffffffffffffffffffffffffffffffffffffffffffffffe0601f84011601846101d3565b82523d5f602084013e565b606090565b8181029291811591840414171561024157565b8115610348570490565b7f4e487b71000000000000000000000000000000000000000000000000000000005f52601260045260245ffd5b9173ffffffffffffffffffffffffffffffffffffffff80911603610c0e57604051917fa064072b00000000000000000000000000000000000000000000000000000000835273ffffffffffffffffffffffffffffffffffffffff8116600484015273ffffffffffffffffffffffffffffffffffffffff821660248401525f8360448173ffffffffffffffffffffffffffffffffffffffff7f0000000000000000000000000000000000000000000000000000000000000000165afa928315610967575f93610b5e575b50825115610b545773ffffffffffffffffffffffffffffffffffffffff811673eeeeeeeeeeeeeeeeeeeeeeeeeeeeeeeeeeeeeeee03610aaf57670de0b6b3a7640000915b8351956040516060810181811067ffffffffffffffff8211176101a65760609160409182525f81525f602082015201526040519660808160061b8901016040525f88525f602089015260608801604089015260608801525f5b8551811080610a82575b156109ca5773ffffffffffffffffffffffffffffffffffffffff610509828861026e565b511690604051917feb85226d000000000000000000000000000000000000000000000000000000008352600483015273ffffffffffffffffffffffffffffffffffffffff8516602483015273ffffffffffffffffffffffffffffffffffffffff8416604483015260608260648173ffffffffffffffffffffffffffffffffffffffff7f0000000000000000000000000000000000000000000000000000000000000000165afa8015610967575f925f905f92610972575b5073ffffffffffffffffffffffffffffffffffffffff6105e0848b61026e565b511690604051917f59f4f35100000000000000000000000000000000000000000000000000000000835260048301526101008260248173ffffffffffffffffffffffffffffffffffffffff7f0000000000000000000000000000000000000000000000000000000000000000165afa918215610967575f926108cd575b506fffffffffffffffffffffffffffffffff928a8a61067e868916866102bd565b51118015906108b9575b6108aa576106b773ffffffffffffffffffffffffffffffffffffffff6106b08860ff9461026e565b5116610c38565b16159081806108a3575b156108425750507f07211ef7000000000000000000000000000000000000000000000000000000005b73ffffffffffffffffffffffffffffffffffffffff610709868d61026e565b5116604051916020830152848716602483015284831660448301528a6064830152606482528160a081011067ffffffffffffffff60a0840111176101a657815f929160a0849301604052602082519201905afa6107646102ce565b9080610836575b610783575b5050505061077e9150610214565b6104db565b602081805181010312610095576020015180159283156107a4575b50610770565b670de0b6b3a76400009382858102048514171561024157846107dd6107f2966107d58e6107ed986107e6970261033e565b9916836102bd565b519316906102bd565b519061032b565b610d05565b9160405180604081011067ffffffffffffffff6040830111176101a65761077e9361082b9260408301604052825260208201528a610e46565b505f8080808061079e565b5060208151101561076b565b8161089a575b5015610874577f5e0d443f000000000000000000000000000000000000000000000000000000006106ea565b7f556d6e9f000000000000000000000000000000000000000000000000000000006106ea565b9050155f610848565b50806106c1565b505050505061077e9150610214565b506108c6858416856102bd565b5115610688565b909150610100903d6101001161095f575b6108e882826101d3565b61010081838101031261009557818101601f8201121561009557604051918261010081011067ffffffffffffffff610100850111176101a6576101008301604052829082016101008301116100955781905b6101008301821061094f57505050905f61065d565b815181526020918201910161093a565b3d91506108de565b6040513d5f823e3d90fd5b935050506060823d6060116109c2575b8161098f606093836101d3565b81010312610095576109a0826102af565b60406109ae602085016102af565b93015190811515820361009557925f6105c0565b3d9150610982565b50949593505050505f905f936020820151806040840151525f925b818410610a08575050505082806109fb57509190565b610a049161033e565b9190565b90919295610a1a87604084015161026e565b51946020860195865160649081810291818304149015171561024157610a4187865161032b565b11610a765791610a63610a6b92610a5d600195518a519061032b565b90610ea1565b965190610ea1565b965b019291906109e5565b50945095600190610a6d565b5060208801517f0000000000000000000000000000000000000000000000000000000000000000116104e5565b6040517f313ce56700000000000000000000000000000000000000000000000000000000815260208160048173ffffffffffffffffffffffffffffffffffffffff86165afa8015610967575f90610b17575b60ff915016604d811161024157600a0a91610482565b506020813d602011610b4c575b81610b31602093836101d3565b81010312610095575160ff811681036100955760ff90610b01565b3d9150610b24565b505050505f905f90565b9092503d805f833e610b7081836101d3565b8101602090818382031261009557825167ffffffffffffffff93848211610095570181601f820112156100955780519384116101a6578360051b9060405194610bbb858401876101d3565b85528380860192820101928311610095578301905b828210610be25750505050915f61043e565b815173ffffffffffffffffffffffffffffffffffffffff81168103610095578152908301908301610bd0565b60046040517fccf7e6f7000000000000000000000000000000000000000000000000000000008152fd5b5f8060405160208101907f49fe9e7700000000000000000000000000000000000000000000000000000000825260048152610c728161018a565b5190845afa610c7f6102ce565b81610cf8575b50610cf2575f809160405160208101907f095a0fc600000000000000000000000000000000000000000000000000000000825260048152610cc58161018a565b51915afa610cd16102ce565b81610ce5575b50610ce0575f90565b600290565b602091505110155f610cd7565b50600190565b602091505110155f610c85565b8015610e4157610dcf815f908360801c80610e35575b508060401c80610e28575b508060201c80610e1b575b508060101c80610e0e575b508060081c80610e01575b508060041c80610df4575b508060021c80610de7575b50600191828092811c610de0575b1c1b610d77818561033e565b01811c610d84818561033e565b01811c610d91818561033e565b01811c610d9e818561033e565b01811c610dab818561033e565b01811c610db8818561033e565b01811c610dc5818561033e565b01901c809261033e565b80821015610ddb575090565b905090565b0181610d6b565b600291509101905f610d5d565b600491509101905f610d52565b600891509101905f610d47565b601091509101905f610d3c565b602091509101905f610d31565b604091509101905f610d26565b9150506080905f610d1b565b505f90565b9060208101908151610e59575050505f90565b610e7a6040840151916020850192835191610e74838361026e565b5261026e565b50610e858151610214565b9052519080518211610e99575b5050600190565b525f80610e92565b919082018092116102415756fea2646970667358221220a81ff33c7895af4540da6504953e168cd75a11fa971e7fd306cabb70b1febaea64736f6c63430008170033"
}