{
  "address": "0x4dFa40FDAA7694676899f8887A45603922609AF4",
  "abi": [
    {
      "inputs": [
        {
          "internalType": "bytes32",
          "name": "_poolInitCodeHash",
          "type": "bytes32"
        }
      ],
      "stateMutability": "nonpayable",
      "type": "constructor"
    },
    {
      "inputs": [],
      "name": "FACTORY",
      "outputs": [
        {
          "internalType": "address",
          "name": "",
          "type": "address"
        }
      ],
      "stateMutability": "view",
      "type": "function"
    },
    {
      "inputs": [
        {
          "internalType": "contract IERC20",
          "name": "srcToken",
          "type": "address"
        },
        {
          "internalType": "contract IERC20",
          "name": "dstToken",
          "type": "address"
        },
        {
          "internalType": "contract IERC20",
          "name": "connector",
          "type": "address"
        }
      ],
      "name": "getRate",
      "outputs": [
        {
          "internalType": "uint256",
          "name": "rate",
          "type": "uint256"
        },
        {
          "internalType": "uint256",
          "name": "weight",
          "type": "uint256"
        }
      ],
      "stateMutability": "view",
      "type": "function"
    },
    {
      "inputs": [
        {
          "internalType": "contract IERC20",
          "name": "srcToken",
          "type": "address"
        },
        {
          "internalType": "contract IERC20",
          "name": "dstToken",
          "type": "address"
        },
        {
          "internalType": "contract IERC20",
          "name": "connector",
          "type": "address"
        },
        {
          "internalType": "uint24",
          "name": "fee",
          "type": "uint24"
        }
      ],
      "name": "getRateForFee",
      "outputs": [
        {
          "internalType": "uint256",
          "name": "rate",
          "type": "uint256"
        },
        {
          "internalType": "uint256",
          "name": "weight",
          "type": "uint256"
        }
      ],
      "stateMutability": "view",
      "type": "function"
    },
    {
      "inputs": [],
      "name": "poolInitCodeHash",
      "outputs": [
        {
          "internalType": "bytes32",
          "name": "",
          "type": "bytes32"
        }
      ],
      "stateMutability": "view",
      "type": "function"
    }
  ],
  "transactionHash": "0x47075b5a924f8a44ad7422696924ed1d8273eb5b0fa8aa564d8fdda23ee0569e",
  "args": [
    "0xe34f199b19b2b4f47f68442619d555527d244f78a3297ea89325f843f87b8b54"
  ],
  "solcInputHash": "648cc4a23f34370bd14dbfde95dd810c",
  "bytecode": "0x60a060405234801561001057600080fd5b506040516109f03803806109f08339818101604052602081101561003357600080fd5b50516080526080516109996100576000398061031c52806108fb52506109996000f3fe608060405234801561001057600080fd5b506004361061004c5760003560e01c806314999e79146100515780632dd31000146100af5780636c9e5249146100e0578063d64efe911461012f575b600080fd5b6100966004803603606081101561006757600080fd5b5073ffffffffffffffffffffffffffffffffffffffff8135811691602081013582169160409091013516610149565b6040805192835260208301919091528051918290030190f35b6100b76101f2565b6040805173ffffffffffffffffffffffffffffffffffffffff9092168252519081900360200190f35b610096600480360360808110156100f657600080fd5b50803573ffffffffffffffffffffffffffffffffffffffff908116916020810135821691604082013516906060013562ffffff1661020a565b61013761031a565b60408051918252519081900360200190f35b604080516060810182526101f48152610bb86020820152612710918101919091526000908190815b60038110156101ca5760008061019989898987876003811061018f57fe5b602002015161020a565b90925090506101b26101ab838361033e565b87906103ba565b95506101be85826103ba565b94505050600101610171565b5081156101e9576101db838361042e565b92506101e6826104af565b91505b50935093915050565b731f98431c8ad98523631ae4a59f267346ea31f98481565b600080808073ffffffffffffffffffffffffffffffffffffffff868116141561024457610238888887610501565b91955092509050610302565b6000806000806102558c8b8b610501565b90975094509150851580610267575083155b1561027e5760008097509750505050505050610311565b6102898a8c8b610501565b96509350905082158061029a575084155b156102b15760008097509750505050505050610311565b828411156102d4576102cd846102c7888661033e565b9061042e565b95506102e5565b6102e2836102c7878761033e565b94505b6102fb670de0b6b3a76400006102c7848461033e565b9750505050505b61030c828261033e565b925050505b94509492505050565b7f000000000000000000000000000000000000000000000000000000000000000081565b60008261034d575060006103b4565b8282028284828161035a57fe5b04146103b1576040517f08c379a00000000000000000000000000000000000000000000000000000000081526004018080602001828103825260218152602001806109436021913960400191505060405180910390fd5b90505b92915050565b6000828201838110156103b157604080517f08c379a000000000000000000000000000000000000000000000000000000000815260206004820152601b60248201527f536166654d6174683a206164646974696f6e206f766572666c6f770000000000604482015290519081900360640190fd5b600080821161049e57604080517f08c379a000000000000000000000000000000000000000000000000000000000815260206004820152601a60248201527f536166654d6174683a206469766973696f6e206279207a65726f000000000000604482015290519081900360640190fd5b8183816104a757fe5b049392505050565b600060038211156104f2575080600160028204015b818110156104ec578091506002818285816104db57fe5b0401816104e457fe5b0490506104c4565b506104fc565b81156104fc575060015b919050565b60008060008060008673ffffffffffffffffffffffffffffffffffffffff168873ffffffffffffffffffffffffffffffffffffffff1610610543578688610546565b87875b915091506000610557838389610854565b90506105788173ffffffffffffffffffffffffffffffffffffffff1661093c565b158061060557508073ffffffffffffffffffffffffffffffffffffffff16631a6865026040518163ffffffff1660e01b815260040160206040518083038186803b1580156105c557600080fd5b505afa1580156105d9573d6000803e3d6000fd5b505050506040513d60208110156105ef57600080fd5b50516fffffffffffffffffffffffffffffffff16155b1561061d57600080600095509550955050505061084b565b60008173ffffffffffffffffffffffffffffffffffffffff16633850c7bd6040518163ffffffff1660e01b815260040160e06040518083038186803b15801561066557600080fd5b505afa158015610679573d6000803e3d6000fd5b505050506040513d60e081101561068f57600080fd5b505173ffffffffffffffffffffffffffffffffffffffff90811691508a811690851614156106e15760606106d882826106d0670de0b6b3a76400008361033e565b901c9061033e565b901c9650610712565b61070f816102c77f0de0b6b3a76400000000000000000000000000000000000000000000000000008261042e565b96505b8973ffffffffffffffffffffffffffffffffffffffff166370a08231836040518263ffffffff1660e01b8152600401808273ffffffffffffffffffffffffffffffffffffffff16815260200191505060206040518083038186803b15801561077957600080fd5b505afa15801561078d573d6000803e3d6000fd5b505050506040513d60208110156107a357600080fd5b5051604080517f70a0823100000000000000000000000000000000000000000000000000000000815273ffffffffffffffffffffffffffffffffffffffff85811660048301529151929850908b16916370a0823191602480820192602092909190829003018186803b15801561081857600080fd5b505afa15801561082c573d6000803e3d6000fd5b505050506040513d602081101561084257600080fd5b50519450505050505b93509350939050565b6040805173ffffffffffffffffffffffffffffffffffffffff948516602080830191909152939094168482015262ffffff91909116606080850191909152815180850390910181526080840182528051908301207fff0000000000000000000000000000000000000000000000000000000000000060a08501527f1f98431c8ad98523631ae4a59f267346ea31f98400000000000000000000000060a185015260b58401527f000000000000000000000000000000000000000000000000000000000000000060d5808501919091528151808503909101815260f59093019052815191012090565b3b15159056fe536166654d6174683a206d756c7469706c69636174696f6e206f766572666c6f77a26469706673582212206fca2452c8ec81f9ecbc96cae1a3228d9fceed07a68efcdf40efddf2f82f8b3464736f6c63430007060033",
  "devdoc": {
    "kind": "dev",
    "methods": {},
    "version": 1
  },
  "userdoc": {
    "kind": "user",
    "methods": {},
    "version": 1
  },
  "storageLayout": {
    "storage": [],
    "types": null
  }
}