{
  "address": "0x0c8fc7a71C28c768FDC1f7d75835229beBEB1573",
  "abi": [
    {
      "inputs": [
        {
          "internalType": "contract ILendingPoolV3",
          "name": "lendingPool",
          "type": "address"
        }
      ],
      "stateMutability": "nonpayable",
      "type": "constructor"
    },
    {
      "inputs": [],
      "name": "NotAddedMarket",
      "type": "error"
    },
    {
      "inputs": [],
      "name": "NotRemovedMarket",
      "type": "error"
    },
    {
      "inputs": [],
      "name": "NotSupportedToken",
      "type": "error"
    },
    {
      "inputs": [
        {
          "internalType": "contract IERC20",
          "name": "",
          "type": "address"
        }
      ],
      "name": "aTokenToToken",
      "outputs": [
        {
          "internalType": "contract IERC20",
          "name": "",
          "type": "address"
        }
      ],
      "stateMutability": "view",
      "type": "function"
    },
    {
      "inputs": [
        {
          "internalType": "contract IERC20[]",
          "name": "tokens",
          "type": "address[]"
        }
      ],
      "name": "addMarkets",
      "outputs": [],
      "stateMutability": "nonpayable",
      "type": "function"
    },
    {
      "inputs": [
        {
          "internalType": "contract IERC20[]",
          "name": "tokens",
          "type": "address[]"
        }
      ],
      "name": "removeMarkets",
      "outputs": [],
      "stateMutability": "nonpayable",
      "type": "function"
    },
    {
      "inputs": [
        {
          "internalType": "contract IERC20",
          "name": "",
          "type": "address"
        }
      ],
      "name": "tokenToaToken",
      "outputs": [
        {
          "internalType": "contract IERC20",
          "name": "",
          "type": "address"
        }
      ],
      "stateMutability": "view",
      "type": "function"
    },
    {
      "inputs": [
        {
          "internalType": "contract IERC20",
          "name": "token",
          "type": "address"
        }
      ],
      "name": "wrap",
      "outputs": [
        {
          "internalType": "contract IERC20",
          "name": "wrappedToken",
          "type": "address"
        },
        {
          "internalType": "uint256",
          "name": "rate",
          "type": "uint256"
        }
      ],
      "stateMutability": "view",
      "type": "function"
    }
  ],
  "transactionHash": "0x55a46df1ce819a584af757b9e048c7adfa67500ac38c7c6cffa0c4c6f80c3c42",
  "args": [
    "0x306c124fFba5f2Bc0BcAf40D249cf19D492440b9"
  ],
  "numDeployments": 1,
  "bytecode": "0x60a03461007057601f61077c38819003918201601f19168301916001600160401b038311848410176100745780849260209460405283398101031261007057516001600160a01b0381168103610070576080526040516106f390816100898239608051818181607c01526101fd0152f35b5f80fd5b634e487b7160e01b5f52604160045260245ffdfe604060808152600480361015610013575f80fd5b5f3560e01c8063023276f0146103f357806394a32b4b1461038f578063a928058b1461032c578063bfef7bdf146101d25763da40385d14610052575f80fd5b346101ce57610060366104e6565b915f9173ffffffffffffffffffffffffffffffffffffffff91827f000000000000000000000000000000000000000000000000000000000000000016935b85518110156101cc57836100b2828861062b565b51168251907fd2493b6c0000000000000000000000000000000000000000000000000000000082528482015260609081816024818a5afa9182156101c257908692915f92610193575b505016801561016b579060019185610113838a61062b565b511690805f528360205f8152865f207fffffffffffffffffffffffff0000000000000000000000000000000000000000948582541617905588610156868d61062b565b51165f5252845f20918254161790550161009e565b5050517f54279e74000000000000000000000000000000000000000000000000000000008152fd5b6101b29250803d106101bb575b6101aa8183610478565b81019061068d565b50505f806100fb565b503d6101a0565b84513d5f823e3d90fd5b005b5f80fd5b5090346101ce576101e2366104e6565b5f9173ffffffffffffffffffffffffffffffffffffffff93847f000000000000000000000000000000000000000000000000000000000000000016935b83518110156101cc5785610233828661062b565b51168351907fd2493b6c0000000000000000000000000000000000000000000000000000000082528382015260609081816024818a5afa91821561032257908892915f92610303575b505016806102db57906001915f5260205f815282855f20917fffffffffffffffffffffffff000000000000000000000000000000000000000092838154169055896102c7858a61062b565b51165f5252845f209081541690550161021f565b8284517f7b609a5b000000000000000000000000000000000000000000000000000000008152fd5b6103199250803d106101bb576101aa8183610478565b50505f8061027c565b85513d5f823e3d90fd5b82346101ce5760207ffffffffffffffffffffffffffffffffffffffffffffffffffffffffffffffffc3601126101ce5760209073ffffffffffffffffffffffffffffffffffffffff8061037d610455565b165f525f8352815f2054169051908152f35b82346101ce5760207ffffffffffffffffffffffffffffffffffffffffffffffffffffffffffffffffc3601126101ce5760209073ffffffffffffffffffffffffffffffffffffffff806103e0610455565b165f5260018352815f2054169051908152f35b82346101ce5760207ffffffffffffffffffffffffffffffffffffffffffffffffffffffffffffffffc3601126101ce5761043361042e610455565b6105a4565b73ffffffffffffffffffffffffffffffffffffffff8351921682526020820152f35b6004359073ffffffffffffffffffffffffffffffffffffffff821682036101ce57565b90601f7fffffffffffffffffffffffffffffffffffffffffffffffffffffffffffffffe0910116810190811067ffffffffffffffff8211176104b957604052565b7f4e487b71000000000000000000000000000000000000000000000000000000005f52604160045260245ffd5b6020807ffffffffffffffffffffffffffffffffffffffffffffffffffffffffffffffffc8301126101ce5767ffffffffffffffff916004358381116101ce57816023820112156101ce5780600401359384116104b9578360051b90604051946105526020840187610478565b8552602460208601928201019283116101ce57602401905b828210610578575050505090565b813573ffffffffffffffffffffffffffffffffffffffff811681036101ce57815290830190830161056a565b73ffffffffffffffffffffffffffffffffffffffff8091165f525f6020528060405f20541690600160205260405f2054168115155f146105ec575090670de0b6b3a764000090565b905080156106015790670de0b6b3a764000090565b60046040517fc8a08d6f000000000000000000000000000000000000000000000000000000008152fd5b805182101561063f5760209160051b010190565b7f4e487b71000000000000000000000000000000000000000000000000000000005f52603260045260245ffd5b519073ffffffffffffffffffffffffffffffffffffffff821682036101ce57565b908160609103126101ce576106a18161066c565b916106ba60406106b36020850161066c565b930161066c565b9056fea2646970667358221220f2455e6362c1cb421d83660947715fe37c3b786c5d8133558216b314899cf21064736f6c63430008170033"
}