{
  "address": "0x8606321723D9cA7db708A8b12DAd0A8a83f2F3bD",
  "abi": [
    {
      "inputs": [
        {
          "internalType": "address",
          "name": "_owner",
          "type": "address"
        }
      ],
      "stateMutability": "nonpayable",
      "type": "constructor"
    },
    {
      "inputs": [],
      "name": "NotAddedMarket",
      "type": "error"
    },
    {
      "inputs": [],
      "name": "NotRemovedMarket",
      "type": "error"
    },
    {
      "inputs": [],
      "name": "NotSupportedToken",
      "type": "error"
    },
    {
      "inputs": [
        {
          "internalType": "address",
          "name": "owner",
          "type": "address"
        }
      ],
      "name": "OwnableInvalidOwner",
      "type": "error"
    },
    {
      "inputs": [
        {
          "internalType": "address",
          "name": "account",
          "type": "address"
        }
      ],
      "name": "OwnableUnauthorizedAccount",
      "type": "error"
    },
    {
      "anonymous": false,
      "inputs": [
        {
          "indexed": true,
          "internalType": "address",
          "name": "previousOwner",
          "type": "address"
        },
        {
          "indexed": true,
          "internalType": "address",
          "name": "newOwner",
          "type": "address"
        }
      ],
      "name": "OwnershipTransferred",
      "type": "event"
    },
    {
      "inputs": [
        {
          "internalType": "address[]",
          "name": "tokens",
          "type": "address[]"
        }
      ],
      "name": "addMarkets",
      "outputs": [],
      "stateMutability": "nonpayable",
      "type": "function"
    },
    {
      "inputs": [
        {
          "internalType": "contract IERC20[2][]",
          "name": "tokens",
          "type": "address[2][]"
        }
      ],
      "name": "addMarketsManually",
      "outputs": [],
      "stateMutability": "nonpayable",
      "type": "function"
    },
    {
      "inputs": [
        {
          "internalType": "contract IERC20",
          "name": "",
          "type": "address"
        }
      ],
      "name": "baseToWbase",
      "outputs": [
        {
          "internalType": "contract IERC20",
          "name": "",
          "type": "address"
        }
      ],
      "stateMutability": "view",
      "type": "function"
    },
    {
      "inputs": [],
      "name": "owner",
      "outputs": [
        {
          "internalType": "address",
          "name": "",
          "type": "address"
        }
      ],
      "stateMutability": "view",
      "type": "function"
    },
    {
      "inputs": [
        {
          "internalType": "address[]",
          "name": "tokens",
          "type": "address[]"
        }
      ],
      "name": "removeMarkets",
      "outputs": [],
      "stateMutability": "nonpayable",
      "type": "function"
    },
    {
      "inputs": [],
      "name": "renounceOwnership",
      "outputs": [],
      "stateMutability": "nonpayable",
      "type": "function"
    },
    {
      "inputs": [
        {
          "internalType": "address",
          "name": "newOwner",
          "type": "address"
        }
      ],
      "name": "transferOwnership",
      "outputs": [],
      "stateMutability": "nonpayable",
      "type": "function"
    },
    {
      "inputs": [
        {
          "internalType": "contract IERC20",
          "name": "",
          "type": "address"
        }
      ],
      "name": "wbaseToBase",
      "outputs": [
        {
          "internalType": "contract IERC20",
          "name": "",
          "type": "address"
        }
      ],
      "stateMutability": "view",
      "type": "function"
    },
    {
      "inputs": [
        {
          "internalType": "contract IERC20",
          "name": "token",
          "type": "address"
        }
      ],
      "name": "wrap",
      "outputs": [
        {
          "internalType": "contract IERC20",
          "name": "wrappedToken",
          "type": "address"
        },
        {
          "internalType": "uint256",
          "name": "rate",
          "type": "uint256"
        }
      ],
      "stateMutability": "view",
      "type": "function"
    }
  ],
  "transactionHash": "0x6d74ecd1ddb96b49f8f3e80d9e5ba5a35784cddbd77cf3d6592c65b245b07f45",
  "args": [
    "0x56E44874F624EbDE6efCc783eFD685f0FBDC6dcF"
  ],
  "numDeployments": 1,
  "solcInputHash": "355913adb2afa6d4f3f0d99328c71bbe",
  "bytecode": "0x6080346100b957601f610c0638819003918201601f19168301916001600160401b038311848410176100bd578084926020946040528339810103126100b957516001600160a01b0390818116908190036100b95780156100a1575f80546001600160a01b03198116831782556040519316907f8be0079c531659141344cd1fd0a4f28419497f9722a3daafe3b4186f6b6457e09080a3610b3490816100d28239f35b604051631e4fbdf760e01b81525f6004820152602490fd5b5f80fd5b634e487b7160e01b5f52604160045260245ffdfe604060808152600480361015610013575f80fd5b5f3560e01c8063023276f0146107215780631471c922146106bd57806343654a3014610659578063715018a6146105bf5780638da5cb5b1461056e57806397a9bcfc1461039b578063bfef7bdf1461028b578063da40385d146101625763f2fde38b1461007e575f80fd5b3461015e5760207ffffffffffffffffffffffffffffffffffffffffffffffffffffffffffffffffc36011261015e576100b5610783565b906100be610aae565b73ffffffffffffffffffffffffffffffffffffffff80921692831561012f5750505f54827fffffffffffffffffffffffff00000000000000000000000000000000000000008216175f55167f8be0079c531659141344cd1fd0a4f28419497f9722a3daafe3b4186f6b6457e05f80a3005b905f60249251917f1e4fbdf7000000000000000000000000000000000000000000000000000000008352820152fd5b5f80fd5b50903461015e576101723661084d565b61017a610aae565b5f5b81518110156102895773ffffffffffffffffffffffffffffffffffffffff806101a58385610a41565b5116845180917f38d52e0f000000000000000000000000000000000000000000000000000000008252818860209485935afa90811561027f578360019594939286925f91610252575b501691836101fc8689610a41565b51165f5260028152875f20937fffffffffffffffffffffffff000000000000000000000000000000000000000094848682541617905561023c8689610a41565b5116925f5252855f20918254161790550161017c565b6102729150843d8611610278575b61026a81836107c7565b810190610a82565b5f6101ee565b503d610260565b86513d5f823e3d90fd5b005b50903461015e579061029c3661084d565b916102a5610aae565b5f925b80518410156102895773ffffffffffffffffffffffffffffffffffffffff93846102d28284610a41565b511694835180967f38d52e0f000000000000000000000000000000000000000000000000000000008252818760209384935afa908115610391576001949596975f92610372575b50828592936103288689610a41565b51165f5260028252875f20937fffffffffffffffffffffffff000000000000000000000000000000000000000094858154169055165f5252845f20908154169055019291906102a8565b85925061038b90823d84116102785761026a81836107c7565b91610319565b85513d5f823e3d90fd5b503461015e576020807ffffffffffffffffffffffffffffffffffffffffffffffffffffffffffffffffc36011261015e57813567ffffffffffffffff9283821161015e573660238301121561015e5781810135906024946103fb83610835565b95610408885197886107c7565b83875260248688019460061b8601019436861161015e57602401935b8585106104dd57888888610436610aae565b5f5b82518110156102895760019073ffffffffffffffffffffffffffffffffffffffff806104648387610a41565b5151169080856104748589610a41565b510151165f5260028552865f207fffffffffffffffffffffffff0000000000000000000000000000000000000000928382541617905580856104b68589610a41565b51015116906104c58488610a41565b5151165f52838552865f209182541617905501610438565b36601f8601121561015e5788519089820182811085821117610543578a52818a870136811161015e57908992918c9489905b82821061052457505050815201940193610424565b94819293949561053482936107a6565b81520191018b9493929161050f565b836041877f4e487b71000000000000000000000000000000000000000000000000000000005f52525ffd5b823461015e575f7ffffffffffffffffffffffffffffffffffffffffffffffffffffffffffffffffc36011261015e5760209073ffffffffffffffffffffffffffffffffffffffff5f54169051908152f35b3461015e575f7ffffffffffffffffffffffffffffffffffffffffffffffffffffffffffffffffc36011261015e576105f5610aae565b5f73ffffffffffffffffffffffffffffffffffffffff81547fffffffffffffffffffffffff000000000000000000000000000000000000000081168355167f8be0079c531659141344cd1fd0a4f28419497f9722a3daafe3b4186f6b6457e08280a3005b823461015e5760207ffffffffffffffffffffffffffffffffffffffffffffffffffffffffffffffffc36011261015e5760209073ffffffffffffffffffffffffffffffffffffffff806106aa610783565b165f5260028352815f2054169051908152f35b823461015e5760207ffffffffffffffffffffffffffffffffffffffffffffffffffffffffffffffffc36011261015e5760209073ffffffffffffffffffffffffffffffffffffffff8061070e610783565b165f5260018352815f2054169051908152f35b823461015e5760207ffffffffffffffffffffffffffffffffffffffffffffffffffffffffffffffffc36011261015e5761076161075c610783565b6108f3565b73ffffffffffffffffffffffffffffffffffffffff8351921682526020820152f35b6004359073ffffffffffffffffffffffffffffffffffffffff8216820361015e57565b359073ffffffffffffffffffffffffffffffffffffffff8216820361015e57565b90601f7fffffffffffffffffffffffffffffffffffffffffffffffffffffffffffffffe0910116810190811067ffffffffffffffff82111761080857604052565b7f4e487b71000000000000000000000000000000000000000000000000000000005f52604160045260245ffd5b67ffffffffffffffff81116108085760051b60200190565b6020807ffffffffffffffffffffffffffffffffffffffffffffffffffffffffffffffffc83011261015e576004359167ffffffffffffffff831161015e578060238401121561015e5782600401356108a481610835565b936108b260405195866107c7565b8185526024602086019260051b82010192831161015e57602401905b8282106108dc575050505090565b8380916108e8846107a6565b8152019101906108ce565b9073ffffffffffffffffffffffffffffffffffffffff80921691825f5260206002815260409382855f2054169260018352855f2054168315155f146109bf575090806024928651938480927f07a2d13a000000000000000000000000000000000000000000000000000000008252670de0b6b3a764000060048301525afa9485156109b657505f94610986575b50509190565b9080929450813d83116109af575b61099e81836107c7565b8101031261015e5751915f80610980565b503d610994565b513d5f823e3d90fd5b9250508115610a18578351907fc6e6f592000000000000000000000000000000000000000000000000000000008252670de0b6b3a764000060048301528082602481865afa9485156109b657505f946109865750509190565b600484517fc8a08d6f000000000000000000000000000000000000000000000000000000008152fd5b8051821015610a555760209160051b010190565b7f4e487b71000000000000000000000000000000000000000000000000000000005f52603260045260245ffd5b9081602091031261015e575173ffffffffffffffffffffffffffffffffffffffff8116810361015e5790565b73ffffffffffffffffffffffffffffffffffffffff5f54163303610ace57565b60246040517f118cdaa7000000000000000000000000000000000000000000000000000000008152336004820152fdfea264697066735822122074eb51cda973c74bbc6fc398c9e49af6e16416d5bbeae9488beb3317fe03e5b964736f6c63430008170033",
  "devdoc": {
    "errors": {
      "OwnableInvalidOwner(address)": [
        {
          "details": "The owner is not a valid owner account. (eg. `address(0)`)"
        }
      ],
      "OwnableUnauthorizedAccount(address)": [
        {
          "details": "The caller account is not authorized to perform an operation."
        }
      ]
    },
    "kind": "dev",
    "methods": {
      "addMarketsManually(address[2][])": {
        "details": "tokens[i] = [baseToken, wBaseToken], where wBaseToken is an ERC4626 for baseToken (wBaseToken.asset() == baseToken)"
      },
      "owner()": {
        "details": "Returns the address of the current owner."
      },
      "renounceOwnership()": {
        "details": "Leaves the contract without owner. It will not be possible to call `onlyOwner` functions. Can only be called by the current owner. NOTE: Renouncing ownership will leave the contract without an owner, thereby disabling any functionality that is only available to the owner."
      },
      "transferOwnership(address)": {
        "details": "Transfers ownership of the contract to a new account (`newOwner`). Can only be called by the current owner."
      }
    },
    "version": 1
  },
  "userdoc": {
    "kind": "user",
    "methods": {},
    "version": 1
  },
  "storageLayout": {
    "storage": [
      {
        "astId": 8,
        "contract": "contracts/wrappers/Erc4626Wrapper.sol:Erc4626Wrapper",
        "label": "_owner",
        "offset": 0,
        "slot": "0",
        "type": "t_address"
      },
      {
        "astId": 487,
        "contract": "contracts/wrappers/Erc4626Wrapper.sol:Erc4626Wrapper",
        "label": "baseToWbase",
        "offset": 0,
        "slot": "1",
        "type": "t_mapping(t_contract(IERC20)395,t_contract(IERC20)395)"
      },
      {
        "astId": 493,
        "contract": "contracts/wrappers/Erc4626Wrapper.sol:Erc4626Wrapper",
        "label": "wbaseToBase",
        "offset": 0,
        "slot": "2",
        "type": "t_mapping(t_contract(IERC20)395,t_contract(IERC20)395)"
      }
    ],
    "types": {
      "t_address": {
        "encoding": "inplace",
        "label": "address",
        "numberOfBytes": "20"
      },
      "t_contract(IERC20)395": {
        "encoding": "inplace",
        "label": "contract IERC20",
        "numberOfBytes": "20"
      },
      "t_mapping(t_contract(IERC20)395,t_contract(IERC20)395)": {
        "encoding": "mapping",
        "key": "t_contract(IERC20)395",
        "label": "mapping(contract IERC20 => contract IERC20)",
        "numberOfBytes": "32",
        "value": "t_contract(IERC20)395"
      }
    }
  }
}