{
  "address": "0xeec05e0D8F7D3f56CECE2026Feaf41b09B423790",
  "abi": [
    {
      "inputs": [
        {
          "internalType": "address",
          "name": "_factory",
          "type": "address"
        },
        {
          "internalType": "bytes32",
          "name": "_initcodeHash",
          "type": "bytes32"
        }
      ],
      "stateMutability": "nonpayable",
      "type": "constructor"
    },
    {
      "inputs": [],
      "name": "ConnectorShouldBeNone",
      "type": "error"
    },
    {
      "inputs": [],
      "name": "PoolNotFound",
      "type": "error"
    },
    {
      "inputs": [],
      "name": "PoolWithConnectorNotFound",
      "type": "error"
    },
    {
      "inputs": [],
      "name": "FACTORY",
      "outputs": [
        {
          "internalType": "address",
          "name": "",
          "type": "address"
        }
      ],
      "stateMutability": "view",
      "type": "function"
    },
    {
      "inputs": [],
      "name": "INITCODE_HASH",
      "outputs": [
        {
          "internalType": "bytes32",
          "name": "",
          "type": "bytes32"
        }
      ],
      "stateMutability": "view",
      "type": "function"
    },
    {
      "inputs": [
        {
          "internalType": "contract IERC20",
          "name": "srcToken",
          "type": "address"
        },
        {
          "internalType": "contract IERC20",
          "name": "dstToken",
          "type": "address"
        },
        {
          "internalType": "contract IERC20",
          "name": "connector",
          "type": "address"
        },
        {
          "internalType": "uint256",
          "name": "thresholdFilter",
          "type": "uint256"
        }
      ],
      "name": "getRate",
      "outputs": [
        {
          "internalType": "uint256",
          "name": "rate",
          "type": "uint256"
        },
        {
          "internalType": "uint256",
          "name": "weight",
          "type": "uint256"
        }
      ],
      "stateMutability": "view",
      "type": "function"
    },
    {
      "inputs": [
        {
          "internalType": "contract IERC20",
          "name": "tokenA",
          "type": "address"
        },
        {
          "internalType": "contract IERC20",
          "name": "tokenB",
          "type": "address"
        },
        {
          "internalType": "bool",
          "name": "stable",
          "type": "bool"
        }
      ],
      "name": "pairFor",
      "outputs": [
        {
          "internalType": "address",
          "name": "pair",
          "type": "address"
        }
      ],
      "stateMutability": "view",
      "type": "function"
    }
  ],
  "transactionHash": "0x7b69ad1fc0976392ea4fee01f120f8e10a28ee8d61952876f558bac362a5e918",
  "args": [
    "0x2dA25E7446A70D7be65fd4c053948BEcAA6374c8",
    "0x4ed7aeec7c0286cad1e282dee1c391719fc17fe923b04fb0775731e413ed3554"
  ],
  "numDeployments": 1,
  "solcInputHash": "a49fb76061ee181a4cc9e12907a7c761",
  "bytecode": "0x60c0346100a557601f61126b38819003918201601f19168301916001600160401b038311848410176100a95780849260409485528339810103126100a5578051906001600160a01b03821682036100a557602001519060805260a0526040516111ad90816100be823960805181818161018c0152818161041c01528181610764015261096c015260a051818181607e015281816101bb01528181610793015261099b0152f35b5f80fd5b634e487b7160e01b5f52604160045260245ffdfe60806040908082526004361015610014575f80fd5b5f3560e01c9081632dd31000146103d4575080633d549b32146101f75780634c1ee03e146100a55763f84618841461004a575f80fd5b346100a1575f7ffffffffffffffffffffffffffffffffffffffffffffffffffffffffffffffffc3601126100a157602090517f00000000000000000000000000000000000000000000000000000000000000008152f35b5f80fd5b50346100a15760607ffffffffffffffffffffffffffffffffffffffffffffffffffffffffffffffffc3601126100a1576100dd610440565b906100e6610463565b604435908115158092036100a15760209373ffffffffffffffffffffffffffffffffffffffff92845190868201927fffffffffffffffffffffffffffffffffffffffff0000000000000000000000009485809260601b16855260601b16603483015260f81b60488201526029815261015d816104cf565b519020835190858201927fff0000000000000000000000000000000000000000000000000000000000000084527f000000000000000000000000000000000000000000000000000000000000000060601b16602183015260358201527f00000000000000000000000000000000000000000000000000000000000000006055820152605581526101ec816104eb565b519020169051908152f35b50346100a15760807ffffffffffffffffffffffffffffffffffffffffffffffffffffffffffffffffc3601126100a15761022f610440565b610237610463565b906044359173ffffffffffffffffffffffffffffffffffffffff8084168085036100a157606435928651947f313ce567000000000000000000000000000000000000000000000000000000009687875260209687816004818987165afa80156103ca5760ff915f916103ad575b501693895189815288816004818a89165afa80156103a35760ff915f91610386575b50169581036102e95750506102dc959650610600565b90915b8351928352820152f35b949095919297879060048b518098819382525afa93841561037c576103318361033995899360ff61033f99670de0b6b3a76400009b8e5f9261034f575b505016948592610600565b999097610600565b93610561565b04928180821091180218906102df565b61036e9250803d10610375575b6103668183610507565b810190610548565b5f8e610326565b503d61035c565b89513d5f823e3d90fd5b61039d91508a3d8c11610375576103668183610507565b5f6102c6565b8b513d5f823e3d90fd5b6103c49150893d8b11610375576103668183610507565b5f6102a4565b8a513d5f823e3d90fd5b346100a1575f7ffffffffffffffffffffffffffffffffffffffffffffffffffffffffffffffffc3601126100a15760209073ffffffffffffffffffffffffffffffffffffffff7f0000000000000000000000000000000000000000000000000000000000000000168152f35b6004359073ffffffffffffffffffffffffffffffffffffffff821682036100a157565b6024359073ffffffffffffffffffffffffffffffffffffffff821682036100a157565b6040810190811067ffffffffffffffff8211176104a257604052565b7f4e487b71000000000000000000000000000000000000000000000000000000005f52604160045260245ffd5b6060810190811067ffffffffffffffff8211176104a257604052565b6080810190811067ffffffffffffffff8211176104a257604052565b90601f7fffffffffffffffffffffffffffffffffffffffffffffffffffffffffffffffe0910116810190811067ffffffffffffffff8211176104a257604052565b908160209103126100a1575160ff811681036100a15790565b8181029291811591840414171561057457565b7f4e487b71000000000000000000000000000000000000000000000000000000005f52601160045260245ffd5b81156105ab570490565b7f4e487b71000000000000000000000000000000000000000000000000000000005f52601260045260245ffd5b604d811161057457600a0a90565b9190820180921161057457565b9190820391821161057457565b916040516060810181811067ffffffffffffffff8211176104a25760609160409182525f81525f602082015201526040519361010085016040525f85525f6020860152600260608601806040880152525f905f9273ffffffffffffffffffffffffffffffffffffffff851673ffffffffffffffffffffffffffffffffffffffff8716105f14610d6657855f8073ffffffffffffffffffffffffffffffffffffffff885b7fffffffffffffffffffffffffffffffffffffffff00000000000000000000000060405191818760601b16602084015260601b1660348201527f010000000000000000000000000000000000000000000000000000000000000060488201526029815261070f816104cf565b6020815191012060405160208101917fff0000000000000000000000000000000000000000000000000000000000000083527fffffffffffffffffffffffffffffffffffffffff0000000000000000000000007f000000000000000000000000000000000000000000000000000000000000000060601b16602183015260358201527f00000000000000000000000000000000000000000000000000000000000000006055820152605581526107c4816104eb565b51902016604051907f0902f1ac000000000000000000000000000000000000000000000000000000006020830152600482526107ff82610486565b602082519201905afa3d15610d5e573d9067ffffffffffffffff82116104a2576040519161085560207fffffffffffffffffffffffffffffffffffffffffffffffffffffffffffffffe0601f8401160184610507565b82523d5f602084013e5b80610d53575b610cf1575b50508215908115610bfc575b50505050505f905f9273ffffffffffffffffffffffffffffffffffffffff821673ffffffffffffffffffffffffffffffffffffffff8216105f14610bc5575f8073ffffffffffffffffffffffffffffffffffffffff83945b6040517fffffffffffffffffffffffffffffffffffffffff0000000000000000000000006020820192818960601b16845260601b1660348201528360488201526029815261091b816104cf565b51902060405160208101917fff0000000000000000000000000000000000000000000000000000000000000083527fffffffffffffffffffffffffffffffffffffffff0000000000000000000000007f000000000000000000000000000000000000000000000000000000000000000060601b16602183015260358201527f00000000000000000000000000000000000000000000000000000000000000006055820152605581526109cc816104eb565b5190201660405160208101907f0902f1ac00000000000000000000000000000000000000000000000000000000825260048152610a0881610486565b51915afa903d15610bbd573d9167ffffffffffffffff83116104a25760405192610a5a60207fffffffffffffffffffffffffffffffffffffffffffffffffffffffffffffffe0601f8401160185610507565b83523d5f602085013e5b80610bb2575b610b65575b50505080610b2a575b5050905f915f916020820151806040840151525f925b818410610ab0575050505080610aa2579091565b9081610aad916105a1565b91565b90919293610ac2856040840151610fab565b51956020870196875160649081810291818304149015171561057457610ae9878651610561565b11610b1e5791610b0b610b1392610b05600195518b5190610561565b906105e6565b9751906105e6565b945b01929190610a8e565b50955093600190610b15565b610b43610b3e8361033984610b5d96611069565b610e74565b60405191610b5083610486565b8252602082015282610fec565b505f80610a78565b91935091506040828051810103126100a15773ffffffffffffffffffffffffffffffffffffffff806040602085015194015194169116145f14610bad57905b905f8080610a6f565b610ba4565b506060825114610a6a565b606091610a64565b9073ffffffffffffffffffffffffffffffffffffffff16905f8073ffffffffffffffffffffffffffffffffffffffff8084166108ce565b670de0b6b3a764000091828502908582048414171561057457610c21610c27926105d8565b906105a1565b81850285810483148615171561057457610c4490610c21856105d8565b9082610c7c81610c548585610561565b04610c7683610c638680610561565b0484610c6f8880610561565b04906105e6565b90610561565b0490808401841161057457610c919301610d9c565b91909115610ca0575b80610876565b60128181031161057457610ce793610339610cc7610ccd94610c21610b3e956012036105d8565b826105f3565b60405191610cda83610486565b8252602082015284610fec565b505f808080610c9a565b6040919550808093955051810103126100a15773ffffffffffffffffffffffffffffffffffffffff60406020830151920151941673ffffffffffffffffffffffffffffffffffffffff8716145f14610d4e57925b92915f8061086a565b610d45565b506060815114610865565b60609061085f565b73ffffffffffffffffffffffffffffffffffffffff85165f8073ffffffffffffffffffffffffffffffffffffffff808a166106a3565b9091905f915b60ff8310610db557505050505f90600190565b670de0b6b3a764000080610ddc81610dcd8587610561565b04610c7683610c638880610561565b048580821015610e345790610df0916105f3565b81810291818304149015171561057457610e0e90610c21838561112d565b908115610e2a57600191610e21916105e6565b925b0191610da2565b9350505050905f90565b610e3d916105f3565b81810291818304149015171561057457610e5b90610c21838561112d565b908115610e2a57600191610e6e916105f3565b92610e23565b600180821115610fa757610f43908083700100000000000000000000000000000000811015610f90575b80680100000000000000006004921015610f83575b640100000000811015610f76575b62010000811015610f69575b610100811015610f5d575b6010811015610f51575b1015610f4a575b600302811c610ef881856105a1565b01811c610f0581856105a1565b01811c610f1281856105a1565b01811c610f1f81856105a1565b01811c610f2c81856105a1565b01811c610f3981856105a1565b01901c80926105a1565b8111900390565b811b610ee9565b811c9160021b91610ee2565b60081c91811b91610ed8565b60101c9160081b91610ecd565b60201c9160101b91610ec1565b60401c9160201b91610eb3565b50680100000000000000009050608084901c610e9e565b5090565b8051821015610fbf5760209160051b010190565b7f4e487b71000000000000000000000000000000000000000000000000000000005f52603260045260245ffd5b9060208101908151610fff575050505f90565b611020604084015191602085019283519161101a8383610fab565b52610fab565b5080517fffffffffffffffffffffffffffffffffffffffffffffffffffffffffffffffff8114610574576001019052519080518211611061575b5050600190565b525f8061105a565b90670de0b6b3a764000090818302917fffffffffffffffffffffffffffffffffffffffffffffffffffffffffffffffff8185099383808610950394808603951461111d57848311156111055790829109815f038216809204600280826003021880830282030280830282030280830282030280830282030280830282030280920290030293600183805f03040190848311900302920304170290565b82634e487b715f52156003026011186020526024601cfd5b50509061112a92506105a1565b90565b806003029160038304820361057457610c6f61115d9161116461112a95670de0b6b3a76400008095848295610561565b0490610561565b0492826111718280610561565b0461056156fea2646970667358221220a97b6f2c34afed29611af7ec82a0510a7db045dcba729b484a20c23c19f38a8f64736f6c63430008170033",
  "devdoc": {
    "kind": "dev",
    "methods": {},
    "version": 1
  },
  "userdoc": {
    "kind": "user",
    "methods": {},
    "version": 1
  },
  "storageLayout": {
    "storage": [],
    "types": null
  }
}