{
  "address": "0xb707d89D29c189421163515c59E42147371D6857",
  "abi": [
    {
      "inputs": [
        {
          "internalType": "contract IMooniswapFactory",
          "name": "_factory",
          "type": "address"
        }
      ],
      "stateMutability": "nonpayable",
      "type": "constructor"
    },
    {
      "inputs": [],
      "name": "factory",
      "outputs": [
        {
          "internalType": "contract IMooniswapFactory",
          "name": "",
          "type": "address"
        }
      ],
      "stateMutability": "view",
      "type": "function"
    },
    {
      "inputs": [
        {
          "internalType": "contract IERC20",
          "name": "srcToken",
          "type": "address"
        },
        {
          "internalType": "contract IERC20",
          "name": "dstToken",
          "type": "address"
        },
        {
          "internalType": "contract IERC20",
          "name": "connector",
          "type": "address"
        }
      ],
      "name": "getRate",
      "outputs": [
        {
          "internalType": "uint256",
          "name": "rate",
          "type": "uint256"
        },
        {
          "internalType": "uint256",
          "name": "weight",
          "type": "uint256"
        }
      ],
      "stateMutability": "view",
      "type": "function"
    }
  ],
  "transactionHash": "0x76f6af4d055a0017a1cd6dc87d92a9cac6098f5d8619bcf71413f708c9e15620",
  "args": [
    "0x2Be171963835b6d21202b62EEE54c67910680129"
  ],
  "solcInputHash": "df628ebd5fbee88a5f24005a25f81131",
  "bytecode": "0x60a060405234801561001057600080fd5b506040516107533803806107538339818101604052602081101561003357600080fd5b5051606081901b6001600160601b0319166080526001600160a01b03166106e761006c6000398061019052806101b952506106e76000f3fe608060405234801561001057600080fd5b50600436106100365760003560e01c806314999e791461003b578063c45a015514610099575b600080fd5b6100806004803603606081101561005157600080fd5b5073ffffffffffffffffffffffffffffffffffffffff81358116916020810135821691604090910135166100ca565b6040805192835260208301919091528051918290030190f35b6100a161018e565b6040805173ffffffffffffffffffffffffffffffffffffffff9092168252519081900360200190f35b600080808073ffffffffffffffffffffffffffffffffffffffff8581161415610101576100f787876101b2565b9092509050610158565b60008061010e89886101b2565b909450915061011d87896101b2565b93509050808211156101445761013d826101378684610523565b9061059f565b9350610155565b610152816101378585610523565b92505b50505b61016e8261013783670de0b6b3a7640000610523565b935061018261017d8383610523565b610620565b92505050935093915050565b7f000000000000000000000000000000000000000000000000000000000000000081565b60008060007f000000000000000000000000000000000000000000000000000000000000000073ffffffffffffffffffffffffffffffffffffffff1663901754d786866040518363ffffffff1660e01b8152600401808373ffffffffffffffffffffffffffffffffffffffff1681526020018273ffffffffffffffffffffffffffffffffffffffff1681526020019250505060206040518083038186803b15801561025c57600080fd5b505afa158015610270573d6000803e3d6000fd5b505050506040513d602081101561028657600080fd5b5051604080517faa6ca808000000000000000000000000000000000000000000000000000000008152905191925060009173ffffffffffffffffffffffffffffffffffffffff84169163aa6ca8089160048083019286929190829003018186803b1580156102f357600080fd5b505afa158015610307573d6000803e3d6000fd5b505050506040513d6000823e601f3d9081017fffffffffffffffffffffffffffffffffffffffffffffffffffffffffffffffe0168201604052602081101561034e57600080fd5b810190808051604051939291908464010000000082111561036e57600080fd5b90830190602082018581111561038357600080fd5b82518660208202830111640100000000821117156103a057600080fd5b82525081516020918201928201910280838360005b838110156103cd5781810151838201526020016103b5565b5050505090500160405250505090506103e4610672565b60005b60028110156104af578281815181106103fc57fe5b602002602001015173ffffffffffffffffffffffffffffffffffffffff166370a08231856040518263ffffffff1660e01b8152600401808273ffffffffffffffffffffffffffffffffffffffff16815260200191505060206040518083038186803b15801561046a57600080fd5b505afa15801561047e573d6000803e3d6000fd5b505050506040513d602081101561049457600080fd5b50518282600281106104a257fe5b60200201526001016103e7565b508673ffffffffffffffffffffffffffffffffffffffff16826000815181106104d457fe5b602002602001015173ffffffffffffffffffffffffffffffffffffffff16141561050f5780518160015b60200201519450945050505061051c565b60208101518160006104fe565b9250929050565b60008261053257506000610599565b8282028284828161053f57fe5b0414610596576040517f08c379a00000000000000000000000000000000000000000000000000000000081526004018080602001828103825260218152602001806106916021913960400191505060405180910390fd5b90505b92915050565b600080821161060f57604080517f08c379a000000000000000000000000000000000000000000000000000000000815260206004820152601a60248201527f536166654d6174683a206469766973696f6e206279207a65726f000000000000604482015290519081900360640190fd5b81838161061857fe5b049392505050565b60006003821115610663575080600160028204015b8181101561065d5780915060028182858161064c57fe5b04018161065557fe5b049050610635565b5061066d565b811561066d575060015b919050565b6040518060400160405280600290602082028036833750919291505056fe536166654d6174683a206d756c7469706c69636174696f6e206f766572666c6f77a2646970667358221220830c1d6ab37d25848ad03cbb5e786ec7d751bc5c8a225230603722139e82050964736f6c63430007060033",
  "devdoc": {
    "kind": "dev",
    "methods": {},
    "version": 1
  },
  "userdoc": {
    "kind": "user",
    "methods": {},
    "version": 1
  },
  "storageLayout": {
    "storage": [],
    "types": null
  }
}