{
  "address": "0x29BC86Ad68bB3BD3d54841a8522e0020C1882C22",
  "abi": [
    {
      "inputs": [
        {
          "internalType": "contract MultiWrapper",
          "name": "_multiWrapper",
          "type": "address"
        },
        {
          "internalType": "contract IOracle[]",
          "name": "existingOracles",
          "type": "address[]"
        },
        {
          "internalType": "contract IERC20[]",
          "name": "existingConnectors",
          "type": "address[]"
        }
      ],
      "stateMutability": "nonpayable",
      "type": "constructor"
    },
    {
      "anonymous": false,
      "inputs": [
        {
          "indexed": false,
          "internalType": "contract IERC20",
          "name": "connector",
          "type": "address"
        }
      ],
      "name": "ConnectorAdded",
      "type": "event"
    },
    {
      "anonymous": false,
      "inputs": [
        {
          "indexed": false,
          "internalType": "contract IERC20",
          "name": "connector",
          "type": "address"
        }
      ],
      "name": "ConnectorRemoved",
      "type": "event"
    },
    {
      "anonymous": false,
      "inputs": [
        {
          "indexed": false,
          "internalType": "contract MultiWrapper",
          "name": "multiWrapper",
          "type": "address"
        }
      ],
      "name": "MultiWrapperUpdated",
      "type": "event"
    },
    {
      "anonymous": false,
      "inputs": [
        {
          "indexed": false,
          "internalType": "contract IOracle",
          "name": "oracle",
          "type": "address"
        }
      ],
      "name": "OracleAdded",
      "type": "event"
    },
    {
      "anonymous": false,
      "inputs": [
        {
          "indexed": false,
          "internalType": "contract IOracle",
          "name": "oracle",
          "type": "address"
        }
      ],
      "name": "OracleRemoved",
      "type": "event"
    },
    {
      "anonymous": false,
      "inputs": [
        {
          "indexed": true,
          "internalType": "address",
          "name": "previousOwner",
          "type": "address"
        },
        {
          "indexed": true,
          "internalType": "address",
          "name": "newOwner",
          "type": "address"
        }
      ],
      "name": "OwnershipTransferred",
      "type": "event"
    },
    {
      "inputs": [
        {
          "internalType": "contract IERC20",
          "name": "connector",
          "type": "address"
        }
      ],
      "name": "addConnector",
      "outputs": [],
      "stateMutability": "nonpayable",
      "type": "function"
    },
    {
      "inputs": [
        {
          "internalType": "contract IOracle",
          "name": "oracle",
          "type": "address"
        }
      ],
      "name": "addOracle",
      "outputs": [],
      "stateMutability": "nonpayable",
      "type": "function"
    },
    {
      "inputs": [],
      "name": "connectors",
      "outputs": [
        {
          "internalType": "contract IERC20[]",
          "name": "allConnectors",
          "type": "address[]"
        }
      ],
      "stateMutability": "view",
      "type": "function"
    },
    {
      "inputs": [
        {
          "internalType": "contract IERC20",
          "name": "srcToken",
          "type": "address"
        },
        {
          "internalType": "contract IERC20",
          "name": "dstToken",
          "type": "address"
        }
      ],
      "name": "getRate",
      "outputs": [
        {
          "internalType": "uint256",
          "name": "weightedRate",
          "type": "uint256"
        }
      ],
      "stateMutability": "view",
      "type": "function"
    },
    {
      "inputs": [],
      "name": "multiWrapper",
      "outputs": [
        {
          "internalType": "contract MultiWrapper",
          "name": "",
          "type": "address"
        }
      ],
      "stateMutability": "view",
      "type": "function"
    },
    {
      "inputs": [],
      "name": "oracles",
      "outputs": [
        {
          "internalType": "contract IOracle[]",
          "name": "allOracles",
          "type": "address[]"
        }
      ],
      "stateMutability": "view",
      "type": "function"
    },
    {
      "inputs": [],
      "name": "owner",
      "outputs": [
        {
          "internalType": "address",
          "name": "",
          "type": "address"
        }
      ],
      "stateMutability": "view",
      "type": "function"
    },
    {
      "inputs": [
        {
          "internalType": "contract IERC20",
          "name": "connector",
          "type": "address"
        }
      ],
      "name": "removeConnector",
      "outputs": [],
      "stateMutability": "nonpayable",
      "type": "function"
    },
    {
      "inputs": [
        {
          "internalType": "contract IOracle",
          "name": "oracle",
          "type": "address"
        }
      ],
      "name": "removeOracle",
      "outputs": [],
      "stateMutability": "nonpayable",
      "type": "function"
    },
    {
      "inputs": [],
      "name": "renounceOwnership",
      "outputs": [],
      "stateMutability": "nonpayable",
      "type": "function"
    },
    {
      "inputs": [
        {
          "internalType": "contract MultiWrapper",
          "name": "_multiWrapper",
          "type": "address"
        }
      ],
      "name": "setMultiWrapper",
      "outputs": [],
      "stateMutability": "nonpayable",
      "type": "function"
    },
    {
      "inputs": [
        {
          "internalType": "address",
          "name": "newOwner",
          "type": "address"
        }
      ],
      "name": "transferOwnership",
      "outputs": [],
      "stateMutability": "nonpayable",
      "type": "function"
    }
  ],
  "transactionHash": "0x9734fa9235941784b9506a318b241b575d7ae0a5ea314dd7e0b231e92af28e5e",
  "args": [
    "0xD41B24bbA51fAc0E4827b6F94C0D6DDeB183cD64",
    [
      "0xb707d89D29c189421163515c59E42147371D6857",
      "0x57da811a9EF9b79DbC2EA6f6dc39368a8Da1Cf07",
      "0x11431a89893025D2a48dCA4EddC396f8C8117187"
    ],
    []
  ],
  "solcInputHash": "ece702581bd14c1dbfa865c9a25644fd",
  "bytecode": "0x60806040523480156200001157600080fd5b5060405162001d9438038062001d94833981810160405260608110156200003757600080fd5b8151602083018051604051929492938301929190846401000000008211156200005f57600080fd5b9083019060208201858111156200007557600080fd5b82518660208202830111640100000000821117156200009357600080fd5b82525081516020918201928201910280838360005b83811015620000c2578181015183820152602001620000a8565b5050505090500160405260200180516040519392919084640100000000821115620000ec57600080fd5b9083019060208201858111156200010257600080fd5b82518660208202830111640100000000821117156200012057600080fd5b82525081516020918201928201910280838360005b838110156200014f57818101518382015260200162000135565b5050505090500160405250505060006200016e620003e960201b60201c565b600080546001600160a01b0319166001600160a01b0383169081178255604051929350917f8be0079c531659141344cd1fd0a4f28419497f9722a3daafe3b4186f6b6457e0908290a350600580546001600160a01b0385166001600160a01b0319909116811790915560408051918252517f1030152fe2062b574a830e6b9f13c65995990df31e4dc708d142533bb3ad0f529181900360200190a160005b8251811015620002f357620002458382815181106200022757fe5b60200260200101516001620003ed60201b620015871790919060201c565b62000297576040805162461bcd60e51b815260206004820152601460248201527f4f7261636c6520616c7265616479206164646564000000000000000000000000604482015290519081900360640190fd5b7e47706786c922d17b39285dc59d696bafea72c0b003d3841ae1202076f4c2e4838281518110620002c457fe5b602002602001015160405180826001600160a01b0316815260200191505060405180910390a16001016200020c565b5060005b8151811015620003df57620003308282815181106200031257fe5b60200260200101516003620003ed60201b620015871790919060201c565b62000382576040805162461bcd60e51b815260206004820152601760248201527f436f6e6e6563746f7220616c7265616479206164646564000000000000000000604482015290519081900360640190fd5b7fff88af5d962d47fd25d87755e8267a029fad5a91740c67d0dade2bdbe5268a1d828281518110620003b057fe5b602002602001015160405180826001600160a01b0316815260200191505060405180910390a1600101620002f7565b5050505062000474565b3390565b600062000404836001600160a01b0384166200040d565b90505b92915050565b60006200041b83836200045c565b620004535750815460018181018455600084815260208082209093018490558454848252828601909352604090209190915562000407565b50600062000407565b60009081526001919091016020526040902054151590565b61191080620004846000396000f3fe608060405234801561001057600080fd5b50600436106100d45760003560e01c8063aa16d4c011610081578063df5dd1a51161005b578063df5dd1a514610262578063f2fde38b14610295578063fdc85fc4146102c8576100d4565b8063aa16d4c0146101f4578063b77910dc14610227578063d06265181461022f576100d4565b806365050a68116100b257806365050a68146101b3578063715018a6146101bb5780638da5cb5b146101c3576100d4565b80631a6c6a98146100d95780632857373a1461010e578063379b87ea14610166575b600080fd5b61010c600480360360208110156100ef57600080fd5b503573ffffffffffffffffffffffffffffffffffffffff166102fb565b005b610116610465565b60408051602080825283518183015283519192839290830191858101910280838360005b8381101561015257818101518382015260200161013a565b505050509050019250505060405180910390f35b6101a16004803603604081101561017c57600080fd5b5073ffffffffffffffffffffffffffffffffffffffff81358116916020013516610519565b60408051918252519081900360200190f35b610116610c89565b61010c610d39565b6101cb610e50565b6040805173ffffffffffffffffffffffffffffffffffffffff9092168252519081900360200190f35b61010c6004803603602081101561020a57600080fd5b503573ffffffffffffffffffffffffffffffffffffffff16610e6c565b6101cb610fd6565b61010c6004803603602081101561024557600080fd5b503573ffffffffffffffffffffffffffffffffffffffff16610ff2565b61010c6004803603602081101561027857600080fd5b503573ffffffffffffffffffffffffffffffffffffffff16611113565b61010c600480360360208110156102ab57600080fd5b503573ffffffffffffffffffffffffffffffffffffffff1661127c565b61010c600480360360208110156102de57600080fd5b503573ffffffffffffffffffffffffffffffffffffffff1661141d565b6103036115b0565b73ffffffffffffffffffffffffffffffffffffffff16610321610e50565b73ffffffffffffffffffffffffffffffffffffffff16146103a357604080517f08c379a000000000000000000000000000000000000000000000000000000000815260206004820181905260248201527f4f776e61626c653a2063616c6c6572206973206e6f7420746865206f776e6572604482015290519081900360640190fd5b6103ae6003826115b4565b61041957604080517f08c379a000000000000000000000000000000000000000000000000000000000815260206004820152601160248201527f556e6b6e6f776e20636f6e6e6563746f72000000000000000000000000000000604482015290519081900360640190fd5b6040805173ffffffffffffffffffffffffffffffffffffffff8316815290517f6825b26a0827e9c2ceca01d6289ce4a40e629dc074ec48ea4727d1afbff359f59181900360200190a150565b606061047160016115d6565b67ffffffffffffffff8111801561048757600080fd5b506040519080825280602002602001820160405280156104b1578160200160208202803683370190505b50905060005b81518110156105155760018054829081106104ce57fe5b906000526020600020015460001c8282815181106104e857fe5b73ffffffffffffffffffffffffffffffffffffffff909216602092830291909101909101526001016104b7565b5090565b60008173ffffffffffffffffffffffffffffffffffffffff168373ffffffffffffffffffffffffffffffffffffffff1614156105b657604080517f08c379a000000000000000000000000000000000000000000000000000000000815260206004820152601d60248201527f546f6b656e732073686f756c64206e6f74206265207468652073616d65000000604482015290519081900360640190fd5b600554604080517fcb991d9400000000000000000000000000000000000000000000000000000000815273ffffffffffffffffffffffffffffffffffffffff868116600483015291516000938493849391169163cb991d94916024808201928692909190829003018186803b15801561062e57600080fd5b505afa158015610642573d6000803e3d6000fd5b505050506040513d6000823e601f3d9081017fffffffffffffffffffffffffffffffffffffffffffffffffffffffffffffffe0168201604090815281101561068957600080fd5b81019080805160405193929190846401000000008211156106a957600080fd5b9083019060208201858111156106be57600080fd5b82518660208202830111640100000000821117156106db57600080fd5b82525081516020918201928201910280838360005b838110156107085781810151838201526020016106f0565b505050509050016040526020018051604051939291908464010000000082111561073157600080fd5b90830190602082018581111561074657600080fd5b825186602082028301116401000000008211171561076357600080fd5b82525081516020918201928201910280838360005b83811015610790578181015183820152602001610778565b5050505090500160405250505091509150600080600560009054906101000a900473ffffffffffffffffffffffffffffffffffffffff1673ffffffffffffffffffffffffffffffffffffffff1663cb991d94886040518263ffffffff1660e01b8152600401808273ffffffffffffffffffffffffffffffffffffffff16815260200191505060006040518083038186803b15801561082d57600080fd5b505afa158015610841573d6000803e3d6000fd5b505050506040513d6000823e601f3d9081017fffffffffffffffffffffffffffffffffffffffffffffffffffffffffffffffe0168201604090815281101561088857600080fd5b81019080805160405193929190846401000000008211156108a857600080fd5b9083019060208201858111156108bd57600080fd5b82518660208202830111640100000000821117156108da57600080fd5b82525081516020918201928201910280838360005b838110156109075781810151838201526020016108ef565b505050509050016040526020018051604051939291908464010000000082111561093057600080fd5b90830190602082018581111561094557600080fd5b825186602082028301116401000000008211171561096257600080fd5b82525081516020918201928201910280838360005b8381101561098f578181015183820152602001610977565b505050509050016040525050509150915060005b600154811015610c705760005b600354811015610c675760005b8651811015610c5e5760005b8551811015610c55578581815181106109de57fe5b602002602001015173ffffffffffffffffffffffffffffffffffffffff16888381518110610a0857fe5b602002602001015173ffffffffffffffffffffffffffffffffffffffff161415610a8757610a77670de0b6b3a7640000610a71878481518110610a4757fe5b60200260200101518a8681518110610a5b57fe5b60200260200101516115e190919063ffffffff16565b90611654565b9950505050505050505050610c83565b6001805485908110610a9557fe5b906000526020600020015460001c73ffffffffffffffffffffffffffffffffffffffff166314999e79898481518110610aca57fe5b6020026020010151888481518110610ade57fe5b602002602001015160036000016000018781548110610af957fe5b906000526020600020015460001c6040518463ffffffff1660e01b8152600401808473ffffffffffffffffffffffffffffffffffffffff1681526020018373ffffffffffffffffffffffffffffffffffffffff1681526020018273ffffffffffffffffffffffffffffffffffffffff1681526020019350505050604080518083038186803b158015610b8a57600080fd5b505afa925050508015610bb657506040513d6040811015610baa57600080fd5b50805160209091015160015b610bbf57610c4d565b610c1a670de0b6b3a7640000610a71670de0b6b3a7640000610a718b8881518110610be657fe5b6020026020010151610c148f8b81518110610bfd57fe5b6020026020010151896115e190919063ffffffff16565b906115e1565b9150610c2681806115e1565b9050610c3c610c3583836115e1565b8d906116d5565b9b50610c488b826116d5565b9a5050505b6001016109c9565b506001016109bd565b506001016109b0565b506001016109a3565b50610c7b8686611654565b955050505050505b92915050565b6060610c9560036115d6565b67ffffffffffffffff81118015610cab57600080fd5b50604051908082528060200260200182016040528015610cd5578160200160208202803683370190505b50905060005b8151811015610515576003805482908110610cf257fe5b906000526020600020015460001c828281518110610d0c57fe5b73ffffffffffffffffffffffffffffffffffffffff90921660209283029190910190910152600101610cdb565b610d416115b0565b73ffffffffffffffffffffffffffffffffffffffff16610d5f610e50565b73ffffffffffffffffffffffffffffffffffffffff1614610de157604080517f08c379a000000000000000000000000000000000000000000000000000000000815260206004820181905260248201527f4f776e61626c653a2063616c6c6572206973206e6f7420746865206f776e6572604482015290519081900360640190fd5b6000805460405173ffffffffffffffffffffffffffffffffffffffff909116907f8be0079c531659141344cd1fd0a4f28419497f9722a3daafe3b4186f6b6457e0908390a3600080547fffffffffffffffffffffffff0000000000000000000000000000000000000000169055565b60005473ffffffffffffffffffffffffffffffffffffffff1690565b610e746115b0565b73ffffffffffffffffffffffffffffffffffffffff16610e92610e50565b73ffffffffffffffffffffffffffffffffffffffff1614610f1457604080517f08c379a000000000000000000000000000000000000000000000000000000000815260206004820181905260248201527f4f776e61626c653a2063616c6c6572206973206e6f7420746865206f776e6572604482015290519081900360640190fd5b610f1f600382611587565b610f8a57604080517f08c379a000000000000000000000000000000000000000000000000000000000815260206004820152601760248201527f436f6e6e6563746f7220616c7265616479206164646564000000000000000000604482015290519081900360640190fd5b6040805173ffffffffffffffffffffffffffffffffffffffff8316815290517fff88af5d962d47fd25d87755e8267a029fad5a91740c67d0dade2bdbe5268a1d9181900360200190a150565b60055473ffffffffffffffffffffffffffffffffffffffff1681565b610ffa6115b0565b73ffffffffffffffffffffffffffffffffffffffff16611018610e50565b73ffffffffffffffffffffffffffffffffffffffff161461109a57604080517f08c379a000000000000000000000000000000000000000000000000000000000815260206004820181905260248201527f4f776e61626c653a2063616c6c6572206973206e6f7420746865206f776e6572604482015290519081900360640190fd5b6005805473ffffffffffffffffffffffffffffffffffffffff83167fffffffffffffffffffffffff0000000000000000000000000000000000000000909116811790915560408051918252517f1030152fe2062b574a830e6b9f13c65995990df31e4dc708d142533bb3ad0f529181900360200190a150565b61111b6115b0565b73ffffffffffffffffffffffffffffffffffffffff16611139610e50565b73ffffffffffffffffffffffffffffffffffffffff16146111bb57604080517f08c379a000000000000000000000000000000000000000000000000000000000815260206004820181905260248201527f4f776e61626c653a2063616c6c6572206973206e6f7420746865206f776e6572604482015290519081900360640190fd5b6111c6600182611587565b61123157604080517f08c379a000000000000000000000000000000000000000000000000000000000815260206004820152601460248201527f4f7261636c6520616c7265616479206164646564000000000000000000000000604482015290519081900360640190fd5b6040805173ffffffffffffffffffffffffffffffffffffffff8316815290517e47706786c922d17b39285dc59d696bafea72c0b003d3841ae1202076f4c2e49181900360200190a150565b6112846115b0565b73ffffffffffffffffffffffffffffffffffffffff166112a2610e50565b73ffffffffffffffffffffffffffffffffffffffff161461132457604080517f08c379a000000000000000000000000000000000000000000000000000000000815260206004820181905260248201527f4f776e61626c653a2063616c6c6572206973206e6f7420746865206f776e6572604482015290519081900360640190fd5b73ffffffffffffffffffffffffffffffffffffffff8116611390576040517f08c379a00000000000000000000000000000000000000000000000000000000081526004018080602001828103825260268152602001806118946026913960400191505060405180910390fd5b6000805460405173ffffffffffffffffffffffffffffffffffffffff808516939216917f8be0079c531659141344cd1fd0a4f28419497f9722a3daafe3b4186f6b6457e091a3600080547fffffffffffffffffffffffff00000000000000000000000000000000000000001673ffffffffffffffffffffffffffffffffffffffff92909216919091179055565b6114256115b0565b73ffffffffffffffffffffffffffffffffffffffff16611443610e50565b73ffffffffffffffffffffffffffffffffffffffff16146114c557604080517f08c379a000000000000000000000000000000000000000000000000000000000815260206004820181905260248201527f4f776e61626c653a2063616c6c6572206973206e6f7420746865206f776e6572604482015290519081900360640190fd5b6114d06001826115b4565b61153b57604080517f08c379a000000000000000000000000000000000000000000000000000000000815260206004820152600e60248201527f556e6b6e6f776e206f7261636c65000000000000000000000000000000000000604482015290519081900360640190fd5b6040805173ffffffffffffffffffffffffffffffffffffffff8316815290517f9c8e7d83025bef8a04c664b2f753f64b8814bdb7e27291d7e50935f18cc3c7129181900360200190a150565b60006115a98373ffffffffffffffffffffffffffffffffffffffff8416611749565b9392505050565b3390565b60006115a98373ffffffffffffffffffffffffffffffffffffffff8416611793565b6000610c8382611877565b6000826115f057506000610c83565b828202828482816115fd57fe5b04146115a9576040517f08c379a00000000000000000000000000000000000000000000000000000000081526004018080602001828103825260218152602001806118ba6021913960400191505060405180910390fd5b60008082116116c457604080517f08c379a000000000000000000000000000000000000000000000000000000000815260206004820152601a60248201527f536166654d6174683a206469766973696f6e206279207a65726f000000000000604482015290519081900360640190fd5b8183816116cd57fe5b049392505050565b6000828201838110156115a957604080517f08c379a000000000000000000000000000000000000000000000000000000000815260206004820152601b60248201527f536166654d6174683a206164646974696f6e206f766572666c6f770000000000604482015290519081900360640190fd5b6000611755838361187b565b61178b57508154600181810184556000848152602080822090930184905584548482528286019093526040902091909155610c83565b506000610c83565b6000818152600183016020526040812054801561186d5783547fffffffffffffffffffffffffffffffffffffffffffffffffffffffffffffffff80830191908101906000908790839081106117e457fe5b906000526020600020015490508087600001848154811061180157fe5b60009182526020808320909101929092558281526001898101909252604090209084019055865487908061183157fe5b60019003818190600052602060002001600090559055866001016000878152602001908152602001600020600090556001945050505050610c83565b6000915050610c83565b5490565b6000908152600191909101602052604090205415159056fe4f776e61626c653a206e6577206f776e657220697320746865207a65726f2061646472657373536166654d6174683a206d756c7469706c69636174696f6e206f766572666c6f77a26469706673582212208dc9dd011c713aa2b04cb3dfd4a6359becd3a03efa86cd78a8f83a123d3e1df364736f6c63430007060033",
  "devdoc": {
    "kind": "dev",
    "methods": {
      "owner()": {
        "details": "Returns the address of the current owner."
      },
      "renounceOwnership()": {
        "details": "Leaves the contract without owner. It will not be possible to call `onlyOwner` functions anymore. Can only be called by the current owner. NOTE: Renouncing ownership will leave the contract without an owner, thereby removing any functionality that is only available to the owner."
      },
      "transferOwnership(address)": {
        "details": "Transfers ownership of the contract to a new account (`newOwner`). Can only be called by the current owner."
      }
    },
    "version": 1
  },
  "userdoc": {
    "kind": "user",
    "methods": {},
    "version": 1
  },
  "storageLayout": {
    "storage": [
      {
        "astId": 7,
        "contract": "contracts/OffchainOracle.sol:OffchainOracle",
        "label": "_owner",
        "offset": 0,
        "slot": "0",
        "type": "t_address"
      },
      {
        "astId": 1500,
        "contract": "contracts/OffchainOracle.sol:OffchainOracle",
        "label": "_oracles",
        "offset": 0,
        "slot": "1",
        "type": "t_struct(AddressSet)841_storage"
      },
      {
        "astId": 1502,
        "contract": "contracts/OffchainOracle.sol:OffchainOracle",
        "label": "_connectors",
        "offset": 0,
        "slot": "3",
        "type": "t_struct(AddressSet)841_storage"
      },
      {
        "astId": 1504,
        "contract": "contracts/OffchainOracle.sol:OffchainOracle",
        "label": "multiWrapper",
        "offset": 0,
        "slot": "5",
        "type": "t_contract(MultiWrapper)1462"
      }
    ],
    "types": {
      "t_address": {
        "encoding": "inplace",
        "label": "address",
        "numberOfBytes": "20"
      },
      "t_array(t_bytes32)dyn_storage": {
        "base": "t_bytes32",
        "encoding": "dynamic_array",
        "label": "bytes32[]",
        "numberOfBytes": "32"
      },
      "t_bytes32": {
        "encoding": "inplace",
        "label": "bytes32",
        "numberOfBytes": "32"
      },
      "t_contract(MultiWrapper)1462": {
        "encoding": "inplace",
        "label": "contract MultiWrapper",
        "numberOfBytes": "20"
      },
      "t_mapping(t_bytes32,t_uint256)": {
        "encoding": "mapping",
        "key": "t_bytes32",
        "label": "mapping(bytes32 => uint256)",
        "numberOfBytes": "32",
        "value": "t_uint256"
      },
      "t_struct(AddressSet)841_storage": {
        "encoding": "inplace",
        "label": "struct EnumerableSet.AddressSet",
        "members": [
          {
            "astId": 840,
            "contract": "contracts/OffchainOracle.sol:OffchainOracle",
            "label": "_inner",
            "offset": 0,
            "slot": "0",
            "type": "t_struct(Set)576_storage"
          }
        ],
        "numberOfBytes": "64"
      },
      "t_struct(Set)576_storage": {
        "encoding": "inplace",
        "label": "struct EnumerableSet.Set",
        "members": [
          {
            "astId": 571,
            "contract": "contracts/OffchainOracle.sol:OffchainOracle",
            "label": "_values",
            "offset": 0,
            "slot": "0",
            "type": "t_array(t_bytes32)dyn_storage"
          },
          {
            "astId": 575,
            "contract": "contracts/OffchainOracle.sol:OffchainOracle",
            "label": "_indexes",
            "offset": 0,
            "slot": "1",
            "type": "t_mapping(t_bytes32,t_uint256)"
          }
        ],
        "numberOfBytes": "64"
      },
      "t_uint256": {
        "encoding": "inplace",
        "label": "uint256",
        "numberOfBytes": "32"
      }
    }
  }
}