{
  "address": "0x11431a89893025D2a48dCA4EddC396f8C8117187",
  "abi": [
    {
      "inputs": [
        {
          "internalType": "contract IUniswapFactory",
          "name": "factory",
          "type": "address"
        }
      ],
      "stateMutability": "nonpayable",
      "type": "constructor"
    },
    {
      "inputs": [
        {
          "internalType": "contract IERC20",
          "name": "srcToken",
          "type": "address"
        },
        {
          "internalType": "contract IERC20",
          "name": "dstToken",
          "type": "address"
        },
        {
          "internalType": "contract IERC20",
          "name": "connector",
          "type": "address"
        }
      ],
      "name": "getRate",
      "outputs": [
        {
          "internalType": "uint256",
          "name": "rate",
          "type": "uint256"
        },
        {
          "internalType": "uint256",
          "name": "weight",
          "type": "uint256"
        }
      ],
      "stateMutability": "view",
      "type": "function"
    }
  ],
  "transactionHash": "0x3cfd407f7083363611ba06d6e720f6ce22751498f140d07724a73c10fdcba759",
  "args": [
    "0xECc6C0542710a0EF07966D7d1B10fA38bbb86523"
  ],
  "solcInputHash": "ece702581bd14c1dbfa865c9a25644fd",
  "bytecode": "0x60a060405234801561001057600080fd5b506040516107e63803806107e68339818101604052602081101561003357600080fd5b5051606081901b6001600160601b0319166080526001600160a01b031661077a61006c60003980610174528061037e525061077a6000f3fe608060405234801561001057600080fd5b506004361061002b5760003560e01c806314999e7914610030575b600080fd5b6100756004803603606081101561004657600080fd5b5073ffffffffffffffffffffffffffffffffffffffff813581169160208101358216916040909101351661008e565b6040805192835260208301919091528051918290030190f35b600080808073ffffffffffffffffffffffffffffffffffffffff85811614156100c5576100bb8787610152565b909250905061011c565b6000806100d28988610152565b90945091506100e18789610152565b935090508082111561010857610101826100fb86846105d4565b90610650565b9350610119565b610116816100fb85856105d4565b92505b50505b610132826100fb83670de0b6b3a76400006105d4565b935061014661014183836105d4565b6106d1565b92505050935093915050565b60008073ffffffffffffffffffffffffffffffffffffffff841661035f5760007f000000000000000000000000000000000000000000000000000000000000000073ffffffffffffffffffffffffffffffffffffffff166306f2bf62856040518263ffffffff1660e01b8152600401808273ffffffffffffffffffffffffffffffffffffffff16815260200191505060206040518083038186803b1580156101f957600080fd5b505afa15801561020d573d6000803e3d6000fd5b505050506040513d602081101561022357600080fd5b5051905073ffffffffffffffffffffffffffffffffffffffff81166102a957604080517f08c379a000000000000000000000000000000000000000000000000000000000815260206004820152601360248201527f506f6f6c20646f6573206e6f7420657869737400000000000000000000000000604482015290519081900360640190fd5b8073ffffffffffffffffffffffffffffffffffffffff163192508373ffffffffffffffffffffffffffffffffffffffff166370a08231826040518263ffffffff1660e01b8152600401808273ffffffffffffffffffffffffffffffffffffffff16815260200191505060206040518083038186803b15801561032a57600080fd5b505afa15801561033e573d6000803e3d6000fd5b505050506040513d602081101561035457600080fd5b505191506105cd9050565b73ffffffffffffffffffffffffffffffffffffffff83166105665760007f000000000000000000000000000000000000000000000000000000000000000073ffffffffffffffffffffffffffffffffffffffff166306f2bf62866040518263ffffffff1660e01b8152600401808273ffffffffffffffffffffffffffffffffffffffff16815260200191505060206040518083038186803b15801561040357600080fd5b505afa158015610417573d6000803e3d6000fd5b505050506040513d602081101561042d57600080fd5b5051905073ffffffffffffffffffffffffffffffffffffffff81166104b357604080517f08c379a000000000000000000000000000000000000000000000000000000000815260206004820152601360248201527f506f6f6c20646f6573206e6f7420657869737400000000000000000000000000604482015290519081900360640190fd5b8473ffffffffffffffffffffffffffffffffffffffff166370a08231826040518263ffffffff1660e01b8152600401808273ffffffffffffffffffffffffffffffffffffffff16815260200191505060206040518083038186803b15801561051a57600080fd5b505afa15801561052e573d6000803e3d6000fd5b505050506040513d602081101561054457600080fd5b5051925073ffffffffffffffffffffffffffffffffffffffff163190506105cd565b604080517f08c379a000000000000000000000000000000000000000000000000000000000815260206004820152601260248201527f556e737570706f7274656420746f6b656e730000000000000000000000000000604482015290519081900360640190fd5b9250929050565b6000826105e35750600061064a565b828202828482816105f057fe5b0414610647576040517f08c379a00000000000000000000000000000000000000000000000000000000081526004018080602001828103825260218152602001806107246021913960400191505060405180910390fd5b90505b92915050565b60008082116106c057604080517f08c379a000000000000000000000000000000000000000000000000000000000815260206004820152601a60248201527f536166654d6174683a206469766973696f6e206279207a65726f000000000000604482015290519081900360640190fd5b8183816106c957fe5b049392505050565b60006003821115610714575080600160028204015b8181101561070e578091506002818285816106fd57fe5b04018161070657fe5b0490506106e6565b5061071e565b811561071e575060015b91905056fe536166654d6174683a206d756c7469706c69636174696f6e206f766572666c6f77a2646970667358221220d8cb304c2568f92002193a9ceebd8371cb82c909295c99c62d4b3672394c76c664736f6c63430007060033",
  "devdoc": {
    "kind": "dev",
    "methods": {},
    "version": 1
  },
  "userdoc": {
    "kind": "user",
    "methods": {},
    "version": 1
  },
  "storageLayout": {
    "storage": [],
    "types": null
  }
}